{
  "contractName": "PloutoRewards",
  "abi": [
    {
      "inputs": [
        {
          "internalType": "address",
          "name": "_lp",
          "type": "address"
        },
        {
          "internalType": "address",
          "name": "_plu",
          "type": "address"
        }
      ],
      "payable": false,
      "stateMutability": "nonpayable",
      "type": "constructor"
    },
    {
      "anonymous": false,
      "inputs": [
        {
          "indexed": true,
          "internalType": "address",
          "name": "previousOwner",
          "type": "address"
        },
        {
          "indexed": true,
          "internalType": "address",
          "name": "newOwner",
          "type": "address"
        }
      ],
      "name": "OwnershipTransferred",
      "type": "event"
    },
    {
      "anonymous": false,
      "inputs": [
        {
          "indexed": false,
          "internalType": "uint256",
          "name": "reward",
          "type": "uint256"
        }
      ],
      "name": "RewardAdded",
      "type": "event"
    },
    {
      "anonymous": false,
      "inputs": [
        {
          "indexed": true,
          "internalType": "address",
          "name": "user",
          "type": "address"
        },
        {
          "indexed": false,
          "internalType": "uint256",
          "name": "reward",
          "type": "uint256"
        }
      ],
      "name": "RewardPaid",
      "type": "event"
    },
    {
      "anonymous": false,
      "inputs": [
        {
          "indexed": true,
          "internalType": "address",
          "name": "user",
          "type": "address"
        },
        {
          "indexed": false,
          "internalType": "uint256",
          "name": "amount",
          "type": "uint256"
        }
      ],
      "name": "Staked",
      "type": "event"
    },
    {
      "anonymous": false,
      "inputs": [
        {
          "indexed": true,
          "internalType": "address",
          "name": "user",
          "type": "address"
        },
        {
          "indexed": false,
          "internalType": "uint256",
          "name": "amount",
          "type": "uint256"
        }
      ],
      "name": "Withdrawn",
      "type": "event"
    },
    {
      "constant": true,
      "inputs": [],
      "name": "DURATION",
      "outputs": [
        {
          "internalType": "uint256",
          "name": "",
          "type": "uint256"
        }
      ],
      "payable": false,
      "stateMutability": "view",
      "type": "function"
    },
    {
      "constant": true,
      "inputs": [
        {
          "internalType": "address",
          "name": "account",
          "type": "address"
        }
      ],
      "name": "balanceOf",
      "outputs": [
        {
          "internalType": "uint256",
          "name": "",
          "type": "uint256"
        }
      ],
      "payable": false,
      "stateMutability": "view",
      "type": "function"
    },
    {
      "constant": true,
      "inputs": [],
      "name": "isOwner",
      "outputs": [
        {
          "internalType": "bool",
          "name": "",
          "type": "bool"
        }
      ],
      "payable": false,
      "stateMutability": "view",
      "type": "function"
    },
    {
      "constant": true,
      "inputs": [],
      "name": "lastUpdateTime",
      "outputs": [
        {
          "internalType": "uint256",
          "name": "",
          "type": "uint256"
        }
      ],
      "payable": false,
      "stateMutability": "view",
      "type": "function"
    },
    {
      "constant": true,
      "inputs": [],
      "name": "lp",
      "outputs": [
        {
          "internalType": "contract IERC20",
          "name": "",
          "type": "address"
        }
      ],
      "payable": false,
      "stateMutability": "view",
      "type": "function"
    },
    {
      "constant": true,
      "inputs": [],
      "name": "owner",
      "outputs": [
        {
          "internalType": "address",
          "name": "",
          "type": "address"
        }
      ],
      "payable": false,
      "stateMutability": "view",
      "type": "function"
    },
    {
      "constant": true,
      "inputs": [],
      "name": "periodFinish",
      "outputs": [
        {
          "internalType": "uint256",
          "name": "",
          "type": "uint256"
        }
      ],
      "payable": false,
      "stateMutability": "view",
      "type": "function"
    },
    {
      "constant": true,
      "inputs": [],
      "name": "plu",
      "outputs": [
        {
          "internalType": "contract IERC20",
          "name": "",
          "type": "address"
        }
      ],
      "payable": false,
      "stateMutability": "view",
      "type": "function"
    },
    {
      "constant": false,
      "inputs": [],
      "name": "renounceOwnership",
      "outputs": [],
      "payable": false,
      "stateMutability": "nonpayable",
      "type": "function"
    },
    {
      "constant": true,
      "inputs": [],
      "name": "rewardPerTokenStored",
      "outputs": [
        {
          "internalType": "uint256",
          "name": "",
          "type": "uint256"
        }
      ],
      "payable": false,
      "stateMutability": "view",
      "type": "function"
    },
    {
      "constant": true,
      "inputs": [],
      "name": "rewardRate",
      "outputs": [
        {
          "internalType": "uint256",
          "name": "",
          "type": "uint256"
        }
      ],
      "payable": false,
      "stateMutability": "view",
      "type": "function"
    },
    {
      "constant": true,
      "inputs": [
        {
          "internalType": "address",
          "name": "",
          "type": "address"
        }
      ],
      "name": "rewards",
      "outputs": [
        {
          "internalType": "uint256",
          "name": "",
          "type": "uint256"
        }
      ],
      "payable": false,
      "stateMutability": "view",
      "type": "function"
    },
    {
      "constant": false,
      "inputs": [
        {
          "internalType": "address",
          "name": "_rewardDistribution",
          "type": "address"
        }
      ],
      "name": "setRewardDistribution",
      "outputs": [],
      "payable": false,
      "stateMutability": "nonpayable",
      "type": "function"
    },
    {
      "constant": true,
      "inputs": [],
      "name": "totalSupply",
      "outputs": [
        {
          "internalType": "uint256",
          "name": "",
          "type": "uint256"
        }
      ],
      "payable": false,
      "stateMutability": "view",
      "type": "function"
    },
    {
      "constant": false,
      "inputs": [
        {
          "internalType": "address",
          "name": "newOwner",
          "type": "address"
        }
      ],
      "name": "transferOwnership",
      "outputs": [],
      "payable": false,
      "stateMutability": "nonpayable",
      "type": "function"
    },
    {
      "constant": true,
      "inputs": [
        {
          "internalType": "address",
          "name": "",
          "type": "address"
        }
      ],
      "name": "userRewardPerTokenPaid",
      "outputs": [
        {
          "internalType": "uint256",
          "name": "",
          "type": "uint256"
        }
      ],
      "payable": false,
      "stateMutability": "view",
      "type": "function"
    },
    {
      "constant": true,
      "inputs": [],
      "name": "lastTimeRewardApplicable",
      "outputs": [
        {
          "internalType": "uint256",
          "name": "",
          "type": "uint256"
        }
      ],
      "payable": false,
      "stateMutability": "view",
      "type": "function"
    },
    {
      "constant": true,
      "inputs": [],
      "name": "rewardPerToken",
      "outputs": [
        {
          "internalType": "uint256",
          "name": "",
          "type": "uint256"
        }
      ],
      "payable": false,
      "stateMutability": "view",
      "type": "function"
    },
    {
      "constant": true,
      "inputs": [
        {
          "internalType": "address",
          "name": "account",
          "type": "address"
        }
      ],
      "name": "earned",
      "outputs": [
        {
          "internalType": "uint256",
          "name": "",
          "type": "uint256"
        }
      ],
      "payable": false,
      "stateMutability": "view",
      "type": "function"
    },
    {
      "constant": false,
      "inputs": [
        {
          "internalType": "uint256",
          "name": "amount",
          "type": "uint256"
        }
      ],
      "name": "stake",
      "outputs": [],
      "payable": false,
      "stateMutability": "nonpayable",
      "type": "function"
    },
    {
      "constant": false,
      "inputs": [
        {
          "internalType": "uint256",
          "name": "amount",
          "type": "uint256"
        }
      ],
      "name": "withdraw",
      "outputs": [],
      "payable": false,
      "stateMutability": "nonpayable",
      "type": "function"
    },
    {
      "constant": false,
      "inputs": [],
      "name": "exit",
      "outputs": [],
      "payable": false,
      "stateMutability": "nonpayable",
      "type": "function"
    },
    {
      "constant": false,
      "inputs": [],
      "name": "getReward",
      "outputs": [],
      "payable": false,
      "stateMutability": "nonpayable",
      "type": "function"
    },
    {
      "constant": false,
      "inputs": [
        {
          "internalType": "uint256",
          "name": "reward",
          "type": "uint256"
        }
      ],
      "name": "notifyRewardAmount",
      "outputs": [],
      "payable": false,
      "stateMutability": "nonpayable",
      "type": "function"
    }
  ],
  "bytecode": "0x60806040526000600655600060075534801561001a57600080fd5b506040516120af3803806120af8339818101604052604081101561003d57600080fd5b81019080805190602001909291908051906020019092919050505081806000806101000a81548173ffffffffffffffffffffffffffffffffffffffff021916908373ffffffffffffffffffffffffffffffffffffffff1602179055505060006100aa61019160201b60201c565b905080600360006101000a81548173ffffffffffffffffffffffffffffffffffffffff021916908373ffffffffffffffffffffffffffffffffffffffff1602179055508073ffffffffffffffffffffffffffffffffffffffff16600073ffffffffffffffffffffffffffffffffffffffff167f8be0079c531659141344cd1fd0a4f28419497f9722a3daafe3b4186f6b6457e060405160405180910390a35080600560006101000a81548173ffffffffffffffffffffffffffffffffffffffff021916908373ffffffffffffffffffffffffffffffffffffffff1602179055505050610199565b600033905090565b611f07806101a86000396000f3fe608060405234801561001057600080fd5b50600436106101575760003560e01c80637b0a47ee116100c3578063c8f33c911161007c578063c8f33c9114610516578063cd3daf9d14610534578063df136d6514610552578063e9fad8ee14610570578063ebe2b12b1461057a578063f2fde38b1461059857610157565b80637b0a47ee146103e857806380faa57d146104065780638b876347146104245780638da5cb5b1461047c5780638f32d59b146104c6578063a694fc3a146104e857610157565b8063313c06a011610115578063313c06a0146102ba5780633c6b16ab146103045780633d18b912146103325780635c0b87fd1461033c57806370a0823114610386578063715018a6146103de57610157565b80628cc2621461015c5780630700037d146101b45780630d68b7611461020c57806318160ddd146102505780631be052891461026e5780632e1a7d4d1461028c575b600080fd5b61019e6004803603602081101561017257600080fd5b81019080803573ffffffffffffffffffffffffffffffffffffffff1690602001909291905050506105dc565b6040518082815260200191505060405180910390f35b6101f6600480360360208110156101ca57600080fd5b81019080803573ffffffffffffffffffffffffffffffffffffffff1690602001909291905050506106c3565b6040518082815260200191505060405180910390f35b61024e6004803603602081101561022257600080fd5b81019080803573ffffffffffffffffffffffffffffffffffffffff1690602001909291905050506106db565b005b610258610799565b6040518082815260200191505060405180910390f35b6102766107a3565b6040518082815260200191505060405180910390f35b6102b8600480360360208110156102a257600080fd5b81019080803590602001909291905050506107aa565b005b6102c261095f565b604051808273ffffffffffffffffffffffffffffffffffffffff1673ffffffffffffffffffffffffffffffffffffffff16815260200191505060405180910390f35b6103306004803603602081101561031a57600080fd5b8101908080359060200190929190505050610984565b005b61033a610c01565b005b610344610de0565b604051808273ffffffffffffffffffffffffffffffffffffffff1673ffffffffffffffffffffffffffffffffffffffff16815260200191505060405180910390f35b6103c86004803603602081101561039c57600080fd5b81019080803573ffffffffffffffffffffffffffffffffffffffff169060200190929190505050610e06565b6040518082815260200191505060405180910390f35b6103e6610e4f565b005b6103f0610f8a565b6040518082815260200191505060405180910390f35b61040e610f90565b6040518082815260200191505060405180910390f35b6104666004803603602081101561043a57600080fd5b81019080803573ffffffffffffffffffffffffffffffffffffffff169060200190929190505050610fa3565b6040518082815260200191505060405180910390f35b610484610fbb565b604051808273ffffffffffffffffffffffffffffffffffffffff1673ffffffffffffffffffffffffffffffffffffffff16815260200191505060405180910390f35b6104ce610fe5565b604051808215151515815260200191505060405180910390f35b610514600480360360208110156104fe57600080fd5b8101908080359060200190929190505050611044565b005b61051e6111f9565b6040518082815260200191505060405180910390f35b61053c6111ff565b6040518082815260200191505060405180910390f35b61055a611297565b6040518082815260200191505060405180910390f35b61057861129d565b005b6105826112b8565b6040518082815260200191505060405180910390f35b6105da600480360360208110156105ae57600080fd5b81019080803573ffffffffffffffffffffffffffffffffffffffff1690602001909291905050506112be565b005b60006106bc600b60008473ffffffffffffffffffffffffffffffffffffffff1673ffffffffffffffffffffffffffffffffffffffff168152602001908152602001600020546106ae670de0b6b3a76400006106a0610689600a60008973ffffffffffffffffffffffffffffffffffffffff1673ffffffffffffffffffffffffffffffffffffffff1681526020019081526020016000205461067b6111ff565b61134490919063ffffffff16565b61069288610e06565b61138e90919063ffffffff16565b61141490919063ffffffff16565b61145e90919063ffffffff16565b9050919050565b600b6020528060005260406000206000915090505481565b6106e3610fe5565b610755576040517f08c379a00000000000000000000000000000000000000000000000000000000081526004018080602001828103825260208152602001807f4f776e61626c653a2063616c6c6572206973206e6f7420746865206f776e657281525060200191505060405180910390fd5b80600460006101000a81548173ffffffffffffffffffffffffffffffffffffffff021916908373ffffffffffffffffffffffffffffffffffffffff16021790555050565b6000600154905090565b624f1a0081565b336107b36111ff565b6009819055506107c1610f90565b600881905550600073ffffffffffffffffffffffffffffffffffffffff168173ffffffffffffffffffffffffffffffffffffffff161461088e57610804816105dc565b600b60008373ffffffffffffffffffffffffffffffffffffffff1673ffffffffffffffffffffffffffffffffffffffff16815260200190815260200160002081905550600954600a60008373ffffffffffffffffffffffffffffffffffffffff1673ffffffffffffffffffffffffffffffffffffffff168152602001908152602001600020819055505b60008211610904576040517f08c379a00000000000000000000000000000000000000000000000000000000081526004018080602001828103825260118152602001807f43616e6e6f74207769746864726177203000000000000000000000000000000081525060200191505060405180910390fd5b61090d826114e6565b3373ffffffffffffffffffffffffffffffffffffffff167f7084f5476618d8e60b11ef0d7d3f06914655adb8793e28ff7f018d4c76d505d5836040518082815260200191505060405180910390a25050565b6000809054906101000a900473ffffffffffffffffffffffffffffffffffffffff1681565b600460009054906101000a900473ffffffffffffffffffffffffffffffffffffffff1673ffffffffffffffffffffffffffffffffffffffff166109c56115e5565b73ffffffffffffffffffffffffffffffffffffffff1614610a31576040517f08c379a0000000000000000000000000000000000000000000000000000000008152600401808060200182810382526021815260200180611e886021913960400191505060405180910390fd5b6000610a3b6111ff565b600981905550610a49610f90565b600881905550600073ffffffffffffffffffffffffffffffffffffffff168173ffffffffffffffffffffffffffffffffffffffff1614610b1657610a8c816105dc565b600b60008373ffffffffffffffffffffffffffffffffffffffff1673ffffffffffffffffffffffffffffffffffffffff16815260200190815260200160002081905550600954600a60008373ffffffffffffffffffffffffffffffffffffffff1673ffffffffffffffffffffffffffffffffffffffff168152602001908152602001600020819055505b6006544210610b4057610b35624f1a008361141490919063ffffffff16565b600781905550610ba3565b6000610b574260065461134490919063ffffffff16565b90506000610b706007548361138e90919063ffffffff16565b9050610b9a624f1a00610b8c838761145e90919063ffffffff16565b61141490919063ffffffff16565b60078190555050505b42600881905550610bc0624f1a004261145e90919063ffffffff16565b6006819055507fde88a922e0d3b88b24e9623efeb464919c6bf9f66857a65e2bfcf2ce87a9433d826040518082815260200191505060405180910390a15050565b33610c0a6111ff565b600981905550610c18610f90565b600881905550600073ffffffffffffffffffffffffffffffffffffffff168173ffffffffffffffffffffffffffffffffffffffff1614610ce557610c5b816105dc565b600b60008373ffffffffffffffffffffffffffffffffffffffff1673ffffffffffffffffffffffffffffffffffffffff16815260200190815260200160002081905550600954600a60008373ffffffffffffffffffffffffffffffffffffffff1673ffffffffffffffffffffffffffffffffffffffff168152602001908152602001600020819055505b6000610cf0336105dc565b90506000811115610ddc576000600b60003373ffffffffffffffffffffffffffffffffffffffff1673ffffffffffffffffffffffffffffffffffffffff16815260200190815260200160002081905550610d8d3382600560009054906101000a900473ffffffffffffffffffffffffffffffffffffffff1673ffffffffffffffffffffffffffffffffffffffff166115ed9092919063ffffffff16565b3373ffffffffffffffffffffffffffffffffffffffff167fe2403640ba68fed3a2f88b7557551d1993f84b99bb10ff833f0cf8db0c5e0486826040518082815260200191505060405180910390a25b5050565b600560009054906101000a900473ffffffffffffffffffffffffffffffffffffffff1681565b6000600260008373ffffffffffffffffffffffffffffffffffffffff1673ffffffffffffffffffffffffffffffffffffffff168152602001908152602001600020549050919050565b610e57610fe5565b610ec9576040517f08c379a00000000000000000000000000000000000000000000000000000000081526004018080602001828103825260208152602001807f4f776e61626c653a2063616c6c6572206973206e6f7420746865206f776e657281525060200191505060405180910390fd5b600073ffffffffffffffffffffffffffffffffffffffff16600360009054906101000a900473ffffffffffffffffffffffffffffffffffffffff1673ffffffffffffffffffffffffffffffffffffffff167f8be0079c531659141344cd1fd0a4f28419497f9722a3daafe3b4186f6b6457e060405160405180910390a36000600360006101000a81548173ffffffffffffffffffffffffffffffffffffffff021916908373ffffffffffffffffffffffffffffffffffffffff160217905550565b60075481565b6000610f9e426006546116be565b905090565b600a6020528060005260406000206000915090505481565b6000600360009054906101000a900473ffffffffffffffffffffffffffffffffffffffff16905090565b6000600360009054906101000a900473ffffffffffffffffffffffffffffffffffffffff1673ffffffffffffffffffffffffffffffffffffffff166110286115e5565b73ffffffffffffffffffffffffffffffffffffffff1614905090565b3361104d6111ff565b60098190555061105b610f90565b600881905550600073ffffffffffffffffffffffffffffffffffffffff168173ffffffffffffffffffffffffffffffffffffffff16146111285761109e816105dc565b600b60008373ffffffffffffffffffffffffffffffffffffffff1673ffffffffffffffffffffffffffffffffffffffff16815260200190815260200160002081905550600954600a60008373ffffffffffffffffffffffffffffffffffffffff1673ffffffffffffffffffffffffffffffffffffffff168152602001908152602001600020819055505b6000821161119e576040517f08c379a000000000000000000000000000000000000000000000000000000000815260040180806020018281038252600e8152602001807f43616e6e6f74207374616b65203000000000000000000000000000000000000081525060200191505060405180910390fd5b6111a7826116d7565b3373ffffffffffffffffffffffffffffffffffffffff167f9e71bc8eea02a63969f509818f2dafb9254532904319f9dbda79b67bd34a5f3d836040518082815260200191505060405180910390a25050565b60085481565b60008061120a610799565b141561121a576009549050611294565b611291611280611228610799565b611272670de0b6b3a7640000611264600754611256600854611248610f90565b61134490919063ffffffff16565b61138e90919063ffffffff16565b61138e90919063ffffffff16565b61141490919063ffffffff16565b60095461145e90919063ffffffff16565b90505b90565b60095481565b6112ae6112a933610e06565b6107aa565b6112b6610c01565b565b60065481565b6112c6610fe5565b611338576040517f08c379a00000000000000000000000000000000000000000000000000000000081526004018080602001828103825260208152602001807f4f776e61626c653a2063616c6c6572206973206e6f7420746865206f776e657281525060200191505060405180910390fd5b611341816117d8565b50565b600061138683836040518060400160405280601e81526020017f536166654d6174683a207375627472616374696f6e206f766572666c6f77000081525061191e565b905092915050565b6000808314156113a1576000905061140e565b60008284029050828482816113b257fe5b0414611409576040517f08c379a0000000000000000000000000000000000000000000000000000000008152600401808060200182810382526021815260200180611e676021913960400191505060405180910390fd5b809150505b92915050565b600061145683836040518060400160405280601a81526020017f536166654d6174683a206469766973696f6e206279207a65726f0000000000008152506119de565b905092915050565b6000808284019050838110156114dc576040517f08c379a000000000000000000000000000000000000000000000000000000000815260040180806020018281038252601b8152602001807f536166654d6174683a206164646974696f6e206f766572666c6f77000000000081525060200191505060405180910390fd5b8091505092915050565b6114fb8160015461134490919063ffffffff16565b60018190555061155381600260003373ffffffffffffffffffffffffffffffffffffffff1673ffffffffffffffffffffffffffffffffffffffff1681526020019081526020016000205461134490919063ffffffff16565b600260003373ffffffffffffffffffffffffffffffffffffffff1673ffffffffffffffffffffffffffffffffffffffff168152602001908152602001600020819055506115e233826000809054906101000a900473ffffffffffffffffffffffffffffffffffffffff1673ffffffffffffffffffffffffffffffffffffffff166115ed9092919063ffffffff16565b50565b600033905090565b6116b9838473ffffffffffffffffffffffffffffffffffffffff1663a9059cbb905060e01b8484604051602401808373ffffffffffffffffffffffffffffffffffffffff1673ffffffffffffffffffffffffffffffffffffffff16815260200182815260200192505050604051602081830303815290604052907bffffffffffffffffffffffffffffffffffffffffffffffffffffffff19166020820180517bffffffffffffffffffffffffffffffffffffffffffffffffffffffff8381831617835250505050611aa4565b505050565b60008183106116cd57816116cf565b825b905092915050565b6116ec8160015461145e90919063ffffffff16565b60018190555061174481600260003373ffffffffffffffffffffffffffffffffffffffff1673ffffffffffffffffffffffffffffffffffffffff1681526020019081526020016000205461145e90919063ffffffff16565b600260003373ffffffffffffffffffffffffffffffffffffffff1673ffffffffffffffffffffffffffffffffffffffff168152602001908152602001600020819055506117d53330836000809054906101000a900473ffffffffffffffffffffffffffffffffffffffff1673ffffffffffffffffffffffffffffffffffffffff16611cef909392919063ffffffff16565b50565b600073ffffffffffffffffffffffffffffffffffffffff168173ffffffffffffffffffffffffffffffffffffffff16141561185e576040517f08c379a0000000000000000000000000000000000000000000000000000000008152600401808060200182810382526026815260200180611e416026913960400191505060405180910390fd5b8073ffffffffffffffffffffffffffffffffffffffff16600360009054906101000a900473ffffffffffffffffffffffffffffffffffffffff1673ffffffffffffffffffffffffffffffffffffffff167f8be0079c531659141344cd1fd0a4f28419497f9722a3daafe3b4186f6b6457e060405160405180910390a380600360006101000a81548173ffffffffffffffffffffffffffffffffffffffff021916908373ffffffffffffffffffffffffffffffffffffffff16021790555050565b60008383111582906119cb576040517f08c379a00000000000000000000000000000000000000000000000000000000081526004018080602001828103825283818151815260200191508051906020019080838360005b83811015611990578082015181840152602081019050611975565b50505050905090810190601f1680156119bd5780820380516001836020036101000a031916815260200191505b509250505060405180910390fd5b5060008385039050809150509392505050565b60008083118290611a8a576040517f08c379a00000000000000000000000000000000000000000000000000000000081526004018080602001828103825283818151815260200191508051906020019080838360005b83811015611a4f578082015181840152602081019050611a34565b50505050905090810190601f168015611a7c5780820380516001836020036101000a031916815260200191505b509250505060405180910390fd5b506000838581611a9657fe5b049050809150509392505050565b611ac38273ffffffffffffffffffffffffffffffffffffffff16611df5565b611b35576040517f08c379a000000000000000000000000000000000000000000000000000000000815260040180806020018281038252601f8152602001807f5361666545524332303a2063616c6c20746f206e6f6e2d636f6e74726163740081525060200191505060405180910390fd5b600060608373ffffffffffffffffffffffffffffffffffffffff16836040518082805190602001908083835b60208310611b845780518252602082019150602081019050602083039250611b61565b6001836020036101000a0380198251168184511680821785525050505050509050019150506000604051808303816000865af19150503d8060008114611be6576040519150601f19603f3d011682016040523d82523d6000602084013e611beb565b606091505b509150915081611c63576040517f08c379a00000000000000000000000000000000000000000000000000000000081526004018080602001828103825260208152602001807f5361666545524332303a206c6f772d6c6576656c2063616c6c206661696c656481525060200191505060405180910390fd5b600081511115611ce957808060200190516020811015611c8257600080fd5b8101908080519060200190929190505050611ce8576040517f08c379a000000000000000000000000000000000000000000000000000000000815260040180806020018281038252602a815260200180611ea9602a913960400191505060405180910390fd5b5b50505050565b611def848573ffffffffffffffffffffffffffffffffffffffff166323b872dd905060e01b858585604051602401808473ffffffffffffffffffffffffffffffffffffffff1673ffffffffffffffffffffffffffffffffffffffff1681526020018373ffffffffffffffffffffffffffffffffffffffff1673ffffffffffffffffffffffffffffffffffffffff1681526020018281526020019350505050604051602081830303815290604052907bffffffffffffffffffffffffffffffffffffffffffffffffffffffff19166020820180517bffffffffffffffffffffffffffffffffffffffffffffffffffffffff8381831617835250505050611aa4565b50505050565b60008060007fc5d2460186f7233c927e7db2dcc703c0e500b653ca82273b7bfad8045d85a47060001b9050833f9150808214158015611e3757506000801b8214155b9250505091905056fe4f776e61626c653a206e6577206f776e657220697320746865207a65726f2061646472657373536166654d6174683a206d756c7469706c69636174696f6e206f766572666c6f7743616c6c6572206973206e6f742072657761726420646973747269627574696f6e5361666545524332303a204552433230206f7065726174696f6e20646964206e6f742073756363656564a265627a7a7231582007779a1feb3401bc82df5f4706d2b7c315235c53889d7cd71de56d6519bc8a7664736f6c63430005100032",
  "source": "// SPDX-License-Identifier: MIT\npragma solidity >=0.5.0;\n\nimport \"@openzeppelin/contracts/math/Math.sol\";\nimport \"./IRewardDistributionRecipient.sol\";\nimport \"./LPTokenWrapper.sol\";\n\ncontract PloutoRewards is LPTokenWrapper, IRewardDistributionRecipient {\n  IERC20 public plu;\n  uint256 public constant DURATION = 60 days;\n\n  uint256 public periodFinish = 0;\n  uint256 public rewardRate = 0;\n  uint256 public lastUpdateTime;\n  uint256 public rewardPerTokenStored;\n  mapping(address => uint256) public userRewardPerTokenPaid;\n  mapping(address => uint256) public rewards;\n\n  event RewardAdded(uint256 reward);\n  event Staked(address indexed user, uint256 amount);\n  event Withdrawn(address indexed user, uint256 amount);\n  event RewardPaid(address indexed user, uint256 reward);\n\n  modifier updateReward(address account) {\n    rewardPerTokenStored = rewardPerToken();\n    lastUpdateTime = lastTimeRewardApplicable();\n    if (account != address(0)) {\n      rewards[account] = earned(account);\n      userRewardPerTokenPaid[account] = rewardPerTokenStored;\n    }\n    _;\n  }\n\n  constructor (address _lp, address _plu) public LPTokenWrapper(_lp) {\n    plu = IERC20(_plu);\n  }\n\n  function lastTimeRewardApplicable() public view returns (uint256) {\n    return Math.min(block.timestamp, periodFinish);\n  }\n\n  function rewardPerToken() public view returns (uint256) {\n    if (totalSupply() == 0) {\n      return rewardPerTokenStored;\n    }\n    return rewardPerTokenStored.add(\n        lastTimeRewardApplicable()\n          .sub(lastUpdateTime)\n          .mul(rewardRate)\n          .mul(1e18)\n          .div(totalSupply())\n    );\n  }\n\n  function earned(address account) public view returns (uint256) {\n    return balanceOf(account)\n      .mul(rewardPerToken().sub(userRewardPerTokenPaid[account]))\n      .div(1e18)\n      .add(rewards[account]);\n  }\n\n  // stake visibility is public as overriding LPTokenWrapper's stake() function\n  function stake(uint256 amount) public updateReward(msg.sender) {\n    require(amount > 0, \"Cannot stake 0\");\n    super.stake(amount);\n    emit Staked(msg.sender, amount);\n  }\n\n  function withdraw(uint256 amount) public updateReward(msg.sender) {\n    require(amount > 0, \"Cannot withdraw 0\");\n    super.withdraw(amount);\n    emit Withdrawn(msg.sender, amount);\n  }\n\n  function exit() external {\n    withdraw(balanceOf(msg.sender));\n    getReward();\n  }\n\n  function getReward() public updateReward(msg.sender) {\n    uint256 reward = earned(msg.sender);\n    if (reward > 0) {\n      rewards[msg.sender] = 0;\n      plu.safeTransfer(msg.sender, reward);\n      emit RewardPaid(msg.sender, reward);\n    }\n  }\n\n  function notifyRewardAmount(uint256 reward)\n      external\n      onlyRewardDistribution\n      updateReward(address(0)) {\n    if (block.timestamp >= periodFinish) {\n      rewardRate = reward.div(DURATION);\n    } else {\n      uint256 remaining = periodFinish.sub(block.timestamp);\n      uint256 leftover = remaining.mul(rewardRate);\n      rewardRate = reward.add(leftover).div(DURATION);\n    }\n    lastUpdateTime = block.timestamp;\n    periodFinish = block.timestamp.add(DURATION);\n    emit RewardAdded(reward);\n  }\n}\n",
  "sourcePath": "/Users/beex/dev/plouto-protocol/contracts/PloutoRewards.sol",
  "compiler": {
    "name": "solc",
    "version": "0.5.16+commit.9c3226ce.Emscripten.clang"
  },
  "schemaVersion": "3.2.4",
  "updatedAt": "2020-09-08T07:43:29.250Z",
  "networkType": "ethereum",
  "devdoc": {
    "methods": {
      "isOwner()": {
        "details": "Returns true if the caller is the current owner."
      },
      "owner()": {
        "details": "Returns the address of the current owner."
      },
      "renounceOwnership()": {
        "details": "Leaves the contract without owner. It will not be possible to call `onlyOwner` functions anymore. Can only be called by the current owner.     * NOTE: Renouncing ownership will leave the contract without an owner, thereby removing any functionality that is only available to the owner."
      },
      "transferOwnership(address)": {
        "details": "Transfers ownership of the contract to a new account (`newOwner`). Can only be called by the current owner."
      }
    }
  },
  "userdoc": {
    "methods": {}
  }
}