{
  "contractName": "PulotoGovernance",
  "abi": [
    {
      "inputs": [
        {
          "internalType": "address",
          "name": "_bptlp",
          "type": "address"
        },
        {
          "internalType": "address",
          "name": "_plu",
          "type": "address"
        }
      ],
      "payable": false,
      "stateMutability": "nonpayable",
      "type": "constructor"
    },
    {
      "anonymous": false,
      "inputs": [
        {
          "indexed": false,
          "internalType": "uint256",
          "name": "id",
          "type": "uint256"
        },
        {
          "indexed": false,
          "internalType": "address",
          "name": "creator",
          "type": "address"
        },
        {
          "indexed": false,
          "internalType": "uint256",
          "name": "start",
          "type": "uint256"
        },
        {
          "indexed": false,
          "internalType": "uint256",
          "name": "duration",
          "type": "uint256"
        },
        {
          "indexed": false,
          "internalType": "address",
          "name": "executor",
          "type": "address"
        }
      ],
      "name": "NewProposal",
      "type": "event"
    },
    {
      "anonymous": false,
      "inputs": [
        {
          "indexed": true,
          "internalType": "address",
          "name": "previousOwner",
          "type": "address"
        },
        {
          "indexed": true,
          "internalType": "address",
          "name": "newOwner",
          "type": "address"
        }
      ],
      "name": "OwnershipTransferred",
      "type": "event"
    },
    {
      "anonymous": false,
      "inputs": [
        {
          "indexed": true,
          "internalType": "uint256",
          "name": "id",
          "type": "uint256"
        },
        {
          "indexed": false,
          "internalType": "uint256",
          "name": "_for",
          "type": "uint256"
        },
        {
          "indexed": false,
          "internalType": "uint256",
          "name": "_against",
          "type": "uint256"
        },
        {
          "indexed": false,
          "internalType": "bool",
          "name": "quorumReached",
          "type": "bool"
        }
      ],
      "name": "ProposalFinished",
      "type": "event"
    },
    {
      "anonymous": false,
      "inputs": [
        {
          "indexed": false,
          "internalType": "address",
          "name": "voter",
          "type": "address"
        },
        {
          "indexed": false,
          "internalType": "uint256",
          "name": "votes",
          "type": "uint256"
        },
        {
          "indexed": false,
          "internalType": "uint256",
          "name": "totalVotes",
          "type": "uint256"
        }
      ],
      "name": "RegisterVoter",
      "type": "event"
    },
    {
      "anonymous": false,
      "inputs": [
        {
          "indexed": false,
          "internalType": "address",
          "name": "voter",
          "type": "address"
        },
        {
          "indexed": false,
          "internalType": "uint256",
          "name": "votes",
          "type": "uint256"
        },
        {
          "indexed": false,
          "internalType": "uint256",
          "name": "totalVotes",
          "type": "uint256"
        }
      ],
      "name": "RevokeVoter",
      "type": "event"
    },
    {
      "anonymous": false,
      "inputs": [
        {
          "indexed": false,
          "internalType": "uint256",
          "name": "reward",
          "type": "uint256"
        }
      ],
      "name": "RewardAdded",
      "type": "event"
    },
    {
      "anonymous": false,
      "inputs": [
        {
          "indexed": true,
          "internalType": "address",
          "name": "user",
          "type": "address"
        },
        {
          "indexed": false,
          "internalType": "uint256",
          "name": "reward",
          "type": "uint256"
        }
      ],
      "name": "RewardPaid",
      "type": "event"
    },
    {
      "anonymous": false,
      "inputs": [
        {
          "indexed": true,
          "internalType": "address",
          "name": "user",
          "type": "address"
        },
        {
          "indexed": false,
          "internalType": "uint256",
          "name": "amount",
          "type": "uint256"
        }
      ],
      "name": "Staked",
      "type": "event"
    },
    {
      "anonymous": false,
      "inputs": [
        {
          "indexed": true,
          "internalType": "uint256",
          "name": "id",
          "type": "uint256"
        },
        {
          "indexed": true,
          "internalType": "address",
          "name": "voter",
          "type": "address"
        },
        {
          "indexed": false,
          "internalType": "bool",
          "name": "vote",
          "type": "bool"
        },
        {
          "indexed": false,
          "internalType": "uint256",
          "name": "weight",
          "type": "uint256"
        }
      ],
      "name": "Vote",
      "type": "event"
    },
    {
      "anonymous": false,
      "inputs": [
        {
          "indexed": true,
          "internalType": "address",
          "name": "user",
          "type": "address"
        },
        {
          "indexed": false,
          "internalType": "uint256",
          "name": "amount",
          "type": "uint256"
        }
      ],
      "name": "Withdrawn",
      "type": "event"
    },
    {
      "constant": true,
      "inputs": [],
      "name": "DURATION",
      "outputs": [
        {
          "internalType": "uint256",
          "name": "",
          "type": "uint256"
        }
      ],
      "payable": false,
      "stateMutability": "view",
      "type": "function"
    },
    {
      "constant": true,
      "inputs": [
        {
          "internalType": "address",
          "name": "account",
          "type": "address"
        }
      ],
      "name": "balanceOf",
      "outputs": [
        {
          "internalType": "uint256",
          "name": "",
          "type": "uint256"
        }
      ],
      "payable": false,
      "stateMutability": "view",
      "type": "function"
    },
    {
      "constant": true,
      "inputs": [],
      "name": "bptlp",
      "outputs": [
        {
          "internalType": "contract IERC20",
          "name": "",
          "type": "address"
        }
      ],
      "payable": false,
      "stateMutability": "view",
      "type": "function"
    },
    {
      "constant": true,
      "inputs": [],
      "name": "breaker",
      "outputs": [
        {
          "internalType": "bool",
          "name": "",
          "type": "bool"
        }
      ],
      "payable": false,
      "stateMutability": "view",
      "type": "function"
    },
    {
      "constant": true,
      "inputs": [],
      "name": "governance",
      "outputs": [
        {
          "internalType": "address",
          "name": "",
          "type": "address"
        }
      ],
      "payable": false,
      "stateMutability": "view",
      "type": "function"
    },
    {
      "constant": true,
      "inputs": [],
      "name": "isOwner",
      "outputs": [
        {
          "internalType": "bool",
          "name": "",
          "type": "bool"
        }
      ],
      "payable": false,
      "stateMutability": "view",
      "type": "function"
    },
    {
      "constant": true,
      "inputs": [],
      "name": "lastUpdateTime",
      "outputs": [
        {
          "internalType": "uint256",
          "name": "",
          "type": "uint256"
        }
      ],
      "payable": false,
      "stateMutability": "view",
      "type": "function"
    },
    {
      "constant": true,
      "inputs": [],
      "name": "lock",
      "outputs": [
        {
          "internalType": "uint256",
          "name": "",
          "type": "uint256"
        }
      ],
      "payable": false,
      "stateMutability": "view",
      "type": "function"
    },
    {
      "constant": true,
      "inputs": [],
      "name": "lp",
      "outputs": [
        {
          "internalType": "contract IERC20",
          "name": "",
          "type": "address"
        }
      ],
      "payable": false,
      "stateMutability": "view",
      "type": "function"
    },
    {
      "constant": true,
      "inputs": [],
      "name": "minimum",
      "outputs": [
        {
          "internalType": "uint256",
          "name": "",
          "type": "uint256"
        }
      ],
      "payable": false,
      "stateMutability": "view",
      "type": "function"
    },
    {
      "constant": true,
      "inputs": [],
      "name": "minimumBPTLP",
      "outputs": [
        {
          "internalType": "uint256",
          "name": "",
          "type": "uint256"
        }
      ],
      "payable": false,
      "stateMutability": "view",
      "type": "function"
    },
    {
      "constant": true,
      "inputs": [],
      "name": "owner",
      "outputs": [
        {
          "internalType": "address",
          "name": "",
          "type": "address"
        }
      ],
      "payable": false,
      "stateMutability": "view",
      "type": "function"
    },
    {
      "constant": true,
      "inputs": [],
      "name": "period",
      "outputs": [
        {
          "internalType": "uint256",
          "name": "",
          "type": "uint256"
        }
      ],
      "payable": false,
      "stateMutability": "view",
      "type": "function"
    },
    {
      "constant": true,
      "inputs": [],
      "name": "periodFinish",
      "outputs": [
        {
          "internalType": "uint256",
          "name": "",
          "type": "uint256"
        }
      ],
      "payable": false,
      "stateMutability": "view",
      "type": "function"
    },
    {
      "constant": true,
      "inputs": [],
      "name": "plu",
      "outputs": [
        {
          "internalType": "contract IERC20",
          "name": "",
          "type": "address"
        }
      ],
      "payable": false,
      "stateMutability": "view",
      "type": "function"
    },
    {
      "constant": true,
      "inputs": [],
      "name": "proposalCount",
      "outputs": [
        {
          "internalType": "uint256",
          "name": "",
          "type": "uint256"
        }
      ],
      "payable": false,
      "stateMutability": "view",
      "type": "function"
    },
    {
      "constant": true,
      "inputs": [
        {
          "internalType": "uint256",
          "name": "",
          "type": "uint256"
        }
      ],
      "name": "proposals",
      "outputs": [
        {
          "internalType": "uint256",
          "name": "id",
          "type": "uint256"
        },
        {
          "internalType": "address",
          "name": "proposer",
          "type": "address"
        },
        {
          "internalType": "uint256",
          "name": "totalForVotes",
          "type": "uint256"
        },
        {
          "internalType": "uint256",
          "name": "totalAgainstVotes",
          "type": "uint256"
        },
        {
          "internalType": "uint256",
          "name": "start",
          "type": "uint256"
        },
        {
          "internalType": "uint256",
          "name": "end",
          "type": "uint256"
        },
        {
          "internalType": "address",
          "name": "executor",
          "type": "address"
        },
        {
          "internalType": "string",
          "name": "hash",
          "type": "string"
        },
        {
          "internalType": "uint256",
          "name": "totalVotesAvailable",
          "type": "uint256"
        },
        {
          "internalType": "uint256",
          "name": "quorum",
          "type": "uint256"
        },
        {
          "internalType": "uint256",
          "name": "quorumRequired",
          "type": "uint256"
        },
        {
          "internalType": "bool",
          "name": "open",
          "type": "bool"
        }
      ],
      "payable": false,
      "stateMutability": "view",
      "type": "function"
    },
    {
      "constant": true,
      "inputs": [],
      "name": "quorum",
      "outputs": [
        {
          "internalType": "uint256",
          "name": "",
          "type": "uint256"
        }
      ],
      "payable": false,
      "stateMutability": "view",
      "type": "function"
    },
    {
      "constant": false,
      "inputs": [],
      "name": "renounceOwnership",
      "outputs": [],
      "payable": false,
      "stateMutability": "nonpayable",
      "type": "function"
    },
    {
      "constant": true,
      "inputs": [],
      "name": "rewardPerTokenStored",
      "outputs": [
        {
          "internalType": "uint256",
          "name": "",
          "type": "uint256"
        }
      ],
      "payable": false,
      "stateMutability": "view",
      "type": "function"
    },
    {
      "constant": true,
      "inputs": [],
      "name": "rewardRate",
      "outputs": [
        {
          "internalType": "uint256",
          "name": "",
          "type": "uint256"
        }
      ],
      "payable": false,
      "stateMutability": "view",
      "type": "function"
    },
    {
      "constant": true,
      "inputs": [
        {
          "internalType": "address",
          "name": "",
          "type": "address"
        }
      ],
      "name": "rewards",
      "outputs": [
        {
          "internalType": "uint256",
          "name": "",
          "type": "uint256"
        }
      ],
      "payable": false,
      "stateMutability": "view",
      "type": "function"
    },
    {
      "constant": false,
      "inputs": [
        {
          "internalType": "address",
          "name": "_rewardDistribution",
          "type": "address"
        }
      ],
      "name": "setRewardDistribution",
      "outputs": [],
      "payable": false,
      "stateMutability": "nonpayable",
      "type": "function"
    },
    {
      "constant": true,
      "inputs": [],
      "name": "totalSupply",
      "outputs": [
        {
          "internalType": "uint256",
          "name": "",
          "type": "uint256"
        }
      ],
      "payable": false,
      "stateMutability": "view",
      "type": "function"
    },
    {
      "constant": true,
      "inputs": [],
      "name": "totalVotes",
      "outputs": [
        {
          "internalType": "uint256",
          "name": "",
          "type": "uint256"
        }
      ],
      "payable": false,
      "stateMutability": "view",
      "type": "function"
    },
    {
      "constant": false,
      "inputs": [
        {
          "internalType": "address",
          "name": "newOwner",
          "type": "address"
        }
      ],
      "name": "transferOwnership",
      "outputs": [],
      "payable": false,
      "stateMutability": "nonpayable",
      "type": "function"
    },
    {
      "constant": true,
      "inputs": [
        {
          "internalType": "address",
          "name": "",
          "type": "address"
        }
      ],
      "name": "userRewardPerTokenPaid",
      "outputs": [
        {
          "internalType": "uint256",
          "name": "",
          "type": "uint256"
        }
      ],
      "payable": false,
      "stateMutability": "view",
      "type": "function"
    },
    {
      "constant": true,
      "inputs": [
        {
          "internalType": "address",
          "name": "",
          "type": "address"
        }
      ],
      "name": "voteLock",
      "outputs": [
        {
          "internalType": "uint256",
          "name": "",
          "type": "uint256"
        }
      ],
      "payable": false,
      "stateMutability": "view",
      "type": "function"
    },
    {
      "constant": true,
      "inputs": [
        {
          "internalType": "address",
          "name": "",
          "type": "address"
        }
      ],
      "name": "voters",
      "outputs": [
        {
          "internalType": "bool",
          "name": "",
          "type": "bool"
        }
      ],
      "payable": false,
      "stateMutability": "view",
      "type": "function"
    },
    {
      "constant": true,
      "inputs": [
        {
          "internalType": "address",
          "name": "",
          "type": "address"
        }
      ],
      "name": "votes",
      "outputs": [
        {
          "internalType": "uint256",
          "name": "",
          "type": "uint256"
        }
      ],
      "payable": false,
      "stateMutability": "view",
      "type": "function"
    },
    {
      "constant": false,
      "inputs": [
        {
          "internalType": "contract IERC20",
          "name": "_token",
          "type": "address"
        },
        {
          "internalType": "uint256",
          "name": "amount",
          "type": "uint256"
        }
      ],
      "name": "seize",
      "outputs": [],
      "payable": false,
      "stateMutability": "nonpayable",
      "type": "function"
    },
    {
      "constant": false,
      "inputs": [
        {
          "internalType": "bool",
          "name": "_breaker",
          "type": "bool"
        }
      ],
      "name": "setBreaker",
      "outputs": [],
      "payable": false,
      "stateMutability": "nonpayable",
      "type": "function"
    },
    {
      "constant": false,
      "inputs": [
        {
          "internalType": "uint256",
          "name": "_minimum",
          "type": "uint256"
        }
      ],
      "name": "setMinimumBPTLP",
      "outputs": [],
      "payable": false,
      "stateMutability": "nonpayable",
      "type": "function"
    },
    {
      "constant": false,
      "inputs": [
        {
          "internalType": "address",
          "name": "_governance",
          "type": "address"
        }
      ],
      "name": "setGovernance",
      "outputs": [],
      "payable": false,
      "stateMutability": "nonpayable",
      "type": "function"
    },
    {
      "constant": false,
      "inputs": [
        {
          "internalType": "uint256",
          "name": "_quorum",
          "type": "uint256"
        }
      ],
      "name": "setQuorum",
      "outputs": [],
      "payable": false,
      "stateMutability": "nonpayable",
      "type": "function"
    },
    {
      "constant": false,
      "inputs": [
        {
          "internalType": "uint256",
          "name": "_minimum",
          "type": "uint256"
        }
      ],
      "name": "setMinimum",
      "outputs": [],
      "payable": false,
      "stateMutability": "nonpayable",
      "type": "function"
    },
    {
      "constant": false,
      "inputs": [
        {
          "internalType": "uint256",
          "name": "_period",
          "type": "uint256"
        }
      ],
      "name": "setPeriod",
      "outputs": [],
      "payable": false,
      "stateMutability": "nonpayable",
      "type": "function"
    },
    {
      "constant": false,
      "inputs": [
        {
          "internalType": "uint256",
          "name": "_lock",
          "type": "uint256"
        }
      ],
      "name": "setLock",
      "outputs": [],
      "payable": false,
      "stateMutability": "nonpayable",
      "type": "function"
    },
    {
      "constant": false,
      "inputs": [
        {
          "internalType": "address",
          "name": "executor",
          "type": "address"
        },
        {
          "internalType": "string",
          "name": "hash",
          "type": "string"
        }
      ],
      "name": "propose",
      "outputs": [],
      "payable": false,
      "stateMutability": "nonpayable",
      "type": "function"
    },
    {
      "constant": false,
      "inputs": [
        {
          "internalType": "uint256",
          "name": "id",
          "type": "uint256"
        }
      ],
      "name": "execute",
      "outputs": [],
      "payable": false,
      "stateMutability": "nonpayable",
      "type": "function"
    },
    {
      "constant": true,
      "inputs": [
        {
          "internalType": "uint256",
          "name": "id",
          "type": "uint256"
        }
      ],
      "name": "getStats",
      "outputs": [
        {
          "internalType": "uint256",
          "name": "_for",
          "type": "uint256"
        },
        {
          "internalType": "uint256",
          "name": "_against",
          "type": "uint256"
        },
        {
          "internalType": "uint256",
          "name": "_quorum",
          "type": "uint256"
        }
      ],
      "payable": false,
      "stateMutability": "view",
      "type": "function"
    },
    {
      "constant": false,
      "inputs": [
        {
          "internalType": "uint256",
          "name": "id",
          "type": "uint256"
        }
      ],
      "name": "tallyVotes",
      "outputs": [],
      "payable": false,
      "stateMutability": "nonpayable",
      "type": "function"
    },
    {
      "constant": true,
      "inputs": [
        {
          "internalType": "address",
          "name": "voter",
          "type": "address"
        }
      ],
      "name": "votesOf",
      "outputs": [
        {
          "internalType": "uint256",
          "name": "",
          "type": "uint256"
        }
      ],
      "payable": false,
      "stateMutability": "view",
      "type": "function"
    },
    {
      "constant": false,
      "inputs": [],
      "name": "register",
      "outputs": [],
      "payable": false,
      "stateMutability": "nonpayable",
      "type": "function"
    },
    {
      "constant": false,
      "inputs": [],
      "name": "revoke",
      "outputs": [],
      "payable": false,
      "stateMutability": "nonpayable",
      "type": "function"
    },
    {
      "constant": false,
      "inputs": [
        {
          "internalType": "uint256",
          "name": "id",
          "type": "uint256"
        }
      ],
      "name": "voteFor",
      "outputs": [],
      "payable": false,
      "stateMutability": "nonpayable",
      "type": "function"
    },
    {
      "constant": false,
      "inputs": [
        {
          "internalType": "uint256",
          "name": "id",
          "type": "uint256"
        }
      ],
      "name": "voteAgainst",
      "outputs": [],
      "payable": false,
      "stateMutability": "nonpayable",
      "type": "function"
    },
    {
      "constant": true,
      "inputs": [],
      "name": "lastTimeRewardApplicable",
      "outputs": [
        {
          "internalType": "uint256",
          "name": "",
          "type": "uint256"
        }
      ],
      "payable": false,
      "stateMutability": "view",
      "type": "function"
    },
    {
      "constant": true,
      "inputs": [],
      "name": "rewardPerToken",
      "outputs": [
        {
          "internalType": "uint256",
          "name": "",
          "type": "uint256"
        }
      ],
      "payable": false,
      "stateMutability": "view",
      "type": "function"
    },
    {
      "constant": true,
      "inputs": [
        {
          "internalType": "address",
          "name": "account",
          "type": "address"
        }
      ],
      "name": "earned",
      "outputs": [
        {
          "internalType": "uint256",
          "name": "",
          "type": "uint256"
        }
      ],
      "payable": false,
      "stateMutability": "view",
      "type": "function"
    },
    {
      "constant": false,
      "inputs": [
        {
          "internalType": "uint256",
          "name": "amount",
          "type": "uint256"
        }
      ],
      "name": "stake",
      "outputs": [],
      "payable": false,
      "stateMutability": "nonpayable",
      "type": "function"
    },
    {
      "constant": false,
      "inputs": [
        {
          "internalType": "uint256",
          "name": "amount",
          "type": "uint256"
        }
      ],
      "name": "withdraw",
      "outputs": [],
      "payable": false,
      "stateMutability": "nonpayable",
      "type": "function"
    },
    {
      "constant": false,
      "inputs": [],
      "name": "exit",
      "outputs": [],
      "payable": false,
      "stateMutability": "nonpayable",
      "type": "function"
    },
    {
      "constant": false,
      "inputs": [],
      "name": "getReward",
      "outputs": [],
      "payable": false,
      "stateMutability": "nonpayable",
      "type": "function"
    },
    {
      "constant": false,
      "inputs": [
        {
          "internalType": "uint256",
          "name": "reward",
          "type": "uint256"
        }
      ],
      "name": "notifyRewardAmount",
      "outputs": [],
      "payable": false,
      "stateMutability": "nonpayable",
      "type": "function"
    }
  ],
  "bytecode": "0x60806040526000600460146101000a81548160ff021916908315150217905550683635c9adc5dea00000600555614380600955614380600a55670de0b6b3a7640000600b556107d0600c55600060135560006014553480156200006157600080fd5b50604051620052bd380380620052bd833981810160405260408110156200008757600080fd5b81019080805190602001909291908051906020019092919050505080806000806101000a81548173ffffffffffffffffffffffffffffffffffffffff021916908373ffffffffffffffffffffffffffffffffffffffff160217905550506000620000f66200026860201b60201c565b905080600360006101000a81548173ffffffffffffffffffffffffffffffffffffffff021916908373ffffffffffffffffffffffffffffffffffffffff1602179055508073ffffffffffffffffffffffffffffffffffffffff16600073ffffffffffffffffffffffffffffffffffffffff167f8be0079c531659141344cd1fd0a4f28419497f9722a3daafe3b4186f6b6457e060405160405180910390a35032600d60006101000a81548173ffffffffffffffffffffffffffffffffffffffff021916908373ffffffffffffffffffffffffffffffffffffffff160217905550600060088190555081601160006101000a81548173ffffffffffffffffffffffffffffffffffffffff021916908373ffffffffffffffffffffffffffffffffffffffff16021790555080601260006101000a81548173ffffffffffffffffffffffffffffffffffffffff021916908373ffffffffffffffffffffffffffffffffffffffff160217905550505062000270565b600033905090565b61503d80620002806000396000f3fe608060405234801561001057600080fd5b506004361061035c5760003560e01c806379ec5d3a116101d3578063c8f33c9111610104578063e9fad8ee116100a2578063ef78d4fd1161007c578063ef78d4fd14610f0e578063f2fde38b14610f2c578063f83d08ba14610f70578063fe0d94c114610f8e5761035c565b8063e9fad8ee14610e98578063eb9253c014610ea2578063ebe2b12b14610ef05761035c565b8063d6f0948c116100de578063d6f0948c14610d29578063d8bff5a514610e04578063da35c66414610e5c578063df136d6514610e7a5761035c565b8063c8f33c9114610cbf578063cd3daf9d14610cdd578063d3e1574714610cfb5761035c565b80638f32d59b11610171578063ab033ea91161014b578063ab033ea914610bf9578063b382d00314610c3d578063b6549f7514610c87578063c1ba4e5914610c915761035c565b80638f32d59b14610b4d578063a3ec138d14610b6f578063a694fc3a14610bcb5761035c565b806380faa57d116101ad57806380faa57d14610a5f57806386a5053514610a7d5780638b87634714610aab5780638da5cb5b14610b035761035c565b806379ec5d3a146109995780637b0a47ee146109f15780637b30396514610a0f5761035c565b80633209e9e6116102ad5780635ab7fb571161024b57806360b199231161022557806360b19923146108eb57806370a0823114610909578063715018a614610961578063750e443a1461096b5761035c565b80635ab7fb57146108435780635c0aeb0e146108715780635c0b87fd146108a15761035c565b80634d318b0e116102875780634d318b0e146107555780634e27e9161461078357806352d6804d146107db5780635aa6e675146107f95761035c565b80633209e9e6146106ef5780633c6b16ab1461071d5780633d18b9121461074b5761035c565b80630f41e0d21161031a5780631aa3a008116102f45780631aa3a0081461064f5780631be05289146106595780632e1a7d4d14610677578063313c06a0146106a55761035c565b80630f41e0d2146105f15780631703a0181461061357806318160ddd146106315761035c565b80628cc26214610361578063013cf08b146103b95780630700037d146105095780630d15fd77146105615780630d68b7611461057f5780630f3a9f65146105c3575b600080fd5b6103a36004803603602081101561037757600080fd5b81019080803573ffffffffffffffffffffffffffffffffffffffff169060200190929190505050610fbc565b6040518082815260200191505060405180910390f35b6103e5600480360360208110156103cf57600080fd5b81019080803590602001909291905050506110a3565b604051808d81526020018c73ffffffffffffffffffffffffffffffffffffffff1673ffffffffffffffffffffffffffffffffffffffff1681526020018b81526020018a81526020018981526020018881526020018773ffffffffffffffffffffffffffffffffffffffff1673ffffffffffffffffffffffffffffffffffffffff1681526020018060200186815260200185815260200184815260200183151515158152602001828103825287818151815260200191508051906020019080838360005b838110156104c35780820151818401526020810190506104a8565b50505050905090810190601f1680156104f05780820380516001836020036101000a031916815260200191505b509d505050505050505050505050505060405180910390f35b61054b6004803603602081101561051f57600080fd5b81019080803573ffffffffffffffffffffffffffffffffffffffff1690602001909291905050506111e8565b6040518082815260200191505060405180910390f35b610569611200565b6040518082815260200191505060405180910390f35b6105c16004803603602081101561059557600080fd5b81019080803573ffffffffffffffffffffffffffffffffffffffff169060200190929190505050611206565b005b6105ef600480360360208110156105d957600080fd5b81019080803590602001909291905050506112c4565b005b6105f9611391565b604051808215151515815260200191505060405180910390f35b61061b6113a4565b6040518082815260200191505060405180910390f35b6106396113aa565b6040518082815260200191505060405180910390f35b6106576113b4565b005b61066161162e565b6040518082815260200191505060405180910390f35b6106a36004803603602081101561068d57600080fd5b8101908080359060200190929190505050611635565b005b6106ad6119c5565b604051808273ffffffffffffffffffffffffffffffffffffffff1673ffffffffffffffffffffffffffffffffffffffff16815260200191505060405180910390f35b61071b6004803603602081101561070557600080fd5b81019080803590602001909291905050506119ea565b005b6107496004803603602081101561073357600080fd5b8101908080359060200190929190505050611ab7565b005b610753611d34565b005b6107816004803603602081101561076b57600080fd5b8101908080359060200190929190505050612134565b005b6107c56004803603602081101561079957600080fd5b81019080803573ffffffffffffffffffffffffffffffffffffffff16906020019092919050505061232b565b6040518082815260200191505060405180910390f35b6107e3612343565b6040518082815260200191505060405180910390f35b610801612349565b604051808273ffffffffffffffffffffffffffffffffffffffff1673ffffffffffffffffffffffffffffffffffffffff16815260200191505060405180910390f35b61086f6004803603602081101561085957600080fd5b810190808035906020019092919050505061236f565b005b61089f6004803603602081101561088757600080fd5b8101908080351515906020019092919050505061243c565b005b6108a961251c565b604051808273ffffffffffffffffffffffffffffffffffffffff1673ffffffffffffffffffffffffffffffffffffffff16815260200191505060405180910390f35b6108f3612542565b6040518082815260200191505060405180910390f35b61094b6004803603602081101561091f57600080fd5b81019080803573ffffffffffffffffffffffffffffffffffffffff169060200190929190505050612548565b6040518082815260200191505060405180910390f35b610969612591565b005b6109976004803603602081101561098157600080fd5b81019080803590602001909291905050506126cc565b005b6109db600480360360208110156109af57600080fd5b81019080803573ffffffffffffffffffffffffffffffffffffffff169060200190929190505050612b52565b6040518082815260200191505060405180910390f35b6109f9612b9b565b6040518082815260200191505060405180910390f35b610a3b60048036036020811015610a2557600080fd5b8101908080359060200190929190505050612ba1565b60405180848152602001838152602001828152602001935050505060405180910390f35b610a67612c88565b6040518082815260200191505060405180910390f35b610aa960048036036020811015610a9357600080fd5b8101908080359060200190929190505050612c9b565b005b610aed60048036036020811015610ac157600080fd5b81019080803573ffffffffffffffffffffffffffffffffffffffff169060200190929190505050613121565b6040518082815260200191505060405180910390f35b610b0b613139565b604051808273ffffffffffffffffffffffffffffffffffffffff1673ffffffffffffffffffffffffffffffffffffffff16815260200191505060405180910390f35b610b55613163565b604051808215151515815260200191505060405180910390f35b610bb160048036036020811015610b8557600080fd5b81019080803573ffffffffffffffffffffffffffffffffffffffff1690602001909291905050506131c2565b604051808215151515815260200191505060405180910390f35b610bf760048036036020811015610be157600080fd5b81019080803590602001909291905050506131e2565b005b610c3b60048036036020811015610c0f57600080fd5b81019080803573ffffffffffffffffffffffffffffffffffffffff1690602001909291905050506134a1565b005b610c456135a8565b604051808273ffffffffffffffffffffffffffffffffffffffff1673ffffffffffffffffffffffffffffffffffffffff16815260200191505060405180910390f35b610c8f6135ce565b005b610cbd60048036036020811015610ca757600080fd5b8101908080359060200190929190505050613897565b005b610cc7613964565b6040518082815260200191505060405180910390f35b610ce561396a565b6040518082815260200191505060405180910390f35b610d2760048036036020811015610d1157600080fd5b8101908080359060200190929190505050613a02565b005b610e0260048036036040811015610d3f57600080fd5b81019080803573ffffffffffffffffffffffffffffffffffffffff16906020019092919080359060200190640100000000811115610d7c57600080fd5b820183602082011115610d8e57600080fd5b80359060200191846001830284011164010000000083111715610db057600080fd5b91908080601f016020809104026020016040519081016040528093929190818152602001838380828437600081840152601f19601f820116905080830192505050505050509192919290505050613acf565b005b610e4660048036036020811015610e1a57600080fd5b81019080803573ffffffffffffffffffffffffffffffffffffffff169060200190929190505050613e40565b6040518082815260200191505060405180910390f35b610e64613e58565b6040518082815260200191505060405180910390f35b610e82613e5e565b6040518082815260200191505060405180910390f35b610ea0613e64565b005b610eee60048036036040811015610eb857600080fd5b81019080803573ffffffffffffffffffffffffffffffffffffffff16906020019092919080359060200190929190505050613e7f565b005b610ef861411a565b6040518082815260200191505060405180910390f35b610f16614120565b6040518082815260200191505060405180910390f35b610f6e60048036036020811015610f4257600080fd5b81019080803573ffffffffffffffffffffffffffffffffffffffff169060200190929190505050614126565b005b610f786141ac565b6040518082815260200191505060405180910390f35b610fba60048036036020811015610fa457600080fd5b81019080803590602001909291905050506141b2565b005b600061109c601860008473ffffffffffffffffffffffffffffffffffffffff1673ffffffffffffffffffffffffffffffffffffffff1681526020019081526020016000205461108e670de0b6b3a7640000611080611069601760008973ffffffffffffffffffffffffffffffffffffffff1673ffffffffffffffffffffffffffffffffffffffff1681526020019081526020016000205461105b61396a565b6143d590919063ffffffff16565b61107288612548565b61441f90919063ffffffff16565b6144a590919063ffffffff16565b6144ef90919063ffffffff16565b9050919050565b60076020528060005260406000206000915090508060000154908060010160009054906101000a900473ffffffffffffffffffffffffffffffffffffffff16908060040154908060050154908060060154908060070154908060080160009054906101000a900473ffffffffffffffffffffffffffffffffffffffff1690806009018054600181600116156101000203166002900480601f0160208091040260200160405190810160405280929190818152602001828054600181600116156101000203166002900480156111b95780601f1061118e576101008083540402835291602001916111b9565b820191906000526020600020905b81548152906001019060200180831161119c57829003601f168201915b50505050509080600a01549080600b01549080600c01549080600d0160009054906101000a900460ff1690508c565b60186020528060005260406000206000915090505481565b600e5481565b61120e613163565b611280576040517f08c379a00000000000000000000000000000000000000000000000000000000081526004018080602001828103825260208152602001807f4f776e61626c653a2063616c6c6572206973206e6f7420746865206f776e657281525060200191505060405180910390fd5b80600460006101000a81548173ffffffffffffffffffffffffffffffffffffffff021916908373ffffffffffffffffffffffffffffffffffffffff16021790555050565b600d60009054906101000a900473ffffffffffffffffffffffffffffffffffffffff1673ffffffffffffffffffffffffffffffffffffffff163373ffffffffffffffffffffffffffffffffffffffff1614611387576040517f08c379a000000000000000000000000000000000000000000000000000000000815260040180806020018281038252600b8152602001807f21676f7665726e616e636500000000000000000000000000000000000000000081525060200191505060405180910390fd5b8060098190555050565b600460149054906101000a900460ff1681565b600c5481565b6000600154905090565b60001515601060003373ffffffffffffffffffffffffffffffffffffffff1673ffffffffffffffffffffffffffffffffffffffff16815260200190815260200160002060009054906101000a900460ff1615151461147a576040517f08c379a00000000000000000000000000000000000000000000000000000000081526004018080602001828103825260058152602001807f766f74657200000000000000000000000000000000000000000000000000000081525060200191505060405180910390fd5b6001601060003373ffffffffffffffffffffffffffffffffffffffff1673ffffffffffffffffffffffffffffffffffffffff16815260200190815260200160002060006101000a81548160ff0219169083151502179055506114db33612548565b600f60003373ffffffffffffffffffffffffffffffffffffffff1673ffffffffffffffffffffffffffffffffffffffff16815260200190815260200160002081905550611572600f60003373ffffffffffffffffffffffffffffffffffffffff1673ffffffffffffffffffffffffffffffffffffffff16815260200190815260200160002054600e546144ef90919063ffffffff16565b600e819055507f42bd0b21218b5114f60361fe686fe499033f14f22cb728a08cf9df9b4e60f8cc33600f60003373ffffffffffffffffffffffffffffffffffffffff1673ffffffffffffffffffffffffffffffffffffffff16815260200190815260200160002054600e54604051808473ffffffffffffffffffffffffffffffffffffffff1673ffffffffffffffffffffffffffffffffffffffff168152602001838152602001828152602001935050505060405180910390a1565b624f1a0081565b3361163e61396a565b60168190555061164c612c88565b601581905550600073ffffffffffffffffffffffffffffffffffffffff168173ffffffffffffffffffffffffffffffffffffffff16146117195761168f81610fbc565b601860008373ffffffffffffffffffffffffffffffffffffffff1673ffffffffffffffffffffffffffffffffffffffff16815260200190815260200160002081905550601654601760008373ffffffffffffffffffffffffffffffffffffffff1673ffffffffffffffffffffffffffffffffffffffff168152602001908152602001600020819055505b6000821161178f576040517f08c379a00000000000000000000000000000000000000000000000000000000081526004018080602001828103825260118152602001807f43616e6e6f74207769746864726177203000000000000000000000000000000081525060200191505060405180910390fd5b60011515601060003373ffffffffffffffffffffffffffffffffffffffff1673ffffffffffffffffffffffffffffffffffffffff16815260200190815260200160002060009054906101000a900460ff16151514156118995761183a82600f60003373ffffffffffffffffffffffffffffffffffffffff1673ffffffffffffffffffffffffffffffffffffffff168152602001908152602001600020546143d590919063ffffffff16565b600f60003373ffffffffffffffffffffffffffffffffffffffff1673ffffffffffffffffffffffffffffffffffffffff1681526020019081526020016000208190555061189282600e546143d590919063ffffffff16565b600e819055505b60001515600460149054906101000a900460ff161515141561196a5743600660003373ffffffffffffffffffffffffffffffffffffffff1673ffffffffffffffffffffffffffffffffffffffff1681526020019081526020016000205410611969576040517f08c379a00000000000000000000000000000000000000000000000000000000081526004018080602001828103825260078152602001807f216c6f636b65640000000000000000000000000000000000000000000000000081525060200191505060405180910390fd5b5b61197382614577565b3373ffffffffffffffffffffffffffffffffffffffff167f7084f5476618d8e60b11ef0d7d3f06914655adb8793e28ff7f018d4c76d505d5836040518082815260200191505060405180910390a25050565b6000809054906101000a900473ffffffffffffffffffffffffffffffffffffffff1681565b600d60009054906101000a900473ffffffffffffffffffffffffffffffffffffffff1673ffffffffffffffffffffffffffffffffffffffff163373ffffffffffffffffffffffffffffffffffffffff1614611aad576040517f08c379a000000000000000000000000000000000000000000000000000000000815260040180806020018281038252600b8152602001807f21676f7665726e616e636500000000000000000000000000000000000000000081525060200191505060405180910390fd5b80600b8190555050565b600460009054906101000a900473ffffffffffffffffffffffffffffffffffffffff1673ffffffffffffffffffffffffffffffffffffffff16611af8614676565b73ffffffffffffffffffffffffffffffffffffffff1614611b64576040517f08c379a0000000000000000000000000000000000000000000000000000000008152600401808060200182810382526021815260200180614fbe6021913960400191505060405180910390fd5b6000611b6e61396a565b601681905550611b7c612c88565b601581905550600073ffffffffffffffffffffffffffffffffffffffff168173ffffffffffffffffffffffffffffffffffffffff1614611c4957611bbf81610fbc565b601860008373ffffffffffffffffffffffffffffffffffffffff1673ffffffffffffffffffffffffffffffffffffffff16815260200190815260200160002081905550601654601760008373ffffffffffffffffffffffffffffffffffffffff1673ffffffffffffffffffffffffffffffffffffffff168152602001908152602001600020819055505b6013544210611c7357611c68624f1a00836144a590919063ffffffff16565b601481905550611cd6565b6000611c8a426013546143d590919063ffffffff16565b90506000611ca36014548361441f90919063ffffffff16565b9050611ccd624f1a00611cbf83876144ef90919063ffffffff16565b6144a590919063ffffffff16565b60148190555050505b42601581905550611cf3624f1a00426144ef90919063ffffffff16565b6013819055507fde88a922e0d3b88b24e9623efeb464919c6bf9f66857a65e2bfcf2ce87a9433d826040518082815260200191505060405180910390a15050565b33611d3d61396a565b601681905550611d4b612c88565b601581905550600073ffffffffffffffffffffffffffffffffffffffff168173ffffffffffffffffffffffffffffffffffffffff1614611e1857611d8e81610fbc565b601860008373ffffffffffffffffffffffffffffffffffffffff1673ffffffffffffffffffffffffffffffffffffffff16815260200190815260200160002081905550601654601760008373ffffffffffffffffffffffffffffffffffffffff1673ffffffffffffffffffffffffffffffffffffffff168152602001908152602001600020819055505b60001515600460149054906101000a900460ff161515141561203957600554601160009054906101000a900473ffffffffffffffffffffffffffffffffffffffff1673ffffffffffffffffffffffffffffffffffffffff166370a08231336040518263ffffffff1660e01b8152600401808273ffffffffffffffffffffffffffffffffffffffff1673ffffffffffffffffffffffffffffffffffffffff16815260200191505060206040518083038186803b158015611ed657600080fd5b505afa158015611eea573d6000803e3d6000fd5b505050506040513d6020811015611f0057600080fd5b810190808051906020019092919050505011611f84576040517f08c379a000000000000000000000000000000000000000000000000000000000815260040180806020018281038252600d8152602001807f3c6d696e696d756d4250544c500000000000000000000000000000000000000081525060200191505060405180910390fd5b43600660003373ffffffffffffffffffffffffffffffffffffffff1673ffffffffffffffffffffffffffffffffffffffff1681526020019081526020016000205411612038576040517f08c379a00000000000000000000000000000000000000000000000000000000081526004018080602001828103825260068152602001807f21766f746564000000000000000000000000000000000000000000000000000081525060200191505060405180910390fd5b5b600061204433610fbc565b90506000811115612130576000601860003373ffffffffffffffffffffffffffffffffffffffff1673ffffffffffffffffffffffffffffffffffffffff168152602001908152602001600020819055506120e13382601260009054906101000a900473ffffffffffffffffffffffffffffffffffffffff1673ffffffffffffffffffffffffffffffffffffffff1661467e9092919063ffffffff16565b3373ffffffffffffffffffffffffffffffffffffffff167fe2403640ba68fed3a2f88b7557551d1993f84b99bb10ff833f0cf8db0c5e0486826040518082815260200191505060405180910390a25b5050565b6001151560076000838152602001908152602001600020600d0160009054906101000a900460ff161515146121d1576040517f08c379a00000000000000000000000000000000000000000000000000000000081526004018080602001828103825260058152602001807f216f70656e00000000000000000000000000000000000000000000000000000081525060200191505060405180910390fd5b4360076000838152602001908152602001600020600701541061225c576040517f08c379a00000000000000000000000000000000000000000000000000000000081526004018080602001828103825260048152602001807f21656e640000000000000000000000000000000000000000000000000000000081525060200191505060405180910390fd5b60008061226883612ba1565b5091509150600080905060076000858152602001908152602001600020600c015460076000868152602001908152602001600020600b0154106122aa57600190505b600060076000868152602001908152602001600020600d0160006101000a81548160ff021916908315150217905550837f66ab4d2a1f6db1c01d1d46ab61a9c333b5a4de5e75cc7a68e1495b4badbd009b8484846040518084815260200183815260200182151515158152602001935050505060405180910390a250505050565b60066020528060005260406000206000915090505481565b600b5481565b600d60009054906101000a900473ffffffffffffffffffffffffffffffffffffffff1681565b600d60009054906101000a900473ffffffffffffffffffffffffffffffffffffffff1673ffffffffffffffffffffffffffffffffffffffff163373ffffffffffffffffffffffffffffffffffffffff1614612432576040517f08c379a000000000000000000000000000000000000000000000000000000000815260040180806020018281038252600b8152602001807f21676f7665726e616e636500000000000000000000000000000000000000000081525060200191505060405180910390fd5b8060058190555050565b600d60009054906101000a900473ffffffffffffffffffffffffffffffffffffffff1673ffffffffffffffffffffffffffffffffffffffff163373ffffffffffffffffffffffffffffffffffffffff16146124ff576040517f08c379a000000000000000000000000000000000000000000000000000000000815260040180806020018281038252600b8152602001807f21676f7665726e616e636500000000000000000000000000000000000000000081525060200191505060405180910390fd5b80600460146101000a81548160ff02191690831515021790555050565b601260009054906101000a900473ffffffffffffffffffffffffffffffffffffffff1681565b60055481565b6000600260008373ffffffffffffffffffffffffffffffffffffffff1673ffffffffffffffffffffffffffffffffffffffff168152602001908152602001600020549050919050565b612599613163565b61260b576040517f08c379a00000000000000000000000000000000000000000000000000000000081526004018080602001828103825260208152602001807f4f776e61626c653a2063616c6c6572206973206e6f7420746865206f776e657281525060200191505060405180910390fd5b600073ffffffffffffffffffffffffffffffffffffffff16600360009054906101000a900473ffffffffffffffffffffffffffffffffffffffff1673ffffffffffffffffffffffffffffffffffffffff167f8be0079c531659141344cd1fd0a4f28419497f9722a3daafe3b4186f6b6457e060405160405180910390a36000600360006101000a81548173ffffffffffffffffffffffffffffffffffffffff021916908373ffffffffffffffffffffffffffffffffffffffff160217905550565b43600760008381526020019081526020016000206006015410612757576040517f08c379a00000000000000000000000000000000000000000000000000000000081526004018080602001828103825260068152602001807f3c7374617274000000000000000000000000000000000000000000000000000081525060200191505060405180910390fd5b436007600083815260200190815260200160002060070154116127e2576040517f08c379a00000000000000000000000000000000000000000000000000000000081526004018080602001828103825260048152602001807f3e656e640000000000000000000000000000000000000000000000000000000081525060200191505060405180910390fd5b60006007600083815260200190815260200160002060020160003373ffffffffffffffffffffffffffffffffffffffff1673ffffffffffffffffffffffffffffffffffffffff16815260200190815260200160002054905060008111156128e05761286c8160076000858152602001908152602001600020600401546143d590919063ffffffff16565b600760008481526020019081526020016000206004018190555060006007600084815260200190815260200160002060020160003373ffffffffffffffffffffffffffffffffffffffff1673ffffffffffffffffffffffffffffffffffffffff168152602001908152602001600020819055505b60006129506007600085815260200190815260200160002060030160003373ffffffffffffffffffffffffffffffffffffffff1673ffffffffffffffffffffffffffffffffffffffff1681526020019081526020016000205461294233612b52565b6143d590919063ffffffff16565b905061297b8160076000868152602001908152602001600020600501546144ef90919063ffffffff16565b600760008581526020019081526020016000206005018190555061299e33612b52565b6007600085815260200190815260200160002060030160003373ffffffffffffffffffffffffffffffffffffffff1673ffffffffffffffffffffffffffffffffffffffff16815260200190815260200160002081905550600e5460076000858152602001908152602001600020600a01819055506000612a53600760008681526020019081526020016000206005015460076000878152602001908152602001600020600401546144ef90919063ffffffff16565b9050612a7e600e54612a706127108461441f90919063ffffffff16565b6144a590919063ffffffff16565b60076000868152602001908152602001600020600b0181905550612aad43600a546144ef90919063ffffffff16565b600660003373ffffffffffffffffffffffffffffffffffffffff1673ffffffffffffffffffffffffffffffffffffffff168152602001908152602001600020819055503373ffffffffffffffffffffffffffffffffffffffff16847f88d35328232823f54954b6627e9f732371656f6daa40cb1b01b27dc7875a7b4760008560405180831515151581526020018281526020019250505060405180910390a350505050565b6000600f60008373ffffffffffffffffffffffffffffffffffffffff1673ffffffffffffffffffffffffffffffffffffffff168152602001908152602001600020549050919050565b60145481565b600080600060076000858152602001908152602001600020600401549250600760008581526020019081526020016000206005015491506000612bed83856144ef90919063ffffffff16565b9050612c1681612c086127108761441f90919063ffffffff16565b6144a590919063ffffffff16565b9350612c3f81612c316127108661441f90919063ffffffff16565b6144a590919063ffffffff16565b9250612c7e60076000878152602001908152602001600020600a0154612c706127108461441f90919063ffffffff16565b6144a590919063ffffffff16565b9150509193909250565b6000612c964260135461474f565b905090565b43600760008381526020019081526020016000206006015410612d26576040517f08c379a00000000000000000000000000000000000000000000000000000000081526004018080602001828103825260068152602001807f3c7374617274000000000000000000000000000000000000000000000000000081525060200191505060405180910390fd5b43600760008381526020019081526020016000206007015411612db1576040517f08c379a00000000000000000000000000000000000000000000000000000000081526004018080602001828103825260048152602001807f3e656e640000000000000000000000000000000000000000000000000000000081525060200191505060405180910390fd5b60006007600083815260200190815260200160002060030160003373ffffffffffffffffffffffffffffffffffffffff1673ffffffffffffffffffffffffffffffffffffffff1681526020019081526020016000205490506000811115612eaf57612e3b8160076000858152602001908152602001600020600501546143d590919063ffffffff16565b600760008481526020019081526020016000206005018190555060006007600084815260200190815260200160002060030160003373ffffffffffffffffffffffffffffffffffffffff1673ffffffffffffffffffffffffffffffffffffffff168152602001908152602001600020819055505b6000612f1f6007600085815260200190815260200160002060020160003373ffffffffffffffffffffffffffffffffffffffff1673ffffffffffffffffffffffffffffffffffffffff16815260200190815260200160002054612f1133612b52565b6143d590919063ffffffff16565b9050612f4a8160076000868152602001908152602001600020600401546144ef90919063ffffffff16565b6007600085815260200190815260200160002060040181905550612f6d33612b52565b6007600085815260200190815260200160002060020160003373ffffffffffffffffffffffffffffffffffffffff1673ffffffffffffffffffffffffffffffffffffffff16815260200190815260200160002081905550600e5460076000858152602001908152602001600020600a01819055506000613022600760008681526020019081526020016000206005015460076000878152602001908152602001600020600401546144ef90919063ffffffff16565b905061304d600e5461303f6127108461441f90919063ffffffff16565b6144a590919063ffffffff16565b60076000868152602001908152602001600020600b018190555061307c43600a546144ef90919063ffffffff16565b600660003373ffffffffffffffffffffffffffffffffffffffff1673ffffffffffffffffffffffffffffffffffffffff168152602001908152602001600020819055503373ffffffffffffffffffffffffffffffffffffffff16847f88d35328232823f54954b6627e9f732371656f6daa40cb1b01b27dc7875a7b4760018560405180831515151581526020018281526020019250505060405180910390a350505050565b60176020528060005260406000206000915090505481565b6000600360009054906101000a900473ffffffffffffffffffffffffffffffffffffffff16905090565b6000600360009054906101000a900473ffffffffffffffffffffffffffffffffffffffff1673ffffffffffffffffffffffffffffffffffffffff166131a6614676565b73ffffffffffffffffffffffffffffffffffffffff1614905090565b60106020528060005260406000206000915054906101000a900460ff1681565b336131eb61396a565b6016819055506131f9612c88565b601581905550600073ffffffffffffffffffffffffffffffffffffffff168173ffffffffffffffffffffffffffffffffffffffff16146132c65761323c81610fbc565b601860008373ffffffffffffffffffffffffffffffffffffffff1673ffffffffffffffffffffffffffffffffffffffff16815260200190815260200160002081905550601654601760008373ffffffffffffffffffffffffffffffffffffffff1673ffffffffffffffffffffffffffffffffffffffff168152602001908152602001600020819055505b6000821161333c576040517f08c379a000000000000000000000000000000000000000000000000000000000815260040180806020018281038252600e8152602001807f43616e6e6f74207374616b65203000000000000000000000000000000000000081525060200191505060405180910390fd5b60011515601060003373ffffffffffffffffffffffffffffffffffffffff1673ffffffffffffffffffffffffffffffffffffffff16815260200190815260200160002060009054906101000a900460ff1615151415613446576133e782600f60003373ffffffffffffffffffffffffffffffffffffffff1673ffffffffffffffffffffffffffffffffffffffff168152602001908152602001600020546144ef90919063ffffffff16565b600f60003373ffffffffffffffffffffffffffffffffffffffff1673ffffffffffffffffffffffffffffffffffffffff1681526020019081526020016000208190555061343f82600e546144ef90919063ffffffff16565b600e819055505b61344f82614768565b3373ffffffffffffffffffffffffffffffffffffffff167f9e71bc8eea02a63969f509818f2dafb9254532904319f9dbda79b67bd34a5f3d836040518082815260200191505060405180910390a25050565b600d60009054906101000a900473ffffffffffffffffffffffffffffffffffffffff1673ffffffffffffffffffffffffffffffffffffffff163373ffffffffffffffffffffffffffffffffffffffff1614613564576040517f08c379a000000000000000000000000000000000000000000000000000000000815260040180806020018281038252600b8152602001807f21676f7665726e616e636500000000000000000000000000000000000000000081525060200191505060405180910390fd5b80600d60006101000a81548173ffffffffffffffffffffffffffffffffffffffff021916908373ffffffffffffffffffffffffffffffffffffffff16021790555050565b601160009054906101000a900473ffffffffffffffffffffffffffffffffffffffff1681565b60011515601060003373ffffffffffffffffffffffffffffffffffffffff1673ffffffffffffffffffffffffffffffffffffffff16815260200190815260200160002060009054906101000a900460ff16151514613694576040517f08c379a00000000000000000000000000000000000000000000000000000000081526004018080602001828103825260068152602001807f21766f746572000000000000000000000000000000000000000000000000000081525060200191505060405180910390fd5b6000601060003373ffffffffffffffffffffffffffffffffffffffff1673ffffffffffffffffffffffffffffffffffffffff16815260200190815260200160002060006101000a81548160ff021916908315150217905550600f60003373ffffffffffffffffffffffffffffffffffffffff1673ffffffffffffffffffffffffffffffffffffffff16815260200190815260200160002054600e541015613742576000600e8190555061379d565b613796600f60003373ffffffffffffffffffffffffffffffffffffffff1673ffffffffffffffffffffffffffffffffffffffff16815260200190815260200160002054600e546143d590919063ffffffff16565b600e819055505b7e330fa0724b41c0d187cfad0aa7ff5fa2ff7e742995886f55fda6f5909914b833600f60003373ffffffffffffffffffffffffffffffffffffffff1673ffffffffffffffffffffffffffffffffffffffff16815260200190815260200160002054600e54604051808473ffffffffffffffffffffffffffffffffffffffff1673ffffffffffffffffffffffffffffffffffffffff168152602001838152602001828152602001935050505060405180910390a16000600f60003373ffffffffffffffffffffffffffffffffffffffff1673ffffffffffffffffffffffffffffffffffffffff16815260200190815260200160002081905550565b600d60009054906101000a900473ffffffffffffffffffffffffffffffffffffffff1673ffffffffffffffffffffffffffffffffffffffff163373ffffffffffffffffffffffffffffffffffffffff161461395a576040517f08c379a000000000000000000000000000000000000000000000000000000000815260040180806020018281038252600b8152602001807f21676f7665726e616e636500000000000000000000000000000000000000000081525060200191505060405180910390fd5b80600c8190555050565b60155481565b6000806139756113aa565b14156139855760165490506139ff565b6139fc6139eb6139936113aa565b6139dd670de0b6b3a76400006139cf6014546139c16015546139b3612c88565b6143d590919063ffffffff16565b61441f90919063ffffffff16565b61441f90919063ffffffff16565b6144a590919063ffffffff16565b6016546144ef90919063ffffffff16565b90505b90565b600d60009054906101000a900473ffffffffffffffffffffffffffffffffffffffff1673ffffffffffffffffffffffffffffffffffffffff163373ffffffffffffffffffffffffffffffffffffffff1614613ac5576040517f08c379a000000000000000000000000000000000000000000000000000000000815260040180806020018281038252600b8152602001807f21676f7665726e616e636500000000000000000000000000000000000000000081525060200191505060405180910390fd5b80600a8190555050565b600b54613adb33612b52565b11613b4e576040517f08c379a00000000000000000000000000000000000000000000000000000000081526004018080602001828103825260088152602001807f3c6d696e696d756d00000000000000000000000000000000000000000000000081525060200191505060405180910390fd5b60405180610180016040528060085481526020013373ffffffffffffffffffffffffffffffffffffffff1681526020016000815260200160008152602001438152602001613ba7436009546144ef90919063ffffffff16565b81526020018373ffffffffffffffffffffffffffffffffffffffff168152602001828152602001600e54815260200160008152602001600c5481526020016001151581525060076000600860008154809291906001019190505581526020019081526020016000206000820151816000015560208201518160010160006101000a81548173ffffffffffffffffffffffffffffffffffffffff021916908373ffffffffffffffffffffffffffffffffffffffff16021790555060408201518160040155606082015181600501556080820151816006015560a0820151816007015560c08201518160080160006101000a81548173ffffffffffffffffffffffffffffffffffffffff021916908373ffffffffffffffffffffffffffffffffffffffff16021790555060e0820151816009019080519060200190613ceb929190614ed1565b5061010082015181600a015561012082015181600b015561014082015181600c015561016082015181600d0160006101000a81548160ff0219169083151502179055509050507ff3aa81c2323a935a3e72c018c519b8d8b432eeebaa15cbbe5c8305f0f9df6f4d600854334360095486604051808681526020018573ffffffffffffffffffffffffffffffffffffffff1673ffffffffffffffffffffffffffffffffffffffff1681526020018481526020018381526020018273ffffffffffffffffffffffffffffffffffffffff1673ffffffffffffffffffffffffffffffffffffffff1681526020019550505050505060405180910390a1613df943600a546144ef90919063ffffffff16565b600660003373ffffffffffffffffffffffffffffffffffffffff1673ffffffffffffffffffffffffffffffffffffffff168152602001908152602001600020819055505050565b600f6020528060005260406000206000915090505481565b60085481565b60165481565b613e75613e7033612548565b611635565b613e7d611d34565b565b600d60009054906101000a900473ffffffffffffffffffffffffffffffffffffffff1673ffffffffffffffffffffffffffffffffffffffff163373ffffffffffffffffffffffffffffffffffffffff1614613f42576040517f08c379a000000000000000000000000000000000000000000000000000000000815260040180806020018281038252600b8152602001807f21676f7665726e616e636500000000000000000000000000000000000000000081525060200191505060405180910390fd5b601260009054906101000a900473ffffffffffffffffffffffffffffffffffffffff1673ffffffffffffffffffffffffffffffffffffffff168273ffffffffffffffffffffffffffffffffffffffff161415614006576040517f08c379a00000000000000000000000000000000000000000000000000000000081526004018080602001828103825260068152602001807f726577617264000000000000000000000000000000000000000000000000000081525060200191505060405180910390fd5b6000809054906101000a900473ffffffffffffffffffffffffffffffffffffffff1673ffffffffffffffffffffffffffffffffffffffff168273ffffffffffffffffffffffffffffffffffffffff1614156140c9576040517f08c379a00000000000000000000000000000000000000000000000000000000081526004018080602001828103825260028152602001807f6c7000000000000000000000000000000000000000000000000000000000000081525060200191505060405180910390fd5b614116600d60009054906101000a900473ffffffffffffffffffffffffffffffffffffffff16828473ffffffffffffffffffffffffffffffffffffffff1661467e9092919063ffffffff16565b5050565b60135481565b60095481565b61412e613163565b6141a0576040517f08c379a00000000000000000000000000000000000000000000000000000000081526004018080602001828103825260208152602001807f4f776e61626c653a2063616c6c6572206973206e6f7420746865206f776e657281525060200191505060405180910390fd5b6141a981614869565b50565b600a5481565b60008060006141c084612ba1565b9250925092508060076000868152602001908152602001600020600c015410614251576040517f08c379a00000000000000000000000000000000000000000000000000000000081526004018080602001828103825260078152602001807f2171756f72756d0000000000000000000000000000000000000000000000000081525060200191505060405180910390fd5b436007600086815260200190815260200160002060070154106142dc576040517f08c379a00000000000000000000000000000000000000000000000000000000081526004018080602001828103825260048152602001807f21656e640000000000000000000000000000000000000000000000000000000081525060200191505060405180910390fd5b6001151560076000868152602001908152602001600020600d0160009054906101000a900460ff16151514156143165761431584612134565b5b6007600085815260200190815260200160002060080160009054906101000a900473ffffffffffffffffffffffffffffffffffffffff1673ffffffffffffffffffffffffffffffffffffffff1663c0137f7a858585856040518563ffffffff1660e01b815260040180858152602001848152602001838152602001828152602001945050505050600060405180830381600087803b1580156143b757600080fd5b505af11580156143cb573d6000803e3d6000fd5b5050505050505050565b600061441783836040518060400160405280601e81526020017f536166654d6174683a207375627472616374696f6e206f766572666c6f7700008152506149af565b905092915050565b600080831415614432576000905061449f565b600082840290508284828161444357fe5b041461449a576040517f08c379a0000000000000000000000000000000000000000000000000000000008152600401808060200182810382526021815260200180614f9d6021913960400191505060405180910390fd5b809150505b92915050565b60006144e783836040518060400160405280601a81526020017f536166654d6174683a206469766973696f6e206279207a65726f000000000000815250614a6f565b905092915050565b60008082840190508381101561456d576040517f08c379a000000000000000000000000000000000000000000000000000000000815260040180806020018281038252601b8152602001807f536166654d6174683a206164646974696f6e206f766572666c6f77000000000081525060200191505060405180910390fd5b8091505092915050565b61458c816001546143d590919063ffffffff16565b6001819055506145e481600260003373ffffffffffffffffffffffffffffffffffffffff1673ffffffffffffffffffffffffffffffffffffffff168152602001908152602001600020546143d590919063ffffffff16565b600260003373ffffffffffffffffffffffffffffffffffffffff1673ffffffffffffffffffffffffffffffffffffffff1681526020019081526020016000208190555061467333826000809054906101000a900473ffffffffffffffffffffffffffffffffffffffff1673ffffffffffffffffffffffffffffffffffffffff1661467e9092919063ffffffff16565b50565b600033905090565b61474a838473ffffffffffffffffffffffffffffffffffffffff1663a9059cbb905060e01b8484604051602401808373ffffffffffffffffffffffffffffffffffffffff1673ffffffffffffffffffffffffffffffffffffffff16815260200182815260200192505050604051602081830303815290604052907bffffffffffffffffffffffffffffffffffffffffffffffffffffffff19166020820180517bffffffffffffffffffffffffffffffffffffffffffffffffffffffff8381831617835250505050614b35565b505050565b600081831061475e5781614760565b825b905092915050565b61477d816001546144ef90919063ffffffff16565b6001819055506147d581600260003373ffffffffffffffffffffffffffffffffffffffff1673ffffffffffffffffffffffffffffffffffffffff168152602001908152602001600020546144ef90919063ffffffff16565b600260003373ffffffffffffffffffffffffffffffffffffffff1673ffffffffffffffffffffffffffffffffffffffff168152602001908152602001600020819055506148663330836000809054906101000a900473ffffffffffffffffffffffffffffffffffffffff1673ffffffffffffffffffffffffffffffffffffffff16614d80909392919063ffffffff16565b50565b600073ffffffffffffffffffffffffffffffffffffffff168173ffffffffffffffffffffffffffffffffffffffff1614156148ef576040517f08c379a0000000000000000000000000000000000000000000000000000000008152600401808060200182810382526026815260200180614f776026913960400191505060405180910390fd5b8073ffffffffffffffffffffffffffffffffffffffff16600360009054906101000a900473ffffffffffffffffffffffffffffffffffffffff1673ffffffffffffffffffffffffffffffffffffffff167f8be0079c531659141344cd1fd0a4f28419497f9722a3daafe3b4186f6b6457e060405160405180910390a380600360006101000a81548173ffffffffffffffffffffffffffffffffffffffff021916908373ffffffffffffffffffffffffffffffffffffffff16021790555050565b6000838311158290614a5c576040517f08c379a00000000000000000000000000000000000000000000000000000000081526004018080602001828103825283818151815260200191508051906020019080838360005b83811015614a21578082015181840152602081019050614a06565b50505050905090810190601f168015614a4e5780820380516001836020036101000a031916815260200191505b509250505060405180910390fd5b5060008385039050809150509392505050565b60008083118290614b1b576040517f08c379a00000000000000000000000000000000000000000000000000000000081526004018080602001828103825283818151815260200191508051906020019080838360005b83811015614ae0578082015181840152602081019050614ac5565b50505050905090810190601f168015614b0d5780820380516001836020036101000a031916815260200191505b509250505060405180910390fd5b506000838581614b2757fe5b049050809150509392505050565b614b548273ffffffffffffffffffffffffffffffffffffffff16614e86565b614bc6576040517f08c379a000000000000000000000000000000000000000000000000000000000815260040180806020018281038252601f8152602001807f5361666545524332303a2063616c6c20746f206e6f6e2d636f6e74726163740081525060200191505060405180910390fd5b600060608373ffffffffffffffffffffffffffffffffffffffff16836040518082805190602001908083835b60208310614c155780518252602082019150602081019050602083039250614bf2565b6001836020036101000a0380198251168184511680821785525050505050509050019150506000604051808303816000865af19150503d8060008114614c77576040519150601f19603f3d011682016040523d82523d6000602084013e614c7c565b606091505b509150915081614cf4576040517f08c379a00000000000000000000000000000000000000000000000000000000081526004018080602001828103825260208152602001807f5361666545524332303a206c6f772d6c6576656c2063616c6c206661696c656481525060200191505060405180910390fd5b600081511115614d7a57808060200190516020811015614d1357600080fd5b8101908080519060200190929190505050614d79576040517f08c379a000000000000000000000000000000000000000000000000000000000815260040180806020018281038252602a815260200180614fdf602a913960400191505060405180910390fd5b5b50505050565b614e80848573ffffffffffffffffffffffffffffffffffffffff166323b872dd905060e01b858585604051602401808473ffffffffffffffffffffffffffffffffffffffff1673ffffffffffffffffffffffffffffffffffffffff1681526020018373ffffffffffffffffffffffffffffffffffffffff1673ffffffffffffffffffffffffffffffffffffffff1681526020018281526020019350505050604051602081830303815290604052907bffffffffffffffffffffffffffffffffffffffffffffffffffffffff19166020820180517bffffffffffffffffffffffffffffffffffffffffffffffffffffffff8381831617835250505050614b35565b50505050565b60008060007fc5d2460186f7233c927e7db2dcc703c0e500b653ca82273b7bfad8045d85a47060001b9050833f9150808214158015614ec857506000801b8214155b92505050919050565b828054600181600116156101000203166002900490600052602060002090601f016020900481019282601f10614f1257805160ff1916838001178555614f40565b82800160010185558215614f40579182015b82811115614f3f578251825591602001919060010190614f24565b5b509050614f4d9190614f51565b5090565b614f7391905b80821115614f6f576000816000905550600101614f57565b5090565b9056fe4f776e61626c653a206e6577206f776e657220697320746865207a65726f2061646472657373536166654d6174683a206d756c7469706c69636174696f6e206f766572666c6f7743616c6c6572206973206e6f742072657761726420646973747269627574696f6e5361666545524332303a204552433230206f7065726174696f6e20646964206e6f742073756363656564a265627a7a723158209384bd3e0c6707d3294affca2bd5f2ed4f7d9e07cafb0b4d8c4700e2f082f4ec64736f6c63430005100032",
  "source": "// SPDX-License-Identifier: MIT\npragma solidity >=0.5.0;\n\nimport \"@openzeppelin/contracts/math/Math.sol\";\nimport \"./IRewardDistributionRecipient.sol\";\nimport \"./LPTokenWrapper.sol\";\n\n/*\n   ____            __   __        __   _\n  / __/__ __ ___  / /_ / /  ___  / /_ (_)__ __\n _\\ \\ / // // _ \\/ __// _ \\/ -_)/ __// / \\ \\ /\n/___/ \\_, //_//_/\\__//_//_/\\__/ \\__//_/ /_\\_\\\n     /___/\n\n* Synthetix: PLURewards.sol\n*\n* Docs: https://docs.synthetix.io/\n*\n*\n* MIT License\n* ===========\n*\n* Copyright (c) 2020 Synthetix\n*\n* Permission is hereby granted, free of charge, to any person obtaining a copy\n* of this software and associated documentation files (the \"Software\"), to deal\n* in the Software without restriction, including without limitation the rights\n* to use, copy, modify, merge, publish, distribute, sublicense, and/or sell\n* copies of the Software, and to permit persons to whom the Software is\n* furnished to do so, subject to the following conditions:\n*\n* The above copyright notice and this permission notice shall be included in all\n* copies or substantial portions of the Software.\n*\n* THE SOFTWARE IS PROVIDED \"AS IS\", WITHOUT WARRANTY OF ANY KIND, EXPRESS OR\n* IMPLIED, INCLUDING BUT NOT LIMITED TO THE WARRANTIES OF MERCHANTABILITY,\n* FITNESS FOR A PARTICULAR PURPOSE AND NONINFRINGEMENT. IN NO EVENT SHALL THE\n* AUTHORS OR COPYRIGHT HOLDERS BE LIABLE FOR ANY CLAIM, DAMAGES OR OTHER\n* LIABILITY, WHETHER IN AN ACTION OF CONTRACT, TORT OR OTHERWISE, ARISING FROM,\n* OUT OF OR IN CONNECTION WITH THE SOFTWARE OR THE USE OR OTHER DEALINGS IN THE\n*/\n\ninterface IExecutor {\n  function execute(uint, uint, uint, uint) external;\n}\n\ncontract PulotoGovernance is LPTokenWrapper, IRewardDistributionRecipient {\n  /* Fee collection for any other token */\n\n  function seize(IERC20 _token, uint amount) external {\n    require(msg.sender == governance, \"!governance\");\n    require(_token != plu, \"reward\");\n    require(_token != lp, \"lp\");\n    _token.safeTransfer(governance, amount);\n  }\n\n  /* Fees breaker, to protect withdraws if anything ever goes wrong */\n\n  bool public breaker = false;\n\n  function setBreaker(bool _breaker) external {\n    require(msg.sender == governance, \"!governance\");\n    breaker = _breaker;\n  }\n\n  uint public minimumBPTLP = 1000e18;\n\n  function setMinimumBPTLP(uint _minimum) public {\n    require(msg.sender == governance, \"!governance\");\n    minimumBPTLP = _minimum;\n  }\n\n  /* Modifications for proposals */\n\n  mapping(address => uint) public voteLock; // period that your sake it locked to keep it for voting\n\n  struct Proposal {\n    uint id;\n    address proposer;\n    mapping(address => uint) forVotes;\n    mapping(address => uint) againstVotes;\n    uint totalForVotes;\n    uint totalAgainstVotes;\n    uint start; // block start;\n    uint end; // start + period\n    address executor;\n    string hash;\n    uint totalVotesAvailable;\n    uint quorum;\n    uint quorumRequired;\n    bool open;\n  }\n\n  mapping (uint => Proposal) public proposals;\n  uint public proposalCount;\n  uint public period = 17280; // voting period in blocks ~ 17280 3 days for 15s/block\n  uint public lock = 17280; // vote lock in blocks ~ 17280 3 days for 15s/block\n  uint public minimum = 1e18;\n  uint public quorum = 2000;\n\n  address public governance;\n\n  constructor (address _bptlp, address _plu) public LPTokenWrapper(_plu) {\n    governance = tx.origin;\n    proposalCount = 0;\n    bptlp = IERC20(_bptlp);\n    plu = IERC20(_plu);\n  }\n\n  function setGovernance(address _governance) public {\n    require(msg.sender == governance, \"!governance\");\n    governance = _governance;\n  }\n\n  function setQuorum(uint _quorum) public {\n    require(msg.sender == governance, \"!governance\");\n    quorum = _quorum;\n  }\n\n  function setMinimum(uint _minimum) public {\n    require(msg.sender == governance, \"!governance\");\n    minimum = _minimum;\n  }\n\n  function setPeriod(uint _period) public {\n    require(msg.sender == governance, \"!governance\");\n    period = _period;\n  }\n\n  function setLock(uint _lock) public {\n    require(msg.sender == governance, \"!governance\");\n    lock = _lock;\n  }\n\n  event NewProposal(uint id, address creator, uint start, uint duration, address executor);\n  event Vote(uint indexed id, address indexed voter, bool vote, uint weight);\n\n  function propose(address executor, string memory hash) public {\n    require(votesOf(msg.sender) > minimum, \"<minimum\");\n    proposals[proposalCount++] = Proposal({\n      id: proposalCount,\n      proposer: msg.sender,\n      totalForVotes: 0,\n      totalAgainstVotes: 0,\n      start: block.number,\n      end: period.add(block.number),\n      executor: executor,\n      hash: hash,\n      totalVotesAvailable: totalVotes,\n      quorum: 0,\n      quorumRequired: quorum,\n      open: true\n    });\n\n    emit NewProposal(proposalCount, msg.sender, block.number, period, executor);\n    voteLock[msg.sender] = lock.add(block.number);\n  }\n\n  function execute(uint id) public {\n    (uint _for, uint _against, uint _quorum) = getStats(id);\n    require(proposals[id].quorumRequired < _quorum, \"!quorum\");\n    require(proposals[id].end < block.number , \"!end\");\n    if (proposals[id].open == true) {\n      tallyVotes(id);\n    }\n    IExecutor(proposals[id].executor).execute(id, _for, _against, _quorum);\n  }\n\n  function getStats(uint id) public view returns (uint _for, uint _against, uint _quorum) {\n    _for = proposals[id].totalForVotes;\n    _against = proposals[id].totalAgainstVotes;\n\n    uint _total = _for.add(_against);\n    _for = _for.mul(10000).div(_total);\n    _against = _against.mul(10000).div(_total);\n\n    _quorum = _total.mul(10000).div(proposals[id].totalVotesAvailable);\n  }\n\n  event ProposalFinished(uint indexed id, uint _for, uint _against, bool quorumReached);\n\n  function tallyVotes(uint id) public {\n    require(proposals[id].open == true, \"!open\");\n    require(proposals[id].end < block.number, \"!end\");\n\n    (uint _for, uint _against,) = getStats(id);\n    bool _quorum = false;\n    if (proposals[id].quorum >= proposals[id].quorumRequired) {\n      _quorum = true;\n    }\n    proposals[id].open = false;\n    emit ProposalFinished(id, _for, _against, _quorum);\n  }\n\n  function votesOf(address voter) public view returns (uint) {\n    return votes[voter];\n  }\n\n  uint public totalVotes;\n  mapping(address => uint) public votes;\n  event RegisterVoter(address voter, uint votes, uint totalVotes);\n  event RevokeVoter(address voter, uint votes, uint totalVotes);\n\n  function register() public {\n    require(voters[msg.sender] == false, \"voter\");\n    voters[msg.sender] = true;\n    votes[msg.sender] = balanceOf(msg.sender);\n    totalVotes = totalVotes.add(votes[msg.sender]);\n    emit RegisterVoter(msg.sender, votes[msg.sender], totalVotes);\n  }\n\n  function revoke() public {\n    require(voters[msg.sender] == true, \"!voter\");\n    voters[msg.sender] = false;\n    if (totalVotes < votes[msg.sender]) {\n      // edge case, should be impossible, but this is defi\n      totalVotes = 0;\n    } else {\n      totalVotes = totalVotes.sub(votes[msg.sender]);\n    }\n    emit RevokeVoter(msg.sender, votes[msg.sender], totalVotes);\n    votes[msg.sender] = 0;\n  }\n\n  mapping(address => bool) public voters;\n\n  function voteFor(uint id) public {\n    require(proposals[id].start < block.number , \"<start\");\n    require(proposals[id].end > block.number , \">end\");\n\n    uint _against = proposals[id].againstVotes[msg.sender];\n    if (_against > 0) {\n      proposals[id].totalAgainstVotes = proposals[id].totalAgainstVotes.sub(_against);\n      proposals[id].againstVotes[msg.sender] = 0;\n    }\n\n    uint vote = votesOf(msg.sender).sub(proposals[id].forVotes[msg.sender]);\n    proposals[id].totalForVotes = proposals[id].totalForVotes.add(vote);\n    proposals[id].forVotes[msg.sender] = votesOf(msg.sender);\n\n    proposals[id].totalVotesAvailable = totalVotes;\n    uint _votes = proposals[id].totalForVotes.add(proposals[id].totalAgainstVotes);\n    proposals[id].quorum = _votes.mul(10000).div(totalVotes);\n\n    voteLock[msg.sender] = lock.add(block.number);\n\n    emit Vote(id, msg.sender, true, vote);\n  }\n\n  function voteAgainst(uint id) public {\n    require(proposals[id].start < block.number , \"<start\");\n    require(proposals[id].end > block.number , \">end\");\n\n    uint _for = proposals[id].forVotes[msg.sender];\n    if (_for > 0) {\n      proposals[id].totalForVotes = proposals[id].totalForVotes.sub(_for);\n      proposals[id].forVotes[msg.sender] = 0;\n    }\n\n    uint vote = votesOf(msg.sender).sub(proposals[id].againstVotes[msg.sender]);\n    proposals[id].totalAgainstVotes = proposals[id].totalAgainstVotes.add(vote);\n    proposals[id].againstVotes[msg.sender] = votesOf(msg.sender);\n\n    proposals[id].totalVotesAvailable = totalVotes;\n    uint _votes = proposals[id].totalForVotes.add(proposals[id].totalAgainstVotes);\n    proposals[id].quorum = _votes.mul(10000).div(totalVotes);\n\n    voteLock[msg.sender] = lock.add(block.number);\n\n    emit Vote(id, msg.sender, false, vote);\n  }\n\n  /* Default rewards contract */\n\n  IERC20 public bptlp;\n  IERC20 public plu;\n\n  uint256 public constant DURATION = 60 days;\n\n  uint256 public periodFinish = 0;\n  uint256 public rewardRate = 0;\n  uint256 public lastUpdateTime;\n  uint256 public rewardPerTokenStored;\n  mapping(address => uint256) public userRewardPerTokenPaid;\n  mapping(address => uint256) public rewards;\n\n  event RewardAdded(uint256 reward);\n  event Staked(address indexed user, uint256 amount);\n  event Withdrawn(address indexed user, uint256 amount);\n  event RewardPaid(address indexed user, uint256 reward);\n\n  modifier updateReward(address account) {\n    rewardPerTokenStored = rewardPerToken();\n    lastUpdateTime = lastTimeRewardApplicable();\n    if (account != address(0)) {\n      rewards[account] = earned(account);\n      userRewardPerTokenPaid[account] = rewardPerTokenStored;\n    }\n    _;\n  }\n\n  function lastTimeRewardApplicable() public view returns (uint256) {\n    return Math.min(block.timestamp, periodFinish);\n  }\n\n  function rewardPerToken() public view returns (uint256) {\n    if (totalSupply() == 0) {\n      return rewardPerTokenStored;\n    }\n    return\n      rewardPerTokenStored.add(\n          lastTimeRewardApplicable()\n            .sub(lastUpdateTime)\n            .mul(rewardRate)\n            .mul(1e18)\n            .div(totalSupply())\n      );\n  }\n\n  function earned(address account) public view returns (uint256) {\n    return\n      balanceOf(account)\n        .mul(rewardPerToken().sub(userRewardPerTokenPaid[account]))\n        .div(1e18)\n        .add(rewards[account]);\n  }\n\n  // stake visibility is public as overriding LPTokenWrapper's stake() function\n  function stake(uint256 amount) public updateReward(msg.sender) {\n    require(amount > 0, \"Cannot stake 0\");\n    if (voters[msg.sender] == true) {\n      votes[msg.sender] = votes[msg.sender].add(amount);\n      totalVotes = totalVotes.add(amount);\n    }\n    super.stake(amount);\n    emit Staked(msg.sender, amount);\n  }\n\n  function withdraw(uint256 amount) public updateReward(msg.sender) {\n    require(amount > 0, \"Cannot withdraw 0\");\n    if (voters[msg.sender] == true) {\n      votes[msg.sender] = votes[msg.sender].sub(amount);\n      totalVotes = totalVotes.sub(amount);\n    }\n    if (breaker == false) {\n      require(voteLock[msg.sender] < block.number, \"!locked\");\n    }\n    super.withdraw(amount);\n    emit Withdrawn(msg.sender, amount);\n  }\n\n  function exit() external {\n    withdraw(balanceOf(msg.sender));\n    getReward();\n  }\n\n  function getReward() public updateReward(msg.sender) {\n    if (breaker == false) {\n      require(bptlp.balanceOf(msg.sender) > minimumBPTLP, \"<minimumBPTLP\");\n      require(voteLock[msg.sender] > block.number, \"!voted\");\n    }\n    uint256 reward = earned(msg.sender);\n    if (reward > 0) {\n      rewards[msg.sender] = 0;\n      plu.safeTransfer(msg.sender, reward);\n      emit RewardPaid(msg.sender, reward);\n    }\n  }\n\n  function notifyRewardAmount(uint256 reward) external onlyRewardDistribution updateReward(address(0)) {\n    if (block.timestamp >= periodFinish) {\n      rewardRate = reward.div(DURATION);\n    } else {\n      uint256 remaining = periodFinish.sub(block.timestamp);\n      uint256 leftover = remaining.mul(rewardRate);\n      rewardRate = reward.add(leftover).div(DURATION);\n    }\n    lastUpdateTime = block.timestamp;\n    periodFinish = block.timestamp.add(DURATION);\n    emit RewardAdded(reward);\n  }\n}\n",
  "sourcePath": "/Users/beex/dev/plouto-protocol/contracts/PloutoGovernance.sol",
  "compiler": {
    "name": "solc",
    "version": "0.5.16+commit.9c3226ce.Emscripten.clang"
  },
  "schemaVersion": "3.2.4",
  "updatedAt": "2020-09-11T02:49:00.511Z",
  "networkType": "ethereum",
  "devdoc": {
    "methods": {
      "isOwner()": {
        "details": "Returns true if the caller is the current owner."
      },
      "owner()": {
        "details": "Returns the address of the current owner."
      },
      "renounceOwnership()": {
        "details": "Leaves the contract without owner. It will not be possible to call `onlyOwner` functions anymore. Can only be called by the current owner.     * NOTE: Renouncing ownership will leave the contract without an owner, thereby removing any functionality that is only available to the owner."
      },
      "transferOwnership(address)": {
        "details": "Transfers ownership of the contract to a new account (`newOwner`). Can only be called by the current owner."
      }
    }
  },
  "userdoc": {
    "methods": {}
  }
}