{
  "contractName": "PulotoGovernance",
  "abi": [
    {
      "inputs": [
        {
          "internalType": "address",
          "name": "_bptlp",
          "type": "address"
        },
        {
          "internalType": "address",
          "name": "_plu",
          "type": "address"
        },
        {
          "internalType": "address",
          "name": "_controller",
          "type": "address"
        }
      ],
      "payable": false,
      "stateMutability": "nonpayable",
      "type": "constructor"
    },
    {
      "anonymous": false,
      "inputs": [
        {
          "indexed": false,
          "internalType": "uint256",
          "name": "id",
          "type": "uint256"
        },
        {
          "indexed": false,
          "internalType": "address",
          "name": "creator",
          "type": "address"
        },
        {
          "indexed": false,
          "internalType": "uint256",
          "name": "start",
          "type": "uint256"
        },
        {
          "indexed": false,
          "internalType": "uint256",
          "name": "duration",
          "type": "uint256"
        },
        {
          "indexed": false,
          "internalType": "address",
          "name": "executor",
          "type": "address"
        }
      ],
      "name": "NewProposal",
      "type": "event"
    },
    {
      "anonymous": false,
      "inputs": [
        {
          "indexed": true,
          "internalType": "address",
          "name": "previousOwner",
          "type": "address"
        },
        {
          "indexed": true,
          "internalType": "address",
          "name": "newOwner",
          "type": "address"
        }
      ],
      "name": "OwnershipTransferred",
      "type": "event"
    },
    {
      "anonymous": false,
      "inputs": [
        {
          "indexed": true,
          "internalType": "uint256",
          "name": "id",
          "type": "uint256"
        },
        {
          "indexed": false,
          "internalType": "uint256",
          "name": "_for",
          "type": "uint256"
        },
        {
          "indexed": false,
          "internalType": "uint256",
          "name": "_against",
          "type": "uint256"
        },
        {
          "indexed": false,
          "internalType": "bool",
          "name": "quorumReached",
          "type": "bool"
        }
      ],
      "name": "ProposalFinished",
      "type": "event"
    },
    {
      "anonymous": false,
      "inputs": [
        {
          "indexed": false,
          "internalType": "address",
          "name": "voter",
          "type": "address"
        },
        {
          "indexed": false,
          "internalType": "uint256",
          "name": "votes",
          "type": "uint256"
        },
        {
          "indexed": false,
          "internalType": "uint256",
          "name": "totalVotes",
          "type": "uint256"
        }
      ],
      "name": "RegisterVoter",
      "type": "event"
    },
    {
      "anonymous": false,
      "inputs": [
        {
          "indexed": false,
          "internalType": "address",
          "name": "voter",
          "type": "address"
        },
        {
          "indexed": false,
          "internalType": "uint256",
          "name": "votes",
          "type": "uint256"
        },
        {
          "indexed": false,
          "internalType": "uint256",
          "name": "totalVotes",
          "type": "uint256"
        }
      ],
      "name": "RevokeVoter",
      "type": "event"
    },
    {
      "anonymous": false,
      "inputs": [
        {
          "indexed": false,
          "internalType": "uint256",
          "name": "reward",
          "type": "uint256"
        }
      ],
      "name": "RewardAdded",
      "type": "event"
    },
    {
      "anonymous": false,
      "inputs": [
        {
          "indexed": true,
          "internalType": "address",
          "name": "user",
          "type": "address"
        },
        {
          "indexed": false,
          "internalType": "uint256",
          "name": "reward",
          "type": "uint256"
        }
      ],
      "name": "RewardPaid",
      "type": "event"
    },
    {
      "anonymous": false,
      "inputs": [
        {
          "indexed": true,
          "internalType": "address",
          "name": "user",
          "type": "address"
        },
        {
          "indexed": false,
          "internalType": "uint256",
          "name": "amount",
          "type": "uint256"
        }
      ],
      "name": "Staked",
      "type": "event"
    },
    {
      "anonymous": false,
      "inputs": [
        {
          "indexed": true,
          "internalType": "uint256",
          "name": "id",
          "type": "uint256"
        },
        {
          "indexed": true,
          "internalType": "address",
          "name": "voter",
          "type": "address"
        },
        {
          "indexed": false,
          "internalType": "bool",
          "name": "vote",
          "type": "bool"
        },
        {
          "indexed": false,
          "internalType": "uint256",
          "name": "weight",
          "type": "uint256"
        }
      ],
      "name": "Vote",
      "type": "event"
    },
    {
      "anonymous": false,
      "inputs": [
        {
          "indexed": true,
          "internalType": "address",
          "name": "user",
          "type": "address"
        },
        {
          "indexed": false,
          "internalType": "uint256",
          "name": "amount",
          "type": "uint256"
        }
      ],
      "name": "Withdrawn",
      "type": "event"
    },
    {
      "constant": true,
      "inputs": [],
      "name": "DURATION",
      "outputs": [
        {
          "internalType": "uint256",
          "name": "",
          "type": "uint256"
        }
      ],
      "payable": false,
      "stateMutability": "view",
      "type": "function"
    },
    {
      "constant": true,
      "inputs": [
        {
          "internalType": "address",
          "name": "account",
          "type": "address"
        }
      ],
      "name": "balanceOf",
      "outputs": [
        {
          "internalType": "uint256",
          "name": "",
          "type": "uint256"
        }
      ],
      "payable": false,
      "stateMutability": "view",
      "type": "function"
    },
    {
      "constant": true,
      "inputs": [],
      "name": "bptlp",
      "outputs": [
        {
          "internalType": "contract IERC20",
          "name": "",
          "type": "address"
        }
      ],
      "payable": false,
      "stateMutability": "view",
      "type": "function"
    },
    {
      "constant": true,
      "inputs": [],
      "name": "breaker",
      "outputs": [
        {
          "internalType": "bool",
          "name": "",
          "type": "bool"
        }
      ],
      "payable": false,
      "stateMutability": "view",
      "type": "function"
    },
    {
      "constant": true,
      "inputs": [],
      "name": "controller",
      "outputs": [
        {
          "internalType": "address",
          "name": "",
          "type": "address"
        }
      ],
      "payable": false,
      "stateMutability": "view",
      "type": "function"
    },
    {
      "constant": true,
      "inputs": [],
      "name": "governance",
      "outputs": [
        {
          "internalType": "address",
          "name": "",
          "type": "address"
        }
      ],
      "payable": false,
      "stateMutability": "view",
      "type": "function"
    },
    {
      "constant": true,
      "inputs": [],
      "name": "isOwner",
      "outputs": [
        {
          "internalType": "bool",
          "name": "",
          "type": "bool"
        }
      ],
      "payable": false,
      "stateMutability": "view",
      "type": "function"
    },
    {
      "constant": true,
      "inputs": [],
      "name": "lastUpdateTime",
      "outputs": [
        {
          "internalType": "uint256",
          "name": "",
          "type": "uint256"
        }
      ],
      "payable": false,
      "stateMutability": "view",
      "type": "function"
    },
    {
      "constant": true,
      "inputs": [],
      "name": "lock",
      "outputs": [
        {
          "internalType": "uint256",
          "name": "",
          "type": "uint256"
        }
      ],
      "payable": false,
      "stateMutability": "view",
      "type": "function"
    },
    {
      "constant": true,
      "inputs": [],
      "name": "lp",
      "outputs": [
        {
          "internalType": "contract IERC20",
          "name": "",
          "type": "address"
        }
      ],
      "payable": false,
      "stateMutability": "view",
      "type": "function"
    },
    {
      "constant": true,
      "inputs": [],
      "name": "minimum",
      "outputs": [
        {
          "internalType": "uint256",
          "name": "",
          "type": "uint256"
        }
      ],
      "payable": false,
      "stateMutability": "view",
      "type": "function"
    },
    {
      "constant": true,
      "inputs": [],
      "name": "minimumBPTLP",
      "outputs": [
        {
          "internalType": "uint256",
          "name": "",
          "type": "uint256"
        }
      ],
      "payable": false,
      "stateMutability": "view",
      "type": "function"
    },
    {
      "constant": true,
      "inputs": [],
      "name": "owner",
      "outputs": [
        {
          "internalType": "address",
          "name": "",
          "type": "address"
        }
      ],
      "payable": false,
      "stateMutability": "view",
      "type": "function"
    },
    {
      "constant": true,
      "inputs": [],
      "name": "performanceFee",
      "outputs": [
        {
          "internalType": "uint256",
          "name": "",
          "type": "uint256"
        }
      ],
      "payable": false,
      "stateMutability": "view",
      "type": "function"
    },
    {
      "constant": true,
      "inputs": [],
      "name": "performanceMax",
      "outputs": [
        {
          "internalType": "uint256",
          "name": "",
          "type": "uint256"
        }
      ],
      "payable": false,
      "stateMutability": "view",
      "type": "function"
    },
    {
      "constant": true,
      "inputs": [],
      "name": "period",
      "outputs": [
        {
          "internalType": "uint256",
          "name": "",
          "type": "uint256"
        }
      ],
      "payable": false,
      "stateMutability": "view",
      "type": "function"
    },
    {
      "constant": true,
      "inputs": [],
      "name": "periodFinish",
      "outputs": [
        {
          "internalType": "uint256",
          "name": "",
          "type": "uint256"
        }
      ],
      "payable": false,
      "stateMutability": "view",
      "type": "function"
    },
    {
      "constant": true,
      "inputs": [],
      "name": "plu",
      "outputs": [
        {
          "internalType": "contract IERC20",
          "name": "",
          "type": "address"
        }
      ],
      "payable": false,
      "stateMutability": "view",
      "type": "function"
    },
    {
      "constant": true,
      "inputs": [],
      "name": "proposalCount",
      "outputs": [
        {
          "internalType": "uint256",
          "name": "",
          "type": "uint256"
        }
      ],
      "payable": false,
      "stateMutability": "view",
      "type": "function"
    },
    {
      "constant": true,
      "inputs": [
        {
          "internalType": "uint256",
          "name": "",
          "type": "uint256"
        }
      ],
      "name": "proposals",
      "outputs": [
        {
          "internalType": "uint256",
          "name": "id",
          "type": "uint256"
        },
        {
          "internalType": "address",
          "name": "proposer",
          "type": "address"
        },
        {
          "internalType": "uint256",
          "name": "totalForVotes",
          "type": "uint256"
        },
        {
          "internalType": "uint256",
          "name": "totalAgainstVotes",
          "type": "uint256"
        },
        {
          "internalType": "uint256",
          "name": "start",
          "type": "uint256"
        },
        {
          "internalType": "uint256",
          "name": "end",
          "type": "uint256"
        },
        {
          "internalType": "address",
          "name": "executor",
          "type": "address"
        },
        {
          "internalType": "string",
          "name": "hash",
          "type": "string"
        },
        {
          "internalType": "uint256",
          "name": "totalVotesAvailable",
          "type": "uint256"
        },
        {
          "internalType": "uint256",
          "name": "quorum",
          "type": "uint256"
        },
        {
          "internalType": "uint256",
          "name": "quorumRequired",
          "type": "uint256"
        },
        {
          "internalType": "bool",
          "name": "open",
          "type": "bool"
        }
      ],
      "payable": false,
      "stateMutability": "view",
      "type": "function"
    },
    {
      "constant": true,
      "inputs": [],
      "name": "quorum",
      "outputs": [
        {
          "internalType": "uint256",
          "name": "",
          "type": "uint256"
        }
      ],
      "payable": false,
      "stateMutability": "view",
      "type": "function"
    },
    {
      "constant": false,
      "inputs": [],
      "name": "renounceOwnership",
      "outputs": [],
      "payable": false,
      "stateMutability": "nonpayable",
      "type": "function"
    },
    {
      "constant": true,
      "inputs": [],
      "name": "rewardPerTokenStored",
      "outputs": [
        {
          "internalType": "uint256",
          "name": "",
          "type": "uint256"
        }
      ],
      "payable": false,
      "stateMutability": "view",
      "type": "function"
    },
    {
      "constant": true,
      "inputs": [],
      "name": "rewardRate",
      "outputs": [
        {
          "internalType": "uint256",
          "name": "",
          "type": "uint256"
        }
      ],
      "payable": false,
      "stateMutability": "view",
      "type": "function"
    },
    {
      "constant": true,
      "inputs": [
        {
          "internalType": "address",
          "name": "",
          "type": "address"
        }
      ],
      "name": "rewards",
      "outputs": [
        {
          "internalType": "uint256",
          "name": "",
          "type": "uint256"
        }
      ],
      "payable": false,
      "stateMutability": "view",
      "type": "function"
    },
    {
      "constant": false,
      "inputs": [
        {
          "internalType": "address",
          "name": "_rewardDistribution",
          "type": "address"
        }
      ],
      "name": "setRewardDistribution",
      "outputs": [],
      "payable": false,
      "stateMutability": "nonpayable",
      "type": "function"
    },
    {
      "constant": true,
      "inputs": [],
      "name": "totalSupply",
      "outputs": [
        {
          "internalType": "uint256",
          "name": "",
          "type": "uint256"
        }
      ],
      "payable": false,
      "stateMutability": "view",
      "type": "function"
    },
    {
      "constant": true,
      "inputs": [],
      "name": "totalVotes",
      "outputs": [
        {
          "internalType": "uint256",
          "name": "",
          "type": "uint256"
        }
      ],
      "payable": false,
      "stateMutability": "view",
      "type": "function"
    },
    {
      "constant": false,
      "inputs": [
        {
          "internalType": "address",
          "name": "newOwner",
          "type": "address"
        }
      ],
      "name": "transferOwnership",
      "outputs": [],
      "payable": false,
      "stateMutability": "nonpayable",
      "type": "function"
    },
    {
      "constant": true,
      "inputs": [
        {
          "internalType": "address",
          "name": "",
          "type": "address"
        }
      ],
      "name": "userRewardPerTokenPaid",
      "outputs": [
        {
          "internalType": "uint256",
          "name": "",
          "type": "uint256"
        }
      ],
      "payable": false,
      "stateMutability": "view",
      "type": "function"
    },
    {
      "constant": true,
      "inputs": [
        {
          "internalType": "address",
          "name": "",
          "type": "address"
        }
      ],
      "name": "voteLock",
      "outputs": [
        {
          "internalType": "uint256",
          "name": "",
          "type": "uint256"
        }
      ],
      "payable": false,
      "stateMutability": "view",
      "type": "function"
    },
    {
      "constant": true,
      "inputs": [
        {
          "internalType": "address",
          "name": "",
          "type": "address"
        }
      ],
      "name": "voters",
      "outputs": [
        {
          "internalType": "bool",
          "name": "",
          "type": "bool"
        }
      ],
      "payable": false,
      "stateMutability": "view",
      "type": "function"
    },
    {
      "constant": true,
      "inputs": [
        {
          "internalType": "address",
          "name": "",
          "type": "address"
        }
      ],
      "name": "votes",
      "outputs": [
        {
          "internalType": "uint256",
          "name": "",
          "type": "uint256"
        }
      ],
      "payable": false,
      "stateMutability": "view",
      "type": "function"
    },
    {
      "constant": false,
      "inputs": [
        {
          "internalType": "contract IERC20",
          "name": "_token",
          "type": "address"
        },
        {
          "internalType": "uint256",
          "name": "amount",
          "type": "uint256"
        }
      ],
      "name": "seize",
      "outputs": [],
      "payable": false,
      "stateMutability": "nonpayable",
      "type": "function"
    },
    {
      "constant": false,
      "inputs": [
        {
          "internalType": "bool",
          "name": "_breaker",
          "type": "bool"
        }
      ],
      "name": "setBreaker",
      "outputs": [],
      "payable": false,
      "stateMutability": "nonpayable",
      "type": "function"
    },
    {
      "constant": false,
      "inputs": [
        {
          "internalType": "uint256",
          "name": "_minimum",
          "type": "uint256"
        }
      ],
      "name": "setMinimumBPTLP",
      "outputs": [],
      "payable": false,
      "stateMutability": "nonpayable",
      "type": "function"
    },
    {
      "constant": false,
      "inputs": [
        {
          "internalType": "address",
          "name": "_governance",
          "type": "address"
        }
      ],
      "name": "setGovernance",
      "outputs": [],
      "payable": false,
      "stateMutability": "nonpayable",
      "type": "function"
    },
    {
      "constant": false,
      "inputs": [
        {
          "internalType": "uint256",
          "name": "_quorum",
          "type": "uint256"
        }
      ],
      "name": "setQuorum",
      "outputs": [],
      "payable": false,
      "stateMutability": "nonpayable",
      "type": "function"
    },
    {
      "constant": false,
      "inputs": [
        {
          "internalType": "uint256",
          "name": "_minimum",
          "type": "uint256"
        }
      ],
      "name": "setMinimum",
      "outputs": [],
      "payable": false,
      "stateMutability": "nonpayable",
      "type": "function"
    },
    {
      "constant": false,
      "inputs": [
        {
          "internalType": "uint256",
          "name": "_period",
          "type": "uint256"
        }
      ],
      "name": "setPeriod",
      "outputs": [],
      "payable": false,
      "stateMutability": "nonpayable",
      "type": "function"
    },
    {
      "constant": false,
      "inputs": [
        {
          "internalType": "uint256",
          "name": "_lock",
          "type": "uint256"
        }
      ],
      "name": "setLock",
      "outputs": [],
      "payable": false,
      "stateMutability": "nonpayable",
      "type": "function"
    },
    {
      "constant": false,
      "inputs": [
        {
          "internalType": "address",
          "name": "executor",
          "type": "address"
        },
        {
          "internalType": "string",
          "name": "hash",
          "type": "string"
        }
      ],
      "name": "propose",
      "outputs": [],
      "payable": false,
      "stateMutability": "nonpayable",
      "type": "function"
    },
    {
      "constant": false,
      "inputs": [
        {
          "internalType": "uint256",
          "name": "id",
          "type": "uint256"
        }
      ],
      "name": "execute",
      "outputs": [],
      "payable": false,
      "stateMutability": "nonpayable",
      "type": "function"
    },
    {
      "constant": true,
      "inputs": [
        {
          "internalType": "uint256",
          "name": "id",
          "type": "uint256"
        }
      ],
      "name": "getStats",
      "outputs": [
        {
          "internalType": "uint256",
          "name": "_for",
          "type": "uint256"
        },
        {
          "internalType": "uint256",
          "name": "_against",
          "type": "uint256"
        },
        {
          "internalType": "uint256",
          "name": "_quorum",
          "type": "uint256"
        }
      ],
      "payable": false,
      "stateMutability": "view",
      "type": "function"
    },
    {
      "constant": false,
      "inputs": [
        {
          "internalType": "uint256",
          "name": "id",
          "type": "uint256"
        }
      ],
      "name": "tallyVotes",
      "outputs": [],
      "payable": false,
      "stateMutability": "nonpayable",
      "type": "function"
    },
    {
      "constant": true,
      "inputs": [
        {
          "internalType": "address",
          "name": "voter",
          "type": "address"
        }
      ],
      "name": "votesOf",
      "outputs": [
        {
          "internalType": "uint256",
          "name": "",
          "type": "uint256"
        }
      ],
      "payable": false,
      "stateMutability": "view",
      "type": "function"
    },
    {
      "constant": false,
      "inputs": [],
      "name": "register",
      "outputs": [],
      "payable": false,
      "stateMutability": "nonpayable",
      "type": "function"
    },
    {
      "constant": false,
      "inputs": [],
      "name": "revoke",
      "outputs": [],
      "payable": false,
      "stateMutability": "nonpayable",
      "type": "function"
    },
    {
      "constant": false,
      "inputs": [
        {
          "internalType": "uint256",
          "name": "id",
          "type": "uint256"
        }
      ],
      "name": "voteFor",
      "outputs": [],
      "payable": false,
      "stateMutability": "nonpayable",
      "type": "function"
    },
    {
      "constant": false,
      "inputs": [
        {
          "internalType": "uint256",
          "name": "id",
          "type": "uint256"
        }
      ],
      "name": "voteAgainst",
      "outputs": [],
      "payable": false,
      "stateMutability": "nonpayable",
      "type": "function"
    },
    {
      "constant": false,
      "inputs": [
        {
          "internalType": "uint256",
          "name": "_performanceFee",
          "type": "uint256"
        }
      ],
      "name": "setPerformanceFee",
      "outputs": [],
      "payable": false,
      "stateMutability": "nonpayable",
      "type": "function"
    },
    {
      "constant": true,
      "inputs": [],
      "name": "lastTimeRewardApplicable",
      "outputs": [
        {
          "internalType": "uint256",
          "name": "",
          "type": "uint256"
        }
      ],
      "payable": false,
      "stateMutability": "view",
      "type": "function"
    },
    {
      "constant": true,
      "inputs": [],
      "name": "rewardPerToken",
      "outputs": [
        {
          "internalType": "uint256",
          "name": "",
          "type": "uint256"
        }
      ],
      "payable": false,
      "stateMutability": "view",
      "type": "function"
    },
    {
      "constant": true,
      "inputs": [
        {
          "internalType": "address",
          "name": "account",
          "type": "address"
        }
      ],
      "name": "earned",
      "outputs": [
        {
          "internalType": "uint256",
          "name": "",
          "type": "uint256"
        }
      ],
      "payable": false,
      "stateMutability": "view",
      "type": "function"
    },
    {
      "constant": false,
      "inputs": [
        {
          "internalType": "uint256",
          "name": "amount",
          "type": "uint256"
        }
      ],
      "name": "stake",
      "outputs": [],
      "payable": false,
      "stateMutability": "nonpayable",
      "type": "function"
    },
    {
      "constant": false,
      "inputs": [
        {
          "internalType": "uint256",
          "name": "amount",
          "type": "uint256"
        }
      ],
      "name": "withdraw",
      "outputs": [],
      "payable": false,
      "stateMutability": "nonpayable",
      "type": "function"
    },
    {
      "constant": false,
      "inputs": [],
      "name": "exit",
      "outputs": [],
      "payable": false,
      "stateMutability": "nonpayable",
      "type": "function"
    },
    {
      "constant": false,
      "inputs": [],
      "name": "getReward",
      "outputs": [],
      "payable": false,
      "stateMutability": "nonpayable",
      "type": "function"
    },
    {
      "constant": false,
      "inputs": [
        {
          "internalType": "uint256",
          "name": "reward",
          "type": "uint256"
        }
      ],
      "name": "notifyRewardAmount",
      "outputs": [],
      "payable": false,
      "stateMutability": "nonpayable",
      "type": "function"
    }
  ],
  "bytecode": "0x60806040526000600460146101000a81548160ff021916908315150217905550683635c9adc5dea00000600555614380600955614380600a55670de0b6b3a7640000600b556107d0600c55610258601455600060155560006016553480156200006757600080fd5b506040516200562d3803806200562d833981810160405260608110156200008d57600080fd5b8101908080519060200190929190805190602001909291908051906020019092919050505081806000806101000a81548173ffffffffffffffffffffffffffffffffffffffff021916908373ffffffffffffffffffffffffffffffffffffffff16021790555050600062000106620002ba60201b60201c565b905080600360006101000a81548173ffffffffffffffffffffffffffffffffffffffff021916908373ffffffffffffffffffffffffffffffffffffffff1602179055508073ffffffffffffffffffffffffffffffffffffffff16600073ffffffffffffffffffffffffffffffffffffffff167f8be0079c531659141344cd1fd0a4f28419497f9722a3daafe3b4186f6b6457e060405160405180910390a35032600d60006101000a81548173ffffffffffffffffffffffffffffffffffffffff021916908373ffffffffffffffffffffffffffffffffffffffff160217905550600060088190555082601160006101000a81548173ffffffffffffffffffffffffffffffffffffffff021916908373ffffffffffffffffffffffffffffffffffffffff16021790555081601260006101000a81548173ffffffffffffffffffffffffffffffffffffffff021916908373ffffffffffffffffffffffffffffffffffffffff16021790555080601360006101000a81548173ffffffffffffffffffffffffffffffffffffffff021916908373ffffffffffffffffffffffffffffffffffffffff160217905550505050620002c2565b600033905090565b61535b80620002d26000396000f3fe608060405234801561001057600080fd5b50600436106103985760003560e01c80637b0a47ee116101e9578063c8f33c911161010f578063e9fad8ee116100ad578063f2fde38b1161007c578063f2fde38b14610fd2578063f77c479114611016578063f83d08ba14611060578063fe0d94c11461107e57610398565b8063e9fad8ee14610f3e578063eb9253c014610f48578063ebe2b12b14610f96578063ef78d4fd14610fb457610398565b8063d6f0948c116100e9578063d6f0948c14610dcf578063d8bff5a514610eaa578063da35c66414610f02578063df136d6514610f2057610398565b8063c8f33c9114610d65578063cd3daf9d14610d83578063d3e1574714610da157610398565b80638da5cb5b11610187578063ab033ea911610156578063ab033ea914610c9f578063b382d00314610ce3578063b6549f7514610d2d578063c1ba4e5914610d3757610398565b80638da5cb5b14610ba95780638f32d59b14610bf3578063a3ec138d14610c15578063a694fc3a14610c7157610398565b806380faa57d116101c357806380faa57d14610ae757806386a5053514610b055780638778878214610b335780638b87634714610b5157610398565b80637b0a47ee14610a5b5780637b30396514610a795780637cc7911314610ac957610398565b80633c6b16ab116102ce5780635c0aeb0e1161026c57806370a082311161023b57806370a0823114610973578063715018a6146109cb578063750e443a146109d557806379ec5d3a14610a0357610398565b80635c0aeb0e146108ad5780635c0b87fd146108dd57806360b199231461092757806370897b231461094557610398565b80634e27e916116102a85780634e27e916146107bf57806352d6804d146108175780635aa6e675146108355780635ab7fb571461087f57610398565b80633c6b16ab146107595780633d18b912146107875780634d318b0e1461079157610398565b80631703a0181161033b5780631be05289116103155780631be05289146106955780632e1a7d4d146106b3578063313c06a0146106e15780633209e9e61461072b57610398565b80631703a0181461064f57806318160ddd1461066d5780631aa3a0081461068b57610398565b80630d15fd77116103775780630d15fd771461059d5780630d68b761146105bb5780630f3a9f65146105ff5780630f41e0d21461062d57610398565b80628cc2621461039d578063013cf08b146103f55780630700037d14610545575b600080fd5b6103df600480360360208110156103b357600080fd5b81019080803573ffffffffffffffffffffffffffffffffffffffff1690602001909291905050506110ac565b6040518082815260200191505060405180910390f35b6104216004803603602081101561040b57600080fd5b8101908080359060200190929190505050611193565b604051808d81526020018c73ffffffffffffffffffffffffffffffffffffffff1673ffffffffffffffffffffffffffffffffffffffff1681526020018b81526020018a81526020018981526020018881526020018773ffffffffffffffffffffffffffffffffffffffff1673ffffffffffffffffffffffffffffffffffffffff1681526020018060200186815260200185815260200184815260200183151515158152602001828103825287818151815260200191508051906020019080838360005b838110156104ff5780820151818401526020810190506104e4565b50505050905090810190601f16801561052c5780820380516001836020036101000a031916815260200191505b509d505050505050505050505050505060405180910390f35b6105876004803603602081101561055b57600080fd5b81019080803573ffffffffffffffffffffffffffffffffffffffff1690602001909291905050506112d8565b6040518082815260200191505060405180910390f35b6105a56112f0565b6040518082815260200191505060405180910390f35b6105fd600480360360208110156105d157600080fd5b81019080803573ffffffffffffffffffffffffffffffffffffffff1690602001909291905050506112f6565b005b61062b6004803603602081101561061557600080fd5b81019080803590602001909291905050506113b4565b005b610635611481565b604051808215151515815260200191505060405180910390f35b610657611494565b6040518082815260200191505060405180910390f35b61067561149a565b6040518082815260200191505060405180910390f35b6106936114a4565b005b61069d61171e565b6040518082815260200191505060405180910390f35b6106df600480360360208110156106c957600080fd5b8101908080359060200190929190505050611725565b005b6106e9611ab5565b604051808273ffffffffffffffffffffffffffffffffffffffff1673ffffffffffffffffffffffffffffffffffffffff16815260200191505060405180910390f35b6107576004803603602081101561074157600080fd5b8101908080359060200190929190505050611ada565b005b6107856004803603602081101561076f57600080fd5b8101908080359060200190929190505050611ba7565b005b61078f611e24565b005b6107bd600480360360208110156107a757600080fd5b8101908080359060200190929190505050612353565b005b610801600480360360208110156107d557600080fd5b81019080803573ffffffffffffffffffffffffffffffffffffffff16906020019092919050505061254a565b6040518082815260200191505060405180910390f35b61081f612562565b6040518082815260200191505060405180910390f35b61083d612568565b604051808273ffffffffffffffffffffffffffffffffffffffff1673ffffffffffffffffffffffffffffffffffffffff16815260200191505060405180910390f35b6108ab6004803603602081101561089557600080fd5b810190808035906020019092919050505061258e565b005b6108db600480360360208110156108c357600080fd5b8101908080351515906020019092919050505061265b565b005b6108e561273b565b604051808273ffffffffffffffffffffffffffffffffffffffff1673ffffffffffffffffffffffffffffffffffffffff16815260200191505060405180910390f35b61092f612761565b6040518082815260200191505060405180910390f35b6109716004803603602081101561095b57600080fd5b8101908080359060200190929190505050612767565b005b6109b56004803603602081101561098957600080fd5b81019080803573ffffffffffffffffffffffffffffffffffffffff169060200190929190505050612834565b6040518082815260200191505060405180910390f35b6109d361287d565b005b610a01600480360360208110156109eb57600080fd5b81019080803590602001909291905050506129b8565b005b610a4560048036036020811015610a1957600080fd5b81019080803573ffffffffffffffffffffffffffffffffffffffff169060200190929190505050612e3e565b6040518082815260200191505060405180910390f35b610a63612e87565b6040518082815260200191505060405180910390f35b610aa560048036036020811015610a8f57600080fd5b8101908080359060200190929190505050612e8d565b60405180848152602001838152602001828152602001935050505060405180910390f35b610ad1612f74565b6040518082815260200191505060405180910390f35b610aef612f7a565b6040518082815260200191505060405180910390f35b610b3160048036036020811015610b1b57600080fd5b8101908080359060200190929190505050612f8d565b005b610b3b613413565b6040518082815260200191505060405180910390f35b610b9360048036036020811015610b6757600080fd5b81019080803573ffffffffffffffffffffffffffffffffffffffff169060200190929190505050613419565b6040518082815260200191505060405180910390f35b610bb1613431565b604051808273ffffffffffffffffffffffffffffffffffffffff1673ffffffffffffffffffffffffffffffffffffffff16815260200191505060405180910390f35b610bfb61345b565b604051808215151515815260200191505060405180910390f35b610c5760048036036020811015610c2b57600080fd5b81019080803573ffffffffffffffffffffffffffffffffffffffff1690602001909291905050506134ba565b604051808215151515815260200191505060405180910390f35b610c9d60048036036020811015610c8757600080fd5b81019080803590602001909291905050506134da565b005b610ce160048036036020811015610cb557600080fd5b81019080803573ffffffffffffffffffffffffffffffffffffffff169060200190929190505050613799565b005b610ceb6138a0565b604051808273ffffffffffffffffffffffffffffffffffffffff1673ffffffffffffffffffffffffffffffffffffffff16815260200191505060405180910390f35b610d356138c6565b005b610d6360048036036020811015610d4d57600080fd5b8101908080359060200190929190505050613b8f565b005b610d6d613c5c565b6040518082815260200191505060405180910390f35b610d8b613c62565b6040518082815260200191505060405180910390f35b610dcd60048036036020811015610db757600080fd5b8101908080359060200190929190505050613cfa565b005b610ea860048036036040811015610de557600080fd5b81019080803573ffffffffffffffffffffffffffffffffffffffff16906020019092919080359060200190640100000000811115610e2257600080fd5b820183602082011115610e3457600080fd5b80359060200191846001830284011164010000000083111715610e5657600080fd5b91908080601f016020809104026020016040519081016040528093929190818152602001838380828437600081840152601f19601f820116905080830192505050505050509192919290505050613dc7565b005b610eec60048036036020811015610ec057600080fd5b81019080803573ffffffffffffffffffffffffffffffffffffffff169060200190929190505050614138565b6040518082815260200191505060405180910390f35b610f0a614150565b6040518082815260200191505060405180910390f35b610f28614156565b6040518082815260200191505060405180910390f35b610f4661415c565b005b610f9460048036036040811015610f5e57600080fd5b81019080803573ffffffffffffffffffffffffffffffffffffffff16906020019092919080359060200190929190505050614177565b005b610f9e614412565b6040518082815260200191505060405180910390f35b610fbc614418565b6040518082815260200191505060405180910390f35b61101460048036036020811015610fe857600080fd5b81019080803573ffffffffffffffffffffffffffffffffffffffff16906020019092919050505061441e565b005b61101e6144a4565b604051808273ffffffffffffffffffffffffffffffffffffffff1673ffffffffffffffffffffffffffffffffffffffff16815260200191505060405180910390f35b6110686144ca565b6040518082815260200191505060405180910390f35b6110aa6004803603602081101561109457600080fd5b81019080803590602001909291905050506144d0565b005b600061118c601a60008473ffffffffffffffffffffffffffffffffffffffff1673ffffffffffffffffffffffffffffffffffffffff1681526020019081526020016000205461117e670de0b6b3a7640000611170611159601960008973ffffffffffffffffffffffffffffffffffffffff1673ffffffffffffffffffffffffffffffffffffffff1681526020019081526020016000205461114b613c62565b6146f390919063ffffffff16565b61116288612834565b61473d90919063ffffffff16565b6147c390919063ffffffff16565b61480d90919063ffffffff16565b9050919050565b60076020528060005260406000206000915090508060000154908060010160009054906101000a900473ffffffffffffffffffffffffffffffffffffffff16908060040154908060050154908060060154908060070154908060080160009054906101000a900473ffffffffffffffffffffffffffffffffffffffff1690806009018054600181600116156101000203166002900480601f0160208091040260200160405190810160405280929190818152602001828054600181600116156101000203166002900480156112a95780601f1061127e576101008083540402835291602001916112a9565b820191906000526020600020905b81548152906001019060200180831161128c57829003601f168201915b50505050509080600a01549080600b01549080600c01549080600d0160009054906101000a900460ff1690508c565b601a6020528060005260406000206000915090505481565b600e5481565b6112fe61345b565b611370576040517f08c379a00000000000000000000000000000000000000000000000000000000081526004018080602001828103825260208152602001807f4f776e61626c653a2063616c6c6572206973206e6f7420746865206f776e657281525060200191505060405180910390fd5b80600460006101000a81548173ffffffffffffffffffffffffffffffffffffffff021916908373ffffffffffffffffffffffffffffffffffffffff16021790555050565b600d60009054906101000a900473ffffffffffffffffffffffffffffffffffffffff1673ffffffffffffffffffffffffffffffffffffffff163373ffffffffffffffffffffffffffffffffffffffff1614611477576040517f08c379a000000000000000000000000000000000000000000000000000000000815260040180806020018281038252600b8152602001807f21676f7665726e616e636500000000000000000000000000000000000000000081525060200191505060405180910390fd5b8060098190555050565b600460149054906101000a900460ff1681565b600c5481565b6000600154905090565b60001515601060003373ffffffffffffffffffffffffffffffffffffffff1673ffffffffffffffffffffffffffffffffffffffff16815260200190815260200160002060009054906101000a900460ff1615151461156a576040517f08c379a00000000000000000000000000000000000000000000000000000000081526004018080602001828103825260058152602001807f766f74657200000000000000000000000000000000000000000000000000000081525060200191505060405180910390fd5b6001601060003373ffffffffffffffffffffffffffffffffffffffff1673ffffffffffffffffffffffffffffffffffffffff16815260200190815260200160002060006101000a81548160ff0219169083151502179055506115cb33612834565b600f60003373ffffffffffffffffffffffffffffffffffffffff1673ffffffffffffffffffffffffffffffffffffffff16815260200190815260200160002081905550611662600f60003373ffffffffffffffffffffffffffffffffffffffff1673ffffffffffffffffffffffffffffffffffffffff16815260200190815260200160002054600e5461480d90919063ffffffff16565b600e819055507f42bd0b21218b5114f60361fe686fe499033f14f22cb728a08cf9df9b4e60f8cc33600f60003373ffffffffffffffffffffffffffffffffffffffff1673ffffffffffffffffffffffffffffffffffffffff16815260200190815260200160002054600e54604051808473ffffffffffffffffffffffffffffffffffffffff1673ffffffffffffffffffffffffffffffffffffffff168152602001838152602001828152602001935050505060405180910390a1565b624f1a0081565b3361172e613c62565b60188190555061173c612f7a565b601781905550600073ffffffffffffffffffffffffffffffffffffffff168173ffffffffffffffffffffffffffffffffffffffff16146118095761177f816110ac565b601a60008373ffffffffffffffffffffffffffffffffffffffff1673ffffffffffffffffffffffffffffffffffffffff16815260200190815260200160002081905550601854601960008373ffffffffffffffffffffffffffffffffffffffff1673ffffffffffffffffffffffffffffffffffffffff168152602001908152602001600020819055505b6000821161187f576040517f08c379a00000000000000000000000000000000000000000000000000000000081526004018080602001828103825260118152602001807f43616e6e6f74207769746864726177203000000000000000000000000000000081525060200191505060405180910390fd5b60011515601060003373ffffffffffffffffffffffffffffffffffffffff1673ffffffffffffffffffffffffffffffffffffffff16815260200190815260200160002060009054906101000a900460ff16151514156119895761192a82600f60003373ffffffffffffffffffffffffffffffffffffffff1673ffffffffffffffffffffffffffffffffffffffff168152602001908152602001600020546146f390919063ffffffff16565b600f60003373ffffffffffffffffffffffffffffffffffffffff1673ffffffffffffffffffffffffffffffffffffffff1681526020019081526020016000208190555061198282600e546146f390919063ffffffff16565b600e819055505b60001515600460149054906101000a900460ff1615151415611a5a5743600660003373ffffffffffffffffffffffffffffffffffffffff1673ffffffffffffffffffffffffffffffffffffffff1681526020019081526020016000205410611a59576040517f08c379a00000000000000000000000000000000000000000000000000000000081526004018080602001828103825260078152602001807f216c6f636b65640000000000000000000000000000000000000000000000000081525060200191505060405180910390fd5b5b611a6382614895565b3373ffffffffffffffffffffffffffffffffffffffff167f7084f5476618d8e60b11ef0d7d3f06914655adb8793e28ff7f018d4c76d505d5836040518082815260200191505060405180910390a25050565b6000809054906101000a900473ffffffffffffffffffffffffffffffffffffffff1681565b600d60009054906101000a900473ffffffffffffffffffffffffffffffffffffffff1673ffffffffffffffffffffffffffffffffffffffff163373ffffffffffffffffffffffffffffffffffffffff1614611b9d576040517f08c379a000000000000000000000000000000000000000000000000000000000815260040180806020018281038252600b8152602001807f21676f7665726e616e636500000000000000000000000000000000000000000081525060200191505060405180910390fd5b80600b8190555050565b600460009054906101000a900473ffffffffffffffffffffffffffffffffffffffff1673ffffffffffffffffffffffffffffffffffffffff16611be8614994565b73ffffffffffffffffffffffffffffffffffffffff1614611c54576040517f08c379a00000000000000000000000000000000000000000000000000000000081526004018080602001828103825260218152602001806152dc6021913960400191505060405180910390fd5b6000611c5e613c62565b601881905550611c6c612f7a565b601781905550600073ffffffffffffffffffffffffffffffffffffffff168173ffffffffffffffffffffffffffffffffffffffff1614611d3957611caf816110ac565b601a60008373ffffffffffffffffffffffffffffffffffffffff1673ffffffffffffffffffffffffffffffffffffffff16815260200190815260200160002081905550601854601960008373ffffffffffffffffffffffffffffffffffffffff1673ffffffffffffffffffffffffffffffffffffffff168152602001908152602001600020819055505b6015544210611d6357611d58624f1a00836147c390919063ffffffff16565b601681905550611dc6565b6000611d7a426015546146f390919063ffffffff16565b90506000611d936016548361473d90919063ffffffff16565b9050611dbd624f1a00611daf838761480d90919063ffffffff16565b6147c390919063ffffffff16565b60168190555050505b42601781905550611de3624f1a004261480d90919063ffffffff16565b6015819055507fde88a922e0d3b88b24e9623efeb464919c6bf9f66857a65e2bfcf2ce87a9433d826040518082815260200191505060405180910390a15050565b33611e2d613c62565b601881905550611e3b612f7a565b601781905550600073ffffffffffffffffffffffffffffffffffffffff168173ffffffffffffffffffffffffffffffffffffffff1614611f0857611e7e816110ac565b601a60008373ffffffffffffffffffffffffffffffffffffffff1673ffffffffffffffffffffffffffffffffffffffff16815260200190815260200160002081905550601854601960008373ffffffffffffffffffffffffffffffffffffffff1673ffffffffffffffffffffffffffffffffffffffff168152602001908152602001600020819055505b60001515600460149054906101000a900460ff161515141561212957600554601160009054906101000a900473ffffffffffffffffffffffffffffffffffffffff1673ffffffffffffffffffffffffffffffffffffffff166370a08231336040518263ffffffff1660e01b8152600401808273ffffffffffffffffffffffffffffffffffffffff1673ffffffffffffffffffffffffffffffffffffffff16815260200191505060206040518083038186803b158015611fc657600080fd5b505afa158015611fda573d6000803e3d6000fd5b505050506040513d6020811015611ff057600080fd5b810190808051906020019092919050505011612074576040517f08c379a000000000000000000000000000000000000000000000000000000000815260040180806020018281038252600d8152602001807f3c6d696e696d756d4250544c500000000000000000000000000000000000000081525060200191505060405180910390fd5b43600660003373ffffffffffffffffffffffffffffffffffffffff1673ffffffffffffffffffffffffffffffffffffffff1681526020019081526020016000205411612128576040517f08c379a00000000000000000000000000000000000000000000000000000000081526004018080602001828103825260068152602001807f21766f746564000000000000000000000000000000000000000000000000000081525060200191505060405180910390fd5b5b6000612134336110ac565b9050600081111561234f576000601a60003373ffffffffffffffffffffffffffffffffffffffff1673ffffffffffffffffffffffffffffffffffffffff1681526020019081526020016000208190555060006121af6127106121a16014548561473d90919063ffffffff16565b6147c390919063ffffffff16565b90506122a0601360009054906101000a900473ffffffffffffffffffffffffffffffffffffffff1673ffffffffffffffffffffffffffffffffffffffff16639ec5a8946040518163ffffffff1660e01b815260040160206040518083038186803b15801561221c57600080fd5b505afa158015612230573d6000803e3d6000fd5b505050506040513d602081101561224657600080fd5b810190808051906020019092919050505082601260009054906101000a900473ffffffffffffffffffffffffffffffffffffffff1673ffffffffffffffffffffffffffffffffffffffff1661499c9092919063ffffffff16565b6122ff336122b783856146f390919063ffffffff16565b601260009054906101000a900473ffffffffffffffffffffffffffffffffffffffff1673ffffffffffffffffffffffffffffffffffffffff1661499c9092919063ffffffff16565b3373ffffffffffffffffffffffffffffffffffffffff167fe2403640ba68fed3a2f88b7557551d1993f84b99bb10ff833f0cf8db0c5e0486836040518082815260200191505060405180910390a2505b5050565b6001151560076000838152602001908152602001600020600d0160009054906101000a900460ff161515146123f0576040517f08c379a00000000000000000000000000000000000000000000000000000000081526004018080602001828103825260058152602001807f216f70656e00000000000000000000000000000000000000000000000000000081525060200191505060405180910390fd5b4360076000838152602001908152602001600020600701541061247b576040517f08c379a00000000000000000000000000000000000000000000000000000000081526004018080602001828103825260048152602001807f21656e640000000000000000000000000000000000000000000000000000000081525060200191505060405180910390fd5b60008061248783612e8d565b5091509150600080905060076000858152602001908152602001600020600c015460076000868152602001908152602001600020600b0154106124c957600190505b600060076000868152602001908152602001600020600d0160006101000a81548160ff021916908315150217905550837f66ab4d2a1f6db1c01d1d46ab61a9c333b5a4de5e75cc7a68e1495b4badbd009b8484846040518084815260200183815260200182151515158152602001935050505060405180910390a250505050565b60066020528060005260406000206000915090505481565b600b5481565b600d60009054906101000a900473ffffffffffffffffffffffffffffffffffffffff1681565b600d60009054906101000a900473ffffffffffffffffffffffffffffffffffffffff1673ffffffffffffffffffffffffffffffffffffffff163373ffffffffffffffffffffffffffffffffffffffff1614612651576040517f08c379a000000000000000000000000000000000000000000000000000000000815260040180806020018281038252600b8152602001807f21676f7665726e616e636500000000000000000000000000000000000000000081525060200191505060405180910390fd5b8060058190555050565b600d60009054906101000a900473ffffffffffffffffffffffffffffffffffffffff1673ffffffffffffffffffffffffffffffffffffffff163373ffffffffffffffffffffffffffffffffffffffff161461271e576040517f08c379a000000000000000000000000000000000000000000000000000000000815260040180806020018281038252600b8152602001807f21676f7665726e616e636500000000000000000000000000000000000000000081525060200191505060405180910390fd5b80600460146101000a81548160ff02191690831515021790555050565b601260009054906101000a900473ffffffffffffffffffffffffffffffffffffffff1681565b60055481565b600d60009054906101000a900473ffffffffffffffffffffffffffffffffffffffff1673ffffffffffffffffffffffffffffffffffffffff163373ffffffffffffffffffffffffffffffffffffffff161461282a576040517f08c379a000000000000000000000000000000000000000000000000000000000815260040180806020018281038252600b8152602001807f21676f7665726e616e636500000000000000000000000000000000000000000081525060200191505060405180910390fd5b8060148190555050565b6000600260008373ffffffffffffffffffffffffffffffffffffffff1673ffffffffffffffffffffffffffffffffffffffff168152602001908152602001600020549050919050565b61288561345b565b6128f7576040517f08c379a00000000000000000000000000000000000000000000000000000000081526004018080602001828103825260208152602001807f4f776e61626c653a2063616c6c6572206973206e6f7420746865206f776e657281525060200191505060405180910390fd5b600073ffffffffffffffffffffffffffffffffffffffff16600360009054906101000a900473ffffffffffffffffffffffffffffffffffffffff1673ffffffffffffffffffffffffffffffffffffffff167f8be0079c531659141344cd1fd0a4f28419497f9722a3daafe3b4186f6b6457e060405160405180910390a36000600360006101000a81548173ffffffffffffffffffffffffffffffffffffffff021916908373ffffffffffffffffffffffffffffffffffffffff160217905550565b43600760008381526020019081526020016000206006015410612a43576040517f08c379a00000000000000000000000000000000000000000000000000000000081526004018080602001828103825260068152602001807f3c7374617274000000000000000000000000000000000000000000000000000081525060200191505060405180910390fd5b43600760008381526020019081526020016000206007015411612ace576040517f08c379a00000000000000000000000000000000000000000000000000000000081526004018080602001828103825260048152602001807f3e656e640000000000000000000000000000000000000000000000000000000081525060200191505060405180910390fd5b60006007600083815260200190815260200160002060020160003373ffffffffffffffffffffffffffffffffffffffff1673ffffffffffffffffffffffffffffffffffffffff1681526020019081526020016000205490506000811115612bcc57612b588160076000858152602001908152602001600020600401546146f390919063ffffffff16565b600760008481526020019081526020016000206004018190555060006007600084815260200190815260200160002060020160003373ffffffffffffffffffffffffffffffffffffffff1673ffffffffffffffffffffffffffffffffffffffff168152602001908152602001600020819055505b6000612c3c6007600085815260200190815260200160002060030160003373ffffffffffffffffffffffffffffffffffffffff1673ffffffffffffffffffffffffffffffffffffffff16815260200190815260200160002054612c2e33612e3e565b6146f390919063ffffffff16565b9050612c6781600760008681526020019081526020016000206005015461480d90919063ffffffff16565b6007600085815260200190815260200160002060050181905550612c8a33612e3e565b6007600085815260200190815260200160002060030160003373ffffffffffffffffffffffffffffffffffffffff1673ffffffffffffffffffffffffffffffffffffffff16815260200190815260200160002081905550600e5460076000858152602001908152602001600020600a01819055506000612d3f6007600086815260200190815260200160002060050154600760008781526020019081526020016000206004015461480d90919063ffffffff16565b9050612d6a600e54612d5c6127108461473d90919063ffffffff16565b6147c390919063ffffffff16565b60076000868152602001908152602001600020600b0181905550612d9943600a5461480d90919063ffffffff16565b600660003373ffffffffffffffffffffffffffffffffffffffff1673ffffffffffffffffffffffffffffffffffffffff168152602001908152602001600020819055503373ffffffffffffffffffffffffffffffffffffffff16847f88d35328232823f54954b6627e9f732371656f6daa40cb1b01b27dc7875a7b4760008560405180831515151581526020018281526020019250505060405180910390a350505050565b6000600f60008373ffffffffffffffffffffffffffffffffffffffff1673ffffffffffffffffffffffffffffffffffffffff168152602001908152602001600020549050919050565b60165481565b600080600060076000858152602001908152602001600020600401549250600760008581526020019081526020016000206005015491506000612ed9838561480d90919063ffffffff16565b9050612f0281612ef46127108761473d90919063ffffffff16565b6147c390919063ffffffff16565b9350612f2b81612f1d6127108661473d90919063ffffffff16565b6147c390919063ffffffff16565b9250612f6a60076000878152602001908152602001600020600a0154612f5c6127108461473d90919063ffffffff16565b6147c390919063ffffffff16565b9150509193909250565b61271081565b6000612f8842601554614a6d565b905090565b43600760008381526020019081526020016000206006015410613018576040517f08c379a00000000000000000000000000000000000000000000000000000000081526004018080602001828103825260068152602001807f3c7374617274000000000000000000000000000000000000000000000000000081525060200191505060405180910390fd5b436007600083815260200190815260200160002060070154116130a3576040517f08c379a00000000000000000000000000000000000000000000000000000000081526004018080602001828103825260048152602001807f3e656e640000000000000000000000000000000000000000000000000000000081525060200191505060405180910390fd5b60006007600083815260200190815260200160002060030160003373ffffffffffffffffffffffffffffffffffffffff1673ffffffffffffffffffffffffffffffffffffffff16815260200190815260200160002054905060008111156131a15761312d8160076000858152602001908152602001600020600501546146f390919063ffffffff16565b600760008481526020019081526020016000206005018190555060006007600084815260200190815260200160002060030160003373ffffffffffffffffffffffffffffffffffffffff1673ffffffffffffffffffffffffffffffffffffffff168152602001908152602001600020819055505b60006132116007600085815260200190815260200160002060020160003373ffffffffffffffffffffffffffffffffffffffff1673ffffffffffffffffffffffffffffffffffffffff1681526020019081526020016000205461320333612e3e565b6146f390919063ffffffff16565b905061323c81600760008681526020019081526020016000206004015461480d90919063ffffffff16565b600760008581526020019081526020016000206004018190555061325f33612e3e565b6007600085815260200190815260200160002060020160003373ffffffffffffffffffffffffffffffffffffffff1673ffffffffffffffffffffffffffffffffffffffff16815260200190815260200160002081905550600e5460076000858152602001908152602001600020600a018190555060006133146007600086815260200190815260200160002060050154600760008781526020019081526020016000206004015461480d90919063ffffffff16565b905061333f600e546133316127108461473d90919063ffffffff16565b6147c390919063ffffffff16565b60076000868152602001908152602001600020600b018190555061336e43600a5461480d90919063ffffffff16565b600660003373ffffffffffffffffffffffffffffffffffffffff1673ffffffffffffffffffffffffffffffffffffffff168152602001908152602001600020819055503373ffffffffffffffffffffffffffffffffffffffff16847f88d35328232823f54954b6627e9f732371656f6daa40cb1b01b27dc7875a7b4760018560405180831515151581526020018281526020019250505060405180910390a350505050565b60145481565b60196020528060005260406000206000915090505481565b6000600360009054906101000a900473ffffffffffffffffffffffffffffffffffffffff16905090565b6000600360009054906101000a900473ffffffffffffffffffffffffffffffffffffffff1673ffffffffffffffffffffffffffffffffffffffff1661349e614994565b73ffffffffffffffffffffffffffffffffffffffff1614905090565b60106020528060005260406000206000915054906101000a900460ff1681565b336134e3613c62565b6018819055506134f1612f7a565b601781905550600073ffffffffffffffffffffffffffffffffffffffff168173ffffffffffffffffffffffffffffffffffffffff16146135be57613534816110ac565b601a60008373ffffffffffffffffffffffffffffffffffffffff1673ffffffffffffffffffffffffffffffffffffffff16815260200190815260200160002081905550601854601960008373ffffffffffffffffffffffffffffffffffffffff1673ffffffffffffffffffffffffffffffffffffffff168152602001908152602001600020819055505b60008211613634576040517f08c379a000000000000000000000000000000000000000000000000000000000815260040180806020018281038252600e8152602001807f43616e6e6f74207374616b65203000000000000000000000000000000000000081525060200191505060405180910390fd5b60011515601060003373ffffffffffffffffffffffffffffffffffffffff1673ffffffffffffffffffffffffffffffffffffffff16815260200190815260200160002060009054906101000a900460ff161515141561373e576136df82600f60003373ffffffffffffffffffffffffffffffffffffffff1673ffffffffffffffffffffffffffffffffffffffff1681526020019081526020016000205461480d90919063ffffffff16565b600f60003373ffffffffffffffffffffffffffffffffffffffff1673ffffffffffffffffffffffffffffffffffffffff1681526020019081526020016000208190555061373782600e5461480d90919063ffffffff16565b600e819055505b61374782614a86565b3373ffffffffffffffffffffffffffffffffffffffff167f9e71bc8eea02a63969f509818f2dafb9254532904319f9dbda79b67bd34a5f3d836040518082815260200191505060405180910390a25050565b600d60009054906101000a900473ffffffffffffffffffffffffffffffffffffffff1673ffffffffffffffffffffffffffffffffffffffff163373ffffffffffffffffffffffffffffffffffffffff161461385c576040517f08c379a000000000000000000000000000000000000000000000000000000000815260040180806020018281038252600b8152602001807f21676f7665726e616e636500000000000000000000000000000000000000000081525060200191505060405180910390fd5b80600d60006101000a81548173ffffffffffffffffffffffffffffffffffffffff021916908373ffffffffffffffffffffffffffffffffffffffff16021790555050565b601160009054906101000a900473ffffffffffffffffffffffffffffffffffffffff1681565b60011515601060003373ffffffffffffffffffffffffffffffffffffffff1673ffffffffffffffffffffffffffffffffffffffff16815260200190815260200160002060009054906101000a900460ff1615151461398c576040517f08c379a00000000000000000000000000000000000000000000000000000000081526004018080602001828103825260068152602001807f21766f746572000000000000000000000000000000000000000000000000000081525060200191505060405180910390fd5b6000601060003373ffffffffffffffffffffffffffffffffffffffff1673ffffffffffffffffffffffffffffffffffffffff16815260200190815260200160002060006101000a81548160ff021916908315150217905550600f60003373ffffffffffffffffffffffffffffffffffffffff1673ffffffffffffffffffffffffffffffffffffffff16815260200190815260200160002054600e541015613a3a576000600e81905550613a95565b613a8e600f60003373ffffffffffffffffffffffffffffffffffffffff1673ffffffffffffffffffffffffffffffffffffffff16815260200190815260200160002054600e546146f390919063ffffffff16565b600e819055505b7e330fa0724b41c0d187cfad0aa7ff5fa2ff7e742995886f55fda6f5909914b833600f60003373ffffffffffffffffffffffffffffffffffffffff1673ffffffffffffffffffffffffffffffffffffffff16815260200190815260200160002054600e54604051808473ffffffffffffffffffffffffffffffffffffffff1673ffffffffffffffffffffffffffffffffffffffff168152602001838152602001828152602001935050505060405180910390a16000600f60003373ffffffffffffffffffffffffffffffffffffffff1673ffffffffffffffffffffffffffffffffffffffff16815260200190815260200160002081905550565b600d60009054906101000a900473ffffffffffffffffffffffffffffffffffffffff1673ffffffffffffffffffffffffffffffffffffffff163373ffffffffffffffffffffffffffffffffffffffff1614613c52576040517f08c379a000000000000000000000000000000000000000000000000000000000815260040180806020018281038252600b8152602001807f21676f7665726e616e636500000000000000000000000000000000000000000081525060200191505060405180910390fd5b80600c8190555050565b60175481565b600080613c6d61149a565b1415613c7d576018549050613cf7565b613cf4613ce3613c8b61149a565b613cd5670de0b6b3a7640000613cc7601654613cb9601754613cab612f7a565b6146f390919063ffffffff16565b61473d90919063ffffffff16565b61473d90919063ffffffff16565b6147c390919063ffffffff16565b60185461480d90919063ffffffff16565b90505b90565b600d60009054906101000a900473ffffffffffffffffffffffffffffffffffffffff1673ffffffffffffffffffffffffffffffffffffffff163373ffffffffffffffffffffffffffffffffffffffff1614613dbd576040517f08c379a000000000000000000000000000000000000000000000000000000000815260040180806020018281038252600b8152602001807f21676f7665726e616e636500000000000000000000000000000000000000000081525060200191505060405180910390fd5b80600a8190555050565b600b54613dd333612e3e565b11613e46576040517f08c379a00000000000000000000000000000000000000000000000000000000081526004018080602001828103825260088152602001807f3c6d696e696d756d00000000000000000000000000000000000000000000000081525060200191505060405180910390fd5b60405180610180016040528060085481526020013373ffffffffffffffffffffffffffffffffffffffff1681526020016000815260200160008152602001438152602001613e9f4360095461480d90919063ffffffff16565b81526020018373ffffffffffffffffffffffffffffffffffffffff168152602001828152602001600e54815260200160008152602001600c5481526020016001151581525060076000600860008154809291906001019190505581526020019081526020016000206000820151816000015560208201518160010160006101000a81548173ffffffffffffffffffffffffffffffffffffffff021916908373ffffffffffffffffffffffffffffffffffffffff16021790555060408201518160040155606082015181600501556080820151816006015560a0820151816007015560c08201518160080160006101000a81548173ffffffffffffffffffffffffffffffffffffffff021916908373ffffffffffffffffffffffffffffffffffffffff16021790555060e0820151816009019080519060200190613fe39291906151ef565b5061010082015181600a015561012082015181600b015561014082015181600c015561016082015181600d0160006101000a81548160ff0219169083151502179055509050507ff3aa81c2323a935a3e72c018c519b8d8b432eeebaa15cbbe5c8305f0f9df6f4d600854334360095486604051808681526020018573ffffffffffffffffffffffffffffffffffffffff1673ffffffffffffffffffffffffffffffffffffffff1681526020018481526020018381526020018273ffffffffffffffffffffffffffffffffffffffff1673ffffffffffffffffffffffffffffffffffffffff1681526020019550505050505060405180910390a16140f143600a5461480d90919063ffffffff16565b600660003373ffffffffffffffffffffffffffffffffffffffff1673ffffffffffffffffffffffffffffffffffffffff168152602001908152602001600020819055505050565b600f6020528060005260406000206000915090505481565b60085481565b60185481565b61416d61416833612834565b611725565b614175611e24565b565b600d60009054906101000a900473ffffffffffffffffffffffffffffffffffffffff1673ffffffffffffffffffffffffffffffffffffffff163373ffffffffffffffffffffffffffffffffffffffff161461423a576040517f08c379a000000000000000000000000000000000000000000000000000000000815260040180806020018281038252600b8152602001807f21676f7665726e616e636500000000000000000000000000000000000000000081525060200191505060405180910390fd5b601260009054906101000a900473ffffffffffffffffffffffffffffffffffffffff1673ffffffffffffffffffffffffffffffffffffffff168273ffffffffffffffffffffffffffffffffffffffff1614156142fe576040517f08c379a00000000000000000000000000000000000000000000000000000000081526004018080602001828103825260068152602001807f726577617264000000000000000000000000000000000000000000000000000081525060200191505060405180910390fd5b6000809054906101000a900473ffffffffffffffffffffffffffffffffffffffff1673ffffffffffffffffffffffffffffffffffffffff168273ffffffffffffffffffffffffffffffffffffffff1614156143c1576040517f08c379a00000000000000000000000000000000000000000000000000000000081526004018080602001828103825260028152602001807f6c7000000000000000000000000000000000000000000000000000000000000081525060200191505060405180910390fd5b61440e600d60009054906101000a900473ffffffffffffffffffffffffffffffffffffffff16828473ffffffffffffffffffffffffffffffffffffffff1661499c9092919063ffffffff16565b5050565b60155481565b60095481565b61442661345b565b614498576040517f08c379a00000000000000000000000000000000000000000000000000000000081526004018080602001828103825260208152602001807f4f776e61626c653a2063616c6c6572206973206e6f7420746865206f776e657281525060200191505060405180910390fd5b6144a181614b87565b50565b601360009054906101000a900473ffffffffffffffffffffffffffffffffffffffff1681565b600a5481565b60008060006144de84612e8d565b9250925092508060076000868152602001908152602001600020600c01541061456f576040517f08c379a00000000000000000000000000000000000000000000000000000000081526004018080602001828103825260078152602001807f2171756f72756d0000000000000000000000000000000000000000000000000081525060200191505060405180910390fd5b436007600086815260200190815260200160002060070154106145fa576040517f08c379a00000000000000000000000000000000000000000000000000000000081526004018080602001828103825260048152602001807f21656e640000000000000000000000000000000000000000000000000000000081525060200191505060405180910390fd5b6001151560076000868152602001908152602001600020600d0160009054906101000a900460ff16151514156146345761463384612353565b5b6007600085815260200190815260200160002060080160009054906101000a900473ffffffffffffffffffffffffffffffffffffffff1673ffffffffffffffffffffffffffffffffffffffff1663c0137f7a858585856040518563ffffffff1660e01b815260040180858152602001848152602001838152602001828152602001945050505050600060405180830381600087803b1580156146d557600080fd5b505af11580156146e9573d6000803e3d6000fd5b5050505050505050565b600061473583836040518060400160405280601e81526020017f536166654d6174683a207375627472616374696f6e206f766572666c6f770000815250614ccd565b905092915050565b60008083141561475057600090506147bd565b600082840290508284828161476157fe5b04146147b8576040517f08c379a00000000000000000000000000000000000000000000000000000000081526004018080602001828103825260218152602001806152bb6021913960400191505060405180910390fd5b809150505b92915050565b600061480583836040518060400160405280601a81526020017f536166654d6174683a206469766973696f6e206279207a65726f000000000000815250614d8d565b905092915050565b60008082840190508381101561488b576040517f08c379a000000000000000000000000000000000000000000000000000000000815260040180806020018281038252601b8152602001807f536166654d6174683a206164646974696f6e206f766572666c6f77000000000081525060200191505060405180910390fd5b8091505092915050565b6148aa816001546146f390919063ffffffff16565b60018190555061490281600260003373ffffffffffffffffffffffffffffffffffffffff1673ffffffffffffffffffffffffffffffffffffffff168152602001908152602001600020546146f390919063ffffffff16565b600260003373ffffffffffffffffffffffffffffffffffffffff1673ffffffffffffffffffffffffffffffffffffffff1681526020019081526020016000208190555061499133826000809054906101000a900473ffffffffffffffffffffffffffffffffffffffff1673ffffffffffffffffffffffffffffffffffffffff1661499c9092919063ffffffff16565b50565b600033905090565b614a68838473ffffffffffffffffffffffffffffffffffffffff1663a9059cbb905060e01b8484604051602401808373ffffffffffffffffffffffffffffffffffffffff1673ffffffffffffffffffffffffffffffffffffffff16815260200182815260200192505050604051602081830303815290604052907bffffffffffffffffffffffffffffffffffffffffffffffffffffffff19166020820180517bffffffffffffffffffffffffffffffffffffffffffffffffffffffff8381831617835250505050614e53565b505050565b6000818310614a7c5781614a7e565b825b905092915050565b614a9b8160015461480d90919063ffffffff16565b600181905550614af381600260003373ffffffffffffffffffffffffffffffffffffffff1673ffffffffffffffffffffffffffffffffffffffff1681526020019081526020016000205461480d90919063ffffffff16565b600260003373ffffffffffffffffffffffffffffffffffffffff1673ffffffffffffffffffffffffffffffffffffffff16815260200190815260200160002081905550614b843330836000809054906101000a900473ffffffffffffffffffffffffffffffffffffffff1673ffffffffffffffffffffffffffffffffffffffff1661509e909392919063ffffffff16565b50565b600073ffffffffffffffffffffffffffffffffffffffff168173ffffffffffffffffffffffffffffffffffffffff161415614c0d576040517f08c379a00000000000000000000000000000000000000000000000000000000081526004018080602001828103825260268152602001806152956026913960400191505060405180910390fd5b8073ffffffffffffffffffffffffffffffffffffffff16600360009054906101000a900473ffffffffffffffffffffffffffffffffffffffff1673ffffffffffffffffffffffffffffffffffffffff167f8be0079c531659141344cd1fd0a4f28419497f9722a3daafe3b4186f6b6457e060405160405180910390a380600360006101000a81548173ffffffffffffffffffffffffffffffffffffffff021916908373ffffffffffffffffffffffffffffffffffffffff16021790555050565b6000838311158290614d7a576040517f08c379a00000000000000000000000000000000000000000000000000000000081526004018080602001828103825283818151815260200191508051906020019080838360005b83811015614d3f578082015181840152602081019050614d24565b50505050905090810190601f168015614d6c5780820380516001836020036101000a031916815260200191505b509250505060405180910390fd5b5060008385039050809150509392505050565b60008083118290614e39576040517f08c379a00000000000000000000000000000000000000000000000000000000081526004018080602001828103825283818151815260200191508051906020019080838360005b83811015614dfe578082015181840152602081019050614de3565b50505050905090810190601f168015614e2b5780820380516001836020036101000a031916815260200191505b509250505060405180910390fd5b506000838581614e4557fe5b049050809150509392505050565b614e728273ffffffffffffffffffffffffffffffffffffffff166151a4565b614ee4576040517f08c379a000000000000000000000000000000000000000000000000000000000815260040180806020018281038252601f8152602001807f5361666545524332303a2063616c6c20746f206e6f6e2d636f6e74726163740081525060200191505060405180910390fd5b600060608373ffffffffffffffffffffffffffffffffffffffff16836040518082805190602001908083835b60208310614f335780518252602082019150602081019050602083039250614f10565b6001836020036101000a0380198251168184511680821785525050505050509050019150506000604051808303816000865af19150503d8060008114614f95576040519150601f19603f3d011682016040523d82523d6000602084013e614f9a565b606091505b509150915081615012576040517f08c379a00000000000000000000000000000000000000000000000000000000081526004018080602001828103825260208152602001807f5361666545524332303a206c6f772d6c6576656c2063616c6c206661696c656481525060200191505060405180910390fd5b6000815111156150985780806020019051602081101561503157600080fd5b8101908080519060200190929190505050615097576040517f08c379a000000000000000000000000000000000000000000000000000000000815260040180806020018281038252602a8152602001806152fd602a913960400191505060405180910390fd5b5b50505050565b61519e848573ffffffffffffffffffffffffffffffffffffffff166323b872dd905060e01b858585604051602401808473ffffffffffffffffffffffffffffffffffffffff1673ffffffffffffffffffffffffffffffffffffffff1681526020018373ffffffffffffffffffffffffffffffffffffffff1673ffffffffffffffffffffffffffffffffffffffff1681526020018281526020019350505050604051602081830303815290604052907bffffffffffffffffffffffffffffffffffffffffffffffffffffffff19166020820180517bffffffffffffffffffffffffffffffffffffffffffffffffffffffff8381831617835250505050614e53565b50505050565b60008060007fc5d2460186f7233c927e7db2dcc703c0e500b653ca82273b7bfad8045d85a47060001b9050833f91508082141580156151e657506000801b8214155b92505050919050565b828054600181600116156101000203166002900490600052602060002090601f016020900481019282601f1061523057805160ff191683800117855561525e565b8280016001018555821561525e579182015b8281111561525d578251825591602001919060010190615242565b5b50905061526b919061526f565b5090565b61529191905b8082111561528d576000816000905550600101615275565b5090565b9056fe4f776e61626c653a206e6577206f776e657220697320746865207a65726f2061646472657373536166654d6174683a206d756c7469706c69636174696f6e206f766572666c6f7743616c6c6572206973206e6f742072657761726420646973747269627574696f6e5361666545524332303a204552433230206f7065726174696f6e20646964206e6f742073756363656564a265627a7a72315820e001f7389f34fe2601b55eca17177f806cd771b6a2f3d50ef7dd94bcc9e2a16f64736f6c63430005100032",
  "source": "// SPDX-License-Identifier: MIT\npragma solidity >=0.5.0;\n\nimport \"@openzeppelin/contracts/math/Math.sol\";\nimport \"./IRewardDistributionRecipient.sol\";\nimport \"./LPTokenWrapper.sol\";\n\n/*\n   ____            __   __        __   _\n  / __/__ __ ___  / /_ / /  ___  / /_ (_)__ __\n _\\ \\ / // // _ \\/ __// _ \\/ -_)/ __// / \\ \\ /\n/___/ \\_, //_//_/\\__//_//_/\\__/ \\__//_/ /_\\_\\\n     /___/\n\n* Synthetix: PLURewards.sol\n*\n* Docs: https://docs.synthetix.io/\n*\n*\n* MIT License\n* ===========\n*\n* Copyright (c) 2020 Synthetix\n*\n* Permission is hereby granted, free of charge, to any person obtaining a copy\n* of this software and associated documentation files (the \"Software\"), to deal\n* in the Software without restriction, including without limitation the rights\n* to use, copy, modify, merge, publish, distribute, sublicense, and/or sell\n* copies of the Software, and to permit persons to whom the Software is\n* furnished to do so, subject to the following conditions:\n*\n* The above copyright notice and this permission notice shall be included in all\n* copies or substantial portions of the Software.\n*\n* THE SOFTWARE IS PROVIDED \"AS IS\", WITHOUT WARRANTY OF ANY KIND, EXPRESS OR\n* IMPLIED, INCLUDING BUT NOT LIMITED TO THE WARRANTIES OF MERCHANTABILITY,\n* FITNESS FOR A PARTICULAR PURPOSE AND NONINFRINGEMENT. IN NO EVENT SHALL THE\n* AUTHORS OR COPYRIGHT HOLDERS BE LIABLE FOR ANY CLAIM, DAMAGES OR OTHER\n* LIABILITY, WHETHER IN AN ACTION OF CONTRACT, TORT OR OTHERWISE, ARISING FROM,\n* OUT OF OR IN CONNECTION WITH THE SOFTWARE OR THE USE OR OTHER DEALINGS IN THE\n*/\n\ninterface IExecutor {\n  function execute(uint, uint, uint, uint) external;\n}\n\ninterface PGController {\n  function rewards() external view returns (address);\n}\n\ncontract PulotoGovernance is LPTokenWrapper, IRewardDistributionRecipient {\n  /* Fee collection for any other token */\n\n  function seize(IERC20 _token, uint amount) external {\n    require(msg.sender == governance, \"!governance\");\n    require(_token != plu, \"reward\");\n    require(_token != lp, \"lp\");\n    _token.safeTransfer(governance, amount);\n  }\n\n  /* Fees breaker, to protect withdraws if anything ever goes wrong */\n\n  bool public breaker = false;\n\n  function setBreaker(bool _breaker) external {\n    require(msg.sender == governance, \"!governance\");\n    breaker = _breaker;\n  }\n\n  uint public minimumBPTLP = 1000e18;\n\n  function setMinimumBPTLP(uint _minimum) public {\n    require(msg.sender == governance, \"!governance\");\n    minimumBPTLP = _minimum;\n  }\n\n  /* Modifications for proposals */\n\n  mapping(address => uint) public voteLock; // period that your sake it locked to keep it for voting\n\n  struct Proposal {\n    uint id;\n    address proposer;\n    mapping(address => uint) forVotes;\n    mapping(address => uint) againstVotes;\n    uint totalForVotes;\n    uint totalAgainstVotes;\n    uint start; // block start;\n    uint end; // start + period\n    address executor;\n    string hash;\n    uint totalVotesAvailable;\n    uint quorum;\n    uint quorumRequired;\n    bool open;\n  }\n\n  mapping (uint => Proposal) public proposals;\n  uint public proposalCount;\n  uint public period = 17280; // voting period in blocks ~ 17280 3 days for 15s/block\n  uint public lock = 17280; // vote lock in blocks ~ 17280 3 days for 15s/block\n  uint public minimum = 1e18;\n  uint public quorum = 2000;\n\n  address public governance;\n\n  constructor (address _bptlp, address _plu, address _controller) public LPTokenWrapper(_plu) {\n    governance = tx.origin;\n    proposalCount = 0;\n    bptlp = IERC20(_bptlp);\n    plu = IERC20(_plu);\n    controller = _controller;\n  }\n\n  function setGovernance(address _governance) public {\n    require(msg.sender == governance, \"!governance\");\n    governance = _governance;\n  }\n\n  function setQuorum(uint _quorum) public {\n    require(msg.sender == governance, \"!governance\");\n    quorum = _quorum;\n  }\n\n  function setMinimum(uint _minimum) public {\n    require(msg.sender == governance, \"!governance\");\n    minimum = _minimum;\n  }\n\n  function setPeriod(uint _period) public {\n    require(msg.sender == governance, \"!governance\");\n    period = _period;\n  }\n\n  function setLock(uint _lock) public {\n    require(msg.sender == governance, \"!governance\");\n    lock = _lock;\n  }\n\n  event NewProposal(uint id, address creator, uint start, uint duration, address executor);\n  event Vote(uint indexed id, address indexed voter, bool vote, uint weight);\n\n  function propose(address executor, string memory hash) public {\n    require(votesOf(msg.sender) > minimum, \"<minimum\");\n    proposals[proposalCount++] = Proposal({\n      id: proposalCount,\n      proposer: msg.sender,\n      totalForVotes: 0,\n      totalAgainstVotes: 0,\n      start: block.number,\n      end: period.add(block.number),\n      executor: executor,\n      hash: hash,\n      totalVotesAvailable: totalVotes,\n      quorum: 0,\n      quorumRequired: quorum,\n      open: true\n    });\n\n    emit NewProposal(proposalCount, msg.sender, block.number, period, executor);\n    voteLock[msg.sender] = lock.add(block.number);\n  }\n\n  function execute(uint id) public {\n    (uint _for, uint _against, uint _quorum) = getStats(id);\n    require(proposals[id].quorumRequired < _quorum, \"!quorum\");\n    require(proposals[id].end < block.number , \"!end\");\n    if (proposals[id].open == true) {\n      tallyVotes(id);\n    }\n    IExecutor(proposals[id].executor).execute(id, _for, _against, _quorum);\n  }\n\n  function getStats(uint id) public view returns (uint _for, uint _against, uint _quorum) {\n    _for = proposals[id].totalForVotes;\n    _against = proposals[id].totalAgainstVotes;\n\n    uint _total = _for.add(_against);\n    _for = _for.mul(10000).div(_total);\n    _against = _against.mul(10000).div(_total);\n\n    _quorum = _total.mul(10000).div(proposals[id].totalVotesAvailable);\n  }\n\n  event ProposalFinished(uint indexed id, uint _for, uint _against, bool quorumReached);\n\n  function tallyVotes(uint id) public {\n    require(proposals[id].open == true, \"!open\");\n    require(proposals[id].end < block.number, \"!end\");\n\n    (uint _for, uint _against,) = getStats(id);\n    bool _quorum = false;\n    if (proposals[id].quorum >= proposals[id].quorumRequired) {\n      _quorum = true;\n    }\n    proposals[id].open = false;\n    emit ProposalFinished(id, _for, _against, _quorum);\n  }\n\n  function votesOf(address voter) public view returns (uint) {\n    return votes[voter];\n  }\n\n  uint public totalVotes;\n  mapping(address => uint) public votes;\n  event RegisterVoter(address voter, uint votes, uint totalVotes);\n  event RevokeVoter(address voter, uint votes, uint totalVotes);\n\n  function register() public {\n    require(voters[msg.sender] == false, \"voter\");\n    voters[msg.sender] = true;\n    votes[msg.sender] = balanceOf(msg.sender);\n    totalVotes = totalVotes.add(votes[msg.sender]);\n    emit RegisterVoter(msg.sender, votes[msg.sender], totalVotes);\n  }\n\n  function revoke() public {\n    require(voters[msg.sender] == true, \"!voter\");\n    voters[msg.sender] = false;\n    if (totalVotes < votes[msg.sender]) {\n      // edge case, should be impossible, but this is defi\n      totalVotes = 0;\n    } else {\n      totalVotes = totalVotes.sub(votes[msg.sender]);\n    }\n    emit RevokeVoter(msg.sender, votes[msg.sender], totalVotes);\n    votes[msg.sender] = 0;\n  }\n\n  mapping(address => bool) public voters;\n\n  function voteFor(uint id) public {\n    require(proposals[id].start < block.number , \"<start\");\n    require(proposals[id].end > block.number , \">end\");\n\n    uint _against = proposals[id].againstVotes[msg.sender];\n    if (_against > 0) {\n      proposals[id].totalAgainstVotes = proposals[id].totalAgainstVotes.sub(_against);\n      proposals[id].againstVotes[msg.sender] = 0;\n    }\n\n    uint vote = votesOf(msg.sender).sub(proposals[id].forVotes[msg.sender]);\n    proposals[id].totalForVotes = proposals[id].totalForVotes.add(vote);\n    proposals[id].forVotes[msg.sender] = votesOf(msg.sender);\n\n    proposals[id].totalVotesAvailable = totalVotes;\n    uint _votes = proposals[id].totalForVotes.add(proposals[id].totalAgainstVotes);\n    proposals[id].quorum = _votes.mul(10000).div(totalVotes);\n\n    voteLock[msg.sender] = lock.add(block.number);\n\n    emit Vote(id, msg.sender, true, vote);\n  }\n\n  function voteAgainst(uint id) public {\n    require(proposals[id].start < block.number , \"<start\");\n    require(proposals[id].end > block.number , \">end\");\n\n    uint _for = proposals[id].forVotes[msg.sender];\n    if (_for > 0) {\n      proposals[id].totalForVotes = proposals[id].totalForVotes.sub(_for);\n      proposals[id].forVotes[msg.sender] = 0;\n    }\n\n    uint vote = votesOf(msg.sender).sub(proposals[id].againstVotes[msg.sender]);\n    proposals[id].totalAgainstVotes = proposals[id].totalAgainstVotes.add(vote);\n    proposals[id].againstVotes[msg.sender] = votesOf(msg.sender);\n\n    proposals[id].totalVotesAvailable = totalVotes;\n    uint _votes = proposals[id].totalForVotes.add(proposals[id].totalAgainstVotes);\n    proposals[id].quorum = _votes.mul(10000).div(totalVotes);\n\n    voteLock[msg.sender] = lock.add(block.number);\n\n    emit Vote(id, msg.sender, false, vote);\n  }\n\n  /* Default rewards contract */\n\n  IERC20 public bptlp;\n  IERC20 public plu;\n  address public controller;\n\n  uint256 public constant DURATION = 60 days;\n\n  uint public performanceFee = 600;\n  uint constant public performanceMax = 10000;\n\n  uint256 public periodFinish = 0;\n  uint256 public rewardRate = 0;\n  uint256 public lastUpdateTime;\n  uint256 public rewardPerTokenStored;\n  mapping(address => uint256) public userRewardPerTokenPaid;\n  mapping(address => uint256) public rewards;\n\n  event RewardAdded(uint256 reward);\n  event Staked(address indexed user, uint256 amount);\n  event Withdrawn(address indexed user, uint256 amount);\n  event RewardPaid(address indexed user, uint256 reward);\n\n  modifier updateReward(address account) {\n    rewardPerTokenStored = rewardPerToken();\n    lastUpdateTime = lastTimeRewardApplicable();\n    if (account != address(0)) {\n      rewards[account] = earned(account);\n      userRewardPerTokenPaid[account] = rewardPerTokenStored;\n    }\n    _;\n  }\n\n  function setPerformanceFee(uint _performanceFee) external {\n    require(msg.sender == governance, \"!governance\");\n    performanceFee = _performanceFee;\n  }\n\n  function lastTimeRewardApplicable() public view returns (uint256) {\n    return Math.min(block.timestamp, periodFinish);\n  }\n\n  function rewardPerToken() public view returns (uint256) {\n    if (totalSupply() == 0) {\n      return rewardPerTokenStored;\n    }\n    return\n      rewardPerTokenStored.add(\n          lastTimeRewardApplicable()\n            .sub(lastUpdateTime)\n            .mul(rewardRate)\n            .mul(1e18)\n            .div(totalSupply())\n      );\n  }\n\n  function earned(address account) public view returns (uint256) {\n    return\n      balanceOf(account)\n        .mul(rewardPerToken().sub(userRewardPerTokenPaid[account]))\n        .div(1e18)\n        .add(rewards[account]);\n  }\n\n  // stake visibility is public as overriding LPTokenWrapper's stake() function\n  function stake(uint256 amount) public updateReward(msg.sender) {\n    require(amount > 0, \"Cannot stake 0\");\n    if (voters[msg.sender] == true) {\n      votes[msg.sender] = votes[msg.sender].add(amount);\n      totalVotes = totalVotes.add(amount);\n    }\n    super.stake(amount);\n    emit Staked(msg.sender, amount);\n  }\n\n  function withdraw(uint256 amount) public updateReward(msg.sender) {\n    require(amount > 0, \"Cannot withdraw 0\");\n    if (voters[msg.sender] == true) {\n      votes[msg.sender] = votes[msg.sender].sub(amount);\n      totalVotes = totalVotes.sub(amount);\n    }\n    if (breaker == false) {\n      require(voteLock[msg.sender] < block.number, \"!locked\");\n    }\n    super.withdraw(amount);\n    emit Withdrawn(msg.sender, amount);\n  }\n\n  function exit() external {\n    withdraw(balanceOf(msg.sender));\n    getReward();\n  }\n\n  function getReward() public updateReward(msg.sender) {\n    if (breaker == false) {\n      require(bptlp.balanceOf(msg.sender) > minimumBPTLP, \"<minimumBPTLP\");\n      require(voteLock[msg.sender] > block.number, \"!voted\");\n    }\n    uint256 reward = earned(msg.sender);\n    if (reward > 0) {\n      rewards[msg.sender] = 0;\n      uint256 _fee = reward.mul(performanceFee).div(performanceMax);\n      plu.safeTransfer(PGController(controller).rewards(), _fee);\n      plu.safeTransfer(msg.sender, reward.sub(_fee));\n      emit RewardPaid(msg.sender, reward);\n    }\n  }\n\n  function notifyRewardAmount(uint256 reward) external onlyRewardDistribution updateReward(address(0)) {\n    if (block.timestamp >= periodFinish) {\n      rewardRate = reward.div(DURATION);\n    } else {\n      uint256 remaining = periodFinish.sub(block.timestamp);\n      uint256 leftover = remaining.mul(rewardRate);\n      rewardRate = reward.add(leftover).div(DURATION);\n    }\n    lastUpdateTime = block.timestamp;\n    periodFinish = block.timestamp.add(DURATION);\n    emit RewardAdded(reward);\n  }\n}\n",
  "sourcePath": "/Users/beex/dev/plouto-protocol/contracts/PloutoGovernance.sol",
  "compiler": {
    "name": "solc",
    "version": "0.5.16+commit.9c3226ce.Emscripten.clang"
  },
  "schemaVersion": "3.2.5",
  "updatedAt": "2020-09-24T03:32:50.941Z",
  "devdoc": {
    "methods": {
      "isOwner()": {
        "details": "Returns true if the caller is the current owner."
      },
      "owner()": {
        "details": "Returns the address of the current owner."
      },
      "renounceOwnership()": {
        "details": "Leaves the contract without owner. It will not be possible to call `onlyOwner` functions anymore. Can only be called by the current owner.     * NOTE: Renouncing ownership will leave the contract without an owner, thereby removing any functionality that is only available to the owner."
      },
      "transferOwnership(address)": {
        "details": "Transfers ownership of the contract to a new account (`newOwner`). Can only be called by the current owner."
      }
    }
  },
  "userdoc": {
    "methods": {}
  }
}