{
  "contractName": "StrategyUniLPStaking",
  "abi": [
    {
      "inputs": [
        {
          "internalType": "address",
          "name": "_want",
          "type": "address"
        },
        {
          "internalType": "address",
          "name": "_pool",
          "type": "address"
        },
        {
          "internalType": "address",
          "name": "_controller",
          "type": "address"
        }
      ],
      "payable": false,
      "stateMutability": "nonpayable",
      "type": "constructor"
    },
    {
      "constant": true,
      "inputs": [],
      "name": "controller",
      "outputs": [
        {
          "internalType": "address",
          "name": "",
          "type": "address"
        }
      ],
      "payable": false,
      "stateMutability": "view",
      "type": "function"
    },
    {
      "constant": true,
      "inputs": [],
      "name": "governance",
      "outputs": [
        {
          "internalType": "address",
          "name": "",
          "type": "address"
        }
      ],
      "payable": false,
      "stateMutability": "view",
      "type": "function"
    },
    {
      "constant": true,
      "inputs": [],
      "name": "performanceFee",
      "outputs": [
        {
          "internalType": "uint256",
          "name": "",
          "type": "uint256"
        }
      ],
      "payable": false,
      "stateMutability": "view",
      "type": "function"
    },
    {
      "constant": true,
      "inputs": [],
      "name": "performanceMax",
      "outputs": [
        {
          "internalType": "uint256",
          "name": "",
          "type": "uint256"
        }
      ],
      "payable": false,
      "stateMutability": "view",
      "type": "function"
    },
    {
      "constant": true,
      "inputs": [],
      "name": "pool",
      "outputs": [
        {
          "internalType": "address",
          "name": "",
          "type": "address"
        }
      ],
      "payable": false,
      "stateMutability": "view",
      "type": "function"
    },
    {
      "constant": true,
      "inputs": [],
      "name": "uni",
      "outputs": [
        {
          "internalType": "address",
          "name": "",
          "type": "address"
        }
      ],
      "payable": false,
      "stateMutability": "view",
      "type": "function"
    },
    {
      "constant": true,
      "inputs": [],
      "name": "unirouter",
      "outputs": [
        {
          "internalType": "address",
          "name": "",
          "type": "address"
        }
      ],
      "payable": false,
      "stateMutability": "view",
      "type": "function"
    },
    {
      "constant": true,
      "inputs": [
        {
          "internalType": "uint256",
          "name": "",
          "type": "uint256"
        }
      ],
      "name": "uniswap_uni2weth",
      "outputs": [
        {
          "internalType": "address",
          "name": "",
          "type": "address"
        }
      ],
      "payable": false,
      "stateMutability": "view",
      "type": "function"
    },
    {
      "constant": true,
      "inputs": [],
      "name": "want",
      "outputs": [
        {
          "internalType": "address",
          "name": "",
          "type": "address"
        }
      ],
      "payable": false,
      "stateMutability": "view",
      "type": "function"
    },
    {
      "constant": true,
      "inputs": [],
      "name": "weth",
      "outputs": [
        {
          "internalType": "address",
          "name": "",
          "type": "address"
        }
      ],
      "payable": false,
      "stateMutability": "view",
      "type": "function"
    },
    {
      "constant": true,
      "inputs": [],
      "name": "getName",
      "outputs": [
        {
          "internalType": "string",
          "name": "",
          "type": "string"
        }
      ],
      "payable": false,
      "stateMutability": "pure",
      "type": "function"
    },
    {
      "constant": false,
      "inputs": [
        {
          "internalType": "uint256",
          "name": "_performanceFee",
          "type": "uint256"
        }
      ],
      "name": "setPerformanceFee",
      "outputs": [],
      "payable": false,
      "stateMutability": "nonpayable",
      "type": "function"
    },
    {
      "constant": false,
      "inputs": [],
      "name": "deposit",
      "outputs": [],
      "payable": false,
      "stateMutability": "nonpayable",
      "type": "function"
    },
    {
      "constant": false,
      "inputs": [
        {
          "internalType": "uint256",
          "name": "_amount",
          "type": "uint256"
        }
      ],
      "name": "withdraw",
      "outputs": [],
      "payable": false,
      "stateMutability": "nonpayable",
      "type": "function"
    },
    {
      "constant": false,
      "inputs": [
        {
          "internalType": "contract IERC20",
          "name": "_asset",
          "type": "address"
        }
      ],
      "name": "withdraw",
      "outputs": [
        {
          "internalType": "uint256",
          "name": "balance",
          "type": "uint256"
        }
      ],
      "payable": false,
      "stateMutability": "nonpayable",
      "type": "function"
    },
    {
      "constant": false,
      "inputs": [],
      "name": "withdrawAll",
      "outputs": [
        {
          "internalType": "uint256",
          "name": "balance",
          "type": "uint256"
        }
      ],
      "payable": false,
      "stateMutability": "nonpayable",
      "type": "function"
    },
    {
      "constant": false,
      "inputs": [],
      "name": "harvest",
      "outputs": [],
      "payable": false,
      "stateMutability": "nonpayable",
      "type": "function"
    },
    {
      "constant": true,
      "inputs": [],
      "name": "balanceOfWant",
      "outputs": [
        {
          "internalType": "uint256",
          "name": "",
          "type": "uint256"
        }
      ],
      "payable": false,
      "stateMutability": "view",
      "type": "function"
    },
    {
      "constant": true,
      "inputs": [],
      "name": "balanceOfPool",
      "outputs": [
        {
          "internalType": "uint256",
          "name": "",
          "type": "uint256"
        }
      ],
      "payable": false,
      "stateMutability": "view",
      "type": "function"
    },
    {
      "constant": true,
      "inputs": [],
      "name": "balanceOf",
      "outputs": [
        {
          "internalType": "uint256",
          "name": "",
          "type": "uint256"
        }
      ],
      "payable": false,
      "stateMutability": "view",
      "type": "function"
    },
    {
      "constant": false,
      "inputs": [
        {
          "internalType": "address",
          "name": "_governance",
          "type": "address"
        }
      ],
      "name": "setGovernance",
      "outputs": [],
      "payable": false,
      "stateMutability": "nonpayable",
      "type": "function"
    },
    {
      "constant": false,
      "inputs": [
        {
          "internalType": "address",
          "name": "_controller",
          "type": "address"
        }
      ],
      "name": "setController",
      "outputs": [],
      "payable": false,
      "stateMutability": "nonpayable",
      "type": "function"
    }
  ],
  "bytecode": "0x60806040526102586003553480156200001757600080fd5b5060405162002dd938038062002dd9833981810160405260608110156200003d57600080fd5b81019080805190602001909291908051906020019092919080519060200190929190505050826000806101000a81548173ffffffffffffffffffffffffffffffffffffffff021916908373ffffffffffffffffffffffffffffffffffffffff16021790555081600160006101000a81548173ffffffffffffffffffffffffffffffffffffffff021916908373ffffffffffffffffffffffffffffffffffffffff1602179055506040518060400160405280731f9840a85d5af5bf1d1762f925bdaddc4201f98473ffffffffffffffffffffffffffffffffffffffff1673ffffffffffffffffffffffffffffffffffffffff16815260200173c02aaa39b223fe8d0a0e5c4f27ead9083c756cc273ffffffffffffffffffffffffffffffffffffffff1673ffffffffffffffffffffffffffffffffffffffff1681525060029060026200018a92919062000216565b5032600460006101000a81548173ffffffffffffffffffffffffffffffffffffffff021916908373ffffffffffffffffffffffffffffffffffffffff16021790555080600560006101000a81548173ffffffffffffffffffffffffffffffffffffffff021916908373ffffffffffffffffffffffffffffffffffffffff160217905550505050620002eb565b82805482825590600052602060002090810192821562000292579160200282015b82811115620002915782518260006101000a81548173ffffffffffffffffffffffffffffffffffffffff021916908373ffffffffffffffffffffffffffffffffffffffff1602179055509160200191906001019062000237565b5b509050620002a19190620002a5565b5090565b620002e891905b80821115620002e457600081816101000a81549073ffffffffffffffffffffffffffffffffffffffff021916905550600101620002ac565b5090565b90565b612ade80620002fb6000396000f3fe608060405234801561001057600080fd5b50600436106101425760003560e01c806370897b23116100b857806392eefe9b1161007c57806392eefe9b146104fe578063ab033ea914610542578063c1a3d44c14610586578063d0e30db0146105a4578063edc9af95146105ae578063f77c4791146105f857610142565b806370897b2314610458578063722713f7146104865780637cc79113146104a4578063853828b6146104c257806387788782146104e057610142565b80632e1a7d4d1161010a5780632e1a7d4d146102c65780633fc8cef3146102f45780634641257d1461033e57806351cff8d9146103485780635aa6e675146103a05780635b800283146103ea57610142565b8063115880861461014757806316f0115b1461016557806317d7de7c146101af5780631f1fcd5114610232578063257ae0de1461027c575b600080fd5b61014f610642565b6040518082815260200191505060405180910390f35b61016d610723565b604051808273ffffffffffffffffffffffffffffffffffffffff1673ffffffffffffffffffffffffffffffffffffffff16815260200191505060405180910390f35b6101b7610749565b6040518080602001828103825283818151815260200191508051906020019080838360005b838110156101f75780820151818401526020810190506101dc565b50505050905090810190601f1680156102245780820380516001836020036101000a031916815260200191505b509250505060405180910390f35b61023a610786565b604051808273ffffffffffffffffffffffffffffffffffffffff1673ffffffffffffffffffffffffffffffffffffffff16815260200191505060405180910390f35b6102846107ab565b604051808273ffffffffffffffffffffffffffffffffffffffff1673ffffffffffffffffffffffffffffffffffffffff16815260200191505060405180910390f35b6102f2600480360360208110156102dc57600080fd5b81019080803590602001909291905050506107c3565b005b6102fc610b91565b604051808273ffffffffffffffffffffffffffffffffffffffff1673ffffffffffffffffffffffffffffffffffffffff16815260200191505060405180910390f35b610346610ba9565b005b61038a6004803603602081101561035e57600080fd5b81019080803573ffffffffffffffffffffffffffffffffffffffff169060200190929190505050611183565b6040518082815260200191505060405180910390f35b6103a86114cd565b604051808273ffffffffffffffffffffffffffffffffffffffff1673ffffffffffffffffffffffffffffffffffffffff16815260200191505060405180910390f35b6104166004803603602081101561040057600080fd5b81019080803590602001909291905050506114f3565b604051808273ffffffffffffffffffffffffffffffffffffffff1673ffffffffffffffffffffffffffffffffffffffff16815260200191505060405180910390f35b6104846004803603602081101561046e57600080fd5b810190808035906020019092919050505061152f565b005b61048e6115fc565b6040518082815260200191505060405180910390f35b6104ac611624565b6040518082815260200191505060405180910390f35b6104ca61162a565b6040518082815260200191505060405180910390f35b6104e86119ce565b6040518082815260200191505060405180910390f35b6105406004803603602081101561051457600080fd5b81019080803573ffffffffffffffffffffffffffffffffffffffff1690602001909291905050506119d4565b005b6105846004803603602081101561055857600080fd5b81019080803573ffffffffffffffffffffffffffffffffffffffff169060200190929190505050611adb565b005b61058e611be2565b6040518082815260200191505060405180910390f35b6105ac611cc2565b005b6105b6611f16565b604051808273ffffffffffffffffffffffffffffffffffffffff1673ffffffffffffffffffffffffffffffffffffffff16815260200191505060405180910390f35b610600611f2e565b604051808273ffffffffffffffffffffffffffffffffffffffff1673ffffffffffffffffffffffffffffffffffffffff16815260200191505060405180910390f35b6000600160009054906101000a900473ffffffffffffffffffffffffffffffffffffffff1673ffffffffffffffffffffffffffffffffffffffff166370a08231306040518263ffffffff1660e01b8152600401808273ffffffffffffffffffffffffffffffffffffffff1673ffffffffffffffffffffffffffffffffffffffff16815260200191505060206040518083038186803b1580156106e357600080fd5b505afa1580156106f7573d6000803e3d6000fd5b505050506040513d602081101561070d57600080fd5b8101908080519060200190929190505050905090565b600160009054906101000a900473ffffffffffffffffffffffffffffffffffffffff1681565b60606040518060400160405280601481526020017f5374726174656779556e694c505374616b696e67000000000000000000000000815250905090565b6000809054906101000a900473ffffffffffffffffffffffffffffffffffffffff1681565b737a250d5630b4cf539739df2c5dacb4c659f2488d81565b600560009054906101000a900473ffffffffffffffffffffffffffffffffffffffff1673ffffffffffffffffffffffffffffffffffffffff163373ffffffffffffffffffffffffffffffffffffffff1614610886576040517f08c379a000000000000000000000000000000000000000000000000000000000815260040180806020018281038252600b8152602001807f21636f6e74726f6c6c657200000000000000000000000000000000000000000081525060200191505060405180910390fd5b60008060009054906101000a900473ffffffffffffffffffffffffffffffffffffffff1673ffffffffffffffffffffffffffffffffffffffff166370a08231306040518263ffffffff1660e01b8152600401808273ffffffffffffffffffffffffffffffffffffffff1673ffffffffffffffffffffffffffffffffffffffff16815260200191505060206040518083038186803b15801561092657600080fd5b505afa15801561093a573d6000803e3d6000fd5b505050506040513d602081101561095057600080fd5b810190808051906020019092919050505090508181101561099e576109866109818284611f5490919063ffffffff16565b611f9e565b915061099b818361220290919063ffffffff16565b91505b6000600560009054906101000a900473ffffffffffffffffffffffffffffffffffffffff1673ffffffffffffffffffffffffffffffffffffffff1663a622ee7c6000809054906101000a900473ffffffffffffffffffffffffffffffffffffffff166040518263ffffffff1660e01b8152600401808273ffffffffffffffffffffffffffffffffffffffff1673ffffffffffffffffffffffffffffffffffffffff16815260200191505060206040518083038186803b158015610a6057600080fd5b505afa158015610a74573d6000803e3d6000fd5b505050506040513d6020811015610a8a57600080fd5b81019080805190602001909291905050509050600073ffffffffffffffffffffffffffffffffffffffff168173ffffffffffffffffffffffffffffffffffffffff161415610b40576040517f08c379a00000000000000000000000000000000000000000000000000000000081526004018080602001828103825260068152602001807f217661756c74000000000000000000000000000000000000000000000000000081525060200191505060405180910390fd5b610b8c81846000809054906101000a900473ffffffffffffffffffffffffffffffffffffffff1673ffffffffffffffffffffffffffffffffffffffff1661228a9092919063ffffffff16565b505050565b73c02aaa39b223fe8d0a0e5c4f27ead9083c756cc281565b600460009054906101000a900473ffffffffffffffffffffffffffffffffffffffff1673ffffffffffffffffffffffffffffffffffffffff163373ffffffffffffffffffffffffffffffffffffffff1614610c6c576040517f08c379a000000000000000000000000000000000000000000000000000000000815260040180806020018281038252600b8152602001807f21617574686f72697a656400000000000000000000000000000000000000000081525060200191505060405180910390fd5b600160009054906101000a900473ffffffffffffffffffffffffffffffffffffffff1673ffffffffffffffffffffffffffffffffffffffff16633d18b9126040518163ffffffff1660e01b8152600401600060405180830381600087803b158015610cd657600080fd5b505af1158015610cea573d6000803e3d6000fd5b505050506000731f9840a85d5af5bf1d1762f925bdaddc4201f98473ffffffffffffffffffffffffffffffffffffffff166370a08231306040518263ffffffff1660e01b8152600401808273ffffffffffffffffffffffffffffffffffffffff1673ffffffffffffffffffffffffffffffffffffffff16815260200191505060206040518083038186803b158015610d8157600080fd5b505afa158015610d95573d6000803e3d6000fd5b505050506040513d6020811015610dab57600080fd5b810190808051906020019092919050505090506000811115610fc457610e1b737a250d5630b4cf539739df2c5dacb4c659f2488d6000731f9840a85d5af5bf1d1762f925bdaddc4201f98473ffffffffffffffffffffffffffffffffffffffff1661235b9092919063ffffffff16565b610e6e737a250d5630b4cf539739df2c5dacb4c659f2488d82731f9840a85d5af5bf1d1762f925bdaddc4201f98473ffffffffffffffffffffffffffffffffffffffff1661235b9092919063ffffffff16565b737a250d5630b4cf539739df2c5dacb4c659f2488d73ffffffffffffffffffffffffffffffffffffffff166338ed1739826000600230610eb96107084261220290919063ffffffff16565b6040518663ffffffff1660e01b815260040180868152602001858152602001806020018473ffffffffffffffffffffffffffffffffffffffff1673ffffffffffffffffffffffffffffffffffffffff1681526020018381526020018281038252858181548152602001915080548015610f8757602002820191906000526020600020905b8160009054906101000a900473ffffffffffffffffffffffffffffffffffffffff1673ffffffffffffffffffffffffffffffffffffffff1681526020019060010190808311610f3d575b50509650505050505050600060405180830381600087803b158015610fab57600080fd5b505af1158015610fbf573d6000803e3d6000fd5b505050505b600073c02aaa39b223fe8d0a0e5c4f27ead9083c756cc273ffffffffffffffffffffffffffffffffffffffff166370a08231306040518263ffffffff1660e01b8152600401808273ffffffffffffffffffffffffffffffffffffffff1673ffffffffffffffffffffffffffffffffffffffff16815260200191505060206040518083038186803b15801561105757600080fd5b505afa15801561106b573d6000803e3d6000fd5b505050506040513d602081101561108157600080fd5b81019080805190602001909291905050509050600081111561117f5761117e600560009054906101000a900473ffffffffffffffffffffffffffffffffffffffff1673ffffffffffffffffffffffffffffffffffffffff16639ec5a8946040518163ffffffff1660e01b815260040160206040518083038186803b15801561110857600080fd5b505afa15801561111c573d6000803e3d6000fd5b505050506040513d602081101561113257600080fd5b81019080805190602001909291905050508273c02aaa39b223fe8d0a0e5c4f27ead9083c756cc273ffffffffffffffffffffffffffffffffffffffff1661228a9092919063ffffffff16565b5b5050565b6000600560009054906101000a900473ffffffffffffffffffffffffffffffffffffffff1673ffffffffffffffffffffffffffffffffffffffff163373ffffffffffffffffffffffffffffffffffffffff1614611248576040517f08c379a000000000000000000000000000000000000000000000000000000000815260040180806020018281038252600b8152602001807f21636f6e74726f6c6c657200000000000000000000000000000000000000000081525060200191505060405180910390fd5b8173ffffffffffffffffffffffffffffffffffffffff166000809054906101000a900473ffffffffffffffffffffffffffffffffffffffff1673ffffffffffffffffffffffffffffffffffffffff16141561130b576040517f08c379a00000000000000000000000000000000000000000000000000000000081526004018080602001828103825260048152602001807f77616e740000000000000000000000000000000000000000000000000000000081525060200191505060405180910390fd5b8173ffffffffffffffffffffffffffffffffffffffff16731f9840a85d5af5bf1d1762f925bdaddc4201f98473ffffffffffffffffffffffffffffffffffffffff1614156113c1576040517f08c379a00000000000000000000000000000000000000000000000000000000081526004018080602001828103825260038152602001807f756e69000000000000000000000000000000000000000000000000000000000081525060200191505060405180910390fd5b8173ffffffffffffffffffffffffffffffffffffffff166370a08231306040518263ffffffff1660e01b8152600401808273ffffffffffffffffffffffffffffffffffffffff1673ffffffffffffffffffffffffffffffffffffffff16815260200191505060206040518083038186803b15801561143e57600080fd5b505afa158015611452573d6000803e3d6000fd5b505050506040513d602081101561146857600080fd5b810190808051906020019092919050505090506114c8600560009054906101000a900473ffffffffffffffffffffffffffffffffffffffff16828473ffffffffffffffffffffffffffffffffffffffff1661228a9092919063ffffffff16565b919050565b600460009054906101000a900473ffffffffffffffffffffffffffffffffffffffff1681565b6002818154811061150057fe5b906000526020600020016000915054906101000a900473ffffffffffffffffffffffffffffffffffffffff1681565b600460009054906101000a900473ffffffffffffffffffffffffffffffffffffffff1673ffffffffffffffffffffffffffffffffffffffff163373ffffffffffffffffffffffffffffffffffffffff16146115f2576040517f08c379a000000000000000000000000000000000000000000000000000000000815260040180806020018281038252600b8152602001807f21676f7665726e616e636500000000000000000000000000000000000000000081525060200191505060405180910390fd5b8060038190555050565b600061161f611609610642565b611611611be2565b61220290919063ffffffff16565b905090565b61271081565b6000600560009054906101000a900473ffffffffffffffffffffffffffffffffffffffff1673ffffffffffffffffffffffffffffffffffffffff163373ffffffffffffffffffffffffffffffffffffffff16146116ef576040517f08c379a000000000000000000000000000000000000000000000000000000000815260040180806020018281038252600b8152602001807f21636f6e74726f6c6c657200000000000000000000000000000000000000000081525060200191505060405180910390fd5b6116f761257b565b6000809054906101000a900473ffffffffffffffffffffffffffffffffffffffff1673ffffffffffffffffffffffffffffffffffffffff166370a08231306040518263ffffffff1660e01b8152600401808273ffffffffffffffffffffffffffffffffffffffff1673ffffffffffffffffffffffffffffffffffffffff16815260200191505060206040518083038186803b15801561179557600080fd5b505afa1580156117a9573d6000803e3d6000fd5b505050506040513d60208110156117bf57600080fd5b8101908080519060200190929190505050905060008111156119cb576000600560009054906101000a900473ffffffffffffffffffffffffffffffffffffffff1673ffffffffffffffffffffffffffffffffffffffff1663a622ee7c6000809054906101000a900473ffffffffffffffffffffffffffffffffffffffff166040518263ffffffff1660e01b8152600401808273ffffffffffffffffffffffffffffffffffffffff1673ffffffffffffffffffffffffffffffffffffffff16815260200191505060206040518083038186803b15801561189d57600080fd5b505afa1580156118b1573d6000803e3d6000fd5b505050506040513d60208110156118c757600080fd5b81019080805190602001909291905050509050600073ffffffffffffffffffffffffffffffffffffffff168173ffffffffffffffffffffffffffffffffffffffff16141561197d576040517f08c379a00000000000000000000000000000000000000000000000000000000081526004018080602001828103825260068152602001807f217661756c74000000000000000000000000000000000000000000000000000081525060200191505060405180910390fd5b6119c981836000809054906101000a900473ffffffffffffffffffffffffffffffffffffffff1673ffffffffffffffffffffffffffffffffffffffff1661228a9092919063ffffffff16565b505b90565b60035481565b600460009054906101000a900473ffffffffffffffffffffffffffffffffffffffff1673ffffffffffffffffffffffffffffffffffffffff163373ffffffffffffffffffffffffffffffffffffffff1614611a97576040517f08c379a000000000000000000000000000000000000000000000000000000000815260040180806020018281038252600b8152602001807f21676f7665726e616e636500000000000000000000000000000000000000000081525060200191505060405180910390fd5b80600560006101000a81548173ffffffffffffffffffffffffffffffffffffffff021916908373ffffffffffffffffffffffffffffffffffffffff16021790555050565b600460009054906101000a900473ffffffffffffffffffffffffffffffffffffffff1673ffffffffffffffffffffffffffffffffffffffff163373ffffffffffffffffffffffffffffffffffffffff1614611b9e576040517f08c379a000000000000000000000000000000000000000000000000000000000815260040180806020018281038252600b8152602001807f21676f7665726e616e636500000000000000000000000000000000000000000081525060200191505060405180910390fd5b80600460006101000a81548173ffffffffffffffffffffffffffffffffffffffff021916908373ffffffffffffffffffffffffffffffffffffffff16021790555050565b60008060009054906101000a900473ffffffffffffffffffffffffffffffffffffffff1673ffffffffffffffffffffffffffffffffffffffff166370a08231306040518263ffffffff1660e01b8152600401808273ffffffffffffffffffffffffffffffffffffffff1673ffffffffffffffffffffffffffffffffffffffff16815260200191505060206040518083038186803b158015611c8257600080fd5b505afa158015611c96573d6000803e3d6000fd5b505050506040513d6020811015611cac57600080fd5b8101908080519060200190929190505050905090565b60008060009054906101000a900473ffffffffffffffffffffffffffffffffffffffff1673ffffffffffffffffffffffffffffffffffffffff166370a08231306040518263ffffffff1660e01b8152600401808273ffffffffffffffffffffffffffffffffffffffff1673ffffffffffffffffffffffffffffffffffffffff16815260200191505060206040518083038186803b158015611d6257600080fd5b505afa158015611d76573d6000803e3d6000fd5b505050506040513d6020811015611d8c57600080fd5b810190808051906020019092919050505090506000811115611f1357611e17600160009054906101000a900473ffffffffffffffffffffffffffffffffffffffff1660008060009054906101000a900473ffffffffffffffffffffffffffffffffffffffff1673ffffffffffffffffffffffffffffffffffffffff1661235b9092919063ffffffff16565b611e85600160009054906101000a900473ffffffffffffffffffffffffffffffffffffffff16826000809054906101000a900473ffffffffffffffffffffffffffffffffffffffff1673ffffffffffffffffffffffffffffffffffffffff1661235b9092919063ffffffff16565b600160009054906101000a900473ffffffffffffffffffffffffffffffffffffffff1673ffffffffffffffffffffffffffffffffffffffff1663a694fc3a826040518263ffffffff1660e01b815260040180828152602001915050600060405180830381600087803b158015611efa57600080fd5b505af1158015611f0e573d6000803e3d6000fd5b505050505b50565b731f9840a85d5af5bf1d1762f925bdaddc4201f98481565b600560009054906101000a900473ffffffffffffffffffffffffffffffffffffffff1681565b6000611f9683836040518060400160405280601e81526020017f536166654d6174683a207375627472616374696f6e206f766572666c6f7700008152506126f3565b905092915050565b6000806000809054906101000a900473ffffffffffffffffffffffffffffffffffffffff1673ffffffffffffffffffffffffffffffffffffffff166370a08231306040518263ffffffff1660e01b8152600401808273ffffffffffffffffffffffffffffffffffffffff1673ffffffffffffffffffffffffffffffffffffffff16815260200191505060206040518083038186803b15801561203f57600080fd5b505afa158015612053573d6000803e3d6000fd5b505050506040513d602081101561206957600080fd5b81019080805190602001909291905050509050600160009054906101000a900473ffffffffffffffffffffffffffffffffffffffff1673ffffffffffffffffffffffffffffffffffffffff16632e1a7d4d846040518263ffffffff1660e01b815260040180828152602001915050600060405180830381600087803b1580156120f157600080fd5b505af1158015612105573d6000803e3d6000fd5b5050505060008060009054906101000a900473ffffffffffffffffffffffffffffffffffffffff1673ffffffffffffffffffffffffffffffffffffffff166370a08231306040518263ffffffff1660e01b8152600401808273ffffffffffffffffffffffffffffffffffffffff1673ffffffffffffffffffffffffffffffffffffffff16815260200191505060206040518083038186803b1580156121a957600080fd5b505afa1580156121bd573d6000803e3d6000fd5b505050506040513d60208110156121d357600080fd5b810190808051906020019092919050505090506121f98282611f5490919063ffffffff16565b92505050919050565b600080828401905083811015612280576040517f08c379a000000000000000000000000000000000000000000000000000000000815260040180806020018281038252601b8152602001807f536166654d6174683a206164646974696f6e206f766572666c6f77000000000081525060200191505060405180910390fd5b8091505092915050565b612356838473ffffffffffffffffffffffffffffffffffffffff1663a9059cbb905060e01b8484604051602401808373ffffffffffffffffffffffffffffffffffffffff1673ffffffffffffffffffffffffffffffffffffffff16815260200182815260200192505050604051602081830303815290604052907bffffffffffffffffffffffffffffffffffffffffffffffffffffffff19166020820180517bffffffffffffffffffffffffffffffffffffffffffffffffffffffff83818316178352505050506127b3565b505050565b6000811480612455575060008373ffffffffffffffffffffffffffffffffffffffff1663dd62ed3e30856040518363ffffffff1660e01b8152600401808373ffffffffffffffffffffffffffffffffffffffff1673ffffffffffffffffffffffffffffffffffffffff1681526020018273ffffffffffffffffffffffffffffffffffffffff1673ffffffffffffffffffffffffffffffffffffffff1681526020019250505060206040518083038186803b15801561241857600080fd5b505afa15801561242c573d6000803e3d6000fd5b505050506040513d602081101561244257600080fd5b8101908080519060200190929190505050145b6124aa576040517f08c379a0000000000000000000000000000000000000000000000000000000008152600401808060200182810382526036815260200180612a746036913960400191505060405180910390fd5b612576838473ffffffffffffffffffffffffffffffffffffffff1663095ea7b3905060e01b8484604051602401808373ffffffffffffffffffffffffffffffffffffffff1673ffffffffffffffffffffffffffffffffffffffff16815260200182815260200192505050604051602081830303815290604052907bffffffffffffffffffffffffffffffffffffffffffffffffffffffff19166020820180517bffffffffffffffffffffffffffffffffffffffffffffffffffffffff83818316178352505050506127b3565b505050565b6000600160009054906101000a900473ffffffffffffffffffffffffffffffffffffffff1673ffffffffffffffffffffffffffffffffffffffff166370a08231306040518263ffffffff1660e01b8152600401808273ffffffffffffffffffffffffffffffffffffffff1673ffffffffffffffffffffffffffffffffffffffff16815260200191505060206040518083038186803b15801561261c57600080fd5b505afa158015612630573d6000803e3d6000fd5b505050506040513d602081101561264657600080fd5b8101908080519060200190929190505050905060008111156126f057600160009054906101000a900473ffffffffffffffffffffffffffffffffffffffff1673ffffffffffffffffffffffffffffffffffffffff16632e1a7d4d826040518263ffffffff1660e01b815260040180828152602001915050600060405180830381600087803b1580156126d757600080fd5b505af11580156126eb573d6000803e3d6000fd5b505050505b50565b60008383111582906127a0576040517f08c379a00000000000000000000000000000000000000000000000000000000081526004018080602001828103825283818151815260200191508051906020019080838360005b8381101561276557808201518184015260208101905061274a565b50505050905090810190601f1680156127925780820380516001836020036101000a031916815260200191505b509250505060405180910390fd5b5060008385039050809150509392505050565b6127d28273ffffffffffffffffffffffffffffffffffffffff166129fe565b612844576040517f08c379a000000000000000000000000000000000000000000000000000000000815260040180806020018281038252601f8152602001807f5361666545524332303a2063616c6c20746f206e6f6e2d636f6e74726163740081525060200191505060405180910390fd5b600060608373ffffffffffffffffffffffffffffffffffffffff16836040518082805190602001908083835b602083106128935780518252602082019150602081019050602083039250612870565b6001836020036101000a0380198251168184511680821785525050505050509050019150506000604051808303816000865af19150503d80600081146128f5576040519150601f19603f3d011682016040523d82523d6000602084013e6128fa565b606091505b509150915081612972576040517f08c379a00000000000000000000000000000000000000000000000000000000081526004018080602001828103825260208152602001807f5361666545524332303a206c6f772d6c6576656c2063616c6c206661696c656481525060200191505060405180910390fd5b6000815111156129f85780806020019051602081101561299157600080fd5b81019080805190602001909291905050506129f7576040517f08c379a000000000000000000000000000000000000000000000000000000000815260040180806020018281038252602a815260200180612a4a602a913960400191505060405180910390fd5b5b50505050565b60008060007fc5d2460186f7233c927e7db2dcc703c0e500b653ca82273b7bfad8045d85a47060001b9050833f9150808214158015612a4057506000801b8214155b9250505091905056fe5361666545524332303a204552433230206f7065726174696f6e20646964206e6f7420737563636565645361666545524332303a20617070726f76652066726f6d206e6f6e2d7a65726f20746f206e6f6e2d7a65726f20616c6c6f77616e6365a265627a7a7231582030984d9ffc7fcc661615ed85c7dc86f6bdfc7c0563964773a9a08a5a8db5cb7a64736f6c63430005100032",
  "source": "// SPDX-License-Identifier: MIT\npragma solidity >=0.5.0;\n\nimport \"@openzeppelin/contracts/math/SafeMath.sol\";\nimport \"@openzeppelin/contracts/token/ERC20/SafeERC20.sol\";\nimport \"@openzeppelin/contracts/utils/Address.sol\";\n\n/*\n A strategy must implement the following calls;\n\n - deposit()\n - withdraw(address) must exclude any tokens used in the yield - Controller role - withdraw should return to Controller\n - withdraw(uint) - Controller | Vault role - withdraw should always return to vault\n - withdrawAll() - Controller | Vault role - withdraw should always return to vault\n - balanceOf()\n\n Where possible, strategies must remain as immutable as possible, instead of updating variables, we update the contract by linking it in the controller\n*/\n\ninterface SULPSController {\n  function vaults(address) external view returns (address);\n  function rewards() external view returns (address);\n}\n\ninterface SULPSStakingRewards {\n  function stake(uint) external;\n  function balanceOf(address) external view returns (uint);\n  function withdraw(uint) external;\n  function getReward() external;\n}\n\ninterface SULPSUniswapRouter {\n  function swapExactTokensForTokens(uint, uint, address[] calldata, address, uint) external;\n}\n\ncontract StrategyUniLPStaking {\n  using Address for address;\n  using SafeERC20 for IERC20;\n  using SafeMath for uint256;\n\n  address public want;\n  address public pool;\n  address constant public uni = address(0x1f9840a85d5aF5bf1D1762F925BDADdC4201F984);\n  address constant public unirouter = address(0x7a250d5630B4cF539739dF2C5dAcb4c659F2488D);\n  address constant public weth = address(0xC02aaA39b223FE8D0A0e5C4F27eAD9083C756Cc2); // used for uni <> weth route\n  // liquidation path to be used\n  address[] public uniswap_uni2weth;\n\n  uint public performanceFee = 600;\n  uint constant public performanceMax = 10000;\n\n  address public governance;\n  address public controller;\n\n  constructor(address _want, address _pool, address _controller) public {\n    want = _want;\n    pool = _pool;\n    uniswap_uni2weth = [uni, weth];\n    governance = tx.origin;\n    controller = _controller;\n  }\n\n  function getName() external pure returns (string memory) {\n    return \"StrategyUniLPStaking\";\n  }\n\n  function setPerformanceFee(uint _performanceFee) external {\n    require(msg.sender == governance, \"!governance\");\n    performanceFee = _performanceFee;\n  }\n\n  function deposit() public {\n    uint _want = IERC20(want).balanceOf(address(this));\n    if (_want > 0) {\n      IERC20(want).safeApprove(pool, 0);\n      IERC20(want).safeApprove(pool, _want);\n      SULPSStakingRewards(pool).stake(_want);\n    }\n  }\n\n  // Controller only function for creating additional rewards from dust\n  function withdraw(IERC20 _asset) external returns (uint balance) {\n    require(msg.sender == controller, \"!controller\");\n    require(want != address(_asset), \"want\");\n    require(uni != address(_asset), \"uni\");\n    balance = _asset.balanceOf(address(this));\n    _asset.safeTransfer(controller, balance);\n  }\n\n  // Withdraw partial funds, normally used with a vault withdrawal\n  function withdraw(uint _amount) external {\n    require(msg.sender == controller, \"!controller\");\n    uint _balance = IERC20(want).balanceOf(address(this));\n    if (_balance < _amount) {\n      _amount = _withdrawSome(_amount.sub(_balance));\n      _amount = _amount.add(_balance);\n    }\n\n    address _vault = SULPSController(controller).vaults(address(want));\n    require(_vault != address(0), \"!vault\"); // additional protection so we don't burn the funds\n\n    IERC20(want).safeTransfer(_vault, _amount);\n  }\n\n  // Withdraw all funds, normally used when migrating strategies\n  function withdrawAll() external returns (uint balance) {\n    require(msg.sender == controller, \"!controller\");\n    _withdrawAll();\n\n    // we can transfer the asset to the vault\n    balance = IERC20(want).balanceOf(address(this));\n\n    if (balance > 0) {\n      address _vault = SULPSController(controller).vaults(address(want));\n      require(_vault != address(0), \"!vault\"); // additional protection so we don't burn the funds\n      IERC20(want).safeTransfer(_vault, balance);\n    }\n  }\n\n  function _withdrawAll() internal {\n    uint _balance = SULPSStakingRewards(pool).balanceOf(address(this));\n    if (_balance > 0) {\n      SULPSStakingRewards(pool).withdraw(_balance);\n    }\n  }\n\n  function harvest() public {\n    require(msg.sender == governance, \"!authorized\");\n    SULPSStakingRewards(pool).getReward();\n    uint256 uniBalance = IERC20(uni).balanceOf(address(this));\n    if (uniBalance > 0) {\n      IERC20(uni).safeApprove(unirouter, 0);\n      IERC20(uni).safeApprove(unirouter, uniBalance);\n      SULPSUniswapRouter(unirouter).swapExactTokensForTokens(uniBalance, uint(0), uniswap_uni2weth, address(this), now.add(1800));\n    }\n    uint wethBalance = IERC20(weth).balanceOf(address(this));\n    if (wethBalance > 0) {\n      IERC20(weth).safeTransfer(SULPSController(controller).rewards(), wethBalance);\n    }\n  }\n\n  function _withdrawSome(uint256 _amount) internal returns (uint) {\n    uint _before = IERC20(want).balanceOf(address(this));\n    SULPSStakingRewards(pool).withdraw(_amount);\n    uint _after = IERC20(want).balanceOf(address(this));\n    return _after.sub(_before);\n  }\n\n  function balanceOfWant() public view returns (uint) {\n    return IERC20(want).balanceOf(address(this));\n  }\n\n  function balanceOfPool() public view returns (uint) {\n    return SULPSStakingRewards(pool).balanceOf(address(this));\n  }\n\n  function balanceOf() public view returns (uint) {\n    return balanceOfWant().add(balanceOfPool());\n  }\n\n  function setGovernance(address _governance) external {\n    require(msg.sender == governance, \"!governance\");\n    governance = _governance;\n  }\n\n  function setController(address _controller) external {\n    require(msg.sender == governance, \"!governance\");\n    controller = _controller;\n  }\n}\n",
  "sourcePath": "/Users/beex/dev/plouto-protocol/contracts/StrategyUniLPStaking.sol",
  "compiler": {
    "name": "solc",
    "version": "0.5.16+commit.9c3226ce.Emscripten.clang"
  },
  "schemaVersion": "3.2.5",
  "updatedAt": "2020-09-24T03:32:51.135Z",
  "devdoc": {
    "methods": {}
  },
  "userdoc": {
    "methods": {}
  }
}