{
  "contractName": "StrategySwerveUSD",
  "abi": [
    {
      "inputs": [
        {
          "internalType": "uint256",
          "name": "_tokenIndex",
          "type": "uint256"
        },
        {
          "internalType": "address",
          "name": "_controller",
          "type": "address"
        }
      ],
      "payable": false,
      "stateMutability": "nonpayable",
      "type": "constructor"
    },
    {
      "constant": true,
      "inputs": [],
      "name": "controller",
      "outputs": [
        {
          "internalType": "address",
          "name": "",
          "type": "address"
        }
      ],
      "payable": false,
      "stateMutability": "view",
      "type": "function"
    },
    {
      "constant": true,
      "inputs": [],
      "name": "curve",
      "outputs": [
        {
          "internalType": "address",
          "name": "",
          "type": "address"
        }
      ],
      "payable": false,
      "stateMutability": "view",
      "type": "function"
    },
    {
      "constant": true,
      "inputs": [],
      "name": "gauge",
      "outputs": [
        {
          "internalType": "address",
          "name": "",
          "type": "address"
        }
      ],
      "payable": false,
      "stateMutability": "view",
      "type": "function"
    },
    {
      "constant": true,
      "inputs": [],
      "name": "governance",
      "outputs": [
        {
          "internalType": "address",
          "name": "",
          "type": "address"
        }
      ],
      "payable": false,
      "stateMutability": "view",
      "type": "function"
    },
    {
      "constant": true,
      "inputs": [],
      "name": "mintr",
      "outputs": [
        {
          "internalType": "address",
          "name": "",
          "type": "address"
        }
      ],
      "payable": false,
      "stateMutability": "view",
      "type": "function"
    },
    {
      "constant": true,
      "inputs": [],
      "name": "performanceFee",
      "outputs": [
        {
          "internalType": "uint256",
          "name": "",
          "type": "uint256"
        }
      ],
      "payable": false,
      "stateMutability": "view",
      "type": "function"
    },
    {
      "constant": true,
      "inputs": [],
      "name": "performanceMax",
      "outputs": [
        {
          "internalType": "uint256",
          "name": "",
          "type": "uint256"
        }
      ],
      "payable": false,
      "stateMutability": "view",
      "type": "function"
    },
    {
      "constant": true,
      "inputs": [],
      "name": "swrv",
      "outputs": [
        {
          "internalType": "address",
          "name": "",
          "type": "address"
        }
      ],
      "payable": false,
      "stateMutability": "view",
      "type": "function"
    },
    {
      "constant": true,
      "inputs": [],
      "name": "swusd",
      "outputs": [
        {
          "internalType": "address",
          "name": "",
          "type": "address"
        }
      ],
      "payable": false,
      "stateMutability": "view",
      "type": "function"
    },
    {
      "constant": true,
      "inputs": [
        {
          "internalType": "uint256",
          "name": "",
          "type": "uint256"
        }
      ],
      "name": "tokenIndexAddress",
      "outputs": [
        {
          "internalType": "address",
          "name": "",
          "type": "address"
        }
      ],
      "payable": false,
      "stateMutability": "view",
      "type": "function"
    },
    {
      "constant": true,
      "inputs": [],
      "name": "uni",
      "outputs": [
        {
          "internalType": "address",
          "name": "",
          "type": "address"
        }
      ],
      "payable": false,
      "stateMutability": "view",
      "type": "function"
    },
    {
      "constant": true,
      "inputs": [
        {
          "internalType": "uint256",
          "name": "",
          "type": "uint256"
        }
      ],
      "name": "uniswap_swrv2want",
      "outputs": [
        {
          "internalType": "address",
          "name": "",
          "type": "address"
        }
      ],
      "payable": false,
      "stateMutability": "view",
      "type": "function"
    },
    {
      "constant": true,
      "inputs": [],
      "name": "want",
      "outputs": [
        {
          "internalType": "address",
          "name": "",
          "type": "address"
        }
      ],
      "payable": false,
      "stateMutability": "view",
      "type": "function"
    },
    {
      "constant": true,
      "inputs": [],
      "name": "weth",
      "outputs": [
        {
          "internalType": "address",
          "name": "",
          "type": "address"
        }
      ],
      "payable": false,
      "stateMutability": "view",
      "type": "function"
    },
    {
      "constant": true,
      "inputs": [],
      "name": "withdrawalFee",
      "outputs": [
        {
          "internalType": "uint256",
          "name": "",
          "type": "uint256"
        }
      ],
      "payable": false,
      "stateMutability": "view",
      "type": "function"
    },
    {
      "constant": true,
      "inputs": [],
      "name": "withdrawalMax",
      "outputs": [
        {
          "internalType": "uint256",
          "name": "",
          "type": "uint256"
        }
      ],
      "payable": false,
      "stateMutability": "view",
      "type": "function"
    },
    {
      "constant": true,
      "inputs": [],
      "name": "getName",
      "outputs": [
        {
          "internalType": "string",
          "name": "",
          "type": "string"
        }
      ],
      "payable": false,
      "stateMutability": "pure",
      "type": "function"
    },
    {
      "constant": false,
      "inputs": [
        {
          "internalType": "uint256",
          "name": "_withdrawalFee",
          "type": "uint256"
        }
      ],
      "name": "setWithdrawalFee",
      "outputs": [],
      "payable": false,
      "stateMutability": "nonpayable",
      "type": "function"
    },
    {
      "constant": false,
      "inputs": [
        {
          "internalType": "uint256",
          "name": "_performanceFee",
          "type": "uint256"
        }
      ],
      "name": "setPerformanceFee",
      "outputs": [],
      "payable": false,
      "stateMutability": "nonpayable",
      "type": "function"
    },
    {
      "constant": false,
      "inputs": [],
      "name": "deposit",
      "outputs": [],
      "payable": false,
      "stateMutability": "nonpayable",
      "type": "function"
    },
    {
      "constant": true,
      "inputs": [
        {
          "internalType": "uint256",
          "name": "swusdBalance",
          "type": "uint256"
        }
      ],
      "name": "wantValueFromSWUSD",
      "outputs": [
        {
          "internalType": "uint256",
          "name": "",
          "type": "uint256"
        }
      ],
      "payable": false,
      "stateMutability": "view",
      "type": "function"
    },
    {
      "constant": false,
      "inputs": [
        {
          "internalType": "uint256",
          "name": "_amount",
          "type": "uint256"
        }
      ],
      "name": "withdraw",
      "outputs": [],
      "payable": false,
      "stateMutability": "nonpayable",
      "type": "function"
    },
    {
      "constant": false,
      "inputs": [
        {
          "internalType": "contract IERC20",
          "name": "_asset",
          "type": "address"
        }
      ],
      "name": "withdraw",
      "outputs": [
        {
          "internalType": "uint256",
          "name": "balance",
          "type": "uint256"
        }
      ],
      "payable": false,
      "stateMutability": "nonpayable",
      "type": "function"
    },
    {
      "constant": false,
      "inputs": [],
      "name": "withdrawAll",
      "outputs": [
        {
          "internalType": "uint256",
          "name": "balance",
          "type": "uint256"
        }
      ],
      "payable": false,
      "stateMutability": "nonpayable",
      "type": "function"
    },
    {
      "constant": false,
      "inputs": [],
      "name": "harvest",
      "outputs": [],
      "payable": false,
      "stateMutability": "nonpayable",
      "type": "function"
    },
    {
      "constant": true,
      "inputs": [],
      "name": "balanceOfWant",
      "outputs": [
        {
          "internalType": "uint256",
          "name": "",
          "type": "uint256"
        }
      ],
      "payable": false,
      "stateMutability": "view",
      "type": "function"
    },
    {
      "constant": true,
      "inputs": [],
      "name": "balanceOfPool",
      "outputs": [
        {
          "internalType": "uint256",
          "name": "",
          "type": "uint256"
        }
      ],
      "payable": false,
      "stateMutability": "view",
      "type": "function"
    },
    {
      "constant": true,
      "inputs": [],
      "name": "balanceOf",
      "outputs": [
        {
          "internalType": "uint256",
          "name": "",
          "type": "uint256"
        }
      ],
      "payable": false,
      "stateMutability": "view",
      "type": "function"
    },
    {
      "constant": false,
      "inputs": [
        {
          "internalType": "address",
          "name": "_governance",
          "type": "address"
        }
      ],
      "name": "setGovernance",
      "outputs": [],
      "payable": false,
      "stateMutability": "nonpayable",
      "type": "function"
    },
    {
      "constant": false,
      "inputs": [
        {
          "internalType": "address",
          "name": "_controller",
          "type": "address"
        }
      ],
      "name": "setController",
      "outputs": [],
      "payable": false,
      "stateMutability": "nonpayable",
      "type": "function"
    }
  ],
  "bytecode": "0x60806040526101f460035560326004553480156200001c57600080fd5b50604051620040f6380380620040f6833981810160405260408110156200004257600080fd5b810190808051906020019092919080519060200190929190505050736b175474e89094c44da98b954eedeac495271d0f60008080815260200190815260200160002060006101000a81548173ffffffffffffffffffffffffffffffffffffffff021916908373ffffffffffffffffffffffffffffffffffffffff16021790555073a0b86991c6218b36c1d19d4a2e9eb0ce3606eb486000806001815260200190815260200160002060006101000a81548173ffffffffffffffffffffffffffffffffffffffff021916908373ffffffffffffffffffffffffffffffffffffffff16021790555073dac17f958d2ee523a2206206994597c13d831ec76000806002815260200190815260200160002060006101000a81548173ffffffffffffffffffffffffffffffffffffffff021916908373ffffffffffffffffffffffffffffffffffffffff1602179055506e085d4780b73119b644ae5ecd22b3766000806003815260200190815260200160002060006101000a81548173ffffffffffffffffffffffffffffffffffffffff021916908373ffffffffffffffffffffffffffffffffffffffff160217905550816003811115620001fc57fe5b600160146101000a81548160ff021916908360038111156200021a57fe5b021790555060008083815260200190815260200160002060009054906101000a900473ffffffffffffffffffffffffffffffffffffffff16600160006101000a81548173ffffffffffffffffffffffffffffffffffffffff021916908373ffffffffffffffffffffffffffffffffffffffff160217905550604051806060016040528073b8baa0e4287890a5f79863ab62b7f175cecbd43373ffffffffffffffffffffffffffffffffffffffff1673ffffffffffffffffffffffffffffffffffffffff16815260200173c02aaa39b223fe8d0a0e5c4f27ead9083c756cc273ffffffffffffffffffffffffffffffffffffffff1673ffffffffffffffffffffffffffffffffffffffff168152602001600160009054906101000a900473ffffffffffffffffffffffffffffffffffffffff1673ffffffffffffffffffffffffffffffffffffffff1673ffffffffffffffffffffffffffffffffffffffff1681525060029060036200038d92919062000418565b5032600560006101000a81548173ffffffffffffffffffffffffffffffffffffffff021916908373ffffffffffffffffffffffffffffffffffffffff16021790555080600660006101000a81548173ffffffffffffffffffffffffffffffffffffffff021916908373ffffffffffffffffffffffffffffffffffffffff1602179055505050620004ed565b82805482825590600052602060002090810192821562000494579160200282015b82811115620004935782518260006101000a81548173ffffffffffffffffffffffffffffffffffffffff021916908373ffffffffffffffffffffffffffffffffffffffff1602179055509160200191906001019062000439565b5b509050620004a39190620004a7565b5090565b620004ea91905b80821115620004e657600081816101000a81549073ffffffffffffffffffffffffffffffffffffffff021916905550600101620004ae565b5090565b90565b613bf980620004fd6000396000f3fe608060405234801561001057600080fd5b50600436106101da5760003560e01c8063853828b611610104578063ac1e5025116100a2578063d5c1ff7311610071578063d5c1ff73146107d6578063edc9af95146107f4578063f77c47911461083e578063f990309b14610888576101da565b8063ac1e502514610736578063c1a3d44c14610764578063d0e30db014610782578063d1e61dcb1461078c576101da565b80638bc7e8c4116100de5780638bc7e8c41461064657806392eefe9b14610664578063a6f19c84146106a8578063ab033ea9146106f2576101da565b8063853828b6146105c857806387788782146105e65780638bbca45a14610604576101da565b806351cff8d91161017c57806370897b231161014b57806370897b23146105145780637165485d14610542578063722713f71461058c5780637cc79113146105aa576101da565b806351cff8d9146103965780635270af49146103ee5780635aa6e6751461045c5780635e7c1766146104a6576101da565b80632e1a7d4d116101b85780632e1a7d4d146102ca5780633fc8cef3146102f857806341caf3a2146103425780634641257d1461038c576101da565b806311588086146101df57806317d7de7c146101fd5780631f1fcd5114610280575b600080fd5b6101e76108d2565b6040518082815260200191505060405180910390f35b6102056109a5565b6040518080602001828103825283818151815260200191508051906020019080838360005b8381101561024557808201518184015260208101905061022a565b50505050905090810190601f1680156102725780820380516001836020036101000a031916815260200191505b509250505060405180910390f35b6102886109e2565b604051808273ffffffffffffffffffffffffffffffffffffffff1673ffffffffffffffffffffffffffffffffffffffff16815260200191505060405180910390f35b6102f6600480360360208110156102e057600080fd5b8101908080359060200190929190505050610a08565b005b610300610f10565b604051808273ffffffffffffffffffffffffffffffffffffffff1673ffffffffffffffffffffffffffffffffffffffff16815260200191505060405180910390f35b61034a610f28565b604051808273ffffffffffffffffffffffffffffffffffffffff1673ffffffffffffffffffffffffffffffffffffffff16815260200191505060405180910390f35b610394610f40565b005b6103d8600480360360208110156103ac57600080fd5b81019080803573ffffffffffffffffffffffffffffffffffffffff16906020019092919050505061169f565b6040518082815260200191505060405180910390f35b61041a6004803603602081101561040457600080fd5b8101908080359060200190929190505050611aa0565b604051808273ffffffffffffffffffffffffffffffffffffffff1673ffffffffffffffffffffffffffffffffffffffff16815260200191505060405180910390f35b610464611ad3565b604051808273ffffffffffffffffffffffffffffffffffffffff1673ffffffffffffffffffffffffffffffffffffffff16815260200191505060405180910390f35b6104d2600480360360208110156104bc57600080fd5b8101908080359060200190929190505050611af9565b604051808273ffffffffffffffffffffffffffffffffffffffff1673ffffffffffffffffffffffffffffffffffffffff16815260200191505060405180910390f35b6105406004803603602081101561052a57600080fd5b8101908080359060200190929190505050611b35565b005b61054a611c02565b604051808273ffffffffffffffffffffffffffffffffffffffff1673ffffffffffffffffffffffffffffffffffffffff16815260200191505060405180910390f35b610594611c1a565b6040518082815260200191505060405180910390f35b6105b2611c42565b6040518082815260200191505060405180910390f35b6105d0611c48565b6040518082815260200191505060405180910390f35b6105ee611fef565b6040518082815260200191505060405180910390f35b6106306004803603602081101561061a57600080fd5b8101908080359060200190929190505050611ff5565b6040518082815260200191505060405180910390f35b61064e6120c6565b6040518082815260200191505060405180910390f35b6106a66004803603602081101561067a57600080fd5b81019080803573ffffffffffffffffffffffffffffffffffffffff1690602001909291905050506120cc565b005b6106b06121d3565b604051808273ffffffffffffffffffffffffffffffffffffffff1673ffffffffffffffffffffffffffffffffffffffff16815260200191505060405180910390f35b6107346004803603602081101561070857600080fd5b81019080803573ffffffffffffffffffffffffffffffffffffffff1690602001909291905050506121eb565b005b6107626004803603602081101561074c57600080fd5b81019080803590602001909291905050506122f2565b005b61076c6123bf565b6040518082815260200191505060405180910390f35b61078a6124a0565b005b6107946126ab565b604051808273ffffffffffffffffffffffffffffffffffffffff1673ffffffffffffffffffffffffffffffffffffffff16815260200191505060405180910390f35b6107de6126c3565b6040518082815260200191505060405180910390f35b6107fc6126c9565b604051808273ffffffffffffffffffffffffffffffffffffffff1673ffffffffffffffffffffffffffffffffffffffff16815260200191505060405180910390f35b6108466126e1565b604051808273ffffffffffffffffffffffffffffffffffffffff1673ffffffffffffffffffffffffffffffffffffffff16815260200191505060405180910390f35b610890612707565b604051808273ffffffffffffffffffffffffffffffffffffffff1673ffffffffffffffffffffffffffffffffffffffff16815260200191505060405180910390f35b600073b4d0c929cd3a1fbdc6d57e7d3315cf0c4d6b4bfa73ffffffffffffffffffffffffffffffffffffffff166370a08231306040518263ffffffff1660e01b8152600401808273ffffffffffffffffffffffffffffffffffffffff1673ffffffffffffffffffffffffffffffffffffffff16815260200191505060206040518083038186803b15801561096557600080fd5b505afa158015610979573d6000803e3d6000fd5b505050506040513d602081101561098f57600080fd5b8101908080519060200190929190505050905090565b60606040518060400160405280601181526020017f5374726174656779537765727665555344000000000000000000000000000000815250905090565b600160009054906101000a900473ffffffffffffffffffffffffffffffffffffffff1681565b600660009054906101000a900473ffffffffffffffffffffffffffffffffffffffff1673ffffffffffffffffffffffffffffffffffffffff163373ffffffffffffffffffffffffffffffffffffffff1614610acb576040517f08c379a000000000000000000000000000000000000000000000000000000000815260040180806020018281038252600b8152602001807f21636f6e74726f6c6c657200000000000000000000000000000000000000000081525060200191505060405180910390fd5b6000600160009054906101000a900473ffffffffffffffffffffffffffffffffffffffff1673ffffffffffffffffffffffffffffffffffffffff166370a08231306040518263ffffffff1660e01b8152600401808273ffffffffffffffffffffffffffffffffffffffff1673ffffffffffffffffffffffffffffffffffffffff16815260200191505060206040518083038186803b158015610b6c57600080fd5b505afa158015610b80573d6000803e3d6000fd5b505050506040513d6020811015610b9657600080fd5b8101908080519060200190929190505050905081811015610be457610bcc610bc7828461271f90919063ffffffff16565b612769565b9150610be18183612a9590919063ffffffff16565b91505b6000610c0f612710610c0160045486612b1d90919063ffffffff16565b612ba390919063ffffffff16565b9050610d00600660009054906101000a900473ffffffffffffffffffffffffffffffffffffffff1673ffffffffffffffffffffffffffffffffffffffff16639ec5a8946040518163ffffffff1660e01b815260040160206040518083038186803b158015610c7c57600080fd5b505afa158015610c90573d6000803e3d6000fd5b505050506040513d6020811015610ca657600080fd5b810190808051906020019092919050505082600160009054906101000a900473ffffffffffffffffffffffffffffffffffffffff1673ffffffffffffffffffffffffffffffffffffffff16612bed9092919063ffffffff16565b6000600660009054906101000a900473ffffffffffffffffffffffffffffffffffffffff1673ffffffffffffffffffffffffffffffffffffffff1663a622ee7c600160009054906101000a900473ffffffffffffffffffffffffffffffffffffffff166040518263ffffffff1660e01b8152600401808273ffffffffffffffffffffffffffffffffffffffff1673ffffffffffffffffffffffffffffffffffffffff16815260200191505060206040518083038186803b158015610dc357600080fd5b505afa158015610dd7573d6000803e3d6000fd5b505050506040513d6020811015610ded57600080fd5b81019080805190602001909291905050509050600073ffffffffffffffffffffffffffffffffffffffff168173ffffffffffffffffffffffffffffffffffffffff161415610ea3576040517f08c379a00000000000000000000000000000000000000000000000000000000081526004018080602001828103825260068152602001807f217661756c74000000000000000000000000000000000000000000000000000081525060200191505060405180910390fd5b610f0281610eba848761271f90919063ffffffff16565b600160009054906101000a900473ffffffffffffffffffffffffffffffffffffffff1673ffffffffffffffffffffffffffffffffffffffff16612bed9092919063ffffffff16565b610f0a6124a0565b50505050565b73c02aaa39b223fe8d0a0e5c4f27ead9083c756cc281565b7377c6e4a580c0dce4e5c7a17d0bc077188a83a05981565b600560009054906101000a900473ffffffffffffffffffffffffffffffffffffffff1673ffffffffffffffffffffffffffffffffffffffff163373ffffffffffffffffffffffffffffffffffffffff1614611003576040517f08c379a000000000000000000000000000000000000000000000000000000000815260040180806020018281038252600b8152602001807f21617574686f72697a656400000000000000000000000000000000000000000081525060200191505060405180910390fd5b732c988c3974ad7e604e276ae0294a7228def6797473ffffffffffffffffffffffffffffffffffffffff16636a62784273b4d0c929cd3a1fbdc6d57e7d3315cf0c4d6b4bfa6040518263ffffffff1660e01b8152600401808273ffffffffffffffffffffffffffffffffffffffff1673ffffffffffffffffffffffffffffffffffffffff168152602001915050600060405180830381600087803b1580156110aa57600080fd5b505af11580156110be573d6000803e3d6000fd5b505050506000600160009054906101000a900473ffffffffffffffffffffffffffffffffffffffff1673ffffffffffffffffffffffffffffffffffffffff166370a08231306040518263ffffffff1660e01b8152600401808273ffffffffffffffffffffffffffffffffffffffff1673ffffffffffffffffffffffffffffffffffffffff16815260200191505060206040518083038186803b15801561116357600080fd5b505afa158015611177573d6000803e3d6000fd5b505050506040513d602081101561118d57600080fd5b81019080805190602001909291905050509050600073b8baa0e4287890a5f79863ab62b7f175cecbd43373ffffffffffffffffffffffffffffffffffffffff166370a08231306040518263ffffffff1660e01b8152600401808273ffffffffffffffffffffffffffffffffffffffff1673ffffffffffffffffffffffffffffffffffffffff16815260200191505060206040518083038186803b15801561123357600080fd5b505afa158015611247573d6000803e3d6000fd5b505050506040513d602081101561125d57600080fd5b810190808051906020019092919050505090506000811115611476576112cd737a250d5630b4cf539739df2c5dacb4c659f2488d600073b8baa0e4287890a5f79863ab62b7f175cecbd43373ffffffffffffffffffffffffffffffffffffffff16612cbe9092919063ffffffff16565b611320737a250d5630b4cf539739df2c5dacb4c659f2488d8273b8baa0e4287890a5f79863ab62b7f175cecbd43373ffffffffffffffffffffffffffffffffffffffff16612cbe9092919063ffffffff16565b737a250d5630b4cf539739df2c5dacb4c659f2488d73ffffffffffffffffffffffffffffffffffffffff166338ed173982600060023061136b61070842612a9590919063ffffffff16565b6040518663ffffffff1660e01b815260040180868152602001858152602001806020018473ffffffffffffffffffffffffffffffffffffffff1673ffffffffffffffffffffffffffffffffffffffff168152602001838152602001828103825285818154815260200191508054801561143957602002820191906000526020600020905b8160009054906101000a900473ffffffffffffffffffffffffffffffffffffffff1673ffffffffffffffffffffffffffffffffffffffff16815260200190600101908083116113ef575b50509650505050505050600060405180830381600087803b15801561145d57600080fd5b505af1158015611471573d6000803e3d6000fd5b505050505b6000600160009054906101000a900473ffffffffffffffffffffffffffffffffffffffff1673ffffffffffffffffffffffffffffffffffffffff166370a08231306040518263ffffffff1660e01b8152600401808273ffffffffffffffffffffffffffffffffffffffff1673ffffffffffffffffffffffffffffffffffffffff16815260200191505060206040518083038186803b15801561151757600080fd5b505afa15801561152b573d6000803e3d6000fd5b505050506040513d602081101561154157600080fd5b810190808051906020019092919050505090508281111561169a576000611571848361271f90919063ffffffff16565b9050600061159e61271061159060035485612b1d90919063ffffffff16565b612ba390919063ffffffff16565b905061168f600660009054906101000a900473ffffffffffffffffffffffffffffffffffffffff1673ffffffffffffffffffffffffffffffffffffffff16639ec5a8946040518163ffffffff1660e01b815260040160206040518083038186803b15801561160b57600080fd5b505afa15801561161f573d6000803e3d6000fd5b505050506040513d602081101561163557600080fd5b810190808051906020019092919050505082600160009054906101000a900473ffffffffffffffffffffffffffffffffffffffff1673ffffffffffffffffffffffffffffffffffffffff16612bed9092919063ffffffff16565b6116976124a0565b50505b505050565b6000600660009054906101000a900473ffffffffffffffffffffffffffffffffffffffff1673ffffffffffffffffffffffffffffffffffffffff163373ffffffffffffffffffffffffffffffffffffffff1614611764576040517f08c379a000000000000000000000000000000000000000000000000000000000815260040180806020018281038252600b8152602001807f21636f6e74726f6c6c657200000000000000000000000000000000000000000081525060200191505060405180910390fd5b8173ffffffffffffffffffffffffffffffffffffffff16600160009054906101000a900473ffffffffffffffffffffffffffffffffffffffff1673ffffffffffffffffffffffffffffffffffffffff161415611828576040517f08c379a00000000000000000000000000000000000000000000000000000000081526004018080602001828103825260048152602001807f77616e740000000000000000000000000000000000000000000000000000000081525060200191505060405180910390fd5b8173ffffffffffffffffffffffffffffffffffffffff167377c6e4a580c0dce4e5c7a17d0bc077188a83a05973ffffffffffffffffffffffffffffffffffffffff1614156118de576040517f08c379a00000000000000000000000000000000000000000000000000000000081526004018080602001828103825260058152602001807f737775736400000000000000000000000000000000000000000000000000000081525060200191505060405180910390fd5b8173ffffffffffffffffffffffffffffffffffffffff1673b8baa0e4287890a5f79863ab62b7f175cecbd43373ffffffffffffffffffffffffffffffffffffffff161415611994576040517f08c379a00000000000000000000000000000000000000000000000000000000081526004018080602001828103825260048152602001807f737772760000000000000000000000000000000000000000000000000000000081525060200191505060405180910390fd5b8173ffffffffffffffffffffffffffffffffffffffff166370a08231306040518263ffffffff1660e01b8152600401808273ffffffffffffffffffffffffffffffffffffffff1673ffffffffffffffffffffffffffffffffffffffff16815260200191505060206040518083038186803b158015611a1157600080fd5b505afa158015611a25573d6000803e3d6000fd5b505050506040513d6020811015611a3b57600080fd5b81019080805190602001909291905050509050611a9b600660009054906101000a900473ffffffffffffffffffffffffffffffffffffffff16828473ffffffffffffffffffffffffffffffffffffffff16612bed9092919063ffffffff16565b919050565b60006020528060005260406000206000915054906101000a900473ffffffffffffffffffffffffffffffffffffffff1681565b600560009054906101000a900473ffffffffffffffffffffffffffffffffffffffff1681565b60028181548110611b0657fe5b906000526020600020016000915054906101000a900473ffffffffffffffffffffffffffffffffffffffff1681565b600560009054906101000a900473ffffffffffffffffffffffffffffffffffffffff1673ffffffffffffffffffffffffffffffffffffffff163373ffffffffffffffffffffffffffffffffffffffff1614611bf8576040517f08c379a000000000000000000000000000000000000000000000000000000000815260040180806020018281038252600b8152602001807f21676f7665726e616e636500000000000000000000000000000000000000000081525060200191505060405180910390fd5b8060038190555050565b73a746c67eb7915fa832a4c2076d403d4b6808543181565b6000611c3d611c276108d2565b611c2f6123bf565b612a9590919063ffffffff16565b905090565b61271081565b6000600660009054906101000a900473ffffffffffffffffffffffffffffffffffffffff1673ffffffffffffffffffffffffffffffffffffffff163373ffffffffffffffffffffffffffffffffffffffff1614611d0d576040517f08c379a000000000000000000000000000000000000000000000000000000000815260040180806020018281038252600b8152602001807f21636f6e74726f6c6c657200000000000000000000000000000000000000000081525060200191505060405180910390fd5b611d15612ede565b600160009054906101000a900473ffffffffffffffffffffffffffffffffffffffff1673ffffffffffffffffffffffffffffffffffffffff166370a08231306040518263ffffffff1660e01b8152600401808273ffffffffffffffffffffffffffffffffffffffff1673ffffffffffffffffffffffffffffffffffffffff16815260200191505060206040518083038186803b158015611db457600080fd5b505afa158015611dc8573d6000803e3d6000fd5b505050506040513d6020811015611dde57600080fd5b810190808051906020019092919050505090506000811115611fec576000600660009054906101000a900473ffffffffffffffffffffffffffffffffffffffff1673ffffffffffffffffffffffffffffffffffffffff1663a622ee7c600160009054906101000a900473ffffffffffffffffffffffffffffffffffffffff166040518263ffffffff1660e01b8152600401808273ffffffffffffffffffffffffffffffffffffffff1673ffffffffffffffffffffffffffffffffffffffff16815260200191505060206040518083038186803b158015611ebd57600080fd5b505afa158015611ed1573d6000803e3d6000fd5b505050506040513d6020811015611ee757600080fd5b81019080805190602001909291905050509050600073ffffffffffffffffffffffffffffffffffffffff168173ffffffffffffffffffffffffffffffffffffffff161415611f9d576040517f08c379a00000000000000000000000000000000000000000000000000000000081526004018080602001828103825260068152602001807f217661756c74000000000000000000000000000000000000000000000000000081525060200191505060405180910390fd5b611fea8183600160009054906101000a900473ffffffffffffffffffffffffffffffffffffffff1673ffffffffffffffffffffffffffffffffffffffff16612bed9092919063ffffffff16565b505b90565b60035481565b600073a746c67eb7915fa832a4c2076d403d4b6808543173ffffffffffffffffffffffffffffffffffffffff1663cc2b27d783600160149054906101000a900460ff16600381111561204357fe5b6040518363ffffffff1660e01b81526004018083815260200182600f0b600f0b81526020019250505060206040518083038186803b15801561208457600080fd5b505afa158015612098573d6000803e3d6000fd5b505050506040513d60208110156120ae57600080fd5b81019080805190602001909291905050509050919050565b60045481565b600560009054906101000a900473ffffffffffffffffffffffffffffffffffffffff1673ffffffffffffffffffffffffffffffffffffffff163373ffffffffffffffffffffffffffffffffffffffff161461218f576040517f08c379a000000000000000000000000000000000000000000000000000000000815260040180806020018281038252600b8152602001807f21676f7665726e616e636500000000000000000000000000000000000000000081525060200191505060405180910390fd5b80600660006101000a81548173ffffffffffffffffffffffffffffffffffffffff021916908373ffffffffffffffffffffffffffffffffffffffff16021790555050565b73b4d0c929cd3a1fbdc6d57e7d3315cf0c4d6b4bfa81565b600560009054906101000a900473ffffffffffffffffffffffffffffffffffffffff1673ffffffffffffffffffffffffffffffffffffffff163373ffffffffffffffffffffffffffffffffffffffff16146122ae576040517f08c379a000000000000000000000000000000000000000000000000000000000815260040180806020018281038252600b8152602001807f21676f7665726e616e636500000000000000000000000000000000000000000081525060200191505060405180910390fd5b80600560006101000a81548173ffffffffffffffffffffffffffffffffffffffff021916908373ffffffffffffffffffffffffffffffffffffffff16021790555050565b600560009054906101000a900473ffffffffffffffffffffffffffffffffffffffff1673ffffffffffffffffffffffffffffffffffffffff163373ffffffffffffffffffffffffffffffffffffffff16146123b5576040517f08c379a000000000000000000000000000000000000000000000000000000000815260040180806020018281038252600b8152602001807f21676f7665726e616e636500000000000000000000000000000000000000000081525060200191505060405180910390fd5b8060048190555050565b6000600160009054906101000a900473ffffffffffffffffffffffffffffffffffffffff1673ffffffffffffffffffffffffffffffffffffffff166370a08231306040518263ffffffff1660e01b8152600401808273ffffffffffffffffffffffffffffffffffffffff1673ffffffffffffffffffffffffffffffffffffffff16815260200191505060206040518083038186803b15801561246057600080fd5b505afa158015612474573d6000803e3d6000fd5b505050506040513d602081101561248a57600080fd5b8101908080519060200190929190505050905090565b6124a8613053565b60007377c6e4a580c0dce4e5c7a17d0bc077188a83a05973ffffffffffffffffffffffffffffffffffffffff166370a08231306040518263ffffffff1660e01b8152600401808273ffffffffffffffffffffffffffffffffffffffff1673ffffffffffffffffffffffffffffffffffffffff16815260200191505060206040518083038186803b15801561253b57600080fd5b505afa15801561254f573d6000803e3d6000fd5b505050506040513d602081101561256557600080fd5b8101908080519060200190929190505050905060008111156126a8576125d573b4d0c929cd3a1fbdc6d57e7d3315cf0c4d6b4bfa60007377c6e4a580c0dce4e5c7a17d0bc077188a83a05973ffffffffffffffffffffffffffffffffffffffff16612cbe9092919063ffffffff16565b61262873b4d0c929cd3a1fbdc6d57e7d3315cf0c4d6b4bfa827377c6e4a580c0dce4e5c7a17d0bc077188a83a05973ffffffffffffffffffffffffffffffffffffffff16612cbe9092919063ffffffff16565b73b4d0c929cd3a1fbdc6d57e7d3315cf0c4d6b4bfa73ffffffffffffffffffffffffffffffffffffffff1663b6b55f25826040518263ffffffff1660e01b815260040180828152602001915050600060405180830381600087803b15801561268f57600080fd5b505af11580156126a3573d6000803e3d6000fd5b505050505b50565b732c988c3974ad7e604e276ae0294a7228def6797481565b61271081565b737a250d5630b4cf539739df2c5dacb4c659f2488d81565b600660009054906101000a900473ffffffffffffffffffffffffffffffffffffffff1681565b73b8baa0e4287890a5f79863ab62b7f175cecbd43381565b600061276183836040518060400160405280601e81526020017f536166654d6174683a207375627472616374696f6e206f766572666c6f7700008152506132ca565b905092915050565b600080600160009054906101000a900473ffffffffffffffffffffffffffffffffffffffff1673ffffffffffffffffffffffffffffffffffffffff166370a08231306040518263ffffffff1660e01b8152600401808273ffffffffffffffffffffffffffffffffffffffff1673ffffffffffffffffffffffffffffffffffffffff16815260200191505060206040518083038186803b15801561280b57600080fd5b505afa15801561281f573d6000803e3d6000fd5b505050506040513d602081101561283557600080fd5b8101908080519060200190929190505050905073b4d0c929cd3a1fbdc6d57e7d3315cf0c4d6b4bfa73ffffffffffffffffffffffffffffffffffffffff16632e1a7d4d73b4d0c929cd3a1fbdc6d57e7d3315cf0c4d6b4bfa73ffffffffffffffffffffffffffffffffffffffff166370a08231306040518263ffffffff1660e01b8152600401808273ffffffffffffffffffffffffffffffffffffffff1673ffffffffffffffffffffffffffffffffffffffff16815260200191505060206040518083038186803b15801561290957600080fd5b505afa15801561291d573d6000803e3d6000fd5b505050506040513d602081101561293357600080fd5b81019080805190602001909291905050506040518263ffffffff1660e01b815260040180828152602001915050600060405180830381600087803b15801561297a57600080fd5b505af115801561298e573d6000803e3d6000fd5b5050505061299b8361338a565b6000600160009054906101000a900473ffffffffffffffffffffffffffffffffffffffff1673ffffffffffffffffffffffffffffffffffffffff166370a08231306040518263ffffffff1660e01b8152600401808273ffffffffffffffffffffffffffffffffffffffff1673ffffffffffffffffffffffffffffffffffffffff16815260200191505060206040518083038186803b158015612a3c57600080fd5b505afa158015612a50573d6000803e3d6000fd5b505050506040513d6020811015612a6657600080fd5b81019080805190602001909291905050509050612a8c828261271f90919063ffffffff16565b92505050919050565b600080828401905083811015612b13576040517f08c379a000000000000000000000000000000000000000000000000000000000815260040180806020018281038252601b8152602001807f536166654d6174683a206164646974696f6e206f766572666c6f77000000000081525060200191505060405180910390fd5b8091505092915050565b600080831415612b305760009050612b9d565b6000828402905082848281612b4157fe5b0414612b98576040517f08c379a0000000000000000000000000000000000000000000000000000000008152600401808060200182810382526021815260200180613b446021913960400191505060405180910390fd5b809150505b92915050565b6000612be583836040518060400160405280601a81526020017f536166654d6174683a206469766973696f6e206279207a65726f00000000000081525061374c565b905092915050565b612cb9838473ffffffffffffffffffffffffffffffffffffffff1663a9059cbb905060e01b8484604051602401808373ffffffffffffffffffffffffffffffffffffffff1673ffffffffffffffffffffffffffffffffffffffff16815260200182815260200192505050604051602081830303815290604052907bffffffffffffffffffffffffffffffffffffffffffffffffffffffff19166020820180517bffffffffffffffffffffffffffffffffffffffffffffffffffffffff8381831617835250505050613812565b505050565b6000811480612db8575060008373ffffffffffffffffffffffffffffffffffffffff1663dd62ed3e30856040518363ffffffff1660e01b8152600401808373ffffffffffffffffffffffffffffffffffffffff1673ffffffffffffffffffffffffffffffffffffffff1681526020018273ffffffffffffffffffffffffffffffffffffffff1673ffffffffffffffffffffffffffffffffffffffff1681526020019250505060206040518083038186803b158015612d7b57600080fd5b505afa158015612d8f573d6000803e3d6000fd5b505050506040513d6020811015612da557600080fd5b8101908080519060200190929190505050145b612e0d576040517f08c379a0000000000000000000000000000000000000000000000000000000008152600401808060200182810382526036815260200180613b8f6036913960400191505060405180910390fd5b612ed9838473ffffffffffffffffffffffffffffffffffffffff1663095ea7b3905060e01b8484604051602401808373ffffffffffffffffffffffffffffffffffffffff1673ffffffffffffffffffffffffffffffffffffffff16815260200182815260200192505050604051602081830303815290604052907bffffffffffffffffffffffffffffffffffffffffffffffffffffffff19166020820180517bffffffffffffffffffffffffffffffffffffffffffffffffffffffff8381831617835250505050613812565b505050565b73b4d0c929cd3a1fbdc6d57e7d3315cf0c4d6b4bfa73ffffffffffffffffffffffffffffffffffffffff16632e1a7d4d73b4d0c929cd3a1fbdc6d57e7d3315cf0c4d6b4bfa73ffffffffffffffffffffffffffffffffffffffff166370a08231306040518263ffffffff1660e01b8152600401808273ffffffffffffffffffffffffffffffffffffffff1673ffffffffffffffffffffffffffffffffffffffff16815260200191505060206040518083038186803b158015612f9f57600080fd5b505afa158015612fb3573d6000803e3d6000fd5b505050506040513d6020811015612fc957600080fd5b81019080805190602001909291905050506040518263ffffffff1660e01b815260040180828152602001915050600060405180830381600087803b15801561301057600080fd5b505af1158015613024573d6000803e3d6000fd5b505050506130517fffffffffffffffffffffffffffffffffffffffffffffffffffffffffffffffff61338a565b565b6000600160009054906101000a900473ffffffffffffffffffffffffffffffffffffffff1673ffffffffffffffffffffffffffffffffffffffff166370a08231306040518263ffffffff1660e01b8152600401808273ffffffffffffffffffffffffffffffffffffffff1673ffffffffffffffffffffffffffffffffffffffff16815260200191505060206040518083038186803b1580156130f457600080fd5b505afa158015613108573d6000803e3d6000fd5b505050506040513d602081101561311e57600080fd5b8101908080519060200190929190505050905060008111156132c75761319c73a746c67eb7915fa832a4c2076d403d4b680854316000600160009054906101000a900473ffffffffffffffffffffffffffffffffffffffff1673ffffffffffffffffffffffffffffffffffffffff16612cbe9092919063ffffffff16565b6131fd73a746c67eb7915fa832a4c2076d403d4b6808543182600160009054906101000a900473ffffffffffffffffffffffffffffffffffffffff1673ffffffffffffffffffffffffffffffffffffffff16612cbe9092919063ffffffff16565b600080905061320a613b21565b61321383613a5d565b905073a746c67eb7915fa832a4c2076d403d4b6808543173ffffffffffffffffffffffffffffffffffffffff1663029b2f3482846040518363ffffffff1660e01b81526004018083600460200280838360005b83811015613281578082015181840152602081019050613266565b5050505090500182815260200192505050600060405180830381600087803b1580156132ac57600080fd5b505af11580156132c0573d6000803e3d6000fd5b5050505050505b50565b6000838311158290613377576040517f08c379a00000000000000000000000000000000000000000000000000000000081526004018080602001828103825283818151815260200191508051906020019080838360005b8381101561333c578082015181840152602081019050613321565b50505050905090810190601f1680156133695780820380516001836020036101000a031916815260200191505b509250505060405180910390fd5b5060008385039050809150509392505050565b60007377c6e4a580c0dce4e5c7a17d0bc077188a83a05973ffffffffffffffffffffffffffffffffffffffff166370a08231306040518263ffffffff1660e01b8152600401808273ffffffffffffffffffffffffffffffffffffffff1673ffffffffffffffffffffffffffffffffffffffff16815260200191505060206040518083038186803b15801561341d57600080fd5b505afa158015613431573d6000803e3d6000fd5b505050506040513d602081101561344757600080fd5b81019080805190602001909291905050509050600061346582611ff5565b90506000811415613477575050613749565b808310156135ee57613487613b21565b61349084613a5d565b90506134e673a746c67eb7915fa832a4c2076d403d4b6808543160007377c6e4a580c0dce4e5c7a17d0bc077188a83a05973ffffffffffffffffffffffffffffffffffffffff16612cbe9092919063ffffffff16565b61353973a746c67eb7915fa832a4c2076d403d4b68085431847377c6e4a580c0dce4e5c7a17d0bc077188a83a05973ffffffffffffffffffffffffffffffffffffffff16612cbe9092919063ffffffff16565b73a746c67eb7915fa832a4c2076d403d4b6808543173ffffffffffffffffffffffffffffffffffffffff166318a7bd7682856040518363ffffffff1660e01b81526004018083600460200280838360005b838110156135a557808201518184015260208101905061358a565b5050505090500182815260200192505050600060405180830381600087803b1580156135d057600080fd5b505af11580156135e4573d6000803e3d6000fd5b5050505050613746565b61364273a746c67eb7915fa832a4c2076d403d4b6808543160007377c6e4a580c0dce4e5c7a17d0bc077188a83a05973ffffffffffffffffffffffffffffffffffffffff16612cbe9092919063ffffffff16565b61369573a746c67eb7915fa832a4c2076d403d4b68085431837377c6e4a580c0dce4e5c7a17d0bc077188a83a05973ffffffffffffffffffffffffffffffffffffffff16612cbe9092919063ffffffff16565b73a746c67eb7915fa832a4c2076d403d4b6808543173ffffffffffffffffffffffffffffffffffffffff16631a4d01d283600160149054906101000a900460ff1660038111156136e157fe5b60006040518463ffffffff1660e01b81526004018084815260200183600f0b600f0b81526020018281526020019350505050600060405180830381600087803b15801561372d57600080fd5b505af1158015613741573d6000803e3d6000fd5b505050505b50505b50565b600080831182906137f8576040517f08c379a00000000000000000000000000000000000000000000000000000000081526004018080602001828103825283818151815260200191508051906020019080838360005b838110156137bd5780820151818401526020810190506137a2565b50505050905090810190601f1680156137ea5780820380516001836020036101000a031916815260200191505b509250505060405180910390fd5b50600083858161380457fe5b049050809150509392505050565b6138318273ffffffffffffffffffffffffffffffffffffffff16613ad6565b6138a3576040517f08c379a000000000000000000000000000000000000000000000000000000000815260040180806020018281038252601f8152602001807f5361666545524332303a2063616c6c20746f206e6f6e2d636f6e74726163740081525060200191505060405180910390fd5b600060608373ffffffffffffffffffffffffffffffffffffffff16836040518082805190602001908083835b602083106138f257805182526020820191506020810190506020830392506138cf565b6001836020036101000a0380198251168184511680821785525050505050509050019150506000604051808303816000865af19150503d8060008114613954576040519150601f19603f3d011682016040523d82523d6000602084013e613959565b606091505b5091509150816139d1576040517f08c379a00000000000000000000000000000000000000000000000000000000081526004018080602001828103825260208152602001807f5361666545524332303a206c6f772d6c6576656c2063616c6c206661696c656481525060200191505060405180910390fd5b600081511115613a57578080602001905160208110156139f057600080fd5b8101908080519060200190929190505050613a56576040517f08c379a000000000000000000000000000000000000000000000000000000000815260040180806020018281038252602a815260200180613b65602a913960400191505060405180910390fd5b5b50505050565b613a65613b21565b613a6d613b21565b6040518060800160405280600081526020016000815260200160008152602001600081525090508281600160149054906101000a900460ff166003811115613ab157fe5b66ffffffffffffff1660048110613ac457fe5b60200201818152505080915050919050565b60008060007fc5d2460186f7233c927e7db2dcc703c0e500b653ca82273b7bfad8045d85a47060001b9050833f9150808214158015613b1857506000801b8214155b92505050919050565b604051806080016040528060049060208202803883398082019150509050509056fe536166654d6174683a206d756c7469706c69636174696f6e206f766572666c6f775361666545524332303a204552433230206f7065726174696f6e20646964206e6f7420737563636565645361666545524332303a20617070726f76652066726f6d206e6f6e2d7a65726f20746f206e6f6e2d7a65726f20616c6c6f77616e6365a265627a7a72315820394897a58ad93157d57f21d9a03f240bdd5bb8b81aafc279ac7c7fe72a04827264736f6c63430005100032",
  "source": "// SPDX-License-Identifier: MIT\npragma solidity >=0.5.0;\n\nimport \"@openzeppelin/contracts/math/SafeMath.sol\";\nimport \"@openzeppelin/contracts/token/ERC20/SafeERC20.sol\";\nimport \"@openzeppelin/contracts/utils/Address.sol\";\n\n/*\n A strategy must implement the following calls;\n\n - deposit()\n - withdraw(address) must exclude any tokens used in the yield - Controller role - withdraw should return to Controller\n - withdraw(uint) - Controller | Vault role - withdraw should always return to vault\n - withdrawAll() - Controller | Vault role - withdraw should always return to vault\n - balanceOf()\n\n Where possible, strategies must remain as immutable as possible, instead of updating variables, we update the contract by linking it in the controller\n*/\n\ninterface SSUSDController {\n  function vaults(address) external view returns (address);\n  function rewards() external view returns (address);\n}\n\ninterface SSUSDGauge {\n  function deposit(uint) external;\n  function balanceOf(address) external view returns (uint);\n  function withdraw(uint) external;\n}\n\ninterface SSUSDMintr {\n  function mint(address) external;\n}\n\ninterface SSUSDUniswapRouter {\n  function swapExactTokensForTokens(uint, uint, address[] calldata, address, uint) external;\n}\n\ninterface ISwerveFi {\n  function get_virtual_price() external view returns (uint);\n  function add_liquidity(\n    uint256[4] calldata amounts,\n    uint256 min_mint_amount\n  ) external;\n  function remove_liquidity_imbalance(\n    uint256[4] calldata amounts,\n    uint256 max_burn_amount\n  ) external;\n  function remove_liquidity(\n    uint256 _amount,\n    uint256[4] calldata amounts\n  ) external;\n  function exchange(\n    int128 from,\n    int128 to,\n    uint256 _from_amount,\n    uint256 _min_to_amount\n  ) external;\n  function calc_token_amount(\n    uint256[4] calldata amounts,\n    bool deposit\n  ) external view returns(uint);\n  function calc_withdraw_one_coin(\n    uint256 _token_amount,\n    int128 i) external view returns (uint256);\n  function remove_liquidity_one_coin(\n    uint256 _token_amount,\n    int128 i,\n    uint256 min_amount) external;\n}\n\ncontract StrategySwerveUSD {\n  using Address for address;\n  using SafeERC20 for IERC20;\n  using SafeMath for uint256;\n\n  enum TokenIndex {\n    DAI,\n    USDC,\n    USDT,\n    TUSD\n  }\n\n  mapping(uint256 => address) public tokenIndexAddress;\n  address public want;\n  // the matching enum record used to determine the index\n  TokenIndex tokenIndex;\n  address constant public swusd = address(0x77C6E4a580c0dCE4E5c7a17d0bc077188a83A059); // (swerve combo Swerve.fi DAI/USDC/USDT/TUSD (swUSD))\n  address constant public curve = address(0xa746c67eB7915Fa832a4C2076D403D4B68085431);\n  address constant public gauge = address(0xb4d0C929cD3A1FbDc6d57E7D3315cF0C4d6B4bFa);\n  address constant public mintr = address(0x2c988c3974AD7E604E276AE0294a7228DEf67974);\n  address constant public swrv = address(0xB8BAa0e4287890a5F79863aB62b7F175ceCbD433);\n  address constant public uni = address(0x7a250d5630B4cF539739dF2C5dAcb4c659F2488D);\n  address constant public weth = address(0xC02aaA39b223FE8D0A0e5C4F27eAD9083C756Cc2); // used for swrv <> weth <> want route\n  // liquidation path to be used\n  address[] public uniswap_swrv2want;\n\n  uint public performanceFee = 500;\n  uint constant public performanceMax = 10000;\n\n  uint public withdrawalFee = 50;\n  uint constant public withdrawalMax = 10000;\n\n  address public governance;\n  address public controller;\n\n  constructor(uint256 _tokenIndex, address _controller) public {\n    tokenIndexAddress[0] = address(0x6B175474E89094C44Da98b954EedeAC495271d0F);\n    tokenIndexAddress[1] = address(0xA0b86991c6218b36c1d19D4a2e9Eb0cE3606eB48);\n    tokenIndexAddress[2] = address(0xdAC17F958D2ee523a2206206994597C13D831ec7);\n    tokenIndexAddress[3] = address(0x0000000000085d4780B73119b644AE5ecd22b376);\n    tokenIndex = TokenIndex(_tokenIndex);\n    want = tokenIndexAddress[_tokenIndex];\n    uniswap_swrv2want = [swrv, weth, want];\n    governance = tx.origin;\n    controller = _controller;\n  }\n\n  function getName() external pure returns (string memory) {\n    return \"StrategySwerveUSD\";\n  }\n\n  function setWithdrawalFee(uint _withdrawalFee) external {\n    require(msg.sender == governance, \"!governance\");\n    withdrawalFee = _withdrawalFee;\n  }\n\n  function setPerformanceFee(uint _performanceFee) external {\n    require(msg.sender == governance, \"!governance\");\n    performanceFee = _performanceFee;\n  }\n\n  function wrapCoinAmount(uint256 amount) internal view returns (uint256[4] memory) {\n    uint256[4] memory amounts = [uint256(0), uint256(0), uint256(0), uint256(0)];\n    amounts[uint56(tokenIndex)] = amount;\n    return amounts;\n  }\n\n  function swusdFromWant() internal {\n    uint256 wantBalance = IERC20(want).balanceOf(address(this));\n    if (wantBalance > 0) {\n      IERC20(want).safeApprove(curve, 0);\n      IERC20(want).safeApprove(curve, wantBalance);\n      // we can accept 0 as minimum because this is called only by a trusted role\n      uint256 minimum = 0;\n      uint256[4] memory coinAmounts = wrapCoinAmount(wantBalance);\n      ISwerveFi(curve).add_liquidity(coinAmounts, minimum);\n    }\n    // now we have the swusd token\n  }\n\n  function deposit() public {\n    // convert the entire balance not yet invested into swusd first\n    swusdFromWant();\n\n    // then deposit into the swusd vault\n    uint256 swusdBalance = IERC20(swusd).balanceOf(address(this));\n    if (swusdBalance > 0) {\n      IERC20(swusd).safeApprove(gauge, 0);\n      IERC20(swusd).safeApprove(gauge, swusdBalance);\n      SSUSDGauge(gauge).deposit(swusdBalance);\n    }\n  }\n\n  // Controller only function for creating additional rewards from dust\n  function withdraw(IERC20 _asset) external returns (uint balance) {\n    require(msg.sender == controller, \"!controller\");\n    require(want != address(_asset), \"want\");\n    require(swusd != address(_asset), \"swusd\");\n    require(swrv != address(_asset), \"swrv\");\n    balance = _asset.balanceOf(address(this));\n    _asset.safeTransfer(controller, balance);\n  }\n\n  function wantValueFromSWUSD(uint256 swusdBalance) public view returns (uint256) {\n    return ISwerveFi(curve).calc_withdraw_one_coin(swusdBalance, int128(tokenIndex));\n  }\n\n  function swusdToWant(uint256 wantLimit) internal {\n    uint256 swusdBalance = IERC20(swusd).balanceOf(address(this));\n\n    // this is the maximum number of want we can get for our swusd token\n    uint256 wantMaximumAmount = wantValueFromSWUSD(swusdBalance);\n    if (wantMaximumAmount == 0) {\n      return;\n    }\n\n    if (wantLimit < wantMaximumAmount) {\n      // we want less than what we can get, we ask for the exact amount\n      // now we can remove the liquidity\n      uint256[4] memory tokenAmounts = wrapCoinAmount(wantLimit);\n      IERC20(swusd).safeApprove(curve, 0);\n      IERC20(swusd).safeApprove(curve, swusdBalance);\n      ISwerveFi(curve).remove_liquidity_imbalance(tokenAmounts, swusdBalance);\n    } else {\n      // we want more than we can get, so we withdraw everything\n      IERC20(swusd).safeApprove(curve, 0);\n      IERC20(swusd).safeApprove(curve, swusdBalance);\n      ISwerveFi(curve).remove_liquidity_one_coin(swusdBalance, int128(tokenIndex), 0);\n    }\n    // now we have want asset\n  }\n\n  // Withdraw partial funds, normally used with a vault withdrawal\n  function withdraw(uint _amount) external {\n    require(msg.sender == controller, \"!controller\");\n    uint _balance = IERC20(want).balanceOf(address(this));\n    if (_balance < _amount) {\n      _amount = _withdrawSome(_amount.sub(_balance));\n      _amount = _amount.add(_balance);\n    }\n\n    uint _fee = _amount.mul(withdrawalFee).div(withdrawalMax);\n\n    IERC20(want).safeTransfer(SSUSDController(controller).rewards(), _fee);\n    address _vault = SSUSDController(controller).vaults(address(want));\n    require(_vault != address(0), \"!vault\"); // additional protection so we don't burn the funds\n\n    IERC20(want).safeTransfer(_vault, _amount.sub(_fee));\n\n    // invest back the rest\n    deposit();\n  }\n\n  // Withdraw all funds, normally used when migrating strategies\n  function withdrawAll() external returns (uint balance) {\n    require(msg.sender == controller, \"!controller\");\n    _withdrawAll();\n\n    // we can transfer the asset to the vault\n    balance = IERC20(want).balanceOf(address(this));\n\n    if (balance > 0) {\n      address _vault = SSUSDController(controller).vaults(address(want));\n      require(_vault != address(0), \"!vault\"); // additional protection so we don't burn the funds\n      IERC20(want).safeTransfer(_vault, balance);\n    }\n  }\n\n  function _withdrawAll() internal {\n    // withdraw all from gauge\n    SSUSDGauge(gauge).withdraw(SSUSDGauge(gauge).balanceOf(address(this)));\n    // convert the swusd to want, we want the entire balance\n    swusdToWant(uint256(~0));\n  }\n\n  function harvest() public {\n    require(msg.sender == governance, \"!authorized\");\n    SSUSDMintr(mintr).mint(gauge);\n    uint _before = IERC20(want).balanceOf(address(this));\n    // claiming rewards and liquidating them\n    uint256 swrvBalance = IERC20(swrv).balanceOf(address(this));\n    if (swrvBalance > 0) {\n      IERC20(swrv).safeApprove(uni, 0);\n      IERC20(swrv).safeApprove(uni, swrvBalance);\n      SSUSDUniswapRouter(uni).swapExactTokensForTokens(swrvBalance, uint(0), uniswap_swrv2want, address(this), now.add(1800));\n    }\n    uint _after = IERC20(want).balanceOf(address(this));\n    if (_after > _before) {\n      uint profit = _after.sub(_before);\n      uint _fee = profit.mul(performanceFee).div(performanceMax);\n      IERC20(want).safeTransfer(SSUSDController(controller).rewards(), _fee);\n      deposit();\n    }\n  }\n\n  function _withdrawSome(uint256 _amount) internal returns (uint) {\n    uint _before = IERC20(want).balanceOf(address(this));\n    // withdraw all from gauge\n    SSUSDGauge(gauge).withdraw(SSUSDGauge(gauge).balanceOf(address(this)));\n    // convert the swusd to want, but get at most _amount\n    swusdToWant(_amount);\n    uint _after = IERC20(want).balanceOf(address(this));\n    return _after.sub(_before);\n  }\n\n  function balanceOfWant() public view returns (uint) {\n    return IERC20(want).balanceOf(address(this));\n  }\n\n  function balanceOfPool() public view returns (uint) {\n    return SSUSDGauge(gauge).balanceOf(address(this));\n  }\n\n  function balanceOf() public view returns (uint) {\n    return balanceOfWant().add(balanceOfPool());\n  }\n\n  function setGovernance(address _governance) external {\n    require(msg.sender == governance, \"!governance\");\n    governance = _governance;\n  }\n\n  function setController(address _controller) external {\n    require(msg.sender == governance, \"!governance\");\n    controller = _controller;\n  }\n}\n",
  "sourcePath": "/Users/beex/dev/plouto-protocol/contracts/StrategySwerveUSD.sol",
  "compiler": {
    "name": "solc",
    "version": "0.5.16+commit.9c3226ce.Emscripten.clang"
  },
  "schemaVersion": "3.2.4",
  "updatedAt": "2020-09-15T02:43:18.920Z",
  "networkType": "ethereum",
  "devdoc": {
    "methods": {}
  },
  "userdoc": {
    "methods": {}
  }
}