{
  "contractName": "StrategyDForce",
  "abi": [
    {
      "inputs": [
        {
          "internalType": "address",
          "name": "_want",
          "type": "address"
        },
        {
          "internalType": "address",
          "name": "_dwant",
          "type": "address"
        },
        {
          "internalType": "address",
          "name": "_pool",
          "type": "address"
        },
        {
          "internalType": "address",
          "name": "_controller",
          "type": "address"
        }
      ],
      "payable": false,
      "stateMutability": "nonpayable",
      "type": "constructor"
    },
    {
      "constant": true,
      "inputs": [],
      "name": "controller",
      "outputs": [
        {
          "internalType": "address",
          "name": "",
          "type": "address"
        }
      ],
      "payable": false,
      "stateMutability": "view",
      "type": "function"
    },
    {
      "constant": true,
      "inputs": [],
      "name": "df",
      "outputs": [
        {
          "internalType": "address",
          "name": "",
          "type": "address"
        }
      ],
      "payable": false,
      "stateMutability": "view",
      "type": "function"
    },
    {
      "constant": true,
      "inputs": [],
      "name": "dwant",
      "outputs": [
        {
          "internalType": "address",
          "name": "",
          "type": "address"
        }
      ],
      "payable": false,
      "stateMutability": "view",
      "type": "function"
    },
    {
      "constant": true,
      "inputs": [],
      "name": "governance",
      "outputs": [
        {
          "internalType": "address",
          "name": "",
          "type": "address"
        }
      ],
      "payable": false,
      "stateMutability": "view",
      "type": "function"
    },
    {
      "constant": true,
      "inputs": [],
      "name": "performanceFee",
      "outputs": [
        {
          "internalType": "uint256",
          "name": "",
          "type": "uint256"
        }
      ],
      "payable": false,
      "stateMutability": "view",
      "type": "function"
    },
    {
      "constant": true,
      "inputs": [],
      "name": "performanceMax",
      "outputs": [
        {
          "internalType": "uint256",
          "name": "",
          "type": "uint256"
        }
      ],
      "payable": false,
      "stateMutability": "view",
      "type": "function"
    },
    {
      "constant": true,
      "inputs": [],
      "name": "pool",
      "outputs": [
        {
          "internalType": "address",
          "name": "",
          "type": "address"
        }
      ],
      "payable": false,
      "stateMutability": "view",
      "type": "function"
    },
    {
      "constant": true,
      "inputs": [],
      "name": "unirouter",
      "outputs": [
        {
          "internalType": "address",
          "name": "",
          "type": "address"
        }
      ],
      "payable": false,
      "stateMutability": "view",
      "type": "function"
    },
    {
      "constant": true,
      "inputs": [],
      "name": "want",
      "outputs": [
        {
          "internalType": "address",
          "name": "",
          "type": "address"
        }
      ],
      "payable": false,
      "stateMutability": "view",
      "type": "function"
    },
    {
      "constant": true,
      "inputs": [],
      "name": "weth",
      "outputs": [
        {
          "internalType": "address",
          "name": "",
          "type": "address"
        }
      ],
      "payable": false,
      "stateMutability": "view",
      "type": "function"
    },
    {
      "constant": true,
      "inputs": [],
      "name": "withdrawalFee",
      "outputs": [
        {
          "internalType": "uint256",
          "name": "",
          "type": "uint256"
        }
      ],
      "payable": false,
      "stateMutability": "view",
      "type": "function"
    },
    {
      "constant": true,
      "inputs": [],
      "name": "withdrawalMax",
      "outputs": [
        {
          "internalType": "uint256",
          "name": "",
          "type": "uint256"
        }
      ],
      "payable": false,
      "stateMutability": "view",
      "type": "function"
    },
    {
      "constant": true,
      "inputs": [],
      "name": "getName",
      "outputs": [
        {
          "internalType": "string",
          "name": "",
          "type": "string"
        }
      ],
      "payable": false,
      "stateMutability": "pure",
      "type": "function"
    },
    {
      "constant": false,
      "inputs": [
        {
          "internalType": "uint256",
          "name": "_withdrawalFee",
          "type": "uint256"
        }
      ],
      "name": "setWithdrawalFee",
      "outputs": [],
      "payable": false,
      "stateMutability": "nonpayable",
      "type": "function"
    },
    {
      "constant": false,
      "inputs": [
        {
          "internalType": "uint256",
          "name": "_performanceFee",
          "type": "uint256"
        }
      ],
      "name": "setPerformanceFee",
      "outputs": [],
      "payable": false,
      "stateMutability": "nonpayable",
      "type": "function"
    },
    {
      "constant": false,
      "inputs": [],
      "name": "deposit",
      "outputs": [],
      "payable": false,
      "stateMutability": "nonpayable",
      "type": "function"
    },
    {
      "constant": false,
      "inputs": [
        {
          "internalType": "uint256",
          "name": "_amount",
          "type": "uint256"
        }
      ],
      "name": "withdraw",
      "outputs": [],
      "payable": false,
      "stateMutability": "nonpayable",
      "type": "function"
    },
    {
      "constant": false,
      "inputs": [
        {
          "internalType": "contract IERC20",
          "name": "_asset",
          "type": "address"
        }
      ],
      "name": "withdraw",
      "outputs": [
        {
          "internalType": "uint256",
          "name": "balance",
          "type": "uint256"
        }
      ],
      "payable": false,
      "stateMutability": "nonpayable",
      "type": "function"
    },
    {
      "constant": false,
      "inputs": [],
      "name": "withdrawAll",
      "outputs": [
        {
          "internalType": "uint256",
          "name": "balance",
          "type": "uint256"
        }
      ],
      "payable": false,
      "stateMutability": "nonpayable",
      "type": "function"
    },
    {
      "constant": false,
      "inputs": [],
      "name": "harvest",
      "outputs": [],
      "payable": false,
      "stateMutability": "nonpayable",
      "type": "function"
    },
    {
      "constant": true,
      "inputs": [],
      "name": "balanceOfWant",
      "outputs": [
        {
          "internalType": "uint256",
          "name": "",
          "type": "uint256"
        }
      ],
      "payable": false,
      "stateMutability": "view",
      "type": "function"
    },
    {
      "constant": true,
      "inputs": [],
      "name": "balanceOfPool",
      "outputs": [
        {
          "internalType": "uint256",
          "name": "",
          "type": "uint256"
        }
      ],
      "payable": false,
      "stateMutability": "view",
      "type": "function"
    },
    {
      "constant": true,
      "inputs": [],
      "name": "getExchangeRate",
      "outputs": [
        {
          "internalType": "uint256",
          "name": "",
          "type": "uint256"
        }
      ],
      "payable": false,
      "stateMutability": "view",
      "type": "function"
    },
    {
      "constant": true,
      "inputs": [],
      "name": "balanceOfD",
      "outputs": [
        {
          "internalType": "uint256",
          "name": "",
          "type": "uint256"
        }
      ],
      "payable": false,
      "stateMutability": "view",
      "type": "function"
    },
    {
      "constant": true,
      "inputs": [],
      "name": "balanceOf",
      "outputs": [
        {
          "internalType": "uint256",
          "name": "",
          "type": "uint256"
        }
      ],
      "payable": false,
      "stateMutability": "view",
      "type": "function"
    },
    {
      "constant": false,
      "inputs": [
        {
          "internalType": "address",
          "name": "_governance",
          "type": "address"
        }
      ],
      "name": "setGovernance",
      "outputs": [],
      "payable": false,
      "stateMutability": "nonpayable",
      "type": "function"
    },
    {
      "constant": false,
      "inputs": [
        {
          "internalType": "address",
          "name": "_controller",
          "type": "address"
        }
      ],
      "name": "setController",
      "outputs": [],
      "payable": false,
      "stateMutability": "nonpayable",
      "type": "function"
    }
  ],
  "bytecode": "0x60806040526101f4600355603260045534801561001b57600080fd5b50604051613bc3380380613bc38339818101604052608081101561003e57600080fd5b8101908080519060200190929190805190602001909291908051906020019092919080519060200190929190505050836000806101000a81548173ffffffffffffffffffffffffffffffffffffffff021916908373ffffffffffffffffffffffffffffffffffffffff16021790555082600160006101000a81548173ffffffffffffffffffffffffffffffffffffffff021916908373ffffffffffffffffffffffffffffffffffffffff16021790555081600260006101000a81548173ffffffffffffffffffffffffffffffffffffffff021916908373ffffffffffffffffffffffffffffffffffffffff16021790555032600560006101000a81548173ffffffffffffffffffffffffffffffffffffffff021916908373ffffffffffffffffffffffffffffffffffffffff16021790555080600660006101000a81548173ffffffffffffffffffffffffffffffffffffffff021916908373ffffffffffffffffffffffffffffffffffffffff160217905550505050506139ff806101c46000396000f3fe608060405234801561001057600080fd5b50600436106101a95760003560e01c8063853828b6116100f9578063ac1e502511610097578063d0e30db011610071578063d0e30db01461069b578063d5c1ff73146106a5578063e6aa216c146106c3578063f77c4791146106e1576101a9565b8063ac1e502514610631578063c1a3d44c1461065f578063c43697431461067d576101a9565b806392eefe9b116100d357806392eefe9b1461051557806396535626146105595780639d35f594146105a3578063ab033ea9146105ed576101a9565b8063853828b6146104bb57806387788782146104d95780638bc7e8c4146104f7576101a9565b80633fc8cef3116101665780635aa6e675116101405780635aa6e6751461040757806370897b2314610451578063722713f71461047f5780637cc791131461049d576101a9565b80633fc8cef31461035b5780634641257d146103a557806351cff8d9146103af576101a9565b806311588086146101ae57806316f0115b146101cc57806317d7de7c146102165780631f1fcd5114610299578063257ae0de146102e35780632e1a7d4d1461032d575b600080fd5b6101b661072b565b6040518082815260200191505060405180910390f35b6101d46108da565b604051808273ffffffffffffffffffffffffffffffffffffffff1673ffffffffffffffffffffffffffffffffffffffff16815260200191505060405180910390f35b61021e610900565b6040518080602001828103825283818151815260200191508051906020019080838360005b8381101561025e578082015181840152602081019050610243565b50505050905090810190601f16801561028b5780820380516001836020036101000a031916815260200191505b509250505060405180910390f35b6102a161093d565b604051808273ffffffffffffffffffffffffffffffffffffffff1673ffffffffffffffffffffffffffffffffffffffff16815260200191505060405180910390f35b6102eb610962565b604051808273ffffffffffffffffffffffffffffffffffffffff1673ffffffffffffffffffffffffffffffffffffffff16815260200191505060405180910390f35b6103596004803603602081101561034357600080fd5b810190808035906020019092919050505061097a565b005b610363610e76565b604051808273ffffffffffffffffffffffffffffffffffffffff1673ffffffffffffffffffffffffffffffffffffffff16815260200191505060405180910390f35b6103ad610e8e565b005b6103f1600480360360208110156103c557600080fd5b81019080803573ffffffffffffffffffffffffffffffffffffffff1690602001909291905050506115db565b6040518082815260200191505060405180910390f35b61040f611933565b604051808273ffffffffffffffffffffffffffffffffffffffff1673ffffffffffffffffffffffffffffffffffffffff16815260200191505060405180910390f35b61047d6004803603602081101561046757600080fd5b8101908080359060200190929190505050611959565b005b610487611a26565b6040518082815260200191505060405180910390f35b6104a5611a67565b6040518082815260200191505060405180910390f35b6104c3611a6d565b6040518082815260200191505060405180910390f35b6104e1611e07565b6040518082815260200191505060405180910390f35b6104ff611e0d565b6040518082815260200191505060405180910390f35b6105576004803603602081101561052b57600080fd5b81019080803573ffffffffffffffffffffffffffffffffffffffff169060200190929190505050611e13565b005b610561611f1a565b604051808273ffffffffffffffffffffffffffffffffffffffff1673ffffffffffffffffffffffffffffffffffffffff16815260200191505060405180910390f35b6105ab611f40565b604051808273ffffffffffffffffffffffffffffffffffffffff1673ffffffffffffffffffffffffffffffffffffffff16815260200191505060405180910390f35b61062f6004803603602081101561060357600080fd5b81019080803573ffffffffffffffffffffffffffffffffffffffff169060200190929190505050611f58565b005b61065d6004803603602081101561064757600080fd5b810190808035906020019092919050505061205f565b005b61066761212c565b6040518082815260200191505060405180910390f35b61068561220c565b6040518082815260200191505060405180910390f35b6106a36122ed565b005b6106ad6127ca565b6040518082815260200191505060405180910390f35b6106cb6127d0565b6040518082815260200191505060405180910390f35b6106e961287a565b604051808273ffffffffffffffffffffffffffffffffffffffff1673ffffffffffffffffffffffffffffffffffffffff16815260200191505060405180910390f35b60006108d5670de0b6b3a76400006108c7600160009054906101000a900473ffffffffffffffffffffffffffffffffffffffff1673ffffffffffffffffffffffffffffffffffffffff1663e6aa216c6040518163ffffffff1660e01b815260040160206040518083038186803b1580156107a457600080fd5b505afa1580156107b8573d6000803e3d6000fd5b505050506040513d60208110156107ce57600080fd5b8101908080519060200190929190505050600260009054906101000a900473ffffffffffffffffffffffffffffffffffffffff1673ffffffffffffffffffffffffffffffffffffffff166370a08231306040518263ffffffff1660e01b8152600401808273ffffffffffffffffffffffffffffffffffffffff1673ffffffffffffffffffffffffffffffffffffffff16815260200191505060206040518083038186803b15801561087e57600080fd5b505afa158015610892573d6000803e3d6000fd5b505050506040513d60208110156108a857600080fd5b81019080805190602001909291905050506128a090919063ffffffff16565b61292690919063ffffffff16565b905090565b600260009054906101000a900473ffffffffffffffffffffffffffffffffffffffff1681565b60606040518060400160405280600e81526020017f537472617465677944466f726365000000000000000000000000000000000000815250905090565b6000809054906101000a900473ffffffffffffffffffffffffffffffffffffffff1681565b737a250d5630b4cf539739df2c5dacb4c659f2488d81565b600660009054906101000a900473ffffffffffffffffffffffffffffffffffffffff1673ffffffffffffffffffffffffffffffffffffffff163373ffffffffffffffffffffffffffffffffffffffff1614610a3d576040517f08c379a000000000000000000000000000000000000000000000000000000000815260040180806020018281038252600b8152602001807f21636f6e74726f6c6c657200000000000000000000000000000000000000000081525060200191505060405180910390fd5b60008060009054906101000a900473ffffffffffffffffffffffffffffffffffffffff1673ffffffffffffffffffffffffffffffffffffffff166370a08231306040518263ffffffff1660e01b8152600401808273ffffffffffffffffffffffffffffffffffffffff1673ffffffffffffffffffffffffffffffffffffffff16815260200191505060206040518083038186803b158015610add57600080fd5b505afa158015610af1573d6000803e3d6000fd5b505050506040513d6020811015610b0757600080fd5b8101908080519060200190929190505050905081811015610b5557610b3d610b38828461297090919063ffffffff16565b6129ba565b9150610b528183612f8690919063ffffffff16565b91505b6000610b80612710610b72600454866128a090919063ffffffff16565b61292690919063ffffffff16565b9050610c70600660009054906101000a900473ffffffffffffffffffffffffffffffffffffffff1673ffffffffffffffffffffffffffffffffffffffff16639ec5a8946040518163ffffffff1660e01b815260040160206040518083038186803b158015610bed57600080fd5b505afa158015610c01573d6000803e3d6000fd5b505050506040513d6020811015610c1757600080fd5b8101908080519060200190929190505050826000809054906101000a900473ffffffffffffffffffffffffffffffffffffffff1673ffffffffffffffffffffffffffffffffffffffff1661300e9092919063ffffffff16565b6000600660009054906101000a900473ffffffffffffffffffffffffffffffffffffffff1673ffffffffffffffffffffffffffffffffffffffff1663a622ee7c6000809054906101000a900473ffffffffffffffffffffffffffffffffffffffff166040518263ffffffff1660e01b8152600401808273ffffffffffffffffffffffffffffffffffffffff1673ffffffffffffffffffffffffffffffffffffffff16815260200191505060206040518083038186803b158015610d3257600080fd5b505afa158015610d46573d6000803e3d6000fd5b505050506040513d6020811015610d5c57600080fd5b81019080805190602001909291905050509050600073ffffffffffffffffffffffffffffffffffffffff168173ffffffffffffffffffffffffffffffffffffffff161415610e12576040517f08c379a00000000000000000000000000000000000000000000000000000000081526004018080602001828103825260068152602001807f217661756c74000000000000000000000000000000000000000000000000000081525060200191505060405180910390fd5b610e7081610e29848761297090919063ffffffff16565b6000809054906101000a900473ffffffffffffffffffffffffffffffffffffffff1673ffffffffffffffffffffffffffffffffffffffff1661300e9092919063ffffffff16565b50505050565b73c02aaa39b223fe8d0a0e5c4f27ead9083c756cc281565b600560009054906101000a900473ffffffffffffffffffffffffffffffffffffffff1673ffffffffffffffffffffffffffffffffffffffff163373ffffffffffffffffffffffffffffffffffffffff1614610f51576040517f08c379a000000000000000000000000000000000000000000000000000000000815260040180806020018281038252600b8152602001807f21617574686f72697a656400000000000000000000000000000000000000000081525060200191505060405180910390fd5b600260009054906101000a900473ffffffffffffffffffffffffffffffffffffffff1673ffffffffffffffffffffffffffffffffffffffff16633d18b9126040518163ffffffff1660e01b8152600401600060405180830381600087803b158015610fbb57600080fd5b505af1158015610fcf573d6000803e3d6000fd5b50505050600073431ad2ff6a9c365805ebad47ee021148d6f7dbe073ffffffffffffffffffffffffffffffffffffffff166370a08231306040518263ffffffff1660e01b8152600401808273ffffffffffffffffffffffffffffffffffffffff1673ffffffffffffffffffffffffffffffffffffffff16815260200191505060206040518083038186803b15801561106657600080fd5b505afa15801561107a573d6000803e3d6000fd5b505050506040513d602081101561109057600080fd5b8101908080519060200190929190505050905060008111156113cc57611100737a250d5630b4cf539739df2c5dacb4c659f2488d600073431ad2ff6a9c365805ebad47ee021148d6f7dbe073ffffffffffffffffffffffffffffffffffffffff166130df9092919063ffffffff16565b611153737a250d5630b4cf539739df2c5dacb4c659f2488d8273431ad2ff6a9c365805ebad47ee021148d6f7dbe073ffffffffffffffffffffffffffffffffffffffff166130df9092919063ffffffff16565b606060036040519080825280602002602001820160405280156111855781602001602082028038833980820191505090505b50905073431ad2ff6a9c365805ebad47ee021148d6f7dbe0816000815181106111aa57fe5b602002602001019073ffffffffffffffffffffffffffffffffffffffff16908173ffffffffffffffffffffffffffffffffffffffff168152505073c02aaa39b223fe8d0a0e5c4f27ead9083c756cc28160018151811061120657fe5b602002602001019073ffffffffffffffffffffffffffffffffffffffff16908173ffffffffffffffffffffffffffffffffffffffff16815250506000809054906101000a900473ffffffffffffffffffffffffffffffffffffffff168160028151811061126f57fe5b602002602001019073ffffffffffffffffffffffffffffffffffffffff16908173ffffffffffffffffffffffffffffffffffffffff1681525050737a250d5630b4cf539739df2c5dacb4c659f2488d73ffffffffffffffffffffffffffffffffffffffff166338ed173983600084306112f361070842612f8690919063ffffffff16565b6040518663ffffffff1660e01b815260040180868152602001858152602001806020018473ffffffffffffffffffffffffffffffffffffffff1673ffffffffffffffffffffffffffffffffffffffff168152602001838152602001828103825285818151815260200191508051906020019060200280838360005b8381101561138957808201518184015260208101905061136e565b505050509050019650505050505050600060405180830381600087803b1580156113b257600080fd5b505af11580156113c6573d6000803e3d6000fd5b50505050505b60008060009054906101000a900473ffffffffffffffffffffffffffffffffffffffff1673ffffffffffffffffffffffffffffffffffffffff166370a08231306040518263ffffffff1660e01b8152600401808273ffffffffffffffffffffffffffffffffffffffff1673ffffffffffffffffffffffffffffffffffffffff16815260200191505060206040518083038186803b15801561146c57600080fd5b505afa158015611480573d6000803e3d6000fd5b505050506040513d602081101561149657600080fd5b8101908080519060200190929190505050905060008111156115d75760006114dd6127106114cf600354856128a090919063ffffffff16565b61292690919063ffffffff16565b90506115cd600660009054906101000a900473ffffffffffffffffffffffffffffffffffffffff1673ffffffffffffffffffffffffffffffffffffffff16639ec5a8946040518163ffffffff1660e01b815260040160206040518083038186803b15801561154a57600080fd5b505afa15801561155e573d6000803e3d6000fd5b505050506040513d602081101561157457600080fd5b8101908080519060200190929190505050826000809054906101000a900473ffffffffffffffffffffffffffffffffffffffff1673ffffffffffffffffffffffffffffffffffffffff1661300e9092919063ffffffff16565b6115d56122ed565b505b5050565b6000600660009054906101000a900473ffffffffffffffffffffffffffffffffffffffff1673ffffffffffffffffffffffffffffffffffffffff163373ffffffffffffffffffffffffffffffffffffffff16146116a0576040517f08c379a000000000000000000000000000000000000000000000000000000000815260040180806020018281038252600b8152602001807f21636f6e74726f6c6c657200000000000000000000000000000000000000000081525060200191505060405180910390fd5b8173ffffffffffffffffffffffffffffffffffffffff166000809054906101000a900473ffffffffffffffffffffffffffffffffffffffff1673ffffffffffffffffffffffffffffffffffffffff161415611763576040517f08c379a00000000000000000000000000000000000000000000000000000000081526004018080602001828103825260048152602001807f77616e740000000000000000000000000000000000000000000000000000000081525060200191505060405180910390fd5b8173ffffffffffffffffffffffffffffffffffffffff16600160009054906101000a900473ffffffffffffffffffffffffffffffffffffffff1673ffffffffffffffffffffffffffffffffffffffff161415611827576040517f08c379a00000000000000000000000000000000000000000000000000000000081526004018080602001828103825260058152602001807f6477616e7400000000000000000000000000000000000000000000000000000081525060200191505060405180910390fd5b8173ffffffffffffffffffffffffffffffffffffffff166370a08231306040518263ffffffff1660e01b8152600401808273ffffffffffffffffffffffffffffffffffffffff1673ffffffffffffffffffffffffffffffffffffffff16815260200191505060206040518083038186803b1580156118a457600080fd5b505afa1580156118b8573d6000803e3d6000fd5b505050506040513d60208110156118ce57600080fd5b8101908080519060200190929190505050905061192e600660009054906101000a900473ffffffffffffffffffffffffffffffffffffffff16828473ffffffffffffffffffffffffffffffffffffffff1661300e9092919063ffffffff16565b919050565b600560009054906101000a900473ffffffffffffffffffffffffffffffffffffffff1681565b600560009054906101000a900473ffffffffffffffffffffffffffffffffffffffff1673ffffffffffffffffffffffffffffffffffffffff163373ffffffffffffffffffffffffffffffffffffffff1614611a1c576040517f08c379a000000000000000000000000000000000000000000000000000000000815260040180806020018281038252600b8152602001807f21676f7665726e616e636500000000000000000000000000000000000000000081525060200191505060405180910390fd5b8060038190555050565b6000611a62611a3361072b565b611a54611a3e61220c565b611a4661212c565b612f8690919063ffffffff16565b612f8690919063ffffffff16565b905090565b61271081565b6000600660009054906101000a900473ffffffffffffffffffffffffffffffffffffffff1673ffffffffffffffffffffffffffffffffffffffff163373ffffffffffffffffffffffffffffffffffffffff1614611b32576040517f08c379a000000000000000000000000000000000000000000000000000000000815260040180806020018281038252600b8152602001807f21636f6e74726f6c6c657200000000000000000000000000000000000000000081525060200191505060405180910390fd5b611b3a6132ff565b6000809054906101000a900473ffffffffffffffffffffffffffffffffffffffff1673ffffffffffffffffffffffffffffffffffffffff166370a08231306040518263ffffffff1660e01b8152600401808273ffffffffffffffffffffffffffffffffffffffff1673ffffffffffffffffffffffffffffffffffffffff16815260200191505060206040518083038186803b158015611bd857600080fd5b505afa158015611bec573d6000803e3d6000fd5b505050506040513d6020811015611c0257600080fd5b810190808051906020019092919050505090506000600660009054906101000a900473ffffffffffffffffffffffffffffffffffffffff1673ffffffffffffffffffffffffffffffffffffffff1663a622ee7c6000809054906101000a900473ffffffffffffffffffffffffffffffffffffffff166040518263ffffffff1660e01b8152600401808273ffffffffffffffffffffffffffffffffffffffff1673ffffffffffffffffffffffffffffffffffffffff16815260200191505060206040518083038186803b158015611cd757600080fd5b505afa158015611ceb573d6000803e3d6000fd5b505050506040513d6020811015611d0157600080fd5b81019080805190602001909291905050509050600073ffffffffffffffffffffffffffffffffffffffff168173ffffffffffffffffffffffffffffffffffffffff161415611db7576040517f08c379a00000000000000000000000000000000000000000000000000000000081526004018080602001828103825260068152602001807f217661756c74000000000000000000000000000000000000000000000000000081525060200191505060405180910390fd5b611e0381836000809054906101000a900473ffffffffffffffffffffffffffffffffffffffff1673ffffffffffffffffffffffffffffffffffffffff1661300e9092919063ffffffff16565b5090565b60035481565b60045481565b600560009054906101000a900473ffffffffffffffffffffffffffffffffffffffff1673ffffffffffffffffffffffffffffffffffffffff163373ffffffffffffffffffffffffffffffffffffffff1614611ed6576040517f08c379a000000000000000000000000000000000000000000000000000000000815260040180806020018281038252600b8152602001807f21676f7665726e616e636500000000000000000000000000000000000000000081525060200191505060405180910390fd5b80600660006101000a81548173ffffffffffffffffffffffffffffffffffffffff021916908373ffffffffffffffffffffffffffffffffffffffff16021790555050565b600160009054906101000a900473ffffffffffffffffffffffffffffffffffffffff1681565b73431ad2ff6a9c365805ebad47ee021148d6f7dbe081565b600560009054906101000a900473ffffffffffffffffffffffffffffffffffffffff1673ffffffffffffffffffffffffffffffffffffffff163373ffffffffffffffffffffffffffffffffffffffff161461201b576040517f08c379a000000000000000000000000000000000000000000000000000000000815260040180806020018281038252600b8152602001807f21676f7665726e616e636500000000000000000000000000000000000000000081525060200191505060405180910390fd5b80600560006101000a81548173ffffffffffffffffffffffffffffffffffffffff021916908373ffffffffffffffffffffffffffffffffffffffff16021790555050565b600560009054906101000a900473ffffffffffffffffffffffffffffffffffffffff1673ffffffffffffffffffffffffffffffffffffffff163373ffffffffffffffffffffffffffffffffffffffff1614612122576040517f08c379a000000000000000000000000000000000000000000000000000000000815260040180806020018281038252600b8152602001807f21676f7665726e616e636500000000000000000000000000000000000000000081525060200191505060405180910390fd5b8060048190555050565b60008060009054906101000a900473ffffffffffffffffffffffffffffffffffffffff1673ffffffffffffffffffffffffffffffffffffffff166370a08231306040518263ffffffff1660e01b8152600401808273ffffffffffffffffffffffffffffffffffffffff1673ffffffffffffffffffffffffffffffffffffffff16815260200191505060206040518083038186803b1580156121cc57600080fd5b505afa1580156121e0573d6000803e3d6000fd5b505050506040513d60208110156121f657600080fd5b8101908080519060200190929190505050905090565b6000600160009054906101000a900473ffffffffffffffffffffffffffffffffffffffff1673ffffffffffffffffffffffffffffffffffffffff16633aecd0e3306040518263ffffffff1660e01b8152600401808273ffffffffffffffffffffffffffffffffffffffff1673ffffffffffffffffffffffffffffffffffffffff16815260200191505060206040518083038186803b1580156122ad57600080fd5b505afa1580156122c1573d6000803e3d6000fd5b505050506040513d60208110156122d757600080fd5b8101908080519060200190929190505050905090565b60008060009054906101000a900473ffffffffffffffffffffffffffffffffffffffff1673ffffffffffffffffffffffffffffffffffffffff166370a08231306040518263ffffffff1660e01b8152600401808273ffffffffffffffffffffffffffffffffffffffff1673ffffffffffffffffffffffffffffffffffffffff16815260200191505060206040518083038186803b15801561238d57600080fd5b505afa1580156123a1573d6000803e3d6000fd5b505050506040513d60208110156123b757600080fd5b81019080805190602001909291905050509050600081111561257257612442600160009054906101000a900473ffffffffffffffffffffffffffffffffffffffff1660008060009054906101000a900473ffffffffffffffffffffffffffffffffffffffff1673ffffffffffffffffffffffffffffffffffffffff166130df9092919063ffffffff16565b6124b0600160009054906101000a900473ffffffffffffffffffffffffffffffffffffffff16826000809054906101000a900473ffffffffffffffffffffffffffffffffffffffff1673ffffffffffffffffffffffffffffffffffffffff166130df9092919063ffffffff16565b600160009054906101000a900473ffffffffffffffffffffffffffffffffffffffff1673ffffffffffffffffffffffffffffffffffffffff166340c10f1930836040518363ffffffff1660e01b8152600401808373ffffffffffffffffffffffffffffffffffffffff1673ffffffffffffffffffffffffffffffffffffffff16815260200182815260200192505050600060405180830381600087803b15801561255957600080fd5b505af115801561256d573d6000803e3d6000fd5b505050505b6000600160009054906101000a900473ffffffffffffffffffffffffffffffffffffffff1673ffffffffffffffffffffffffffffffffffffffff166370a08231306040518263ffffffff1660e01b8152600401808273ffffffffffffffffffffffffffffffffffffffff1673ffffffffffffffffffffffffffffffffffffffff16815260200191505060206040518083038186803b15801561261357600080fd5b505afa158015612627573d6000803e3d6000fd5b505050506040513d602081101561263d57600080fd5b8101908080519060200190929190505050905060008111156127c6576126c9600260009054906101000a900473ffffffffffffffffffffffffffffffffffffffff166000600160009054906101000a900473ffffffffffffffffffffffffffffffffffffffff1673ffffffffffffffffffffffffffffffffffffffff166130df9092919063ffffffff16565b612738600260009054906101000a900473ffffffffffffffffffffffffffffffffffffffff1682600160009054906101000a900473ffffffffffffffffffffffffffffffffffffffff1673ffffffffffffffffffffffffffffffffffffffff166130df9092919063ffffffff16565b600260009054906101000a900473ffffffffffffffffffffffffffffffffffffffff1673ffffffffffffffffffffffffffffffffffffffff1663a694fc3a826040518263ffffffff1660e01b815260040180828152602001915050600060405180830381600087803b1580156127ad57600080fd5b505af11580156127c1573d6000803e3d6000fd5b505050505b5050565b61271081565b6000600160009054906101000a900473ffffffffffffffffffffffffffffffffffffffff1673ffffffffffffffffffffffffffffffffffffffff1663e6aa216c6040518163ffffffff1660e01b815260040160206040518083038186803b15801561283a57600080fd5b505afa15801561284e573d6000803e3d6000fd5b505050506040513d602081101561286457600080fd5b8101908080519060200190929190505050905090565b600660009054906101000a900473ffffffffffffffffffffffffffffffffffffffff1681565b6000808314156128b35760009050612920565b60008284029050828482816128c457fe5b041461291b576040517f08c379a000000000000000000000000000000000000000000000000000000000815260040180806020018281038252602181526020018061394a6021913960400191505060405180910390fd5b809150505b92915050565b600061296883836040518060400160405280601a81526020017f536166654d6174683a206469766973696f6e206279207a65726f00000000000081525061352d565b905092915050565b60006129b283836040518060400160405280601e81526020017f536166654d6174683a207375627472616374696f6e206f766572666c6f7700008152506135f3565b905092915050565b600080612a8c600160009054906101000a900473ffffffffffffffffffffffffffffffffffffffff1673ffffffffffffffffffffffffffffffffffffffff1663e6aa216c6040518163ffffffff1660e01b815260040160206040518083038186803b158015612a2857600080fd5b505afa158015612a3c573d6000803e3d6000fd5b505050506040513d6020811015612a5257600080fd5b8101908080519060200190929190505050612a7e670de0b6b3a7640000866128a090919063ffffffff16565b61292690919063ffffffff16565b90506000600160009054906101000a900473ffffffffffffffffffffffffffffffffffffffff1673ffffffffffffffffffffffffffffffffffffffff166370a08231306040518263ffffffff1660e01b8152600401808273ffffffffffffffffffffffffffffffffffffffff1673ffffffffffffffffffffffffffffffffffffffff16815260200191505060206040518083038186803b158015612b2f57600080fd5b505afa158015612b43573d6000803e3d6000fd5b505050506040513d6020811015612b5957600080fd5b81019080805190602001909291905050509050600260009054906101000a900473ffffffffffffffffffffffffffffffffffffffff1673ffffffffffffffffffffffffffffffffffffffff16632e1a7d4d836040518263ffffffff1660e01b815260040180828152602001915050600060405180830381600087803b158015612be157600080fd5b505af1158015612bf5573d6000803e3d6000fd5b505050506000600160009054906101000a900473ffffffffffffffffffffffffffffffffffffffff1673ffffffffffffffffffffffffffffffffffffffff166370a08231306040518263ffffffff1660e01b8152600401808273ffffffffffffffffffffffffffffffffffffffff1673ffffffffffffffffffffffffffffffffffffffff16815260200191505060206040518083038186803b158015612c9a57600080fd5b505afa158015612cae573d6000803e3d6000fd5b505050506040513d6020811015612cc457600080fd5b810190808051906020019092919050505090506000612cec838361297090919063ffffffff16565b90506000809054906101000a900473ffffffffffffffffffffffffffffffffffffffff1673ffffffffffffffffffffffffffffffffffffffff166370a08231306040518263ffffffff1660e01b8152600401808273ffffffffffffffffffffffffffffffffffffffff1673ffffffffffffffffffffffffffffffffffffffff16815260200191505060206040518083038186803b158015612d8c57600080fd5b505afa158015612da0573d6000803e3d6000fd5b505050506040513d6020811015612db657600080fd5b81019080805190602001909291905050509250600160009054906101000a900473ffffffffffffffffffffffffffffffffffffffff1673ffffffffffffffffffffffffffffffffffffffff16631e9a695030836040518363ffffffff1660e01b8152600401808373ffffffffffffffffffffffffffffffffffffffff1673ffffffffffffffffffffffffffffffffffffffff16815260200182815260200192505050600060405180830381600087803b158015612e7257600080fd5b505af1158015612e86573d6000803e3d6000fd5b505050506000809054906101000a900473ffffffffffffffffffffffffffffffffffffffff1673ffffffffffffffffffffffffffffffffffffffff166370a08231306040518263ffffffff1660e01b8152600401808273ffffffffffffffffffffffffffffffffffffffff1673ffffffffffffffffffffffffffffffffffffffff16815260200191505060206040518083038186803b158015612f2857600080fd5b505afa158015612f3c573d6000803e3d6000fd5b505050506040513d6020811015612f5257600080fd5b81019080805190602001909291905050509150612f78838361297090919063ffffffff16565b905080945050505050919050565b600080828401905083811015613004576040517f08c379a000000000000000000000000000000000000000000000000000000000815260040180806020018281038252601b8152602001807f536166654d6174683a206164646974696f6e206f766572666c6f77000000000081525060200191505060405180910390fd5b8091505092915050565b6130da838473ffffffffffffffffffffffffffffffffffffffff1663a9059cbb905060e01b8484604051602401808373ffffffffffffffffffffffffffffffffffffffff1673ffffffffffffffffffffffffffffffffffffffff16815260200182815260200192505050604051602081830303815290604052907bffffffffffffffffffffffffffffffffffffffffffffffffffffffff19166020820180517bffffffffffffffffffffffffffffffffffffffffffffffffffffffff83818316178352505050506136b3565b505050565b60008114806131d9575060008373ffffffffffffffffffffffffffffffffffffffff1663dd62ed3e30856040518363ffffffff1660e01b8152600401808373ffffffffffffffffffffffffffffffffffffffff1673ffffffffffffffffffffffffffffffffffffffff1681526020018273ffffffffffffffffffffffffffffffffffffffff1673ffffffffffffffffffffffffffffffffffffffff1681526020019250505060206040518083038186803b15801561319c57600080fd5b505afa1580156131b0573d6000803e3d6000fd5b505050506040513d60208110156131c657600080fd5b8101908080519060200190929190505050145b61322e576040517f08c379a00000000000000000000000000000000000000000000000000000000081526004018080602001828103825260368152602001806139956036913960400191505060405180910390fd5b6132fa838473ffffffffffffffffffffffffffffffffffffffff1663095ea7b3905060e01b8484604051602401808373ffffffffffffffffffffffffffffffffffffffff1673ffffffffffffffffffffffffffffffffffffffff16815260200182815260200192505050604051602081830303815290604052907bffffffffffffffffffffffffffffffffffffffffffffffffffffffff19166020820180517bffffffffffffffffffffffffffffffffffffffffffffffffffffffff83818316178352505050506136b3565b505050565b600260009054906101000a900473ffffffffffffffffffffffffffffffffffffffff1673ffffffffffffffffffffffffffffffffffffffff1663e9fad8ee6040518163ffffffff1660e01b8152600401600060405180830381600087803b15801561336957600080fd5b505af115801561337d573d6000803e3d6000fd5b505050506000600160009054906101000a900473ffffffffffffffffffffffffffffffffffffffff1673ffffffffffffffffffffffffffffffffffffffff166370a08231306040518263ffffffff1660e01b8152600401808273ffffffffffffffffffffffffffffffffffffffff1673ffffffffffffffffffffffffffffffffffffffff16815260200191505060206040518083038186803b15801561342257600080fd5b505afa158015613436573d6000803e3d6000fd5b505050506040513d602081101561344c57600080fd5b81019080805190602001909291905050509050600081111561352a57600160009054906101000a900473ffffffffffffffffffffffffffffffffffffffff1673ffffffffffffffffffffffffffffffffffffffff16631e9a695030836040518363ffffffff1660e01b8152600401808373ffffffffffffffffffffffffffffffffffffffff1673ffffffffffffffffffffffffffffffffffffffff16815260200182815260200192505050600060405180830381600087803b15801561351157600080fd5b505af1158015613525573d6000803e3d6000fd5b505050505b50565b600080831182906135d9576040517f08c379a00000000000000000000000000000000000000000000000000000000081526004018080602001828103825283818151815260200191508051906020019080838360005b8381101561359e578082015181840152602081019050613583565b50505050905090810190601f1680156135cb5780820380516001836020036101000a031916815260200191505b509250505060405180910390fd5b5060008385816135e557fe5b049050809150509392505050565b60008383111582906136a0576040517f08c379a00000000000000000000000000000000000000000000000000000000081526004018080602001828103825283818151815260200191508051906020019080838360005b8381101561366557808201518184015260208101905061364a565b50505050905090810190601f1680156136925780820380516001836020036101000a031916815260200191505b509250505060405180910390fd5b5060008385039050809150509392505050565b6136d28273ffffffffffffffffffffffffffffffffffffffff166138fe565b613744576040517f08c379a000000000000000000000000000000000000000000000000000000000815260040180806020018281038252601f8152602001807f5361666545524332303a2063616c6c20746f206e6f6e2d636f6e74726163740081525060200191505060405180910390fd5b600060608373ffffffffffffffffffffffffffffffffffffffff16836040518082805190602001908083835b602083106137935780518252602082019150602081019050602083039250613770565b6001836020036101000a0380198251168184511680821785525050505050509050019150506000604051808303816000865af19150503d80600081146137f5576040519150601f19603f3d011682016040523d82523d6000602084013e6137fa565b606091505b509150915081613872576040517f08c379a00000000000000000000000000000000000000000000000000000000081526004018080602001828103825260208152602001807f5361666545524332303a206c6f772d6c6576656c2063616c6c206661696c656481525060200191505060405180910390fd5b6000815111156138f85780806020019051602081101561389157600080fd5b81019080805190602001909291905050506138f7576040517f08c379a000000000000000000000000000000000000000000000000000000000815260040180806020018281038252602a81526020018061396b602a913960400191505060405180910390fd5b5b50505050565b60008060007fc5d2460186f7233c927e7db2dcc703c0e500b653ca82273b7bfad8045d85a47060001b9050833f915080821415801561394057506000801b8214155b9250505091905056fe536166654d6174683a206d756c7469706c69636174696f6e206f766572666c6f775361666545524332303a204552433230206f7065726174696f6e20646964206e6f7420737563636565645361666545524332303a20617070726f76652066726f6d206e6f6e2d7a65726f20746f206e6f6e2d7a65726f20616c6c6f77616e6365a265627a7a723158208f7a7f4bb49f6416695b2b44c7cfd198ee6bca8aab15af24331f1c5fb8a8d72064736f6c63430005100032",
  "source": "// SPDX-License-Identifier: MIT\npragma solidity >=0.5.0;\n\nimport \"@openzeppelin/contracts/math/SafeMath.sol\";\nimport \"@openzeppelin/contracts/token/ERC20/SafeERC20.sol\";\nimport \"@openzeppelin/contracts/utils/Address.sol\";\n\ninterface SDFController {\n  function vaults(address) external view returns (address);\n  function rewards() external view returns (address);\n}\n\ninterface dRewards {\n  function withdraw(uint) external;\n  function getReward() external;\n  function stake(uint) external;\n  function balanceOf(address) external view returns (uint);\n  function exit() external;\n}\n\ninterface dERC20 {\n  function mint(address, uint256) external;\n  function redeem(address, uint) external;\n  function getTokenBalance(address) external view returns (uint);\n  function getExchangeRate() external view returns (uint);\n}\n\ninterface SDFUniswapRouter {\n  function swapExactTokensForTokens(uint, uint, address[] calldata, address, uint) external;\n}\n\n/*\n A strategy must implement the following calls;\n \n - deposit()\n - withdraw(address) must exclude any tokens used in the yield - Controller role - withdraw should return to Controller\n - withdraw(uint) - Controller | Vault role - withdraw should always return to vault\n - withdrawAll() - Controller | Vault role - withdraw should always return to vault\n - balanceOf()\n \n Where possible, strategies must remain as immutable as possible, instead of updating variables, we update the contract by linking it in the controller\n*/\n\ncontract StrategyDForce {\n  using Address for address;\n  using SafeERC20 for IERC20;\n  using SafeMath for uint256;\n\n  address public want;\n  address public dwant;\n  address public pool;\n  address constant public df = address(0x431ad2ff6a9C365805eBaD47Ee021148d6f7DBe0);\n  address constant public unirouter = address(0x7a250d5630B4cF539739dF2C5dAcb4c659F2488D);\n  address constant public weth = address(0xC02aaA39b223FE8D0A0e5C4F27eAD9083C756Cc2); // used for df <> weth <> want route\n\n  uint public performanceFee = 500;\n  uint constant public performanceMax = 10000;\n\n  uint public withdrawalFee = 50;\n  uint constant public withdrawalMax = 10000;\n\n  address public governance;\n  address public controller;\n\n  constructor(address _want, address _dwant, address _pool, address _controller) public {\n    want = _want;\n    dwant = _dwant;\n    pool = _pool;\n    governance = tx.origin;\n    controller = _controller;\n  }\n\n  function getName() external pure returns (string memory) {\n    return \"StrategyDForce\";\n  }\n\n  function setWithdrawalFee(uint _withdrawalFee) external {\n    require(msg.sender == governance, \"!governance\");\n    withdrawalFee = _withdrawalFee;\n  }\n\n  function setPerformanceFee(uint _performanceFee) external {\n    require(msg.sender == governance, \"!governance\");\n    performanceFee = _performanceFee;\n  }\n\n  function deposit() public {\n    uint _want = IERC20(want).balanceOf(address(this));\n    if (_want > 0) {\n      IERC20(want).safeApprove(dwant, 0);\n      IERC20(want).safeApprove(dwant, _want);\n      dERC20(dwant).mint(address(this), _want);\n    }\n\n    uint _dwant = IERC20(dwant).balanceOf(address(this));\n    if (_dwant > 0) {\n      IERC20(dwant).safeApprove(pool, 0);\n      IERC20(dwant).safeApprove(pool, _dwant);\n      dRewards(pool).stake(_dwant);\n    }\n  }\n\n  // Controller only function for creating additional rewards from dust\n  function withdraw(IERC20 _asset) external returns (uint balance) {\n    require(msg.sender == controller, \"!controller\");\n    require(want != address(_asset), \"want\");\n    require(dwant != address(_asset), \"dwant\");\n    balance = _asset.balanceOf(address(this));\n    _asset.safeTransfer(controller, balance);\n  }\n\n  // Withdraw partial funds, normally used with a vault withdrawal\n  function withdraw(uint _amount) external {\n    require(msg.sender == controller, \"!controller\");\n    uint _balance = IERC20(want).balanceOf(address(this));\n    if (_balance < _amount) {\n      _amount = _withdrawSome(_amount.sub(_balance));\n      _amount = _amount.add(_balance);\n    }\n\n    uint _fee = _amount.mul(withdrawalFee).div(withdrawalMax);\n\n    IERC20(want).safeTransfer(SDFController(controller).rewards(), _fee);\n    address _vault = SDFController(controller).vaults(address(want));\n    require(_vault != address(0), \"!vault\"); // additional protection so we don't burn the funds\n\n    IERC20(want).safeTransfer(_vault, _amount.sub(_fee));\n  }\n\n  // Withdraw all funds, normally used when migrating strategies\n  function withdrawAll() external returns (uint balance) {\n    require(msg.sender == controller, \"!controller\");\n    _withdrawAll();\n\n    balance = IERC20(want).balanceOf(address(this));\n\n    address _vault = SDFController(controller).vaults(address(want));\n    require(_vault != address(0), \"!vault\"); // additional protection so we don't burn the funds\n    IERC20(want).safeTransfer(_vault, balance);\n  }\n\n  function _withdrawAll() internal {\n    dRewards(pool).exit();\n    uint _dwant = IERC20(dwant).balanceOf(address(this));\n    if (_dwant > 0) {\n      dERC20(dwant).redeem(address(this), _dwant);\n    }\n  }\n\n  function harvest() public {\n    require(msg.sender == governance, \"!authorized\");\n    dRewards(pool).getReward();\n    uint _df = IERC20(df).balanceOf(address(this));\n    if (_df > 0) {\n      IERC20(df).safeApprove(unirouter, 0);\n      IERC20(df).safeApprove(unirouter, _df);\n\n      address[] memory path = new address[](3);\n      path[0] = df;\n      path[1] = weth;\n      path[2] = want;\n\n      SDFUniswapRouter(unirouter).swapExactTokensForTokens(_df, uint(0), path, address(this), now.add(1800));\n    }\n    uint _want = IERC20(want).balanceOf(address(this));\n    if (_want > 0) {\n      uint _fee = _want.mul(performanceFee).div(performanceMax);\n      IERC20(want).safeTransfer(SDFController(controller).rewards(), _fee);\n      deposit();\n    }\n  }\n\n  function _withdrawSome(uint256 _amount) internal returns (uint) {\n    uint _dwant = _amount.mul(1e18).div(dERC20(dwant).getExchangeRate());\n    uint _before = IERC20(dwant).balanceOf(address(this));\n    dRewards(pool).withdraw(_dwant);\n    uint _after = IERC20(dwant).balanceOf(address(this));\n    uint _withdrew = _after.sub(_before);\n    _before = IERC20(want).balanceOf(address(this));\n    dERC20(dwant).redeem(address(this), _withdrew);\n    _after = IERC20(want).balanceOf(address(this));\n    _withdrew = _after.sub(_before);\n    return _withdrew;\n  }\n\n  function balanceOfWant() public view returns (uint) {\n    return IERC20(want).balanceOf(address(this));\n  }\n\n  function balanceOfPool() public view returns (uint) {\n    return (dRewards(pool).balanceOf(address(this))).mul(dERC20(dwant).getExchangeRate()).div(1e18);\n  }\n\n  function getExchangeRate() public view returns (uint) {\n    return dERC20(dwant).getExchangeRate();\n  }\n\n  function balanceOfD() public view returns (uint) {\n    return dERC20(dwant).getTokenBalance(address(this));\n  }\n\n  function balanceOf() public view returns (uint) {\n    return balanceOfWant().add(balanceOfD()).add(balanceOfPool());\n  }\n\n  function setGovernance(address _governance) external {\n    require(msg.sender == governance, \"!governance\");\n    governance = _governance;\n  }\n\n  function setController(address _controller) external {\n    require(msg.sender == governance, \"!governance\");\n    controller = _controller;\n  }\n}\n",
  "sourcePath": "/Users/beex/dev/plouto-protocol/contracts/StrategyDForce.sol",
  "compiler": {
    "name": "solc",
    "version": "0.5.16+commit.9c3226ce.Emscripten.clang"
  },
  "schemaVersion": "3.2.4",
  "updatedAt": "2020-09-08T05:07:57.259Z",
  "networkType": "ethereum",
  "devdoc": {
    "methods": {}
  },
  "userdoc": {
    "methods": {}
  }
}