{
  "contractName": "StrategyCreamYFI",
  "abi": [
    {
      "inputs": [
        {
          "internalType": "address",
          "name": "_controller",
          "type": "address"
        }
      ],
      "payable": false,
      "stateMutability": "nonpayable",
      "type": "constructor"
    },
    {
      "constant": true,
      "inputs": [],
      "name": "controller",
      "outputs": [
        {
          "internalType": "address",
          "name": "",
          "type": "address"
        }
      ],
      "payable": false,
      "stateMutability": "view",
      "type": "function"
    },
    {
      "constant": true,
      "inputs": [],
      "name": "crYFI",
      "outputs": [
        {
          "internalType": "address",
          "name": "",
          "type": "address"
        }
      ],
      "payable": false,
      "stateMutability": "view",
      "type": "function"
    },
    {
      "constant": true,
      "inputs": [],
      "name": "cream",
      "outputs": [
        {
          "internalType": "address",
          "name": "",
          "type": "address"
        }
      ],
      "payable": false,
      "stateMutability": "view",
      "type": "function"
    },
    {
      "constant": true,
      "inputs": [],
      "name": "creamtroller",
      "outputs": [
        {
          "internalType": "contract SCYFICreamtroller",
          "name": "",
          "type": "address"
        }
      ],
      "payable": false,
      "stateMutability": "view",
      "type": "function"
    },
    {
      "constant": true,
      "inputs": [],
      "name": "governance",
      "outputs": [
        {
          "internalType": "address",
          "name": "",
          "type": "address"
        }
      ],
      "payable": false,
      "stateMutability": "view",
      "type": "function"
    },
    {
      "constant": true,
      "inputs": [],
      "name": "performanceFee",
      "outputs": [
        {
          "internalType": "uint256",
          "name": "",
          "type": "uint256"
        }
      ],
      "payable": false,
      "stateMutability": "view",
      "type": "function"
    },
    {
      "constant": true,
      "inputs": [],
      "name": "performanceMax",
      "outputs": [
        {
          "internalType": "uint256",
          "name": "",
          "type": "uint256"
        }
      ],
      "payable": false,
      "stateMutability": "view",
      "type": "function"
    },
    {
      "constant": true,
      "inputs": [],
      "name": "uni",
      "outputs": [
        {
          "internalType": "address",
          "name": "",
          "type": "address"
        }
      ],
      "payable": false,
      "stateMutability": "view",
      "type": "function"
    },
    {
      "constant": true,
      "inputs": [],
      "name": "want",
      "outputs": [
        {
          "internalType": "address",
          "name": "",
          "type": "address"
        }
      ],
      "payable": false,
      "stateMutability": "view",
      "type": "function"
    },
    {
      "constant": true,
      "inputs": [],
      "name": "weth",
      "outputs": [
        {
          "internalType": "address",
          "name": "",
          "type": "address"
        }
      ],
      "payable": false,
      "stateMutability": "view",
      "type": "function"
    },
    {
      "constant": true,
      "inputs": [],
      "name": "withdrawalFee",
      "outputs": [
        {
          "internalType": "uint256",
          "name": "",
          "type": "uint256"
        }
      ],
      "payable": false,
      "stateMutability": "view",
      "type": "function"
    },
    {
      "constant": true,
      "inputs": [],
      "name": "withdrawalMax",
      "outputs": [
        {
          "internalType": "uint256",
          "name": "",
          "type": "uint256"
        }
      ],
      "payable": false,
      "stateMutability": "view",
      "type": "function"
    },
    {
      "constant": true,
      "inputs": [],
      "name": "getName",
      "outputs": [
        {
          "internalType": "string",
          "name": "",
          "type": "string"
        }
      ],
      "payable": false,
      "stateMutability": "pure",
      "type": "function"
    },
    {
      "constant": false,
      "inputs": [
        {
          "internalType": "uint256",
          "name": "_withdrawalFee",
          "type": "uint256"
        }
      ],
      "name": "setWithdrawalFee",
      "outputs": [],
      "payable": false,
      "stateMutability": "nonpayable",
      "type": "function"
    },
    {
      "constant": false,
      "inputs": [
        {
          "internalType": "uint256",
          "name": "_performanceFee",
          "type": "uint256"
        }
      ],
      "name": "setPerformanceFee",
      "outputs": [],
      "payable": false,
      "stateMutability": "nonpayable",
      "type": "function"
    },
    {
      "constant": false,
      "inputs": [],
      "name": "deposit",
      "outputs": [],
      "payable": false,
      "stateMutability": "nonpayable",
      "type": "function"
    },
    {
      "constant": false,
      "inputs": [
        {
          "internalType": "uint256",
          "name": "_amount",
          "type": "uint256"
        }
      ],
      "name": "withdraw",
      "outputs": [],
      "payable": false,
      "stateMutability": "nonpayable",
      "type": "function"
    },
    {
      "constant": false,
      "inputs": [
        {
          "internalType": "contract IERC20",
          "name": "_asset",
          "type": "address"
        }
      ],
      "name": "withdraw",
      "outputs": [
        {
          "internalType": "uint256",
          "name": "balance",
          "type": "uint256"
        }
      ],
      "payable": false,
      "stateMutability": "nonpayable",
      "type": "function"
    },
    {
      "constant": false,
      "inputs": [],
      "name": "withdrawAll",
      "outputs": [
        {
          "internalType": "uint256",
          "name": "balance",
          "type": "uint256"
        }
      ],
      "payable": false,
      "stateMutability": "nonpayable",
      "type": "function"
    },
    {
      "constant": false,
      "inputs": [],
      "name": "harvest",
      "outputs": [],
      "payable": false,
      "stateMutability": "nonpayable",
      "type": "function"
    },
    {
      "constant": true,
      "inputs": [],
      "name": "balanceOfWant",
      "outputs": [
        {
          "internalType": "uint256",
          "name": "",
          "type": "uint256"
        }
      ],
      "payable": false,
      "stateMutability": "view",
      "type": "function"
    },
    {
      "constant": true,
      "inputs": [],
      "name": "balanceCInToken",
      "outputs": [
        {
          "internalType": "uint256",
          "name": "",
          "type": "uint256"
        }
      ],
      "payable": false,
      "stateMutability": "view",
      "type": "function"
    },
    {
      "constant": true,
      "inputs": [],
      "name": "balanceC",
      "outputs": [
        {
          "internalType": "uint256",
          "name": "",
          "type": "uint256"
        }
      ],
      "payable": false,
      "stateMutability": "view",
      "type": "function"
    },
    {
      "constant": true,
      "inputs": [],
      "name": "balanceOf",
      "outputs": [
        {
          "internalType": "uint256",
          "name": "",
          "type": "uint256"
        }
      ],
      "payable": false,
      "stateMutability": "view",
      "type": "function"
    },
    {
      "constant": false,
      "inputs": [
        {
          "internalType": "address",
          "name": "_governance",
          "type": "address"
        }
      ],
      "name": "setGovernance",
      "outputs": [],
      "payable": false,
      "stateMutability": "nonpayable",
      "type": "function"
    },
    {
      "constant": false,
      "inputs": [
        {
          "internalType": "address",
          "name": "_controller",
          "type": "address"
        }
      ],
      "name": "setController",
      "outputs": [],
      "payable": false,
      "stateMutability": "nonpayable",
      "type": "function"
    }
  ],
  "bytecode": "0x60806040526101f4600055603260015534801561001b57600080fd5b5060405161316a38038061316a8339818101604052602081101561003e57600080fd5b810190808051906020019092919050505032600260006101000a81548173ffffffffffffffffffffffffffffffffffffffff021916908373ffffffffffffffffffffffffffffffffffffffff16021790555080600360006101000a81548173ffffffffffffffffffffffffffffffffffffffff021916908373ffffffffffffffffffffffffffffffffffffffff16021790555050613089806100e16000396000f3fe608060405234801561001057600080fd5b506004361061018e5760003560e01c806387788782116100de578063b655d65311610097578063d5c1ff7311610071578063d5c1ff73146105f6578063e312402814610614578063edc9af951461065e578063f77c4791146106a85761018e565b8063b655d653146105b0578063c1a3d44c146105ce578063d0e30db0146105ec5761018e565b806387788782146104745780638bc7e8c41461049257806392eefe9b146104b0578063a642872e146104f4578063ab033ea91461053e578063ac1e5025146105825761018e565b80634641257d1161014b57806370897b231161012557806370897b23146103ec578063722713f71461041a5780637cc7911314610438578063853828b6146104565761018e565b80634641257d1461034057806351cff8d91461034a5780635aa6e675146103a25761018e565b806317d7de7c146101935780631f1fcd51146102165780632e1a7d4d1461026057806331136c001461028e5780633fc8cef3146102d85780634254b50614610322575b600080fd5b61019b6106f2565b6040518080602001828103825283818151815260200191508051906020019080838360005b838110156101db5780820151818401526020810190506101c0565b50505050905090810190601f1680156102085780820380516001836020036101000a031916815260200191505b509250505060405180910390f35b61021e61072f565b604051808273ffffffffffffffffffffffffffffffffffffffff1673ffffffffffffffffffffffffffffffffffffffff16815260200191505060405180910390f35b61028c6004803603602081101561027657600080fd5b8101908080359060200190929190505050610747565b005b610296610c0f565b604051808273ffffffffffffffffffffffffffffffffffffffff1673ffffffffffffffffffffffffffffffffffffffff16815260200191505060405180910390f35b6102e0610c27565b604051808273ffffffffffffffffffffffffffffffffffffffff1673ffffffffffffffffffffffffffffffffffffffff16815260200191505060405180910390f35b61032a610c3f565b6040518082815260200191505060405180910390f35b610348610d20565b005b61038c6004803603602081101561036057600080fd5b81019080803573ffffffffffffffffffffffffffffffffffffffff16906020019092919050505061146f565b6040518082815260200191505060405180910390f35b6103aa611862565b604051808273ffffffffffffffffffffffffffffffffffffffff1673ffffffffffffffffffffffffffffffffffffffff16815260200191505060405180910390f35b6104186004803603602081101561040257600080fd5b8101908080359060200190929190505050611888565b005b610422611955565b6040518082815260200191505060405180910390f35b61044061197d565b6040518082815260200191505060405180910390f35b61045e611983565b6040518082815260200191505060405180910390f35b61047c611cf6565b6040518082815260200191505060405180910390f35b61049a611cfc565b6040518082815260200191505060405180910390f35b6104f2600480360360208110156104c657600080fd5b81019080803573ffffffffffffffffffffffffffffffffffffffff169060200190929190505050611d02565b005b6104fc611e09565b604051808273ffffffffffffffffffffffffffffffffffffffff1673ffffffffffffffffffffffffffffffffffffffff16815260200191505060405180910390f35b6105806004803603602081101561055457600080fd5b81019080803573ffffffffffffffffffffffffffffffffffffffff169060200190929190505050611e21565b005b6105ae6004803603602081101561059857600080fd5b8101908080359060200190929190505050611f28565b005b6105b8611ff5565b6040518082815260200191505060405180910390f35b6105d66120c8565b6040518082815260200191505060405180910390f35b6105f461219b565b005b6105fe6123c2565b6040518082815260200191505060405180910390f35b61061c6123c8565b604051808273ffffffffffffffffffffffffffffffffffffffff1673ffffffffffffffffffffffffffffffffffffffff16815260200191505060405180910390f35b6106666123e0565b604051808273ffffffffffffffffffffffffffffffffffffffff1673ffffffffffffffffffffffffffffffffffffffff16815260200191505060405180910390f35b6106b06123f8565b604051808273ffffffffffffffffffffffffffffffffffffffff1673ffffffffffffffffffffffffffffffffffffffff16815260200191505060405180910390f35b60606040518060400160405280601081526020017f5374726174656779437265616d59464900000000000000000000000000000000815250905090565b730bc529c00c6401aef6d220be8c6ea1667f6ad93e81565b600360009054906101000a900473ffffffffffffffffffffffffffffffffffffffff1673ffffffffffffffffffffffffffffffffffffffff163373ffffffffffffffffffffffffffffffffffffffff161461080a576040517f08c379a000000000000000000000000000000000000000000000000000000000815260040180806020018281038252600b8152602001807f21636f6e74726f6c6c657200000000000000000000000000000000000000000081525060200191505060405180910390fd5b6000730bc529c00c6401aef6d220be8c6ea1667f6ad93e73ffffffffffffffffffffffffffffffffffffffff166370a08231306040518263ffffffff1660e01b8152600401808273ffffffffffffffffffffffffffffffffffffffff1673ffffffffffffffffffffffffffffffffffffffff16815260200191505060206040518083038186803b15801561089d57600080fd5b505afa1580156108b1573d6000803e3d6000fd5b505050506040513d60208110156108c757600080fd5b8101908080519060200190929190505050905081811015610915576108fd6108f8828461241e90919063ffffffff16565b612468565b9150610912818361268b90919063ffffffff16565b91505b60006109406127106109326001548661271390919063ffffffff16565b61279990919063ffffffff16565b9050610a23600360009054906101000a900473ffffffffffffffffffffffffffffffffffffffff1673ffffffffffffffffffffffffffffffffffffffff16639ec5a8946040518163ffffffff1660e01b815260040160206040518083038186803b1580156109ad57600080fd5b505afa1580156109c1573d6000803e3d6000fd5b505050506040513d60208110156109d757600080fd5b810190808051906020019092919050505082730bc529c00c6401aef6d220be8c6ea1667f6ad93e73ffffffffffffffffffffffffffffffffffffffff166127e39092919063ffffffff16565b6000600360009054906101000a900473ffffffffffffffffffffffffffffffffffffffff1673ffffffffffffffffffffffffffffffffffffffff1663a622ee7c730bc529c00c6401aef6d220be8c6ea1667f6ad93e6040518263ffffffff1660e01b8152600401808273ffffffffffffffffffffffffffffffffffffffff1673ffffffffffffffffffffffffffffffffffffffff16815260200191505060206040518083038186803b158015610ad857600080fd5b505afa158015610aec573d6000803e3d6000fd5b505050506040513d6020811015610b0257600080fd5b81019080805190602001909291905050509050600073ffffffffffffffffffffffffffffffffffffffff168173ffffffffffffffffffffffffffffffffffffffff161415610bb8576040517f08c379a00000000000000000000000000000000000000000000000000000000081526004018080602001828103825260068152602001807f217661756c74000000000000000000000000000000000000000000000000000081525060200191505060405180910390fd5b610c0981610bcf848761241e90919063ffffffff16565b730bc529c00c6401aef6d220be8c6ea1667f6ad93e73ffffffffffffffffffffffffffffffffffffffff166127e39092919063ffffffff16565b50505050565b73cbae0a83f4f9926997c8339545fb8ee32edc6b7681565b73c02aaa39b223fe8d0a0e5c4f27ead9083c756cc281565b600080610c4a611ff5565b90506000811115610d1957610d16670de0b6b3a7640000610d0873cbae0a83f4f9926997c8339545fb8ee32edc6b7673ffffffffffffffffffffffffffffffffffffffff1663182df0f56040518163ffffffff1660e01b815260040160206040518083038186803b158015610cbe57600080fd5b505afa158015610cd2573d6000803e3d6000fd5b505050506040513d6020811015610ce857600080fd5b81019080805190602001909291905050508461271390919063ffffffff16565b61279990919063ffffffff16565b90505b8091505090565b600260009054906101000a900473ffffffffffffffffffffffffffffffffffffffff1673ffffffffffffffffffffffffffffffffffffffff163373ffffffffffffffffffffffffffffffffffffffff1614610de3576040517f08c379a000000000000000000000000000000000000000000000000000000000815260040180806020018281038252600b8152602001807f21617574686f72697a656400000000000000000000000000000000000000000081525060200191505060405180910390fd5b733d5bc3c8d13dcb8bf317092d84783c2697ae925873ffffffffffffffffffffffffffffffffffffffff1663e9af0292306040518263ffffffff1660e01b8152600401808273ffffffffffffffffffffffffffffffffffffffff1673ffffffffffffffffffffffffffffffffffffffff168152602001915050600060405180830381600087803b158015610e7657600080fd5b505af1158015610e8a573d6000803e3d6000fd5b505050506000732ba592f78db6436527729929aaf6c908497cb20073ffffffffffffffffffffffffffffffffffffffff166370a08231306040518263ffffffff1660e01b8152600401808273ffffffffffffffffffffffffffffffffffffffff1673ffffffffffffffffffffffffffffffffffffffff16815260200191505060206040518083038186803b158015610f2157600080fd5b505afa158015610f35573d6000803e3d6000fd5b505050506040513d6020811015610f4b57600080fd5b81019080805190602001909291905050509050600081111561127a57610fbb737a250d5630b4cf539739df2c5dacb4c659f2488d6000732ba592f78db6436527729929aaf6c908497cb20073ffffffffffffffffffffffffffffffffffffffff166128b49092919063ffffffff16565b61100e737a250d5630b4cf539739df2c5dacb4c659f2488d82732ba592f78db6436527729929aaf6c908497cb20073ffffffffffffffffffffffffffffffffffffffff166128b49092919063ffffffff16565b606060036040519080825280602002602001820160405280156110405781602001602082028038833980820191505090505b509050732ba592f78db6436527729929aaf6c908497cb2008160008151811061106557fe5b602002602001019073ffffffffffffffffffffffffffffffffffffffff16908173ffffffffffffffffffffffffffffffffffffffff168152505073c02aaa39b223fe8d0a0e5c4f27ead9083c756cc2816001815181106110c157fe5b602002602001019073ffffffffffffffffffffffffffffffffffffffff16908173ffffffffffffffffffffffffffffffffffffffff1681525050730bc529c00c6401aef6d220be8c6ea1667f6ad93e8160028151811061111d57fe5b602002602001019073ffffffffffffffffffffffffffffffffffffffff16908173ffffffffffffffffffffffffffffffffffffffff1681525050737a250d5630b4cf539739df2c5dacb4c659f2488d73ffffffffffffffffffffffffffffffffffffffff166338ed173983600084306111a16107084261268b90919063ffffffff16565b6040518663ffffffff1660e01b815260040180868152602001858152602001806020018473ffffffffffffffffffffffffffffffffffffffff1673ffffffffffffffffffffffffffffffffffffffff168152602001838152602001828103825285818151815260200191508051906020019060200280838360005b8381101561123757808201518184015260208101905061121c565b505050509050019650505050505050600060405180830381600087803b15801561126057600080fd5b505af1158015611274573d6000803e3d6000fd5b50505050505b6000730bc529c00c6401aef6d220be8c6ea1667f6ad93e73ffffffffffffffffffffffffffffffffffffffff166370a08231306040518263ffffffff1660e01b8152600401808273ffffffffffffffffffffffffffffffffffffffff1673ffffffffffffffffffffffffffffffffffffffff16815260200191505060206040518083038186803b15801561130d57600080fd5b505afa158015611321573d6000803e3d6000fd5b505050506040513d602081101561133757600080fd5b81019080805190602001909291905050509050600081111561146b57600061137e6127106113706000548561271390919063ffffffff16565b61279990919063ffffffff16565b9050611461600360009054906101000a900473ffffffffffffffffffffffffffffffffffffffff1673ffffffffffffffffffffffffffffffffffffffff16639ec5a8946040518163ffffffff1660e01b815260040160206040518083038186803b1580156113eb57600080fd5b505afa1580156113ff573d6000803e3d6000fd5b505050506040513d602081101561141557600080fd5b810190808051906020019092919050505082730bc529c00c6401aef6d220be8c6ea1667f6ad93e73ffffffffffffffffffffffffffffffffffffffff166127e39092919063ffffffff16565b61146961219b565b505b5050565b6000600360009054906101000a900473ffffffffffffffffffffffffffffffffffffffff1673ffffffffffffffffffffffffffffffffffffffff163373ffffffffffffffffffffffffffffffffffffffff1614611534576040517f08c379a000000000000000000000000000000000000000000000000000000000815260040180806020018281038252600b8152602001807f21636f6e74726f6c6c657200000000000000000000000000000000000000000081525060200191505060405180910390fd5b8173ffffffffffffffffffffffffffffffffffffffff16730bc529c00c6401aef6d220be8c6ea1667f6ad93e73ffffffffffffffffffffffffffffffffffffffff1614156115ea576040517f08c379a00000000000000000000000000000000000000000000000000000000081526004018080602001828103825260048152602001807f77616e740000000000000000000000000000000000000000000000000000000081525060200191505060405180910390fd5b8173ffffffffffffffffffffffffffffffffffffffff1673cbae0a83f4f9926997c8339545fb8ee32edc6b7673ffffffffffffffffffffffffffffffffffffffff1614156116a0576040517f08c379a00000000000000000000000000000000000000000000000000000000081526004018080602001828103825260058152602001807f637259464900000000000000000000000000000000000000000000000000000081525060200191505060405180910390fd5b8173ffffffffffffffffffffffffffffffffffffffff16732ba592f78db6436527729929aaf6c908497cb20073ffffffffffffffffffffffffffffffffffffffff161415611756576040517f08c379a00000000000000000000000000000000000000000000000000000000081526004018080602001828103825260058152602001807f637265616d00000000000000000000000000000000000000000000000000000081525060200191505060405180910390fd5b8173ffffffffffffffffffffffffffffffffffffffff166370a08231306040518263ffffffff1660e01b8152600401808273ffffffffffffffffffffffffffffffffffffffff1673ffffffffffffffffffffffffffffffffffffffff16815260200191505060206040518083038186803b1580156117d357600080fd5b505afa1580156117e7573d6000803e3d6000fd5b505050506040513d60208110156117fd57600080fd5b8101908080519060200190929190505050905061185d600360009054906101000a900473ffffffffffffffffffffffffffffffffffffffff16828473ffffffffffffffffffffffffffffffffffffffff166127e39092919063ffffffff16565b919050565b600260009054906101000a900473ffffffffffffffffffffffffffffffffffffffff1681565b600260009054906101000a900473ffffffffffffffffffffffffffffffffffffffff1673ffffffffffffffffffffffffffffffffffffffff163373ffffffffffffffffffffffffffffffffffffffff161461194b576040517f08c379a000000000000000000000000000000000000000000000000000000000815260040180806020018281038252600b8152602001807f21676f7665726e616e636500000000000000000000000000000000000000000081525060200191505060405180910390fd5b8060008190555050565b6000611978611962610c3f565b61196a6120c8565b61268b90919063ffffffff16565b905090565b61271081565b6000600360009054906101000a900473ffffffffffffffffffffffffffffffffffffffff1673ffffffffffffffffffffffffffffffffffffffff163373ffffffffffffffffffffffffffffffffffffffff1614611a48576040517f08c379a000000000000000000000000000000000000000000000000000000000815260040180806020018281038252600b8152602001807f21636f6e74726f6c6c657200000000000000000000000000000000000000000081525060200191505060405180910390fd5b611a50612ad4565b730bc529c00c6401aef6d220be8c6ea1667f6ad93e73ffffffffffffffffffffffffffffffffffffffff166370a08231306040518263ffffffff1660e01b8152600401808273ffffffffffffffffffffffffffffffffffffffff1673ffffffffffffffffffffffffffffffffffffffff16815260200191505060206040518083038186803b158015611ae157600080fd5b505afa158015611af5573d6000803e3d6000fd5b505050506040513d6020811015611b0b57600080fd5b810190808051906020019092919050505090506000600360009054906101000a900473ffffffffffffffffffffffffffffffffffffffff1673ffffffffffffffffffffffffffffffffffffffff1663a622ee7c730bc529c00c6401aef6d220be8c6ea1667f6ad93e6040518263ffffffff1660e01b8152600401808273ffffffffffffffffffffffffffffffffffffffff1673ffffffffffffffffffffffffffffffffffffffff16815260200191505060206040518083038186803b158015611bd357600080fd5b505afa158015611be7573d6000803e3d6000fd5b505050506040513d6020811015611bfd57600080fd5b81019080805190602001909291905050509050600073ffffffffffffffffffffffffffffffffffffffff168173ffffffffffffffffffffffffffffffffffffffff161415611cb3576040517f08c379a00000000000000000000000000000000000000000000000000000000081526004018080602001828103825260068152602001807f217661756c74000000000000000000000000000000000000000000000000000081525060200191505060405180910390fd5b611cf28183730bc529c00c6401aef6d220be8c6ea1667f6ad93e73ffffffffffffffffffffffffffffffffffffffff166127e39092919063ffffffff16565b5090565b60005481565b60015481565b600260009054906101000a900473ffffffffffffffffffffffffffffffffffffffff1673ffffffffffffffffffffffffffffffffffffffff163373ffffffffffffffffffffffffffffffffffffffff1614611dc5576040517f08c379a000000000000000000000000000000000000000000000000000000000815260040180806020018281038252600b8152602001807f21676f7665726e616e636500000000000000000000000000000000000000000081525060200191505060405180910390fd5b80600360006101000a81548173ffffffffffffffffffffffffffffffffffffffff021916908373ffffffffffffffffffffffffffffffffffffffff16021790555050565b732ba592f78db6436527729929aaf6c908497cb20081565b600260009054906101000a900473ffffffffffffffffffffffffffffffffffffffff1673ffffffffffffffffffffffffffffffffffffffff163373ffffffffffffffffffffffffffffffffffffffff1614611ee4576040517f08c379a000000000000000000000000000000000000000000000000000000000815260040180806020018281038252600b8152602001807f21676f7665726e616e636500000000000000000000000000000000000000000081525060200191505060405180910390fd5b80600260006101000a81548173ffffffffffffffffffffffffffffffffffffffff021916908373ffffffffffffffffffffffffffffffffffffffff16021790555050565b600260009054906101000a900473ffffffffffffffffffffffffffffffffffffffff1673ffffffffffffffffffffffffffffffffffffffff163373ffffffffffffffffffffffffffffffffffffffff1614611feb576040517f08c379a000000000000000000000000000000000000000000000000000000000815260040180806020018281038252600b8152602001807f21676f7665726e616e636500000000000000000000000000000000000000000081525060200191505060405180910390fd5b8060018190555050565b600073cbae0a83f4f9926997c8339545fb8ee32edc6b7673ffffffffffffffffffffffffffffffffffffffff166370a08231306040518263ffffffff1660e01b8152600401808273ffffffffffffffffffffffffffffffffffffffff1673ffffffffffffffffffffffffffffffffffffffff16815260200191505060206040518083038186803b15801561208857600080fd5b505afa15801561209c573d6000803e3d6000fd5b505050506040513d60208110156120b257600080fd5b8101908080519060200190929190505050905090565b6000730bc529c00c6401aef6d220be8c6ea1667f6ad93e73ffffffffffffffffffffffffffffffffffffffff166370a08231306040518263ffffffff1660e01b8152600401808273ffffffffffffffffffffffffffffffffffffffff1673ffffffffffffffffffffffffffffffffffffffff16815260200191505060206040518083038186803b15801561215b57600080fd5b505afa15801561216f573d6000803e3d6000fd5b505050506040513d602081101561218557600080fd5b8101908080519060200190929190505050905090565b6000730bc529c00c6401aef6d220be8c6ea1667f6ad93e73ffffffffffffffffffffffffffffffffffffffff166370a08231306040518263ffffffff1660e01b8152600401808273ffffffffffffffffffffffffffffffffffffffff1673ffffffffffffffffffffffffffffffffffffffff16815260200191505060206040518083038186803b15801561222e57600080fd5b505afa158015612242573d6000803e3d6000fd5b505050506040513d602081101561225857600080fd5b8101908080519060200190929190505050905060008111156123bf576122c873cbae0a83f4f9926997c8339545fb8ee32edc6b766000730bc529c00c6401aef6d220be8c6ea1667f6ad93e73ffffffffffffffffffffffffffffffffffffffff166128b49092919063ffffffff16565b61231b73cbae0a83f4f9926997c8339545fb8ee32edc6b7682730bc529c00c6401aef6d220be8c6ea1667f6ad93e73ffffffffffffffffffffffffffffffffffffffff166128b49092919063ffffffff16565b73cbae0a83f4f9926997c8339545fb8ee32edc6b7673ffffffffffffffffffffffffffffffffffffffff1663a0712d68826040518263ffffffff1660e01b815260040180828152602001915050602060405180830381600087803b15801561238257600080fd5b505af1158015612396573d6000803e3d6000fd5b505050506040513d60208110156123ac57600080fd5b8101908080519060200190929190505050505b50565b61271081565b733d5bc3c8d13dcb8bf317092d84783c2697ae925881565b737a250d5630b4cf539739df2c5dacb4c659f2488d81565b600360009054906101000a900473ffffffffffffffffffffffffffffffffffffffff1681565b600061246083836040518060400160405280601e81526020017f536166654d6174683a207375627472616374696f6e206f766572666c6f770000815250612b11565b905092915050565b600080612473611ff5565b9050600061247f610c3f565b905060006124bb60016124ad8461249f898861271390919063ffffffff16565b61279990919063ffffffff16565b61268b90919063ffffffff16565b90506000730bc529c00c6401aef6d220be8c6ea1667f6ad93e73ffffffffffffffffffffffffffffffffffffffff166370a08231306040518263ffffffff1660e01b8152600401808273ffffffffffffffffffffffffffffffffffffffff1673ffffffffffffffffffffffffffffffffffffffff16815260200191505060206040518083038186803b15801561255057600080fd5b505afa158015612564573d6000803e3d6000fd5b505050506040513d602081101561257a57600080fd5b8101908080519060200190929190505050905061259682612bd1565b6000730bc529c00c6401aef6d220be8c6ea1667f6ad93e73ffffffffffffffffffffffffffffffffffffffff166370a08231306040518263ffffffff1660e01b8152600401808273ffffffffffffffffffffffffffffffffffffffff1673ffffffffffffffffffffffffffffffffffffffff16815260200191505060206040518083038186803b15801561262957600080fd5b505afa15801561263d573d6000803e3d6000fd5b505050506040513d602081101561265357600080fd5b81019080805190602001909291905050509050600061267b838361241e90919063ffffffff16565b9050809650505050505050919050565b600080828401905083811015612709576040517f08c379a000000000000000000000000000000000000000000000000000000000815260040180806020018281038252601b8152602001807f536166654d6174683a206164646974696f6e206f766572666c6f77000000000081525060200191505060405180910390fd5b8091505092915050565b6000808314156127265760009050612793565b600082840290508284828161273757fe5b041461278e576040517f08c379a0000000000000000000000000000000000000000000000000000000008152600401808060200182810382526021815260200180612fd46021913960400191505060405180910390fd5b809150505b92915050565b60006127db83836040518060400160405280601a81526020017f536166654d6174683a206469766973696f6e206279207a65726f000000000000815250612c77565b905092915050565b6128af838473ffffffffffffffffffffffffffffffffffffffff1663a9059cbb905060e01b8484604051602401808373ffffffffffffffffffffffffffffffffffffffff1673ffffffffffffffffffffffffffffffffffffffff16815260200182815260200192505050604051602081830303815290604052907bffffffffffffffffffffffffffffffffffffffffffffffffffffffff19166020820180517bffffffffffffffffffffffffffffffffffffffffffffffffffffffff8381831617835250505050612d3d565b505050565b60008114806129ae575060008373ffffffffffffffffffffffffffffffffffffffff1663dd62ed3e30856040518363ffffffff1660e01b8152600401808373ffffffffffffffffffffffffffffffffffffffff1673ffffffffffffffffffffffffffffffffffffffff1681526020018273ffffffffffffffffffffffffffffffffffffffff1673ffffffffffffffffffffffffffffffffffffffff1681526020019250505060206040518083038186803b15801561297157600080fd5b505afa158015612985573d6000803e3d6000fd5b505050506040513d602081101561299b57600080fd5b8101908080519060200190929190505050145b612a03576040517f08c379a000000000000000000000000000000000000000000000000000000000815260040180806020018281038252603681526020018061301f6036913960400191505060405180910390fd5b612acf838473ffffffffffffffffffffffffffffffffffffffff1663095ea7b3905060e01b8484604051602401808373ffffffffffffffffffffffffffffffffffffffff1673ffffffffffffffffffffffffffffffffffffffff16815260200182815260200192505050604051602081830303815290604052907bffffffffffffffffffffffffffffffffffffffffffffffffffffffff19166020820180517bffffffffffffffffffffffffffffffffffffffffffffffffffffffff8381831617835250505050612d3d565b505050565b6000612ade611ff5565b90506000811115612b0e57612b0c612b076001612af9610c3f565b61241e90919063ffffffff16565b612468565b505b50565b6000838311158290612bbe576040517f08c379a00000000000000000000000000000000000000000000000000000000081526004018080602001828103825283818151815260200191508051906020019080838360005b83811015612b83578082015181840152602081019050612b68565b50505050905090810190601f168015612bb05780820380516001836020036101000a031916815260200191505b509250505060405180910390fd5b5060008385039050809150509392505050565b73cbae0a83f4f9926997c8339545fb8ee32edc6b7673ffffffffffffffffffffffffffffffffffffffff1663db006a75826040518263ffffffff1660e01b815260040180828152602001915050602060405180830381600087803b158015612c3857600080fd5b505af1158015612c4c573d6000803e3d6000fd5b505050506040513d6020811015612c6257600080fd5b81019080805190602001909291905050505050565b60008083118290612d23576040517f08c379a00000000000000000000000000000000000000000000000000000000081526004018080602001828103825283818151815260200191508051906020019080838360005b83811015612ce8578082015181840152602081019050612ccd565b50505050905090810190601f168015612d155780820380516001836020036101000a031916815260200191505b509250505060405180910390fd5b506000838581612d2f57fe5b049050809150509392505050565b612d5c8273ffffffffffffffffffffffffffffffffffffffff16612f88565b612dce576040517f08c379a000000000000000000000000000000000000000000000000000000000815260040180806020018281038252601f8152602001807f5361666545524332303a2063616c6c20746f206e6f6e2d636f6e74726163740081525060200191505060405180910390fd5b600060608373ffffffffffffffffffffffffffffffffffffffff16836040518082805190602001908083835b60208310612e1d5780518252602082019150602081019050602083039250612dfa565b6001836020036101000a0380198251168184511680821785525050505050509050019150506000604051808303816000865af19150503d8060008114612e7f576040519150601f19603f3d011682016040523d82523d6000602084013e612e84565b606091505b509150915081612efc576040517f08c379a00000000000000000000000000000000000000000000000000000000081526004018080602001828103825260208152602001807f5361666545524332303a206c6f772d6c6576656c2063616c6c206661696c656481525060200191505060405180910390fd5b600081511115612f8257808060200190516020811015612f1b57600080fd5b8101908080519060200190929190505050612f81576040517f08c379a000000000000000000000000000000000000000000000000000000000815260040180806020018281038252602a815260200180612ff5602a913960400191505060405180910390fd5b5b50505050565b60008060007fc5d2460186f7233c927e7db2dcc703c0e500b653ca82273b7bfad8045d85a47060001b9050833f9150808214158015612fca57506000801b8214155b9250505091905056fe536166654d6174683a206d756c7469706c69636174696f6e206f766572666c6f775361666545524332303a204552433230206f7065726174696f6e20646964206e6f7420737563636565645361666545524332303a20617070726f76652066726f6d206e6f6e2d7a65726f20746f206e6f6e2d7a65726f20616c6c6f77616e6365a265627a7a723158200438a568d3cc6a80b0d7d510b43a9cc4e5c89e8b14cf7e3fde3d896eefb6374164736f6c63430005100032",
  "source": "// SPDX-License-Identifier: MIT\npragma solidity >=0.5.0;\n\nimport \"@openzeppelin/contracts/math/SafeMath.sol\";\nimport \"@openzeppelin/contracts/token/ERC20/SafeERC20.sol\";\nimport \"@openzeppelin/contracts/utils/Address.sol\";\n\ninterface SCYFIController {\n  function vaults(address) external view returns (address);\n  function rewards() external view returns (address);\n}\n\n/*\n A strategy must implement the following calls;\n\n - deposit()\n - withdraw(address) must exclude any tokens used in the yield - Controller role - withdraw should return to Controller\n - withdraw(uint) - Controller | Vault role - withdraw should always return to vault\n - withdrawAll() - Controller | Vault role - withdraw should always return to vault\n - balanceOf()\n\n Where possible, strategies must remain as immutable as possible, instead of updating variables, we update the contract by linking it in the controller\n*/\n\ninterface SCYFIUniswapRouter {\n  function swapExactTokensForTokens(uint, uint, address[] calldata, address, uint) external;\n}\n\ninterface SCYFICreamtroller {\n  function claimComp(address holder) external;\n}\n\ninterface cSCYFIToken {\n  function mint(uint mintAmount) external returns (uint);\n  function redeem(uint redeemTokens) external returns (uint);\n  function redeemUnderlying(uint redeemAmount) external returns (uint);\n  function borrow(uint borrowAmount) external returns (uint);\n  function repayBorrow(uint repayAmount) external returns (uint);\n  function exchangeRateStored() external view returns (uint);\n  function balanceOf(address _owner) external view returns (uint);\n  function underlying() external view returns (address);\n}\n\ncontract StrategyCreamYFI {\n  using Address for address;\n  using SafeERC20 for IERC20;\n  using SafeMath for uint256;\n\n  address constant public want = address(0x0bc529c00C6401aEF6D220BE8C6Ea1667F6Ad93e);\n\n  SCYFICreamtroller public constant creamtroller = SCYFICreamtroller(0x3d5BC3c8d13dcB8bF317092d84783c2697AE9258);\n\n  address constant public crYFI = address(0xCbaE0A83f4f9926997c8339545fb8eE32eDc6b76);\n  address constant public cream = address(0x2ba592F78dB6436527729929AAf6c908497cB200);\n\n  address constant public uni = address(0x7a250d5630B4cF539739dF2C5dAcb4c659F2488D);\n  address constant public weth = address(0xC02aaA39b223FE8D0A0e5C4F27eAD9083C756Cc2); // used for cream <> weth <> yfi route\n\n  uint public performanceFee = 500;\n  uint constant public performanceMax = 10000;\n\n  uint public withdrawalFee = 50;\n  uint constant public withdrawalMax = 10000;\n\n  address public governance;\n  address public controller;\n\n  constructor(address _controller) public {\n    governance = tx.origin;\n    controller = _controller;\n  }\n\n  function getName() external pure returns (string memory) {\n    return \"StrategyCreamYFI\";\n  }\n\n  function setWithdrawalFee(uint _withdrawalFee) external {\n    require(msg.sender == governance, \"!governance\");\n    withdrawalFee = _withdrawalFee;\n  }\n\n  function setPerformanceFee(uint _performanceFee) external {\n    require(msg.sender == governance, \"!governance\");\n    performanceFee = _performanceFee;\n  }\n\n  function deposit() public {\n    uint _want = IERC20(want).balanceOf(address(this));\n    if (_want > 0) {\n      IERC20(want).safeApprove(crYFI, 0);\n      IERC20(want).safeApprove(crYFI, _want);\n      cSCYFIToken(crYFI).mint(_want);\n    }\n  }\n\n  // Controller only function for creating additional rewards from dust\n  function withdraw(IERC20 _asset) external returns (uint balance) {\n    require(msg.sender == controller, \"!controller\");\n    require(want != address(_asset), \"want\");\n    require(crYFI != address(_asset), \"crYFI\");\n    require(cream != address(_asset), \"cream\");\n    balance = _asset.balanceOf(address(this));\n    _asset.safeTransfer(controller, balance);\n  }\n\n  // Withdraw partial funds, normally used with a vault withdrawal\n  function withdraw(uint _amount) external {\n    require(msg.sender == controller, \"!controller\");\n    uint _balance = IERC20(want).balanceOf(address(this));\n    if (_balance < _amount) {\n      _amount = _withdrawSome(_amount.sub(_balance));\n      _amount = _amount.add(_balance);\n    }\n\n    uint _fee = _amount.mul(withdrawalFee).div(withdrawalMax);\n\n    IERC20(want).safeTransfer(SCYFIController(controller).rewards(), _fee);\n    address _vault = SCYFIController(controller).vaults(address(want));\n    require(_vault != address(0), \"!vault\"); // additional protection so we don't burn the funds\n\n    IERC20(want).safeTransfer(_vault, _amount.sub(_fee));\n  }\n\n  // Withdraw all funds, normally used when migrating strategies\n  function withdrawAll() external returns (uint balance) {\n    require(msg.sender == controller, \"!controller\");\n    _withdrawAll();\n\n    balance = IERC20(want).balanceOf(address(this));\n\n    address _vault = SCYFIController(controller).vaults(address(want));\n    require(_vault != address(0), \"!vault\"); // additional protection so we don't burn the funds\n    IERC20(want).safeTransfer(_vault, balance);\n  }\n\n  function _withdrawAll() internal {\n    uint256 amount = balanceC();\n    if (amount > 0) {\n      _withdrawSome(balanceCInToken().sub(1));\n    }\n  }\n\n  function harvest() public {\n    require(msg.sender == governance, \"!authorized\");\n    SCYFICreamtroller(creamtroller).claimComp(address(this));\n    uint _cream = IERC20(cream).balanceOf(address(this));\n    if (_cream > 0) {\n      IERC20(cream).safeApprove(uni, 0);\n      IERC20(cream).safeApprove(uni, _cream);\n\n      address[] memory path = new address[](3);\n      path[0] = cream;\n      path[1] = weth;\n      path[2] = want;\n\n      SCYFIUniswapRouter(uni).swapExactTokensForTokens(_cream, uint(0), path, address(this), now.add(1800));\n    }\n    uint _want = IERC20(want).balanceOf(address(this));\n    if (_want > 0) {\n      uint _fee = _want.mul(performanceFee).div(performanceMax);\n      IERC20(want).safeTransfer(SCYFIController(controller).rewards(), _fee);\n      deposit();\n    }\n  }\n\n  function _withdrawSome(uint256 _amount) internal returns (uint) {\n    uint256 b = balanceC();\n    uint256 bT = balanceCInToken();\n    // can have unintentional rounding errors\n    uint256 amount = (b.mul(_amount)).div(bT).add(1);\n    uint _before = IERC20(want).balanceOf(address(this));\n    _withdrawC(amount);\n    uint _after = IERC20(want).balanceOf(address(this));\n    uint _withdrew = _after.sub(_before);\n    return _withdrew;\n  }\n\n  function balanceOfWant() public view returns (uint) {\n    return IERC20(want).balanceOf(address(this));\n  }\n\n  function _withdrawC(uint amount) internal {\n    cSCYFIToken(crYFI).redeem(amount);\n  }\n\n  function balanceCInToken() public view returns (uint256) {\n    // Mantisa 1e18 to decimals\n    uint256 b = balanceC();\n    if (b > 0) {\n      b = b.mul(cSCYFIToken(crYFI).exchangeRateStored()).div(1e18);\n    }\n    return b;\n  }\n\n  function balanceC() public view returns (uint256) {\n    return IERC20(crYFI).balanceOf(address(this));\n  }\n\n  function balanceOf() public view returns (uint) {\n    return balanceOfWant().add(balanceCInToken());\n  }\n\n  function setGovernance(address _governance) external {\n    require(msg.sender == governance, \"!governance\");\n    governance = _governance;\n  }\n\n  function setController(address _controller) external {\n    require(msg.sender == governance, \"!governance\");\n    controller = _controller;\n  }\n}\n",
  "sourcePath": "/Users/beex/dev/plouto-protocol/contracts/StrategyCreamYFI.sol",
  "compiler": {
    "name": "solc",
    "version": "0.5.16+commit.9c3226ce.Emscripten.clang"
  },
  "schemaVersion": "3.2.4",
  "updatedAt": "2020-09-09T06:21:52.804Z",
  "networkType": "ethereum",
  "devdoc": {
    "methods": {}
  },
  "userdoc": {
    "methods": {}
  }
}