{
  "contractName": "StrategyCurveYCRVVoter",
  "abi": [
    {
      "inputs": [
        {
          "internalType": "address",
          "name": "_controller",
          "type": "address"
        }
      ],
      "payable": false,
      "stateMutability": "nonpayable",
      "type": "constructor"
    },
    {
      "constant": true,
      "inputs": [],
      "name": "controller",
      "outputs": [
        {
          "internalType": "address",
          "name": "",
          "type": "address"
        }
      ],
      "payable": false,
      "stateMutability": "view",
      "type": "function"
    },
    {
      "constant": true,
      "inputs": [],
      "name": "crv",
      "outputs": [
        {
          "internalType": "address",
          "name": "",
          "type": "address"
        }
      ],
      "payable": false,
      "stateMutability": "view",
      "type": "function"
    },
    {
      "constant": true,
      "inputs": [],
      "name": "curve",
      "outputs": [
        {
          "internalType": "address",
          "name": "",
          "type": "address"
        }
      ],
      "payable": false,
      "stateMutability": "view",
      "type": "function"
    },
    {
      "constant": true,
      "inputs": [],
      "name": "dai",
      "outputs": [
        {
          "internalType": "address",
          "name": "",
          "type": "address"
        }
      ],
      "payable": false,
      "stateMutability": "view",
      "type": "function"
    },
    {
      "constant": true,
      "inputs": [],
      "name": "governance",
      "outputs": [
        {
          "internalType": "address",
          "name": "",
          "type": "address"
        }
      ],
      "payable": false,
      "stateMutability": "view",
      "type": "function"
    },
    {
      "constant": true,
      "inputs": [],
      "name": "keepCRV",
      "outputs": [
        {
          "internalType": "uint256",
          "name": "",
          "type": "uint256"
        }
      ],
      "payable": false,
      "stateMutability": "view",
      "type": "function"
    },
    {
      "constant": true,
      "inputs": [],
      "name": "keepCRVMax",
      "outputs": [
        {
          "internalType": "uint256",
          "name": "",
          "type": "uint256"
        }
      ],
      "payable": false,
      "stateMutability": "view",
      "type": "function"
    },
    {
      "constant": true,
      "inputs": [],
      "name": "mintr",
      "outputs": [
        {
          "internalType": "address",
          "name": "",
          "type": "address"
        }
      ],
      "payable": false,
      "stateMutability": "view",
      "type": "function"
    },
    {
      "constant": true,
      "inputs": [],
      "name": "performanceFee",
      "outputs": [
        {
          "internalType": "uint256",
          "name": "",
          "type": "uint256"
        }
      ],
      "payable": false,
      "stateMutability": "view",
      "type": "function"
    },
    {
      "constant": true,
      "inputs": [],
      "name": "performanceMax",
      "outputs": [
        {
          "internalType": "uint256",
          "name": "",
          "type": "uint256"
        }
      ],
      "payable": false,
      "stateMutability": "view",
      "type": "function"
    },
    {
      "constant": true,
      "inputs": [],
      "name": "pool",
      "outputs": [
        {
          "internalType": "address",
          "name": "",
          "type": "address"
        }
      ],
      "payable": false,
      "stateMutability": "view",
      "type": "function"
    },
    {
      "constant": true,
      "inputs": [],
      "name": "uni",
      "outputs": [
        {
          "internalType": "address",
          "name": "",
          "type": "address"
        }
      ],
      "payable": false,
      "stateMutability": "view",
      "type": "function"
    },
    {
      "constant": true,
      "inputs": [],
      "name": "want",
      "outputs": [
        {
          "internalType": "address",
          "name": "",
          "type": "address"
        }
      ],
      "payable": false,
      "stateMutability": "view",
      "type": "function"
    },
    {
      "constant": true,
      "inputs": [],
      "name": "weth",
      "outputs": [
        {
          "internalType": "address",
          "name": "",
          "type": "address"
        }
      ],
      "payable": false,
      "stateMutability": "view",
      "type": "function"
    },
    {
      "constant": true,
      "inputs": [],
      "name": "withdrawalFee",
      "outputs": [
        {
          "internalType": "uint256",
          "name": "",
          "type": "uint256"
        }
      ],
      "payable": false,
      "stateMutability": "view",
      "type": "function"
    },
    {
      "constant": true,
      "inputs": [],
      "name": "withdrawalMax",
      "outputs": [
        {
          "internalType": "uint256",
          "name": "",
          "type": "uint256"
        }
      ],
      "payable": false,
      "stateMutability": "view",
      "type": "function"
    },
    {
      "constant": true,
      "inputs": [],
      "name": "ydai",
      "outputs": [
        {
          "internalType": "address",
          "name": "",
          "type": "address"
        }
      ],
      "payable": false,
      "stateMutability": "view",
      "type": "function"
    },
    {
      "constant": true,
      "inputs": [],
      "name": "getName",
      "outputs": [
        {
          "internalType": "string",
          "name": "",
          "type": "string"
        }
      ],
      "payable": false,
      "stateMutability": "pure",
      "type": "function"
    },
    {
      "constant": false,
      "inputs": [
        {
          "internalType": "uint256",
          "name": "_keepCRV",
          "type": "uint256"
        }
      ],
      "name": "setKeepCRV",
      "outputs": [],
      "payable": false,
      "stateMutability": "nonpayable",
      "type": "function"
    },
    {
      "constant": false,
      "inputs": [
        {
          "internalType": "uint256",
          "name": "_withdrawalFee",
          "type": "uint256"
        }
      ],
      "name": "setWithdrawalFee",
      "outputs": [],
      "payable": false,
      "stateMutability": "nonpayable",
      "type": "function"
    },
    {
      "constant": false,
      "inputs": [
        {
          "internalType": "uint256",
          "name": "_performanceFee",
          "type": "uint256"
        }
      ],
      "name": "setPerformanceFee",
      "outputs": [],
      "payable": false,
      "stateMutability": "nonpayable",
      "type": "function"
    },
    {
      "constant": false,
      "inputs": [],
      "name": "deposit",
      "outputs": [],
      "payable": false,
      "stateMutability": "nonpayable",
      "type": "function"
    },
    {
      "constant": false,
      "inputs": [
        {
          "internalType": "uint256",
          "name": "_amount",
          "type": "uint256"
        }
      ],
      "name": "withdraw",
      "outputs": [],
      "payable": false,
      "stateMutability": "nonpayable",
      "type": "function"
    },
    {
      "constant": false,
      "inputs": [
        {
          "internalType": "contract IERC20",
          "name": "_asset",
          "type": "address"
        }
      ],
      "name": "withdraw",
      "outputs": [
        {
          "internalType": "uint256",
          "name": "balance",
          "type": "uint256"
        }
      ],
      "payable": false,
      "stateMutability": "nonpayable",
      "type": "function"
    },
    {
      "constant": false,
      "inputs": [],
      "name": "withdrawAll",
      "outputs": [
        {
          "internalType": "uint256",
          "name": "balance",
          "type": "uint256"
        }
      ],
      "payable": false,
      "stateMutability": "nonpayable",
      "type": "function"
    },
    {
      "constant": false,
      "inputs": [],
      "name": "harvest",
      "outputs": [],
      "payable": false,
      "stateMutability": "nonpayable",
      "type": "function"
    },
    {
      "constant": true,
      "inputs": [],
      "name": "balanceOfWant",
      "outputs": [
        {
          "internalType": "uint256",
          "name": "",
          "type": "uint256"
        }
      ],
      "payable": false,
      "stateMutability": "view",
      "type": "function"
    },
    {
      "constant": true,
      "inputs": [],
      "name": "balanceOfPool",
      "outputs": [
        {
          "internalType": "uint256",
          "name": "",
          "type": "uint256"
        }
      ],
      "payable": false,
      "stateMutability": "view",
      "type": "function"
    },
    {
      "constant": true,
      "inputs": [],
      "name": "balanceOf",
      "outputs": [
        {
          "internalType": "uint256",
          "name": "",
          "type": "uint256"
        }
      ],
      "payable": false,
      "stateMutability": "view",
      "type": "function"
    },
    {
      "constant": false,
      "inputs": [
        {
          "internalType": "address",
          "name": "_governance",
          "type": "address"
        }
      ],
      "name": "setGovernance",
      "outputs": [],
      "payable": false,
      "stateMutability": "nonpayable",
      "type": "function"
    },
    {
      "constant": false,
      "inputs": [
        {
          "internalType": "address",
          "name": "_controller",
          "type": "address"
        }
      ],
      "name": "setController",
      "outputs": [],
      "payable": false,
      "stateMutability": "nonpayable",
      "type": "function"
    }
  ],
  "bytecode": "0x60806040526103e86000556101f4600155603260025534801561002157600080fd5b506040516138203803806138208339818101604052602081101561004457600080fd5b810190808051906020019092919050505032600360006101000a81548173ffffffffffffffffffffffffffffffffffffffff021916908373ffffffffffffffffffffffffffffffffffffffff16021790555080600460006101000a81548173ffffffffffffffffffffffffffffffffffffffff021916908373ffffffffffffffffffffffffffffffffffffffff16021790555050613739806100e76000396000f3fe608060405234801561001057600080fd5b50600436106101e55760003560e01c80637fef901a1161010f578063c1a3d44c116100a2578063e9751f6b11610071578063e9751f6b14610777578063edc9af9514610795578063f4b9fa75146107df578063f77c479114610829576101e5565b8063c1a3d44c146106e7578063d0e30db014610705578063d1e61dcb1461070f578063d5c1ff7314610759576101e5565b806392eefe9b116100de57806392eefe9b14610603578063955383bd14610647578063ab033ea914610675578063ac1e5025146106b9576101e5565b80637fef901a1461058b578063853828b6146105a957806387788782146105c75780638bc7e8c4146105e5576101e5565b80634641257d1161018757806370897b231161015657806370897b23146104d75780637165485d14610505578063722713f71461054f5780637cc791131461056d576101e5565b80634641257d146103e157806351cff8d9146103eb5780635aa6e675146104435780636a4874a11461048d576101e5565b80631f1fcd51116101c35780631f1fcd51146102d55780632e1a7d4d1461031f578063366cd4f31461034d5780633fc8cef314610397576101e5565b806311588086146101ea57806316f0115b1461020857806317d7de7c14610252575b600080fd5b6101f2610873565b6040518082815260200191505060405180910390f35b610210610946565b604051808273ffffffffffffffffffffffffffffffffffffffff1673ffffffffffffffffffffffffffffffffffffffff16815260200191505060405180910390f35b61025a61095e565b6040518080602001828103825283818151815260200191508051906020019080838360005b8381101561029a57808201518184015260208101905061027f565b50505050905090810190601f1680156102c75780820380516001836020036101000a031916815260200191505b509250505060405180910390f35b6102dd61099b565b604051808273ffffffffffffffffffffffffffffffffffffffff1673ffffffffffffffffffffffffffffffffffffffff16815260200191505060405180910390f35b61034b6004803603602081101561033557600080fd5b81019080803590602001909291905050506109b3565b005b610355610e7b565b604051808273ffffffffffffffffffffffffffffffffffffffff1673ffffffffffffffffffffffffffffffffffffffff16815260200191505060405180910390f35b61039f610e93565b604051808273ffffffffffffffffffffffffffffffffffffffff1673ffffffffffffffffffffffffffffffffffffffff16815260200191505060405180910390f35b6103e9610eab565b005b61042d6004803603602081101561040157600080fd5b81019080803573ffffffffffffffffffffffffffffffffffffffff169060200190929190505050611b88565b6040518082815260200191505060405180910390f35b61044b612031565b604051808273ffffffffffffffffffffffffffffffffffffffff1673ffffffffffffffffffffffffffffffffffffffff16815260200191505060405180910390f35b610495612057565b604051808273ffffffffffffffffffffffffffffffffffffffff1673ffffffffffffffffffffffffffffffffffffffff16815260200191505060405180910390f35b610503600480360360208110156104ed57600080fd5b810190808035906020019092919050505061206f565b005b61050d61213c565b604051808273ffffffffffffffffffffffffffffffffffffffff1673ffffffffffffffffffffffffffffffffffffffff16815260200191505060405180910390f35b610557612154565b6040518082815260200191505060405180910390f35b61057561217c565b6040518082815260200191505060405180910390f35b610593612182565b6040518082815260200191505060405180910390f35b6105b1612188565b6040518082815260200191505060405180910390f35b6105cf6124fb565b6040518082815260200191505060405180910390f35b6105ed612501565b6040518082815260200191505060405180910390f35b6106456004803603602081101561061957600080fd5b81019080803573ffffffffffffffffffffffffffffffffffffffff169060200190929190505050612507565b005b6106736004803603602081101561065d57600080fd5b810190808035906020019092919050505061260e565b005b6106b76004803603602081101561068b57600080fd5b81019080803573ffffffffffffffffffffffffffffffffffffffff1690602001909291905050506126db565b005b6106e5600480360360208110156106cf57600080fd5b81019080803590602001909291905050506127e2565b005b6106ef6128af565b6040518082815260200191505060405180910390f35b61070d612982565b005b610717612b85565b604051808273ffffffffffffffffffffffffffffffffffffffff1673ffffffffffffffffffffffffffffffffffffffff16815260200191505060405180910390f35b610761612b9d565b6040518082815260200191505060405180910390f35b61077f612ba3565b6040518082815260200191505060405180910390f35b61079d612ba9565b604051808273ffffffffffffffffffffffffffffffffffffffff1673ffffffffffffffffffffffffffffffffffffffff16815260200191505060405180910390f35b6107e7612bc1565b604051808273ffffffffffffffffffffffffffffffffffffffff1673ffffffffffffffffffffffffffffffffffffffff16815260200191505060405180910390f35b610831612bd9565b604051808273ffffffffffffffffffffffffffffffffffffffff1673ffffffffffffffffffffffffffffffffffffffff16815260200191505060405180910390f35b600073fa712ee4788c042e2b7bb55e6cb8ec569c4530c173ffffffffffffffffffffffffffffffffffffffff166370a08231306040518263ffffffff1660e01b8152600401808273ffffffffffffffffffffffffffffffffffffffff1673ffffffffffffffffffffffffffffffffffffffff16815260200191505060206040518083038186803b15801561090657600080fd5b505afa15801561091a573d6000803e3d6000fd5b505050506040513d602081101561093057600080fd5b8101908080519060200190929190505050905090565b73fa712ee4788c042e2b7bb55e6cb8ec569c4530c181565b60606040518060400160405280601681526020017f5374726174656779437572766559435256566f74657200000000000000000000815250905090565b73df5e0e81dff6faf3a7e52ba697820c5e32d806a881565b600460009054906101000a900473ffffffffffffffffffffffffffffffffffffffff1673ffffffffffffffffffffffffffffffffffffffff163373ffffffffffffffffffffffffffffffffffffffff1614610a76576040517f08c379a000000000000000000000000000000000000000000000000000000000815260040180806020018281038252600b8152602001807f21636f6e74726f6c6c657200000000000000000000000000000000000000000081525060200191505060405180910390fd5b600073df5e0e81dff6faf3a7e52ba697820c5e32d806a873ffffffffffffffffffffffffffffffffffffffff166370a08231306040518263ffffffff1660e01b8152600401808273ffffffffffffffffffffffffffffffffffffffff1673ffffffffffffffffffffffffffffffffffffffff16815260200191505060206040518083038186803b158015610b0957600080fd5b505afa158015610b1d573d6000803e3d6000fd5b505050506040513d6020811015610b3357600080fd5b8101908080519060200190929190505050905081811015610b8157610b69610b648284612bff90919063ffffffff16565b612c49565b9150610b7e8183612cd290919063ffffffff16565b91505b6000610bac612710610b9e60025486612d5a90919063ffffffff16565b612de090919063ffffffff16565b9050610c8f600460009054906101000a900473ffffffffffffffffffffffffffffffffffffffff1673ffffffffffffffffffffffffffffffffffffffff16639ec5a8946040518163ffffffff1660e01b815260040160206040518083038186803b158015610c1957600080fd5b505afa158015610c2d573d6000803e3d6000fd5b505050506040513d6020811015610c4357600080fd5b81019080805190602001909291905050508273df5e0e81dff6faf3a7e52ba697820c5e32d806a873ffffffffffffffffffffffffffffffffffffffff16612e2a9092919063ffffffff16565b6000600460009054906101000a900473ffffffffffffffffffffffffffffffffffffffff1673ffffffffffffffffffffffffffffffffffffffff1663a622ee7c73df5e0e81dff6faf3a7e52ba697820c5e32d806a86040518263ffffffff1660e01b8152600401808273ffffffffffffffffffffffffffffffffffffffff1673ffffffffffffffffffffffffffffffffffffffff16815260200191505060206040518083038186803b158015610d4457600080fd5b505afa158015610d58573d6000803e3d6000fd5b505050506040513d6020811015610d6e57600080fd5b81019080805190602001909291905050509050600073ffffffffffffffffffffffffffffffffffffffff168173ffffffffffffffffffffffffffffffffffffffff161415610e24576040517f08c379a00000000000000000000000000000000000000000000000000000000081526004018080602001828103825260068152602001807f217661756c74000000000000000000000000000000000000000000000000000081525060200191505060405180910390fd5b610e7581610e3b8487612bff90919063ffffffff16565b73df5e0e81dff6faf3a7e52ba697820c5e32d806a873ffffffffffffffffffffffffffffffffffffffff16612e2a9092919063ffffffff16565b50505050565b7316de59092dae5ccf4a1e6439d611fd0653f0bd0181565b73c02aaa39b223fe8d0a0e5c4f27ead9083c756cc281565b600360009054906101000a900473ffffffffffffffffffffffffffffffffffffffff1673ffffffffffffffffffffffffffffffffffffffff163373ffffffffffffffffffffffffffffffffffffffff1614610f6e576040517f08c379a000000000000000000000000000000000000000000000000000000000815260040180806020018281038252600b8152602001807f21617574686f72697a656400000000000000000000000000000000000000000081525060200191505060405180910390fd5b73d061d61a4d941c39e5453435b6345dc261c2fce073ffffffffffffffffffffffffffffffffffffffff16636a62784273fa712ee4788c042e2b7bb55e6cb8ec569c4530c16040518263ffffffff1660e01b8152600401808273ffffffffffffffffffffffffffffffffffffffff1673ffffffffffffffffffffffffffffffffffffffff168152602001915050600060405180830381600087803b15801561101557600080fd5b505af1158015611029573d6000803e3d6000fd5b50505050600073d533a949740bb3306d119cc777fa900ba034cd5273ffffffffffffffffffffffffffffffffffffffff166370a08231306040518263ffffffff1660e01b8152600401808273ffffffffffffffffffffffffffffffffffffffff1673ffffffffffffffffffffffffffffffffffffffff16815260200191505060206040518083038186803b1580156110c057600080fd5b505afa1580156110d4573d6000803e3d6000fd5b505050506040513d60208110156110ea57600080fd5b81019080805190602001909291905050509050600081111561153d57600061113161271061112360005485612d5a90919063ffffffff16565b612de090919063ffffffff16565b9050611214600460009054906101000a900473ffffffffffffffffffffffffffffffffffffffff1673ffffffffffffffffffffffffffffffffffffffff16639ec5a8946040518163ffffffff1660e01b815260040160206040518083038186803b15801561119e57600080fd5b505afa1580156111b2573d6000803e3d6000fd5b505050506040513d60208110156111c857600080fd5b81019080805190602001909291905050508273d533a949740bb3306d119cc777fa900ba034cd5273ffffffffffffffffffffffffffffffffffffffff16612e2a9092919063ffffffff16565b6112278183612bff90919063ffffffff16565b915061127d737a250d5630b4cf539739df2c5dacb4c659f2488d600073d533a949740bb3306d119cc777fa900ba034cd5273ffffffffffffffffffffffffffffffffffffffff16612efb9092919063ffffffff16565b6112d0737a250d5630b4cf539739df2c5dacb4c659f2488d8373d533a949740bb3306d119cc777fa900ba034cd5273ffffffffffffffffffffffffffffffffffffffff16612efb9092919063ffffffff16565b606060036040519080825280602002602001820160405280156113025781602001602082028038833980820191505090505b50905073d533a949740bb3306d119cc777fa900ba034cd528160008151811061132757fe5b602002602001019073ffffffffffffffffffffffffffffffffffffffff16908173ffffffffffffffffffffffffffffffffffffffff168152505073c02aaa39b223fe8d0a0e5c4f27ead9083c756cc28160018151811061138357fe5b602002602001019073ffffffffffffffffffffffffffffffffffffffff16908173ffffffffffffffffffffffffffffffffffffffff1681525050736b175474e89094c44da98b954eedeac495271d0f816002815181106113df57fe5b602002602001019073ffffffffffffffffffffffffffffffffffffffff16908173ffffffffffffffffffffffffffffffffffffffff1681525050737a250d5630b4cf539739df2c5dacb4c659f2488d73ffffffffffffffffffffffffffffffffffffffff166338ed1739846000843061146361070842612cd290919063ffffffff16565b6040518663ffffffff1660e01b815260040180868152602001858152602001806020018473ffffffffffffffffffffffffffffffffffffffff1673ffffffffffffffffffffffffffffffffffffffff168152602001838152602001828103825285818151815260200191508051906020019060200280838360005b838110156114f95780820151818401526020810190506114de565b505050509050019650505050505050600060405180830381600087803b15801561152257600080fd5b505af1158015611536573d6000803e3d6000fd5b5050505050505b6000736b175474e89094c44da98b954eedeac495271d0f73ffffffffffffffffffffffffffffffffffffffff166370a08231306040518263ffffffff1660e01b8152600401808273ffffffffffffffffffffffffffffffffffffffff1673ffffffffffffffffffffffffffffffffffffffff16815260200191505060206040518083038186803b1580156115d057600080fd5b505afa1580156115e4573d6000803e3d6000fd5b505050506040513d60208110156115fa57600080fd5b81019080805190602001909291905050509050600081111561173d5761166a7316de59092dae5ccf4a1e6439d611fd0653f0bd016000736b175474e89094c44da98b954eedeac495271d0f73ffffffffffffffffffffffffffffffffffffffff16612efb9092919063ffffffff16565b6116bd7316de59092dae5ccf4a1e6439d611fd0653f0bd0182736b175474e89094c44da98b954eedeac495271d0f73ffffffffffffffffffffffffffffffffffffffff16612efb9092919063ffffffff16565b7316de59092dae5ccf4a1e6439d611fd0653f0bd0173ffffffffffffffffffffffffffffffffffffffff1663b6b55f25826040518263ffffffff1660e01b815260040180828152602001915050600060405180830381600087803b15801561172457600080fd5b505af1158015611738573d6000803e3d6000fd5b505050505b60007316de59092dae5ccf4a1e6439d611fd0653f0bd0173ffffffffffffffffffffffffffffffffffffffff166370a08231306040518263ffffffff1660e01b8152600401808273ffffffffffffffffffffffffffffffffffffffff1673ffffffffffffffffffffffffffffffffffffffff16815260200191505060206040518083038186803b1580156117d057600080fd5b505afa1580156117e4573d6000803e3d6000fd5b505050506040513d60208110156117fa57600080fd5b8101908080519060200190929190505050905060008111156119915761186a7345f783cce6b7ff23b2ab2d70e416cdb7d6055f5160007316de59092dae5ccf4a1e6439d611fd0653f0bd0173ffffffffffffffffffffffffffffffffffffffff16612efb9092919063ffffffff16565b6118bd7345f783cce6b7ff23b2ab2d70e416cdb7d6055f51827316de59092dae5ccf4a1e6439d611fd0653f0bd0173ffffffffffffffffffffffffffffffffffffffff16612efb9092919063ffffffff16565b7345f783cce6b7ff23b2ab2d70e416cdb7d6055f5173ffffffffffffffffffffffffffffffffffffffff1663029b2f3460405180608001604052808481526020016000815260200160008152602001600081525060006040518363ffffffff1660e01b81526004018083600460200280838360005b8381101561194d578082015181840152602081019050611932565b5050505090500182815260200192505050600060405180830381600087803b15801561197857600080fd5b505af115801561198c573d6000803e3d6000fd5b505050505b600073df5e0e81dff6faf3a7e52ba697820c5e32d806a873ffffffffffffffffffffffffffffffffffffffff166370a08231306040518263ffffffff1660e01b8152600401808273ffffffffffffffffffffffffffffffffffffffff1673ffffffffffffffffffffffffffffffffffffffff16815260200191505060206040518083038186803b158015611a2457600080fd5b505afa158015611a38573d6000803e3d6000fd5b505050506040513d6020811015611a4e57600080fd5b810190808051906020019092919050505090506000811115611b82576000611a95612710611a8760015485612d5a90919063ffffffff16565b612de090919063ffffffff16565b9050611b78600460009054906101000a900473ffffffffffffffffffffffffffffffffffffffff1673ffffffffffffffffffffffffffffffffffffffff16639ec5a8946040518163ffffffff1660e01b815260040160206040518083038186803b158015611b0257600080fd5b505afa158015611b16573d6000803e3d6000fd5b505050506040513d6020811015611b2c57600080fd5b81019080805190602001909291905050508273df5e0e81dff6faf3a7e52ba697820c5e32d806a873ffffffffffffffffffffffffffffffffffffffff16612e2a9092919063ffffffff16565b611b80612982565b505b50505050565b6000600460009054906101000a900473ffffffffffffffffffffffffffffffffffffffff1673ffffffffffffffffffffffffffffffffffffffff163373ffffffffffffffffffffffffffffffffffffffff1614611c4d576040517f08c379a000000000000000000000000000000000000000000000000000000000815260040180806020018281038252600b8152602001807f21636f6e74726f6c6c657200000000000000000000000000000000000000000081525060200191505060405180910390fd5b8173ffffffffffffffffffffffffffffffffffffffff1673df5e0e81dff6faf3a7e52ba697820c5e32d806a873ffffffffffffffffffffffffffffffffffffffff161415611d03576040517f08c379a00000000000000000000000000000000000000000000000000000000081526004018080602001828103825260048152602001807f77616e740000000000000000000000000000000000000000000000000000000081525060200191505060405180910390fd5b8173ffffffffffffffffffffffffffffffffffffffff1673d533a949740bb3306d119cc777fa900ba034cd5273ffffffffffffffffffffffffffffffffffffffff161415611db9576040517f08c379a00000000000000000000000000000000000000000000000000000000081526004018080602001828103825260038152602001807f637276000000000000000000000000000000000000000000000000000000000081525060200191505060405180910390fd5b8173ffffffffffffffffffffffffffffffffffffffff167316de59092dae5ccf4a1e6439d611fd0653f0bd0173ffffffffffffffffffffffffffffffffffffffff161415611e6f576040517f08c379a00000000000000000000000000000000000000000000000000000000081526004018080602001828103825260048152602001807f796461690000000000000000000000000000000000000000000000000000000081525060200191505060405180910390fd5b8173ffffffffffffffffffffffffffffffffffffffff16736b175474e89094c44da98b954eedeac495271d0f73ffffffffffffffffffffffffffffffffffffffff161415611f25576040517f08c379a00000000000000000000000000000000000000000000000000000000081526004018080602001828103825260038152602001807f646169000000000000000000000000000000000000000000000000000000000081525060200191505060405180910390fd5b8173ffffffffffffffffffffffffffffffffffffffff166370a08231306040518263ffffffff1660e01b8152600401808273ffffffffffffffffffffffffffffffffffffffff1673ffffffffffffffffffffffffffffffffffffffff16815260200191505060206040518083038186803b158015611fa257600080fd5b505afa158015611fb6573d6000803e3d6000fd5b505050506040513d6020811015611fcc57600080fd5b8101908080519060200190929190505050905061202c600460009054906101000a900473ffffffffffffffffffffffffffffffffffffffff16828473ffffffffffffffffffffffffffffffffffffffff16612e2a9092919063ffffffff16565b919050565b600360009054906101000a900473ffffffffffffffffffffffffffffffffffffffff1681565b73d533a949740bb3306d119cc777fa900ba034cd5281565b600360009054906101000a900473ffffffffffffffffffffffffffffffffffffffff1673ffffffffffffffffffffffffffffffffffffffff163373ffffffffffffffffffffffffffffffffffffffff1614612132576040517f08c379a000000000000000000000000000000000000000000000000000000000815260040180806020018281038252600b8152602001807f21676f7665726e616e636500000000000000000000000000000000000000000081525060200191505060405180910390fd5b8060018190555050565b7345f783cce6b7ff23b2ab2d70e416cdb7d6055f5181565b6000612177612161610873565b6121696128af565b612cd290919063ffffffff16565b905090565b61271081565b60005481565b6000600460009054906101000a900473ffffffffffffffffffffffffffffffffffffffff1673ffffffffffffffffffffffffffffffffffffffff163373ffffffffffffffffffffffffffffffffffffffff161461224d576040517f08c379a000000000000000000000000000000000000000000000000000000000815260040180806020018281038252600b8152602001807f21636f6e74726f6c6c657200000000000000000000000000000000000000000081525060200191505060405180910390fd5b61225561311b565b73df5e0e81dff6faf3a7e52ba697820c5e32d806a873ffffffffffffffffffffffffffffffffffffffff166370a08231306040518263ffffffff1660e01b8152600401808273ffffffffffffffffffffffffffffffffffffffff1673ffffffffffffffffffffffffffffffffffffffff16815260200191505060206040518083038186803b1580156122e657600080fd5b505afa1580156122fa573d6000803e3d6000fd5b505050506040513d602081101561231057600080fd5b810190808051906020019092919050505090506000600460009054906101000a900473ffffffffffffffffffffffffffffffffffffffff1673ffffffffffffffffffffffffffffffffffffffff1663a622ee7c73df5e0e81dff6faf3a7e52ba697820c5e32d806a86040518263ffffffff1660e01b8152600401808273ffffffffffffffffffffffffffffffffffffffff1673ffffffffffffffffffffffffffffffffffffffff16815260200191505060206040518083038186803b1580156123d857600080fd5b505afa1580156123ec573d6000803e3d6000fd5b505050506040513d602081101561240257600080fd5b81019080805190602001909291905050509050600073ffffffffffffffffffffffffffffffffffffffff168173ffffffffffffffffffffffffffffffffffffffff1614156124b8576040517f08c379a00000000000000000000000000000000000000000000000000000000081526004018080602001828103825260068152602001807f217661756c74000000000000000000000000000000000000000000000000000081525060200191505060405180910390fd5b6124f7818373df5e0e81dff6faf3a7e52ba697820c5e32d806a873ffffffffffffffffffffffffffffffffffffffff16612e2a9092919063ffffffff16565b5090565b60015481565b60025481565b600360009054906101000a900473ffffffffffffffffffffffffffffffffffffffff1673ffffffffffffffffffffffffffffffffffffffff163373ffffffffffffffffffffffffffffffffffffffff16146125ca576040517f08c379a000000000000000000000000000000000000000000000000000000000815260040180806020018281038252600b8152602001807f21676f7665726e616e636500000000000000000000000000000000000000000081525060200191505060405180910390fd5b80600460006101000a81548173ffffffffffffffffffffffffffffffffffffffff021916908373ffffffffffffffffffffffffffffffffffffffff16021790555050565b600360009054906101000a900473ffffffffffffffffffffffffffffffffffffffff1673ffffffffffffffffffffffffffffffffffffffff163373ffffffffffffffffffffffffffffffffffffffff16146126d1576040517f08c379a000000000000000000000000000000000000000000000000000000000815260040180806020018281038252600b8152602001807f21676f7665726e616e636500000000000000000000000000000000000000000081525060200191505060405180910390fd5b8060008190555050565b600360009054906101000a900473ffffffffffffffffffffffffffffffffffffffff1673ffffffffffffffffffffffffffffffffffffffff163373ffffffffffffffffffffffffffffffffffffffff161461279e576040517f08c379a000000000000000000000000000000000000000000000000000000000815260040180806020018281038252600b8152602001807f21676f7665726e616e636500000000000000000000000000000000000000000081525060200191505060405180910390fd5b80600360006101000a81548173ffffffffffffffffffffffffffffffffffffffff021916908373ffffffffffffffffffffffffffffffffffffffff16021790555050565b600360009054906101000a900473ffffffffffffffffffffffffffffffffffffffff1673ffffffffffffffffffffffffffffffffffffffff163373ffffffffffffffffffffffffffffffffffffffff16146128a5576040517f08c379a000000000000000000000000000000000000000000000000000000000815260040180806020018281038252600b8152602001807f21676f7665726e616e636500000000000000000000000000000000000000000081525060200191505060405180910390fd5b8060028190555050565b600073df5e0e81dff6faf3a7e52ba697820c5e32d806a873ffffffffffffffffffffffffffffffffffffffff166370a08231306040518263ffffffff1660e01b8152600401808273ffffffffffffffffffffffffffffffffffffffff1673ffffffffffffffffffffffffffffffffffffffff16815260200191505060206040518083038186803b15801561294257600080fd5b505afa158015612956573d6000803e3d6000fd5b505050506040513d602081101561296c57600080fd5b8101908080519060200190929190505050905090565b600073df5e0e81dff6faf3a7e52ba697820c5e32d806a873ffffffffffffffffffffffffffffffffffffffff166370a08231306040518263ffffffff1660e01b8152600401808273ffffffffffffffffffffffffffffffffffffffff1673ffffffffffffffffffffffffffffffffffffffff16815260200191505060206040518083038186803b158015612a1557600080fd5b505afa158015612a29573d6000803e3d6000fd5b505050506040513d6020811015612a3f57600080fd5b810190808051906020019092919050505090506000811115612b8257612aaf73fa712ee4788c042e2b7bb55e6cb8ec569c4530c1600073df5e0e81dff6faf3a7e52ba697820c5e32d806a873ffffffffffffffffffffffffffffffffffffffff16612efb9092919063ffffffff16565b612b0273fa712ee4788c042e2b7bb55e6cb8ec569c4530c18273df5e0e81dff6faf3a7e52ba697820c5e32d806a873ffffffffffffffffffffffffffffffffffffffff16612efb9092919063ffffffff16565b73fa712ee4788c042e2b7bb55e6cb8ec569c4530c173ffffffffffffffffffffffffffffffffffffffff1663b6b55f25826040518263ffffffff1660e01b815260040180828152602001915050600060405180830381600087803b158015612b6957600080fd5b505af1158015612b7d573d6000803e3d6000fd5b505050505b50565b73d061d61a4d941c39e5453435b6345dc261c2fce081565b61271081565b61271081565b737a250d5630b4cf539739df2c5dacb4c659f2488d81565b736b175474e89094c44da98b954eedeac495271d0f81565b600460009054906101000a900473ffffffffffffffffffffffffffffffffffffffff1681565b6000612c4183836040518060400160405280601e81526020017f536166654d6174683a207375627472616374696f6e206f766572666c6f770000815250613267565b905092915050565b600073fa712ee4788c042e2b7bb55e6cb8ec569c4530c173ffffffffffffffffffffffffffffffffffffffff16632e1a7d4d836040518263ffffffff1660e01b815260040180828152602001915050600060405180830381600087803b158015612cb257600080fd5b505af1158015612cc6573d6000803e3d6000fd5b50505050819050919050565b600080828401905083811015612d50576040517f08c379a000000000000000000000000000000000000000000000000000000000815260040180806020018281038252601b8152602001807f536166654d6174683a206164646974696f6e206f766572666c6f77000000000081525060200191505060405180910390fd5b8091505092915050565b600080831415612d6d5760009050612dda565b6000828402905082848281612d7e57fe5b0414612dd5576040517f08c379a00000000000000000000000000000000000000000000000000000000081526004018080602001828103825260218152602001806136846021913960400191505060405180910390fd5b809150505b92915050565b6000612e2283836040518060400160405280601a81526020017f536166654d6174683a206469766973696f6e206279207a65726f000000000000815250613327565b905092915050565b612ef6838473ffffffffffffffffffffffffffffffffffffffff1663a9059cbb905060e01b8484604051602401808373ffffffffffffffffffffffffffffffffffffffff1673ffffffffffffffffffffffffffffffffffffffff16815260200182815260200192505050604051602081830303815290604052907bffffffffffffffffffffffffffffffffffffffffffffffffffffffff19166020820180517bffffffffffffffffffffffffffffffffffffffffffffffffffffffff83818316178352505050506133ed565b505050565b6000811480612ff5575060008373ffffffffffffffffffffffffffffffffffffffff1663dd62ed3e30856040518363ffffffff1660e01b8152600401808373ffffffffffffffffffffffffffffffffffffffff1673ffffffffffffffffffffffffffffffffffffffff1681526020018273ffffffffffffffffffffffffffffffffffffffff1673ffffffffffffffffffffffffffffffffffffffff1681526020019250505060206040518083038186803b158015612fb857600080fd5b505afa158015612fcc573d6000803e3d6000fd5b505050506040513d6020811015612fe257600080fd5b8101908080519060200190929190505050145b61304a576040517f08c379a00000000000000000000000000000000000000000000000000000000081526004018080602001828103825260368152602001806136cf6036913960400191505060405180910390fd5b613116838473ffffffffffffffffffffffffffffffffffffffff1663095ea7b3905060e01b8484604051602401808373ffffffffffffffffffffffffffffffffffffffff1673ffffffffffffffffffffffffffffffffffffffff16815260200182815260200192505050604051602081830303815290604052907bffffffffffffffffffffffffffffffffffffffffffffffffffffffff19166020820180517bffffffffffffffffffffffffffffffffffffffffffffffffffffffff83818316178352505050506133ed565b505050565b73fa712ee4788c042e2b7bb55e6cb8ec569c4530c173ffffffffffffffffffffffffffffffffffffffff16632e1a7d4d73fa712ee4788c042e2b7bb55e6cb8ec569c4530c173ffffffffffffffffffffffffffffffffffffffff166370a08231306040518263ffffffff1660e01b8152600401808273ffffffffffffffffffffffffffffffffffffffff1673ffffffffffffffffffffffffffffffffffffffff16815260200191505060206040518083038186803b1580156131dc57600080fd5b505afa1580156131f0573d6000803e3d6000fd5b505050506040513d602081101561320657600080fd5b81019080805190602001909291905050506040518263ffffffff1660e01b815260040180828152602001915050600060405180830381600087803b15801561324d57600080fd5b505af1158015613261573d6000803e3d6000fd5b50505050565b6000838311158290613314576040517f08c379a00000000000000000000000000000000000000000000000000000000081526004018080602001828103825283818151815260200191508051906020019080838360005b838110156132d95780820151818401526020810190506132be565b50505050905090810190601f1680156133065780820380516001836020036101000a031916815260200191505b509250505060405180910390fd5b5060008385039050809150509392505050565b600080831182906133d3576040517f08c379a00000000000000000000000000000000000000000000000000000000081526004018080602001828103825283818151815260200191508051906020019080838360005b8381101561339857808201518184015260208101905061337d565b50505050905090810190601f1680156133c55780820380516001836020036101000a031916815260200191505b509250505060405180910390fd5b5060008385816133df57fe5b049050809150509392505050565b61340c8273ffffffffffffffffffffffffffffffffffffffff16613638565b61347e576040517f08c379a000000000000000000000000000000000000000000000000000000000815260040180806020018281038252601f8152602001807f5361666545524332303a2063616c6c20746f206e6f6e2d636f6e74726163740081525060200191505060405180910390fd5b600060608373ffffffffffffffffffffffffffffffffffffffff16836040518082805190602001908083835b602083106134cd57805182526020820191506020810190506020830392506134aa565b6001836020036101000a0380198251168184511680821785525050505050509050019150506000604051808303816000865af19150503d806000811461352f576040519150601f19603f3d011682016040523d82523d6000602084013e613534565b606091505b5091509150816135ac576040517f08c379a00000000000000000000000000000000000000000000000000000000081526004018080602001828103825260208152602001807f5361666545524332303a206c6f772d6c6576656c2063616c6c206661696c656481525060200191505060405180910390fd5b600081511115613632578080602001905160208110156135cb57600080fd5b8101908080519060200190929190505050613631576040517f08c379a000000000000000000000000000000000000000000000000000000000815260040180806020018281038252602a8152602001806136a5602a913960400191505060405180910390fd5b5b50505050565b60008060007fc5d2460186f7233c927e7db2dcc703c0e500b653ca82273b7bfad8045d85a47060001b9050833f915080821415801561367a57506000801b8214155b9250505091905056fe536166654d6174683a206d756c7469706c69636174696f6e206f766572666c6f775361666545524332303a204552433230206f7065726174696f6e20646964206e6f7420737563636565645361666545524332303a20617070726f76652066726f6d206e6f6e2d7a65726f20746f206e6f6e2d7a65726f20616c6c6f77616e6365a265627a7a723158202047dfa85c9e7be4dd51ec5b75bb2108c94c6246e239629efde806d28e6185cc64736f6c63430005100032",
  "source": "// SPDX-License-Identifier: MIT\npragma solidity >=0.5.0;\n\nimport \"@openzeppelin/contracts/math/SafeMath.sol\";\nimport \"@openzeppelin/contracts/token/ERC20/SafeERC20.sol\";\nimport \"@openzeppelin/contracts/utils/Address.sol\";\n\n/*\n A strategy must implement the following calls;\n\n - deposit()\n - withdraw(address) must exclude any tokens used in the yield - Controller role - withdraw should return to Controller\n - withdraw(uint) - Controller | Vault role - withdraw should always return to vault\n - withdrawAll() - Controller | Vault role - withdraw should always return to vault\n - balanceOf()\n\n Where possible, strategies must remain as immutable as possible, instead of updating variables, we update the contract by linking it in the controller\n*/\n\ninterface SCYCRVVController {\n  function vaults(address) external view returns (address);\n  function rewards() external view returns (address);\n}\n\ninterface SCYCRVVGauge {\n  function deposit(uint) external;\n  function balanceOf(address) external view returns (uint);\n  function withdraw(uint) external;\n}\n\ninterface SCYCRVVMintr {\n  function mint(address) external;\n}\n\ninterface SCYCRVVUniswapRouter {\n  function swapExactTokensForTokens(uint, uint, address[] calldata, address, uint) external;\n}\n\ninterface ySCYCRVVERC20 {\n  function deposit(uint256 _amount) external;\n  function withdraw(uint256 _amount) external;\n}\n\ninterface ISCYCRVVCurveFi {\n  function get_virtual_price() external view returns (uint);\n  function add_liquidity(\n    uint256[4] calldata amounts,\n    uint256 min_mint_amount\n  ) external;\n  function remove_liquidity_imbalance(\n    uint256[4] calldata amounts,\n    uint256 max_burn_amount\n  ) external;\n  function remove_liquidity(\n    uint256 _amount,\n    uint256[4] calldata amounts\n  ) external;\n  function exchange(\n    int128 from,\n    int128 to,\n    uint256 _from_amount,\n    uint256 _min_to_amount\n  ) external;\n}\n\ncontract StrategyCurveYCRVVoter {\n  using Address for address;\n  using SafeERC20 for IERC20;\n  using SafeMath for uint256;\n\n  address constant public want = address(0xdF5e0e81Dff6FAF3A7e52BA697820c5e32D806A8);\n  address constant public pool = address(0xFA712EE4788C042e2B7BB55E6cb8ec569C4530c1);\n  address constant public mintr = address(0xd061D61a4d941c39E5453435B6345Dc261C2fcE0);\n  address constant public crv = address(0xD533a949740bb3306d119CC777fa900bA034cd52);\n  address constant public uni = address(0x7a250d5630B4cF539739dF2C5dAcb4c659F2488D);\n  address constant public weth = address(0xC02aaA39b223FE8D0A0e5C4F27eAD9083C756Cc2); // used for crv <> weth <> dai route\n\n  address constant public dai = address(0x6B175474E89094C44Da98b954EedeAC495271d0F);\n  address constant public ydai = address(0x16de59092dAE5CcF4A1E6439D611fd0653f0Bd01);\n  address constant public curve = address(0x45F783CCE6B7FF23B2ab2D70e416cdb7D6055f51);\n\n  uint public keepCRV = 1000;\n  uint constant public keepCRVMax = 10000;\n\n  uint public performanceFee = 500;\n  uint constant public performanceMax = 10000;\n\n  uint public withdrawalFee = 50;\n  uint constant public withdrawalMax = 10000;\n\n  address public governance;\n  address public controller;\n\n  constructor(address _controller) public {\n    governance = tx.origin;\n    controller = _controller;\n  }\n\n  function getName() external pure returns (string memory) {\n    return \"StrategyCurveYCRVVoter\";\n  }\n\n  function setKeepCRV(uint _keepCRV) external {\n    require(msg.sender == governance, \"!governance\");\n    keepCRV = _keepCRV;\n  }\n\n  function setWithdrawalFee(uint _withdrawalFee) external {\n    require(msg.sender == governance, \"!governance\");\n    withdrawalFee = _withdrawalFee;\n  }\n\n  function setPerformanceFee(uint _performanceFee) external {\n    require(msg.sender == governance, \"!governance\");\n    performanceFee = _performanceFee;\n  }\n\n  function deposit() public {\n    uint _want = IERC20(want).balanceOf(address(this));\n    if (_want > 0) {\n      IERC20(want).safeApprove(pool, 0);\n      IERC20(want).safeApprove(pool, _want);\n      SCYCRVVGauge(pool).deposit(_want);\n    }\n  }\n\n  // Controller only function for creating additional rewards from dust\n  function withdraw(IERC20 _asset) external returns (uint balance) {\n    require(msg.sender == controller, \"!controller\");\n    require(want != address(_asset), \"want\");\n    require(crv != address(_asset), \"crv\");\n    require(ydai != address(_asset), \"ydai\");\n    require(dai != address(_asset), \"dai\");\n    balance = _asset.balanceOf(address(this));\n    _asset.safeTransfer(controller, balance);\n  }\n\n  // Withdraw partial funds, normally used with a vault withdrawal\n  function withdraw(uint _amount) external {\n    require(msg.sender == controller, \"!controller\");\n    uint _balance = IERC20(want).balanceOf(address(this));\n    if (_balance < _amount) {\n      _amount = _withdrawSome(_amount.sub(_balance));\n      _amount = _amount.add(_balance);\n    }\n\n    uint _fee = _amount.mul(withdrawalFee).div(withdrawalMax);\n\n    IERC20(want).safeTransfer(SCYCRVVController(controller).rewards(), _fee);\n    address _vault = SCYCRVVController(controller).vaults(address(want));\n    require(_vault != address(0), \"!vault\"); // additional protection so we don't burn the funds\n\n    IERC20(want).safeTransfer(_vault, _amount.sub(_fee));\n  }\n\n  // Withdraw all funds, normally used when migrating strategies\n  function withdrawAll() external returns (uint balance) {\n    require(msg.sender == controller, \"!controller\");\n    _withdrawAll();\n\n    balance = IERC20(want).balanceOf(address(this));\n\n    address _vault = SCYCRVVController(controller).vaults(address(want));\n    require(_vault != address(0), \"!vault\"); // additional protection so we don't burn the funds\n    IERC20(want).safeTransfer(_vault, balance);\n  }\n\n  function _withdrawAll() internal {\n    SCYCRVVGauge(pool).withdraw(SCYCRVVGauge(pool).balanceOf(address(this)));\n  }\n\n  function harvest() public {\n    require(msg.sender == governance, \"!authorized\");\n    SCYCRVVMintr(mintr).mint(pool);\n    uint _crv = IERC20(crv).balanceOf(address(this));\n    if (_crv > 0) {\n      uint _keepCRV = _crv.mul(keepCRV).div(keepCRVMax);\n      IERC20(crv).safeTransfer(SCYCRVVController(controller).rewards(), _keepCRV);\n      _crv = _crv.sub(_keepCRV);\n\n      IERC20(crv).safeApprove(uni, 0);\n      IERC20(crv).safeApprove(uni, _crv);\n\n      address[] memory path = new address[](3);\n      path[0] = crv;\n      path[1] = weth;\n      path[2] = dai;\n\n      SCYCRVVUniswapRouter(uni).swapExactTokensForTokens(_crv, uint(0), path, address(this), now.add(1800));\n    }\n    uint _dai = IERC20(dai).balanceOf(address(this));\n    if (_dai > 0) {\n      IERC20(dai).safeApprove(ydai, 0);\n      IERC20(dai).safeApprove(ydai, _dai);\n      ySCYCRVVERC20(ydai).deposit(_dai);\n    }\n    uint _ydai = IERC20(ydai).balanceOf(address(this));\n    if (_ydai > 0) {\n      IERC20(ydai).safeApprove(curve, 0);\n      IERC20(ydai).safeApprove(curve, _ydai);\n      ISCYCRVVCurveFi(curve).add_liquidity([_ydai, 0, 0, 0], 0);\n    }\n    uint _want = IERC20(want).balanceOf(address(this));\n    if (_want > 0) {\n      uint _fee = _want.mul(performanceFee).div(performanceMax);\n      IERC20(want).safeTransfer(SCYCRVVController(controller).rewards(), _fee);\n      deposit();\n    }\n  }\n\n  function _withdrawSome(uint256 _amount) internal returns (uint) {\n    SCYCRVVGauge(pool).withdraw(_amount);\n    return _amount;\n  }\n\n  function balanceOfWant() public view returns (uint) {\n    return IERC20(want).balanceOf(address(this));\n  }\n\n  function balanceOfPool() public view returns (uint) {\n    return SCYCRVVGauge(pool).balanceOf(address(this));\n  }\n\n  function balanceOf() public view returns (uint) {\n    return balanceOfWant().add(balanceOfPool());\n  }\n\n  function setGovernance(address _governance) external {\n    require(msg.sender == governance, \"!governance\");\n    governance = _governance;\n  }\n\n  function setController(address _controller) external {\n    require(msg.sender == governance, \"!governance\");\n    controller = _controller;\n  }\n}\n",
  "sourcePath": "/Users/beex/dev/plouto-protocol/contracts/StrategyCurveYCRVVoter.sol",
  "compiler": {
    "name": "solc",
    "version": "0.5.16+commit.9c3226ce.Emscripten.clang"
  },
  "schemaVersion": "3.2.4",
  "updatedAt": "2020-09-09T03:38:16.720Z",
  "networkType": "ethereum",
  "devdoc": {
    "methods": {}
  },
  "userdoc": {
    "methods": {}
  }
}