{
  "contractName": "Vault",
  "abi": [
    {
      "inputs": [
        {
          "internalType": "address",
          "name": "_token",
          "type": "address"
        },
        {
          "internalType": "address",
          "name": "_controller",
          "type": "address"
        },
        {
          "internalType": "uint256",
          "name": "_earnThreshold",
          "type": "uint256"
        }
      ],
      "payable": false,
      "stateMutability": "nonpayable",
      "type": "constructor"
    },
    {
      "anonymous": false,
      "inputs": [
        {
          "indexed": true,
          "internalType": "address",
          "name": "owner",
          "type": "address"
        },
        {
          "indexed": true,
          "internalType": "address",
          "name": "spender",
          "type": "address"
        },
        {
          "indexed": false,
          "internalType": "uint256",
          "name": "value",
          "type": "uint256"
        }
      ],
      "name": "Approval",
      "type": "event"
    },
    {
      "anonymous": false,
      "inputs": [
        {
          "indexed": true,
          "internalType": "address",
          "name": "from",
          "type": "address"
        },
        {
          "indexed": true,
          "internalType": "address",
          "name": "to",
          "type": "address"
        },
        {
          "indexed": false,
          "internalType": "uint256",
          "name": "value",
          "type": "uint256"
        }
      ],
      "name": "Transfer",
      "type": "event"
    },
    {
      "constant": true,
      "inputs": [
        {
          "internalType": "address",
          "name": "owner",
          "type": "address"
        },
        {
          "internalType": "address",
          "name": "spender",
          "type": "address"
        }
      ],
      "name": "allowance",
      "outputs": [
        {
          "internalType": "uint256",
          "name": "",
          "type": "uint256"
        }
      ],
      "payable": false,
      "stateMutability": "view",
      "type": "function"
    },
    {
      "constant": false,
      "inputs": [
        {
          "internalType": "address",
          "name": "spender",
          "type": "address"
        },
        {
          "internalType": "uint256",
          "name": "amount",
          "type": "uint256"
        }
      ],
      "name": "approve",
      "outputs": [
        {
          "internalType": "bool",
          "name": "",
          "type": "bool"
        }
      ],
      "payable": false,
      "stateMutability": "nonpayable",
      "type": "function"
    },
    {
      "constant": true,
      "inputs": [
        {
          "internalType": "address",
          "name": "account",
          "type": "address"
        }
      ],
      "name": "balanceOf",
      "outputs": [
        {
          "internalType": "uint256",
          "name": "",
          "type": "uint256"
        }
      ],
      "payable": false,
      "stateMutability": "view",
      "type": "function"
    },
    {
      "constant": true,
      "inputs": [],
      "name": "controller",
      "outputs": [
        {
          "internalType": "address",
          "name": "",
          "type": "address"
        }
      ],
      "payable": false,
      "stateMutability": "view",
      "type": "function"
    },
    {
      "constant": true,
      "inputs": [],
      "name": "decimals",
      "outputs": [
        {
          "internalType": "uint8",
          "name": "",
          "type": "uint8"
        }
      ],
      "payable": false,
      "stateMutability": "view",
      "type": "function"
    },
    {
      "constant": false,
      "inputs": [
        {
          "internalType": "address",
          "name": "spender",
          "type": "address"
        },
        {
          "internalType": "uint256",
          "name": "subtractedValue",
          "type": "uint256"
        }
      ],
      "name": "decreaseAllowance",
      "outputs": [
        {
          "internalType": "bool",
          "name": "",
          "type": "bool"
        }
      ],
      "payable": false,
      "stateMutability": "nonpayable",
      "type": "function"
    },
    {
      "constant": true,
      "inputs": [],
      "name": "earnThreshold",
      "outputs": [
        {
          "internalType": "uint256",
          "name": "",
          "type": "uint256"
        }
      ],
      "payable": false,
      "stateMutability": "view",
      "type": "function"
    },
    {
      "constant": true,
      "inputs": [],
      "name": "governance",
      "outputs": [
        {
          "internalType": "address",
          "name": "",
          "type": "address"
        }
      ],
      "payable": false,
      "stateMutability": "view",
      "type": "function"
    },
    {
      "constant": false,
      "inputs": [
        {
          "internalType": "address",
          "name": "spender",
          "type": "address"
        },
        {
          "internalType": "uint256",
          "name": "addedValue",
          "type": "uint256"
        }
      ],
      "name": "increaseAllowance",
      "outputs": [
        {
          "internalType": "bool",
          "name": "",
          "type": "bool"
        }
      ],
      "payable": false,
      "stateMutability": "nonpayable",
      "type": "function"
    },
    {
      "constant": true,
      "inputs": [],
      "name": "max",
      "outputs": [
        {
          "internalType": "uint256",
          "name": "",
          "type": "uint256"
        }
      ],
      "payable": false,
      "stateMutability": "view",
      "type": "function"
    },
    {
      "constant": true,
      "inputs": [],
      "name": "min",
      "outputs": [
        {
          "internalType": "uint256",
          "name": "",
          "type": "uint256"
        }
      ],
      "payable": false,
      "stateMutability": "view",
      "type": "function"
    },
    {
      "constant": true,
      "inputs": [],
      "name": "name",
      "outputs": [
        {
          "internalType": "string",
          "name": "",
          "type": "string"
        }
      ],
      "payable": false,
      "stateMutability": "view",
      "type": "function"
    },
    {
      "constant": true,
      "inputs": [],
      "name": "symbol",
      "outputs": [
        {
          "internalType": "string",
          "name": "",
          "type": "string"
        }
      ],
      "payable": false,
      "stateMutability": "view",
      "type": "function"
    },
    {
      "constant": true,
      "inputs": [],
      "name": "token",
      "outputs": [
        {
          "internalType": "contract IERC20",
          "name": "",
          "type": "address"
        }
      ],
      "payable": false,
      "stateMutability": "view",
      "type": "function"
    },
    {
      "constant": true,
      "inputs": [],
      "name": "totalSupply",
      "outputs": [
        {
          "internalType": "uint256",
          "name": "",
          "type": "uint256"
        }
      ],
      "payable": false,
      "stateMutability": "view",
      "type": "function"
    },
    {
      "constant": false,
      "inputs": [
        {
          "internalType": "address",
          "name": "recipient",
          "type": "address"
        },
        {
          "internalType": "uint256",
          "name": "amount",
          "type": "uint256"
        }
      ],
      "name": "transfer",
      "outputs": [
        {
          "internalType": "bool",
          "name": "",
          "type": "bool"
        }
      ],
      "payable": false,
      "stateMutability": "nonpayable",
      "type": "function"
    },
    {
      "constant": false,
      "inputs": [
        {
          "internalType": "address",
          "name": "sender",
          "type": "address"
        },
        {
          "internalType": "address",
          "name": "recipient",
          "type": "address"
        },
        {
          "internalType": "uint256",
          "name": "amount",
          "type": "uint256"
        }
      ],
      "name": "transferFrom",
      "outputs": [
        {
          "internalType": "bool",
          "name": "",
          "type": "bool"
        }
      ],
      "payable": false,
      "stateMutability": "nonpayable",
      "type": "function"
    },
    {
      "constant": true,
      "inputs": [],
      "name": "balance",
      "outputs": [
        {
          "internalType": "uint256",
          "name": "",
          "type": "uint256"
        }
      ],
      "payable": false,
      "stateMutability": "view",
      "type": "function"
    },
    {
      "constant": false,
      "inputs": [
        {
          "internalType": "uint256",
          "name": "_min",
          "type": "uint256"
        }
      ],
      "name": "setMin",
      "outputs": [],
      "payable": false,
      "stateMutability": "nonpayable",
      "type": "function"
    },
    {
      "constant": false,
      "inputs": [
        {
          "internalType": "address",
          "name": "_governance",
          "type": "address"
        }
      ],
      "name": "setGovernance",
      "outputs": [],
      "payable": false,
      "stateMutability": "nonpayable",
      "type": "function"
    },
    {
      "constant": false,
      "inputs": [
        {
          "internalType": "address",
          "name": "_controller",
          "type": "address"
        }
      ],
      "name": "setController",
      "outputs": [],
      "payable": false,
      "stateMutability": "nonpayable",
      "type": "function"
    },
    {
      "constant": false,
      "inputs": [
        {
          "internalType": "uint256",
          "name": "_earnThreshold",
          "type": "uint256"
        }
      ],
      "name": "setEarnThreshold",
      "outputs": [],
      "payable": false,
      "stateMutability": "nonpayable",
      "type": "function"
    },
    {
      "constant": true,
      "inputs": [],
      "name": "available",
      "outputs": [
        {
          "internalType": "uint256",
          "name": "",
          "type": "uint256"
        }
      ],
      "payable": false,
      "stateMutability": "view",
      "type": "function"
    },
    {
      "constant": false,
      "inputs": [],
      "name": "earn",
      "outputs": [],
      "payable": false,
      "stateMutability": "nonpayable",
      "type": "function"
    },
    {
      "constant": false,
      "inputs": [],
      "name": "depositAll",
      "outputs": [],
      "payable": false,
      "stateMutability": "nonpayable",
      "type": "function"
    },
    {
      "constant": false,
      "inputs": [
        {
          "internalType": "uint256",
          "name": "_amount",
          "type": "uint256"
        }
      ],
      "name": "deposit",
      "outputs": [],
      "payable": false,
      "stateMutability": "nonpayable",
      "type": "function"
    },
    {
      "constant": false,
      "inputs": [],
      "name": "withdrawAll",
      "outputs": [],
      "payable": false,
      "stateMutability": "nonpayable",
      "type": "function"
    },
    {
      "constant": false,
      "inputs": [
        {
          "internalType": "uint256",
          "name": "_shares",
          "type": "uint256"
        }
      ],
      "name": "withdraw",
      "outputs": [],
      "payable": false,
      "stateMutability": "nonpayable",
      "type": "function"
    },
    {
      "constant": true,
      "inputs": [],
      "name": "getPricePerFullShare",
      "outputs": [
        {
          "internalType": "uint256",
          "name": "",
          "type": "uint256"
        }
      ],
      "payable": false,
      "stateMutability": "view",
      "type": "function"
    }
  ],
  "bytecode": "0x608060405261251c6006553480156200001757600080fd5b506040516200369438038062003694833981810160405260608110156200003d57600080fd5b810190808051906020019092919080519060200190929190805190602001909291905050508273ffffffffffffffffffffffffffffffffffffffff166306fdde036040518163ffffffff1660e01b815260040160006040518083038186803b158015620000a957600080fd5b505afa158015620000be573d6000803e3d6000fd5b505050506040513d6000823e3d601f19601f820116820180604052506020811015620000e957600080fd5b81019080805160405193929190846401000000008211156200010a57600080fd5b838201915060208201858111156200012157600080fd5b82518660018202830111640100000000821117156200013f57600080fd5b8083526020830192505050908051906020019080838360005b838110156200017557808201518184015260208101905062000158565b50505050905090810190601f168015620001a35780820380516001836020036101000a031916815260200191505b5060405250505060405160200180807f706c6f75746f200000000000000000000000000000000000000000000000000081525060070182805190602001908083835b602083106200020a5780518252602082019150602081019050602083039250620001e5565b6001836020036101000a0380198251168184511680821785525050505050509050019150506040516020818303038152906040528373ffffffffffffffffffffffffffffffffffffffff166395d89b416040518163ffffffff1660e01b815260040160006040518083038186803b1580156200028557600080fd5b505afa1580156200029a573d6000803e3d6000fd5b505050506040513d6000823e3d601f19601f820116820180604052506020811015620002c557600080fd5b8101908080516040519392919084640100000000821115620002e657600080fd5b83820191506020820185811115620002fd57600080fd5b82518660018202830111640100000000821117156200031b57600080fd5b8083526020830192505050908051906020019080838360005b838110156200035157808201518184015260208101905062000334565b50505050905090810190601f1680156200037f5780820380516001836020036101000a031916815260200191505b5060405250505060405160200180807f706c75000000000000000000000000000000000000000000000000000000000081525060030182805190602001908083835b60208310620003e65780518252602082019150602081019050602083039250620003c1565b6001836020036101000a0380198251168184511680821785525050505050509050019150506040516020818303038152906040528473ffffffffffffffffffffffffffffffffffffffff1663313ce5676040518163ffffffff1660e01b815260040160206040518083038186803b1580156200046157600080fd5b505afa15801562000476573d6000803e3d6000fd5b505050506040513d60208110156200048d57600080fd5b81019080805190602001909291905050508260039080519060200190620004b6929190620005cb565b508160049080519060200190620004cf929190620005cb565b5080600560006101000a81548160ff021916908360ff16021790555050505082600560016101000a81548173ffffffffffffffffffffffffffffffffffffffff021916908373ffffffffffffffffffffffffffffffffffffffff160217905550670de0b6b3a7640000810260078190555032600860006101000a81548173ffffffffffffffffffffffffffffffffffffffff021916908373ffffffffffffffffffffffffffffffffffffffff16021790555081600960006101000a81548173ffffffffffffffffffffffffffffffffffffffff021916908373ffffffffffffffffffffffffffffffffffffffff1602179055505050506200067a565b828054600181600116156101000203166002900490600052602060002090601f016020900481019282601f106200060e57805160ff19168380011785556200063f565b828001600101855582156200063f579182015b828111156200063e57825182559160200191906001019062000621565b5b5090506200064e919062000652565b5090565b6200067791905b808211156200067357600081600090555060010162000659565b5090565b90565b61300a806200068a6000396000f3fe608060405234801561001057600080fd5b50600436106101cf5760003560e01c806385fa0c3711610104578063b6b55f25116100a2578063e5bc12d411610071578063e5bc12d41461082a578063f77c479114610848578063f889794514610892578063fc0c546a146108b0576101cf565b8063b6b55f2514610770578063d389800f1461079e578063dd62ed3e146107a8578063de5f626814610820576101cf565b8063a457c2d7116100de578063a457c2d714610642578063a9059cbb146106a8578063ab033ea91461070e578063b69ef8a814610752576101cf565b806385fa0c371461054d57806392eefe9b1461057b57806395d89b41146105bf576101cf565b806345dc3dd8116101715780636ac5db191161014b5780636ac5db19146104af57806370a08231146104cd57806377c7b8fc14610525578063853828b614610543576101cf565b806345dc3dd81461041957806348a0d754146104475780635aa6e67514610465576101cf565b806323b872dd116101ad57806323b872dd146102db5780632e1a7d4d14610361578063313ce5671461038f57806339509351146103b3576101cf565b806306fdde03146101d4578063095ea7b31461025757806318160ddd146102bd575b600080fd5b6101dc6108fa565b6040518080602001828103825283818151815260200191508051906020019080838360005b8381101561021c578082015181840152602081019050610201565b50505050905090810190601f1680156102495780820380516001836020036101000a031916815260200191505b509250505060405180910390f35b6102a36004803603604081101561026d57600080fd5b81019080803573ffffffffffffffffffffffffffffffffffffffff1690602001909291908035906020019092919050505061099c565b604051808215151515815260200191505060405180910390f35b6102c56109ba565b6040518082815260200191505060405180910390f35b610347600480360360608110156102f157600080fd5b81019080803573ffffffffffffffffffffffffffffffffffffffff169060200190929190803573ffffffffffffffffffffffffffffffffffffffff169060200190929190803590602001909291905050506109c4565b604051808215151515815260200191505060405180910390f35b61038d6004803603602081101561037757600080fd5b8101908080359060200190929190505050610a9d565b005b610397610e27565b604051808260ff1660ff16815260200191505060405180910390f35b6103ff600480360360408110156103c957600080fd5b81019080803573ffffffffffffffffffffffffffffffffffffffff16906020019092919080359060200190929190505050610e3e565b604051808215151515815260200191505060405180910390f35b6104456004803603602081101561042f57600080fd5b8101908080359060200190929190505050610ef1565b005b61044f610fbe565b6040518082815260200191505060405180910390f35b61046d6110c7565b604051808273ffffffffffffffffffffffffffffffffffffffff1673ffffffffffffffffffffffffffffffffffffffff16815260200191505060405180910390f35b6104b76110ed565b6040518082815260200191505060405180910390f35b61050f600480360360208110156104e357600080fd5b81019080803573ffffffffffffffffffffffffffffffffffffffff1690602001909291905050506110f3565b6040518082815260200191505060405180910390f35b61052d61113b565b6040518082815260200191505060405180910390f35b61054b61117d565b005b6105796004803603602081101561056357600080fd5b8101908080359060200190929190505050611190565b005b6105bd6004803603602081101561059157600080fd5b81019080803573ffffffffffffffffffffffffffffffffffffffff169060200190929190505050611267565b005b6105c761136e565b6040518080602001828103825283818151815260200191508051906020019080838360005b838110156106075780820151818401526020810190506105ec565b50505050905090810190601f1680156106345780820380516001836020036101000a031916815260200191505b509250505060405180910390f35b61068e6004803603604081101561065857600080fd5b81019080803573ffffffffffffffffffffffffffffffffffffffff16906020019092919080359060200190929190505050611410565b604051808215151515815260200191505060405180910390f35b6106f4600480360360408110156106be57600080fd5b81019080803573ffffffffffffffffffffffffffffffffffffffff169060200190929190803590602001909291905050506114dd565b604051808215151515815260200191505060405180910390f35b6107506004803603602081101561072457600080fd5b81019080803573ffffffffffffffffffffffffffffffffffffffff1690602001909291905050506114fb565b005b61075a611602565b6040518082815260200191505060405180910390f35b61079c6004803603602081101561078657600080fd5b81019080803590602001909291905050506117f0565b005b6107a6611b65565b005b61080a600480360360408110156107be57600080fd5b81019080803573ffffffffffffffffffffffffffffffffffffffff169060200190929190803573ffffffffffffffffffffffffffffffffffffffff169060200190929190505050611cc6565b6040518082815260200191505060405180910390f35b610828611d4d565b005b610832611e31565b6040518082815260200191505060405180910390f35b610850611e37565b604051808273ffffffffffffffffffffffffffffffffffffffff1673ffffffffffffffffffffffffffffffffffffffff16815260200191505060405180910390f35b61089a611e5d565b6040518082815260200191505060405180910390f35b6108b8611e63565b604051808273ffffffffffffffffffffffffffffffffffffffff1673ffffffffffffffffffffffffffffffffffffffff16815260200191505060405180910390f35b606060038054600181600116156101000203166002900480601f0160208091040260200160405190810160405280929190818152602001828054600181600116156101000203166002900480156109925780601f1061096757610100808354040283529160200191610992565b820191906000526020600020905b81548152906001019060200180831161097557829003601f168201915b5050505050905090565b60006109b06109a9611e89565b8484611e91565b6001905092915050565b6000600254905090565b60006109d1848484612088565b610a92846109dd611e89565b610a8d85604051806060016040528060288152602001612ef560289139600160008b73ffffffffffffffffffffffffffffffffffffffff1673ffffffffffffffffffffffffffffffffffffffff1681526020019081526020016000206000610a43611e89565b73ffffffffffffffffffffffffffffffffffffffff1673ffffffffffffffffffffffffffffffffffffffff1681526020019081526020016000205461233e9092919063ffffffff16565b611e91565b600190509392505050565b6000610ad2610aaa6109ba565b610ac484610ab6611602565b6123fe90919063ffffffff16565b61248490919063ffffffff16565b9050610ade33836124ce565b6000600560019054906101000a900473ffffffffffffffffffffffffffffffffffffffff1673ffffffffffffffffffffffffffffffffffffffff166370a08231306040518263ffffffff1660e01b8152600401808273ffffffffffffffffffffffffffffffffffffffff1673ffffffffffffffffffffffffffffffffffffffff16815260200191505060206040518083038186803b158015610b7f57600080fd5b505afa158015610b93573d6000803e3d6000fd5b505050506040513d6020811015610ba957600080fd5b8101908080519060200190929190505050905081811015610dd5576000610bd9828461268690919063ffffffff16565b9050600960009054906101000a900473ffffffffffffffffffffffffffffffffffffffff1673ffffffffffffffffffffffffffffffffffffffff1663f3fef3a3600560019054906101000a900473ffffffffffffffffffffffffffffffffffffffff16836040518363ffffffff1660e01b8152600401808373ffffffffffffffffffffffffffffffffffffffff1673ffffffffffffffffffffffffffffffffffffffff16815260200182815260200192505050600060405180830381600087803b158015610ca657600080fd5b505af1158015610cba573d6000803e3d6000fd5b505050506000600560019054906101000a900473ffffffffffffffffffffffffffffffffffffffff1673ffffffffffffffffffffffffffffffffffffffff166370a08231306040518263ffffffff1660e01b8152600401808273ffffffffffffffffffffffffffffffffffffffff1673ffffffffffffffffffffffffffffffffffffffff16815260200191505060206040518083038186803b158015610d5f57600080fd5b505afa158015610d73573d6000803e3d6000fd5b505050506040513d6020811015610d8957600080fd5b810190808051906020019092919050505090506000610db1848361268690919063ffffffff16565b905082811015610dd157610dce81856126d090919063ffffffff16565b94505b5050505b610e223383600560019054906101000a900473ffffffffffffffffffffffffffffffffffffffff1673ffffffffffffffffffffffffffffffffffffffff166127589092919063ffffffff16565b505050565b6000600560009054906101000a900460ff16905090565b6000610ee7610e4b611e89565b84610ee28560016000610e5c611e89565b73ffffffffffffffffffffffffffffffffffffffff1673ffffffffffffffffffffffffffffffffffffffff16815260200190815260200160002060008973ffffffffffffffffffffffffffffffffffffffff1673ffffffffffffffffffffffffffffffffffffffff168152602001908152602001600020546126d090919063ffffffff16565b611e91565b6001905092915050565b600860009054906101000a900473ffffffffffffffffffffffffffffffffffffffff1673ffffffffffffffffffffffffffffffffffffffff163373ffffffffffffffffffffffffffffffffffffffff1614610fb4576040517f08c379a000000000000000000000000000000000000000000000000000000000815260040180806020018281038252600b8152602001807f21676f7665726e616e636500000000000000000000000000000000000000000081525060200191505060405180910390fd5b8060068190555050565b60006110c26127106110b4600654600560019054906101000a900473ffffffffffffffffffffffffffffffffffffffff1673ffffffffffffffffffffffffffffffffffffffff166370a08231306040518263ffffffff1660e01b8152600401808273ffffffffffffffffffffffffffffffffffffffff1673ffffffffffffffffffffffffffffffffffffffff16815260200191505060206040518083038186803b15801561106b57600080fd5b505afa15801561107f573d6000803e3d6000fd5b505050506040513d602081101561109557600080fd5b81019080805190602001909291905050506123fe90919063ffffffff16565b61248490919063ffffffff16565b905090565b600860009054906101000a900473ffffffffffffffffffffffffffffffffffffffff1681565b61271081565b60008060008373ffffffffffffffffffffffffffffffffffffffff1673ffffffffffffffffffffffffffffffffffffffff168152602001908152602001600020549050919050565b60006111786111486109ba565b61116a670de0b6b3a764000061115c611602565b6123fe90919063ffffffff16565b61248490919063ffffffff16565b905090565b61118e611189336110f3565b610a9d565b565b600860009054906101000a900473ffffffffffffffffffffffffffffffffffffffff1673ffffffffffffffffffffffffffffffffffffffff163373ffffffffffffffffffffffffffffffffffffffff1614611253576040517f08c379a000000000000000000000000000000000000000000000000000000000815260040180806020018281038252600b8152602001807f21676f7665726e616e636500000000000000000000000000000000000000000081525060200191505060405180910390fd5b670de0b6b3a7640000810260078190555050565b600860009054906101000a900473ffffffffffffffffffffffffffffffffffffffff1673ffffffffffffffffffffffffffffffffffffffff163373ffffffffffffffffffffffffffffffffffffffff161461132a576040517f08c379a000000000000000000000000000000000000000000000000000000000815260040180806020018281038252600b8152602001807f21676f7665726e616e636500000000000000000000000000000000000000000081525060200191505060405180910390fd5b80600960006101000a81548173ffffffffffffffffffffffffffffffffffffffff021916908373ffffffffffffffffffffffffffffffffffffffff16021790555050565b606060048054600181600116156101000203166002900480601f0160208091040260200160405190810160405280929190818152602001828054600181600116156101000203166002900480156114065780601f106113db57610100808354040283529160200191611406565b820191906000526020600020905b8154815290600101906020018083116113e957829003601f168201915b5050505050905090565b60006114d361141d611e89565b846114ce85604051806060016040528060258152602001612fb16025913960016000611447611e89565b73ffffffffffffffffffffffffffffffffffffffff1673ffffffffffffffffffffffffffffffffffffffff16815260200190815260200160002060008a73ffffffffffffffffffffffffffffffffffffffff1673ffffffffffffffffffffffffffffffffffffffff1681526020019081526020016000205461233e9092919063ffffffff16565b611e91565b6001905092915050565b60006114f16114ea611e89565b8484612088565b6001905092915050565b600860009054906101000a900473ffffffffffffffffffffffffffffffffffffffff1673ffffffffffffffffffffffffffffffffffffffff163373ffffffffffffffffffffffffffffffffffffffff16146115be576040517f08c379a000000000000000000000000000000000000000000000000000000000815260040180806020018281038252600b8152602001807f21676f7665726e616e636500000000000000000000000000000000000000000081525060200191505060405180910390fd5b80600860006101000a81548173ffffffffffffffffffffffffffffffffffffffff021916908373ffffffffffffffffffffffffffffffffffffffff16021790555050565b60006117eb600960009054906101000a900473ffffffffffffffffffffffffffffffffffffffff1673ffffffffffffffffffffffffffffffffffffffff166370a08231600560019054906101000a900473ffffffffffffffffffffffffffffffffffffffff166040518263ffffffff1660e01b8152600401808273ffffffffffffffffffffffffffffffffffffffff1673ffffffffffffffffffffffffffffffffffffffff16815260200191505060206040518083038186803b1580156116c857600080fd5b505afa1580156116dc573d6000803e3d6000fd5b505050506040513d60208110156116f257600080fd5b8101908080519060200190929190505050600560019054906101000a900473ffffffffffffffffffffffffffffffffffffffff1673ffffffffffffffffffffffffffffffffffffffff166370a08231306040518263ffffffff1660e01b8152600401808273ffffffffffffffffffffffffffffffffffffffff1673ffffffffffffffffffffffffffffffffffffffff16815260200191505060206040518083038186803b1580156117a257600080fd5b505afa1580156117b6573d6000803e3d6000fd5b505050506040513d60208110156117cc57600080fd5b81019080805190602001909291905050506126d090919063ffffffff16565b905090565b60006117fa611602565b90506000600560019054906101000a900473ffffffffffffffffffffffffffffffffffffffff1673ffffffffffffffffffffffffffffffffffffffff166370a08231306040518263ffffffff1660e01b8152600401808273ffffffffffffffffffffffffffffffffffffffff1673ffffffffffffffffffffffffffffffffffffffff16815260200191505060206040518083038186803b15801561189d57600080fd5b505afa1580156118b1573d6000803e3d6000fd5b505050506040513d60208110156118c757600080fd5b81019080805190602001909291905050509050611929333085600560019054906101000a900473ffffffffffffffffffffffffffffffffffffffff1673ffffffffffffffffffffffffffffffffffffffff16612829909392919063ffffffff16565b6000600560019054906101000a900473ffffffffffffffffffffffffffffffffffffffff1673ffffffffffffffffffffffffffffffffffffffff166370a08231306040518263ffffffff1660e01b8152600401808273ffffffffffffffffffffffffffffffffffffffff1673ffffffffffffffffffffffffffffffffffffffff16815260200191505060206040518083038186803b1580156119ca57600080fd5b505afa1580156119de573d6000803e3d6000fd5b505050506040513d60208110156119f457600080fd5b81019080805190602001909291905050509050611a1a828261268690919063ffffffff16565b935060008090506000611a2b6109ba565b1415611a3957849050611a68565b611a6584611a57611a486109ba565b886123fe90919063ffffffff16565b61248490919063ffffffff16565b90505b611a72338261292f565b600754600560019054906101000a900473ffffffffffffffffffffffffffffffffffffffff1673ffffffffffffffffffffffffffffffffffffffff166370a08231306040518263ffffffff1660e01b8152600401808273ffffffffffffffffffffffffffffffffffffffff1673ffffffffffffffffffffffffffffffffffffffff16815260200191505060206040518083038186803b158015611b1457600080fd5b505afa158015611b28573d6000803e3d6000fd5b505050506040513d6020811015611b3e57600080fd5b81019080805190602001909291905050501115611b5e57611b5d611b65565b5b5050505050565b6000611b6f610fbe565b9050611be0600960009054906101000a900473ffffffffffffffffffffffffffffffffffffffff1682600560019054906101000a900473ffffffffffffffffffffffffffffffffffffffff1673ffffffffffffffffffffffffffffffffffffffff166127589092919063ffffffff16565b600960009054906101000a900473ffffffffffffffffffffffffffffffffffffffff1673ffffffffffffffffffffffffffffffffffffffff1663b02bf4b9600560019054906101000a900473ffffffffffffffffffffffffffffffffffffffff16836040518363ffffffff1660e01b8152600401808373ffffffffffffffffffffffffffffffffffffffff1673ffffffffffffffffffffffffffffffffffffffff16815260200182815260200192505050600060405180830381600087803b158015611cab57600080fd5b505af1158015611cbf573d6000803e3d6000fd5b5050505050565b6000600160008473ffffffffffffffffffffffffffffffffffffffff1673ffffffffffffffffffffffffffffffffffffffff16815260200190815260200160002060008373ffffffffffffffffffffffffffffffffffffffff1673ffffffffffffffffffffffffffffffffffffffff16815260200190815260200160002054905092915050565b611e2f600560019054906101000a900473ffffffffffffffffffffffffffffffffffffffff1673ffffffffffffffffffffffffffffffffffffffff166370a08231336040518263ffffffff1660e01b8152600401808273ffffffffffffffffffffffffffffffffffffffff1673ffffffffffffffffffffffffffffffffffffffff16815260200191505060206040518083038186803b158015611def57600080fd5b505afa158015611e03573d6000803e3d6000fd5b505050506040513d6020811015611e1957600080fd5b81019080805190602001909291905050506117f0565b565b60075481565b600960009054906101000a900473ffffffffffffffffffffffffffffffffffffffff1681565b60065481565b600560019054906101000a900473ffffffffffffffffffffffffffffffffffffffff1681565b600033905090565b600073ffffffffffffffffffffffffffffffffffffffff168373ffffffffffffffffffffffffffffffffffffffff161415611f17576040517f08c379a0000000000000000000000000000000000000000000000000000000008152600401808060200182810382526024815260200180612f636024913960400191505060405180910390fd5b600073ffffffffffffffffffffffffffffffffffffffff168273ffffffffffffffffffffffffffffffffffffffff161415611f9d576040517f08c379a0000000000000000000000000000000000000000000000000000000008152600401808060200182810382526022815260200180612e8c6022913960400191505060405180910390fd5b80600160008573ffffffffffffffffffffffffffffffffffffffff1673ffffffffffffffffffffffffffffffffffffffff16815260200190815260200160002060008473ffffffffffffffffffffffffffffffffffffffff1673ffffffffffffffffffffffffffffffffffffffff168152602001908152602001600020819055508173ffffffffffffffffffffffffffffffffffffffff168373ffffffffffffffffffffffffffffffffffffffff167f8c5be1e5ebec7d5bd14f71427d1e84f3dd0314c0f7b2291e5b200ac8c7c3b925836040518082815260200191505060405180910390a3505050565b600073ffffffffffffffffffffffffffffffffffffffff168373ffffffffffffffffffffffffffffffffffffffff16141561210e576040517f08c379a0000000000000000000000000000000000000000000000000000000008152600401808060200182810382526025815260200180612f3e6025913960400191505060405180910390fd5b600073ffffffffffffffffffffffffffffffffffffffff168273ffffffffffffffffffffffffffffffffffffffff161415612194576040517f08c379a0000000000000000000000000000000000000000000000000000000008152600401808060200182810382526023815260200180612e476023913960400191505060405180910390fd5b6121ff81604051806060016040528060268152602001612eae602691396000808773ffffffffffffffffffffffffffffffffffffffff1673ffffffffffffffffffffffffffffffffffffffff1681526020019081526020016000205461233e9092919063ffffffff16565b6000808573ffffffffffffffffffffffffffffffffffffffff1673ffffffffffffffffffffffffffffffffffffffff16815260200190815260200160002081905550612292816000808573ffffffffffffffffffffffffffffffffffffffff1673ffffffffffffffffffffffffffffffffffffffff168152602001908152602001600020546126d090919063ffffffff16565b6000808473ffffffffffffffffffffffffffffffffffffffff1673ffffffffffffffffffffffffffffffffffffffff168152602001908152602001600020819055508173ffffffffffffffffffffffffffffffffffffffff168373ffffffffffffffffffffffffffffffffffffffff167fddf252ad1be2c89b69c2b068fc378daa952ba7f163c4a11628f55a4df523b3ef836040518082815260200191505060405180910390a3505050565b60008383111582906123eb576040517f08c379a00000000000000000000000000000000000000000000000000000000081526004018080602001828103825283818151815260200191508051906020019080838360005b838110156123b0578082015181840152602081019050612395565b50505050905090810190601f1680156123dd5780820380516001836020036101000a031916815260200191505b509250505060405180910390fd5b5060008385039050809150509392505050565b600080831415612411576000905061247e565b600082840290508284828161242257fe5b0414612479576040517f08c379a0000000000000000000000000000000000000000000000000000000008152600401808060200182810382526021815260200180612ed46021913960400191505060405180910390fd5b809150505b92915050565b60006124c683836040518060400160405280601a81526020017f536166654d6174683a206469766973696f6e206279207a65726f000000000000815250612aea565b905092915050565b600073ffffffffffffffffffffffffffffffffffffffff168273ffffffffffffffffffffffffffffffffffffffff161415612554576040517f08c379a0000000000000000000000000000000000000000000000000000000008152600401808060200182810382526021815260200180612f1d6021913960400191505060405180910390fd5b6125bf81604051806060016040528060228152602001612e6a602291396000808673ffffffffffffffffffffffffffffffffffffffff1673ffffffffffffffffffffffffffffffffffffffff1681526020019081526020016000205461233e9092919063ffffffff16565b6000808473ffffffffffffffffffffffffffffffffffffffff1673ffffffffffffffffffffffffffffffffffffffff168152602001908152602001600020819055506126168160025461268690919063ffffffff16565b600281905550600073ffffffffffffffffffffffffffffffffffffffff168273ffffffffffffffffffffffffffffffffffffffff167fddf252ad1be2c89b69c2b068fc378daa952ba7f163c4a11628f55a4df523b3ef836040518082815260200191505060405180910390a35050565b60006126c883836040518060400160405280601e81526020017f536166654d6174683a207375627472616374696f6e206f766572666c6f77000081525061233e565b905092915050565b60008082840190508381101561274e576040517f08c379a000000000000000000000000000000000000000000000000000000000815260040180806020018281038252601b8152602001807f536166654d6174683a206164646974696f6e206f766572666c6f77000000000081525060200191505060405180910390fd5b8091505092915050565b612824838473ffffffffffffffffffffffffffffffffffffffff1663a9059cbb905060e01b8484604051602401808373ffffffffffffffffffffffffffffffffffffffff1673ffffffffffffffffffffffffffffffffffffffff16815260200182815260200192505050604051602081830303815290604052907bffffffffffffffffffffffffffffffffffffffffffffffffffffffff19166020820180517bffffffffffffffffffffffffffffffffffffffffffffffffffffffff8381831617835250505050612bb0565b505050565b612929848573ffffffffffffffffffffffffffffffffffffffff166323b872dd905060e01b858585604051602401808473ffffffffffffffffffffffffffffffffffffffff1673ffffffffffffffffffffffffffffffffffffffff1681526020018373ffffffffffffffffffffffffffffffffffffffff1673ffffffffffffffffffffffffffffffffffffffff1681526020018281526020019350505050604051602081830303815290604052907bffffffffffffffffffffffffffffffffffffffffffffffffffffffff19166020820180517bffffffffffffffffffffffffffffffffffffffffffffffffffffffff8381831617835250505050612bb0565b50505050565b600073ffffffffffffffffffffffffffffffffffffffff168273ffffffffffffffffffffffffffffffffffffffff1614156129d2576040517f08c379a000000000000000000000000000000000000000000000000000000000815260040180806020018281038252601f8152602001807f45524332303a206d696e7420746f20746865207a65726f20616464726573730081525060200191505060405180910390fd5b6129e7816002546126d090919063ffffffff16565b600281905550612a3e816000808573ffffffffffffffffffffffffffffffffffffffff1673ffffffffffffffffffffffffffffffffffffffff168152602001908152602001600020546126d090919063ffffffff16565b6000808473ffffffffffffffffffffffffffffffffffffffff1673ffffffffffffffffffffffffffffffffffffffff168152602001908152602001600020819055508173ffffffffffffffffffffffffffffffffffffffff16600073ffffffffffffffffffffffffffffffffffffffff167fddf252ad1be2c89b69c2b068fc378daa952ba7f163c4a11628f55a4df523b3ef836040518082815260200191505060405180910390a35050565b60008083118290612b96576040517f08c379a00000000000000000000000000000000000000000000000000000000081526004018080602001828103825283818151815260200191508051906020019080838360005b83811015612b5b578082015181840152602081019050612b40565b50505050905090810190601f168015612b885780820380516001836020036101000a031916815260200191505b509250505060405180910390fd5b506000838581612ba257fe5b049050809150509392505050565b612bcf8273ffffffffffffffffffffffffffffffffffffffff16612dfb565b612c41576040517f08c379a000000000000000000000000000000000000000000000000000000000815260040180806020018281038252601f8152602001807f5361666545524332303a2063616c6c20746f206e6f6e2d636f6e74726163740081525060200191505060405180910390fd5b600060608373ffffffffffffffffffffffffffffffffffffffff16836040518082805190602001908083835b60208310612c905780518252602082019150602081019050602083039250612c6d565b6001836020036101000a0380198251168184511680821785525050505050509050019150506000604051808303816000865af19150503d8060008114612cf2576040519150601f19603f3d011682016040523d82523d6000602084013e612cf7565b606091505b509150915081612d6f576040517f08c379a00000000000000000000000000000000000000000000000000000000081526004018080602001828103825260208152602001807f5361666545524332303a206c6f772d6c6576656c2063616c6c206661696c656481525060200191505060405180910390fd5b600081511115612df557808060200190516020811015612d8e57600080fd5b8101908080519060200190929190505050612df4576040517f08c379a000000000000000000000000000000000000000000000000000000000815260040180806020018281038252602a815260200180612f87602a913960400191505060405180910390fd5b5b50505050565b60008060007fc5d2460186f7233c927e7db2dcc703c0e500b653ca82273b7bfad8045d85a47060001b9050833f9150808214158015612e3d57506000801b8214155b9250505091905056fe45524332303a207472616e7366657220746f20746865207a65726f206164647265737345524332303a206275726e20616d6f756e7420657863656564732062616c616e636545524332303a20617070726f766520746f20746865207a65726f206164647265737345524332303a207472616e7366657220616d6f756e7420657863656564732062616c616e6365536166654d6174683a206d756c7469706c69636174696f6e206f766572666c6f7745524332303a207472616e7366657220616d6f756e74206578636565647320616c6c6f77616e636545524332303a206275726e2066726f6d20746865207a65726f206164647265737345524332303a207472616e736665722066726f6d20746865207a65726f206164647265737345524332303a20617070726f76652066726f6d20746865207a65726f20616464726573735361666545524332303a204552433230206f7065726174696f6e20646964206e6f74207375636365656445524332303a2064656372656173656420616c6c6f77616e63652062656c6f77207a65726fa265627a7a723158203271df9dbd336b6fd01a3f3e000708d51c1349bc12307c9242d32b2635781dc564736f6c63430005100032",
  "source": "// SPDX-License-Identifier: MIT\npragma solidity >=0.5.0;\n\nimport \"@openzeppelin/contracts/math/SafeMath.sol\";\nimport \"@openzeppelin/contracts/token/ERC20/ERC20.sol\";\nimport \"@openzeppelin/contracts/token/ERC20/ERC20Detailed.sol\";\nimport \"@openzeppelin/contracts/token/ERC20/SafeERC20.sol\";\nimport \"@openzeppelin/contracts/utils/Address.sol\";\n\ninterface IController {\n  function withdraw(address, uint) external;\n  function balanceOf(address) external view returns (uint);\n  function earn(address, uint) external;\n}\n\ncontract Vault is ERC20, ERC20Detailed {\n  using Address for address;\n  using SafeERC20 for IERC20;\n  using SafeMath for uint256;\n\n  IERC20 public token;\n\n  uint public min = 9500;\n  uint public constant max = 10000;\n\n  uint public earnThreshold;\n\n  address public governance;\n  address public controller;\n\n  constructor (address _token, address _controller, uint _earnThreshold) public ERC20Detailed(\n    string(abi.encodePacked(\"plouto \", ERC20Detailed(_token).name())),\n    string(abi.encodePacked(\"plu\", ERC20Detailed(_token).symbol())),\n    ERC20Detailed(_token).decimals()\n  ) {\n    token = IERC20(_token);\n    earnThreshold = _earnThreshold * 1e18;\n    governance = tx.origin;\n    controller = _controller;\n  }\n\n  function balance() public view returns (uint) {\n    return token.balanceOf(address(this)).add(IController(controller).balanceOf(address(token)));\n  }\n\n  function setMin(uint _min) external {\n    require(msg.sender == governance, \"!governance\");\n    min = _min;\n  }\n\n  function setGovernance(address _governance) public {\n    require(msg.sender == governance, \"!governance\");\n    governance = _governance;\n  }\n\n  function setController(address _controller) public {\n    require(msg.sender == governance, \"!governance\");\n    controller = _controller;\n  }\n\n  function setEarnThreshold(uint256 _earnThreshold) public {\n    require(msg.sender == governance, \"!governance\");\n    earnThreshold = _earnThreshold * 1e18;\n  }\n\n  // Custom logic in here for how much the vault allows to be borrowed\n  // Sets minimum required on-hand to keep small withdrawals cheap\n  function available() public view returns (uint) {\n    return token.balanceOf(address(this)).mul(min).div(max);\n  }\n\n  function earn() public {\n    uint _bal = available();\n    token.safeTransfer(controller, _bal);\n    IController(controller).earn(address(token), _bal);\n  }\n\n  function depositAll() external {\n    deposit(token.balanceOf(msg.sender));\n  }\n\n  function deposit(uint _amount) public {\n    uint _pool = balance();\n    uint _before = token.balanceOf(address(this));\n    token.safeTransferFrom(msg.sender, address(this), _amount);\n    uint _after = token.balanceOf(address(this));\n    _amount = _after.sub(_before); // Additional check for deflationary tokens\n    uint shares = 0;\n    if (totalSupply() == 0) {\n      shares = _amount;\n    } else {\n      shares = (_amount.mul(totalSupply())).div(_pool);\n    }\n    _mint(msg.sender, shares);\n    if (token.balanceOf(address(this)) > earnThreshold) {\n      earn();\n    }\n  }\n\n  function withdrawAll() external {\n    withdraw(balanceOf(msg.sender));\n  }\n\n  // No rebalance implementation for lower fees and faster swaps\n  function withdraw(uint _shares) public {\n    uint r = (balance().mul(_shares)).div(totalSupply());\n    _burn(msg.sender, _shares);\n\n    // Check balance\n    uint b = token.balanceOf(address(this));\n    if (b < r) {\n      uint _withdraw = r.sub(b);\n      IController(controller).withdraw(address(token), _withdraw);\n      uint _after = token.balanceOf(address(this));\n      uint _diff = _after.sub(b);\n      if (_diff < _withdraw) {\n        r = b.add(_diff);\n      }\n    }\n\n    token.safeTransfer(msg.sender, r);\n  }\n\n  function getPricePerFullShare() public view returns (uint) {\n    return balance().mul(1e18).div(totalSupply());\n  }\n}",
  "sourcePath": "/Users/beex/dev/plouto-protocol/contracts/Vault.sol",
  "compiler": {
    "name": "solc",
    "version": "0.5.16+commit.9c3226ce.Emscripten.clang"
  },
  "schemaVersion": "3.2.4",
  "updatedAt": "2020-09-02T11:58:40.887Z",
  "networkType": "ethereum",
  "devdoc": {
    "methods": {
      "allowance(address,address)": {
        "details": "See {IERC20-allowance}."
      },
      "approve(address,uint256)": {
        "details": "See {IERC20-approve}.     * Requirements:     * - `spender` cannot be the zero address."
      },
      "balanceOf(address)": {
        "details": "See {IERC20-balanceOf}."
      },
      "decimals()": {
        "details": "Returns the number of decimals used to get its user representation. For example, if `decimals` equals `2`, a balance of `505` tokens should be displayed to a user as `5,05` (`505 / 10 ** 2`).     * Tokens usually opt for a value of 18, imitating the relationship between Ether and Wei.     * NOTE: This information is only used for _display_ purposes: it in no way affects any of the arithmetic of the contract, including {IERC20-balanceOf} and {IERC20-transfer}."
      },
      "decreaseAllowance(address,uint256)": {
        "details": "Atomically decreases the allowance granted to `spender` by the caller.     * This is an alternative to {approve} that can be used as a mitigation for problems described in {IERC20-approve}.     * Emits an {Approval} event indicating the updated allowance.     * Requirements:     * - `spender` cannot be the zero address. - `spender` must have allowance for the caller of at least `subtractedValue`."
      },
      "increaseAllowance(address,uint256)": {
        "details": "Atomically increases the allowance granted to `spender` by the caller.     * This is an alternative to {approve} that can be used as a mitigation for problems described in {IERC20-approve}.     * Emits an {Approval} event indicating the updated allowance.     * Requirements:     * - `spender` cannot be the zero address."
      },
      "name()": {
        "details": "Returns the name of the token."
      },
      "symbol()": {
        "details": "Returns the symbol of the token, usually a shorter version of the name."
      },
      "totalSupply()": {
        "details": "See {IERC20-totalSupply}."
      },
      "transfer(address,uint256)": {
        "details": "See {IERC20-transfer}.     * Requirements:     * - `recipient` cannot be the zero address. - the caller must have a balance of at least `amount`."
      },
      "transferFrom(address,address,uint256)": {
        "details": "See {IERC20-transferFrom}.     * Emits an {Approval} event indicating the updated allowance. This is not required by the EIP. See the note at the beginning of {ERC20};     * Requirements: - `sender` and `recipient` cannot be the zero address. - `sender` must have a balance of at least `amount`. - the caller must have allowance for `sender`'s tokens of at least `amount`."
      }
    }
  },
  "userdoc": {
    "methods": {}
  }
}